{
  "abi": [
    {
      "inputs": [
        {
          "internalType": "address",
          "name": "_inbox",
          "type": "address"
        }
      ],
      "stateMutability": "nonpayable",
      "type": "constructor"
    },
    {
      "inputs": [
        {
          "internalType": "uint32",
          "name": "_destinationDomain",
          "type": "uint32"
        },
        {
          "internalType": "bytes32",
          "name": "_recipientAddress",
          "type": "bytes32"
        },
        {
          "internalType": "bytes",
          "name": "_messageBody",
          "type": "bytes"
        }
      ],
      "name": "dispatch",
      "outputs": [],
      "stateMutability": "nonpayable",
      "type": "function"
    }
  ],
  "bytecode": {
    "object": "0x608060405234801561001057600080fd5b5060405161037838038061037883398101604081905261002f91610054565b600080546001600160a01b0319166001600160a01b0392909216919091179055610084565b60006020828403121561006657600080fd5b81516001600160a01b038116811461007d57600080fd5b9392505050565b6102e5806100936000396000f3fe608060405234801561001057600080fd5b506004361061002b5760003560e01c8063fa31de0114610030575b600080fd5b61004361003e36600461018b565b610045565b005b6100836040518060400160405280601781526020017f6f7574626f78202d206469737061746368696e672e2e2e000000000000000000815250610124565b6000546001600160a01b031663f366fac3338585856040518563ffffffff1660e01b81526004016100b7949392919061021d565b600060405180830381600087803b1580156100d157600080fd5b505af11580156100e5573d6000803e3d6000fd5b5050505061011e604051806040016040528060148152602001736f7574626f78202d20646973706174636865642160601b815250610124565b50505050565b61016781604051602401610138919061025a565b60408051601f198184030181529190526020810180516001600160e01b031663104c13eb60e21b17905261016a565b50565b80516a636f6e736f6c652e6c6f67602083016000808483855afa5050505050565b600080600080606085870312156101a157600080fd5b843563ffffffff811681146101b557600080fd5b935060208501359250604085013567ffffffffffffffff808211156101d957600080fd5b818701915087601f8301126101ed57600080fd5b8135818111156101fc57600080fd5b88602082850101111561020e57600080fd5b95989497505060200194505050565b84815283602082015260606040820152816060820152818360808301376000818301608090810191909152601f909201601f191601019392505050565b600060208083528351808285015260005b818110156102875785810183015185820160400152820161026b565b81811115610299576000604083870101525b50601f01601f191692909201604001939250505056fea2646970667358221220af11b3593c6f2fc594ba8d162540b7b1d95a910560b2a5ed449ed67175f0661e64736f6c634300080b0033",
    "linkReferences": {}
  },
  "methodIdentifiers": {
    "dispatch(uint32,bytes32,bytes)": "fa31de01"
  },
  "id": 52
}