{
  "abi": [
    {
      "inputs": [],
      "name": "NotImplemented",
      "type": "error"
    },
    {
      "anonymous": false,
      "inputs": [
        {
          "indexed": true,
          "internalType": "address",
          "name": "owner",
          "type": "address"
        },
        {
          "indexed": true,
          "internalType": "address",
          "name": "spender",
          "type": "address"
        },
        {
          "indexed": false,
          "internalType": "uint256",
          "name": "value",
          "type": "uint256"
        }
      ],
      "name": "Approval",
      "type": "event"
    },
    {
      "anonymous": false,
      "inputs": [
        {
          "indexed": false,
          "internalType": "uint8",
          "name": "version",
          "type": "uint8"
        }
      ],
      "name": "Initialized",
      "type": "event"
    },
    {
      "anonymous": false,
      "inputs": [
        {
          "indexed": true,
          "internalType": "address",
          "name": "tCO2",
          "type": "address"
        },
        {
          "indexed": true,
          "internalType": "uint256",
          "name": "amountXCO2",
          "type": "uint256"
        },
        {
          "indexed": true,
          "internalType": "address",
          "name": "beneificiary",
          "type": "address"
        }
      ],
      "name": "Offset",
      "type": "event"
    },
    {
      "anonymous": false,
      "inputs": [
        {
          "indexed": true,
          "internalType": "address",
          "name": "tCO2",
          "type": "address"
        },
        {
          "indexed": true,
          "internalType": "uint256",
          "name": "amountXCO2",
          "type": "uint256"
        },
        {
          "indexed": true,
          "internalType": "address",
          "name": "beneficiary",
          "type": "address"
        },
        {
          "indexed": false,
          "internalType": "uint32",
          "name": "destination",
          "type": "uint32"
        }
      ],
      "name": "OffsetRemote",
      "type": "event"
    },
    {
      "anonymous": false,
      "inputs": [
        {
          "indexed": true,
          "internalType": "address",
          "name": "previousOwner",
          "type": "address"
        },
        {
          "indexed": true,
          "internalType": "address",
          "name": "newOwner",
          "type": "address"
        }
      ],
      "name": "OwnershipTransferred",
      "type": "event"
    },
    {
      "anonymous": false,
      "inputs": [
        {
          "indexed": true,
          "internalType": "address",
          "name": "from",
          "type": "address"
        },
        {
          "indexed": true,
          "internalType": "address",
          "name": "to",
          "type": "address"
        },
        {
          "indexed": false,
          "internalType": "uint256",
          "name": "value",
          "type": "uint256"
        }
      ],
      "name": "Transfer",
      "type": "event"
    },
    {
      "inputs": [
        {
          "internalType": "address",
          "name": "owner",
          "type": "address"
        },
        {
          "internalType": "address",
          "name": "spender",
          "type": "address"
        }
      ],
      "name": "allowance",
      "outputs": [
        {
          "internalType": "uint256",
          "name": "",
          "type": "uint256"
        }
      ],
      "stateMutability": "view",
      "type": "function"
    },
    {
      "inputs": [
        {
          "internalType": "address",
          "name": "spender",
          "type": "address"
        },
        {
          "internalType": "uint256",
          "name": "amount",
          "type": "uint256"
        }
      ],
      "name": "approve",
      "outputs": [
        {
          "internalType": "bool",
          "name": "",
          "type": "bool"
        }
      ],
      "stateMutability": "nonpayable",
      "type": "function"
    },
    {
      "inputs": [
        {
          "internalType": "address",
          "name": "account",
          "type": "address"
        }
      ],
      "name": "balanceOf",
      "outputs": [
        {
          "internalType": "uint256",
          "name": "",
          "type": "uint256"
        }
      ],
      "stateMutability": "view",
      "type": "function"
    },
    {
      "inputs": [],
      "name": "decimals",
      "outputs": [
        {
          "internalType": "uint8",
          "name": "",
          "type": "uint8"
        }
      ],
      "stateMutability": "view",
      "type": "function"
    },
    {
      "inputs": [
        {
          "internalType": "address",
          "name": "spender",
          "type": "address"
        },
        {
          "internalType": "uint256",
          "name": "subtractedValue",
          "type": "uint256"
        }
      ],
      "name": "decreaseAllowance",
      "outputs": [
        {
          "internalType": "bool",
          "name": "",
          "type": "bool"
        }
      ],
      "stateMutability": "nonpayable",
      "type": "function"
    },
    {
      "inputs": [
        {
          "internalType": "uint256",
          "name": "amount",
          "type": "uint256"
        }
      ],
      "name": "fromUSD",
      "outputs": [
        {
          "internalType": "uint256",
          "name": "",
          "type": "uint256"
        }
      ],
      "stateMutability": "view",
      "type": "function"
    },
    {
      "inputs": [
        {
          "internalType": "address",
          "name": "spender",
          "type": "address"
        },
        {
          "internalType": "uint256",
          "name": "addedValue",
          "type": "uint256"
        }
      ],
      "name": "increaseAllowance",
      "outputs": [
        {
          "internalType": "bool",
          "name": "",
          "type": "bool"
        }
      ],
      "stateMutability": "nonpayable",
      "type": "function"
    },
    {
      "inputs": [
        {
          "internalType": "address",
          "name": "_outbox",
          "type": "address"
        },
        {
          "internalType": "address",
          "name": "_xUSDC",
          "type": "address"
        },
        {
          "internalType": "string",
          "name": "_name",
          "type": "string"
        },
        {
          "internalType": "string",
          "name": "_symbol",
          "type": "string"
        }
      ],
      "name": "initialize",
      "outputs": [],
      "stateMutability": "nonpayable",
      "type": "function"
    },
    {
      "inputs": [],
      "name": "name",
      "outputs": [
        {
          "internalType": "string",
          "name": "",
          "type": "string"
        }
      ],
      "stateMutability": "view",
      "type": "function"
    },
    {
      "inputs": [
        {
          "internalType": "address",
          "name": "_tCO2",
          "type": "address"
        },
        {
          "internalType": "uint256",
          "name": "_amountXCO2",
          "type": "uint256"
        },
        {
          "internalType": "address",
          "name": "_beneficiary",
          "type": "address"
        }
      ],
      "name": "offsetX",
      "outputs": [],
      "stateMutability": "payable",
      "type": "function"
    },
    {
      "inputs": [],
      "name": "oracle",
      "outputs": [
        {
          "internalType": "address",
          "name": "",
          "type": "address"
        }
      ],
      "stateMutability": "view",
      "type": "function"
    },
    {
      "inputs": [],
      "name": "owner",
      "outputs": [
        {
          "internalType": "address",
          "name": "",
          "type": "address"
        }
      ],
      "stateMutability": "view",
      "type": "function"
    },
    {
      "inputs": [],
      "name": "renounceOwnership",
      "outputs": [],
      "stateMutability": "nonpayable",
      "type": "function"
    },
    {
      "inputs": [
        {
          "internalType": "address",
          "name": "_oracle",
          "type": "address"
        }
      ],
      "name": "setDependencies",
      "outputs": [],
      "stateMutability": "nonpayable",
      "type": "function"
    },
    {
      "inputs": [],
      "name": "symbol",
      "outputs": [
        {
          "internalType": "string",
          "name": "",
          "type": "string"
        }
      ],
      "stateMutability": "view",
      "type": "function"
    },
    {
      "inputs": [
        {
          "internalType": "uint256",
          "name": "amount",
          "type": "uint256"
        }
      ],
      "name": "toUSD",
      "outputs": [
        {
          "internalType": "uint256",
          "name": "",
          "type": "uint256"
        }
      ],
      "stateMutability": "view",
      "type": "function"
    },
    {
      "inputs": [],
      "name": "totalSupply",
      "outputs": [
        {
          "internalType": "uint256",
          "name": "",
          "type": "uint256"
        }
      ],
      "stateMutability": "view",
      "type": "function"
    },
    {
      "inputs": [
        {
          "internalType": "address",
          "name": "to",
          "type": "address"
        },
        {
          "internalType": "uint256",
          "name": "amount",
          "type": "uint256"
        }
      ],
      "name": "transfer",
      "outputs": [
        {
          "internalType": "bool",
          "name": "",
          "type": "bool"
        }
      ],
      "stateMutability": "nonpayable",
      "type": "function"
    },
    {
      "inputs": [
        {
          "internalType": "address",
          "name": "from",
          "type": "address"
        },
        {
          "internalType": "address",
          "name": "to",
          "type": "address"
        },
        {
          "internalType": "uint256",
          "name": "amount",
          "type": "uint256"
        }
      ],
      "name": "transferFrom",
      "outputs": [
        {
          "internalType": "bool",
          "name": "",
          "type": "bool"
        }
      ],
      "stateMutability": "nonpayable",
      "type": "function"
    },
    {
      "inputs": [
        {
          "internalType": "address",
          "name": "newOwner",
          "type": "address"
        }
      ],
      "name": "transferOwnership",
      "outputs": [],
      "stateMutability": "nonpayable",
      "type": "function"
    },
    {
      "inputs": [],
      "name": "withdrawFunds",
      "outputs": [],
      "stateMutability": "nonpayable",
      "type": "function"
    }
  ],
  "bytecode": {
    "object": "0x608060405234801561001057600080fd5b5061155b806100206000396000f3fe60806040526004361061012a5760003560e01c80637dc0d1d0116100ab5780639d9969ed1161006f5780639d9969ed14610332578063a457c2d714610352578063a9059cbb14610372578063dd62ed3e14610392578063e08eeb97146103b2578063f2fde38b146103c557600080fd5b80637dc0d1d0146102875780638389cb18146102bf5780638da5cb5b146102df57806394a74a37146102fd57806395d89b411461031d57600080fd5b806324600fc3116100f257806324600fc3146101eb578063313ce56714610200578063395093511461021c57806370a082311461023c578063715018a61461027257600080fd5b806306fdde031461012f578063095ea7b31461015a57806318160ddd1461018a5780632016a0d2146101a957806323b872dd146101cb575b600080fd5b34801561013b57600080fd5b506101446103e5565b6040516101519190611099565b60405180910390f35b34801561016657600080fd5b5061017a6101753660046110c8565b610477565b6040519015158152602001610151565b34801561019657600080fd5b506035545b604051908152602001610151565b3480156101b557600080fd5b506101c96101c4366004611195565b610491565b005b3480156101d757600080fd5b5061017a6101e636600461121a565b6105e6565b3480156101f757600080fd5b506101c961060a565b34801561020c57600080fd5b5060405160128152602001610151565b34801561022857600080fd5b5061017a6102373660046110c8565b61062f565b34801561024857600080fd5b5061019b610257366004611256565b6001600160a01b031660009081526033602052604090205490565b34801561027e57600080fd5b506101c9610651565b34801561029357600080fd5b506099546102a7906001600160a01b031681565b6040516001600160a01b039091168152602001610151565b3480156102cb57600080fd5b506101c96102da366004611256565b610665565b3480156102eb57600080fd5b506065546001600160a01b03166102a7565b34801561030957600080fd5b5061019b610318366004611271565b61068f565b34801561032957600080fd5b506101446107a9565b34801561033e57600080fd5b5061019b61034d366004611271565b6107b8565b34801561035e57600080fd5b5061017a61036d3660046110c8565b6108c0565b34801561037e57600080fd5b5061017a61038d3660046110c8565b61093b565b34801561039e57600080fd5b5061019b6103ad36600461128a565b610949565b6101c96103c03660046112bd565b610974565b3480156103d157600080fd5b506101c96103e0366004611256565b610abd565b6060603680546103f4906112f9565b80601f0160208091040260200160405190810160405280929190818152602001828054610420906112f9565b801561046d5780601f106104425761010080835404028352916020019161046d565b820191906000526020600020905b81548152906001019060200180831161045057829003601f168201915b5050505050905090565b600033610485818585610b36565b60019150505b92915050565b600054610100900460ff16158080156104b15750600054600160ff909116105b806104cb5750303b1580156104cb575060005460ff166001145b6105335760405162461bcd60e51b815260206004820152602e60248201527f496e697469616c697a61626c653a20636f6e747261637420697320616c72656160448201526d191e481a5b9a5d1a585b1a5e995960921b60648201526084015b60405180910390fd5b6000805460ff191660011790558015610556576000805461ff0019166101001790555b61055f33610abd565b609780546001600160a01b038088166001600160a01b03199283161790925560988054928716929091169190911790556105998383610c5a565b80156105df576000805461ff0019169055604051600181527f7f26b83ff96e1f2b6a682f133852f6798a09c465da95921460cefb38474024989060200160405180910390a15b5050505050565b6000336105f4858285610c8f565b6105ff858585610d09565b506001949350505050565b610612610eb4565b60405133904780156108fc02916000818181858888f15050505050565b6000336104858185856106428383610949565b61064c919061134a565b610b36565b610659610eb4565b6106636000610f0e565b565b61066d610eb4565b609980546001600160a01b0319166001600160a01b0392909216919091179055565b600080609960009054906101000a90046001600160a01b03166001600160a01b03166350d25bcd6040518163ffffffff1660e01b8152600401602060405180830381865afa1580156106e5573d6000803e3d6000fd5b505050506040513d601f19601f820116820180604052508101906107099190611362565b905080609960009054906101000a90046001600160a01b03166001600160a01b031663313ce5676040518163ffffffff1660e01b8152600401602060405180830381865afa15801561075f573d6000803e3d6000fd5b505050506040513d601f19601f820116820180604052508101906107839190611362565b61078e90600a61145f565b610798908561146b565b6107a2919061148a565b9392505050565b6060603780546103f4906112f9565b600080609960009054906101000a90046001600160a01b03166001600160a01b03166350d25bcd6040518163ffffffff1660e01b8152600401602060405180830381865afa15801561080e573d6000803e3d6000fd5b505050506040513d601f19601f820116820180604052508101906108329190611362565b9050609960009054906101000a90046001600160a01b03166001600160a01b031663313ce5676040518163ffffffff1660e01b8152600401602060405180830381865afa158015610887573d6000803e3d6000fd5b505050506040513d601f19601f820116820180604052508101906108ab9190611362565b6108b690600a61145f565b610798848361146b565b600033816108ce8286610949565b90508381101561092e5760405162461bcd60e51b815260206004820152602560248201527f45524332303a2064656372656173656420616c6c6f77616e63652062656c6f77604482015264207a65726f60d81b606482015260840161052a565b6105ff8286868403610b36565b600033610485818585610d09565b6001600160a01b03918216600090815260346020908152604080832093909416825291909152205490565b8161097e346107b8565b10156109c25760405162461bcd60e51b81526020600482015260136024820152722737ba1032b737bab3b4103337b9103c21a79960691b604482015260640161052a565b609754609854604080516001600160a01b03878116602083015291810186905284821660608201529281169263fa31de019263706f6c799216906080016040516020818303038152906040526040518463ffffffff1660e01b8152600401610a2c939291906114ac565b6020604051808303816000875af1158015610a4b573d6000803e3d6000fd5b505050506040513d601f19601f82011682018060405250810190610a6f9190611362565b5060405163706f6c7981526001600160a01b038083169184918616907f917e03cbde5457cdbf299beea5ca8b2a8ac6b1e85030cf06275ec8ecb519c5fa9060200160405180910390a4505050565b610ac5610eb4565b6001600160a01b038116610b2a5760405162461bcd60e51b815260206004820152602660248201527f4f776e61626c653a206e6577206f776e657220697320746865207a65726f206160448201526564647265737360d01b606482015260840161052a565b610b3381610f0e565b50565b6001600160a01b038316610b985760405162461bcd60e51b8152602060048201526024808201527f45524332303a20617070726f76652066726f6d20746865207a65726f206164646044820152637265737360e01b606482015260840161052a565b6001600160a01b038216610bf95760405162461bcd60e51b815260206004820152602260248201527f45524332303a20617070726f766520746f20746865207a65726f206164647265604482015261737360f01b606482015260840161052a565b6001600160a01b0383811660008181526034602090815260408083209487168084529482529182902085905590518481527f8c5be1e5ebec7d5bd14f71427d1e84f3dd0314c0f7b2291e5b200ac8c7c3b925910160405180910390a3505050565b600054610100900460ff16610c815760405162461bcd60e51b815260040161052a906114da565b610c8b8282610f60565b5050565b6000610c9b8484610949565b90506000198114610d035781811015610cf65760405162461bcd60e51b815260206004820152601d60248201527f45524332303a20696e73756666696369656e7420616c6c6f77616e6365000000604482015260640161052a565b610d038484848403610b36565b50505050565b6001600160a01b038316610d6d5760405162461bcd60e51b815260206004820152602560248201527f45524332303a207472616e736665722066726f6d20746865207a65726f206164604482015264647265737360d81b606482015260840161052a565b6001600160a01b038216610dcf5760405162461bcd60e51b815260206004820152602360248201527f45524332303a207472616e7366657220746f20746865207a65726f206164647260448201526265737360e81b606482015260840161052a565b6001600160a01b03831660009081526033602052604090205481811015610e475760405162461bcd60e51b815260206004820152602660248201527f45524332303a207472616e7366657220616d6f756e7420657863656564732062604482015265616c616e636560d01b606482015260840161052a565b6001600160a01b0380851660008181526033602052604080822086860390559286168082529083902080548601905591517fddf252ad1be2c89b69c2b068fc378daa952ba7f163c4a11628f55a4df523b3ef90610ea79086815260200190565b60405180910390a3610d03565b6065546001600160a01b031633146106635760405162461bcd60e51b815260206004820181905260248201527f4f776e61626c653a2063616c6c6572206973206e6f7420746865206f776e6572604482015260640161052a565b606580546001600160a01b038381166001600160a01b0319831681179093556040519116919082907f8be0079c531659141344cd1fd0a4f28419497f9722a3daafe3b4186f6b6457e090600090a35050565b600054610100900460ff16610f875760405162461bcd60e51b815260040161052a906114da565b8151610f9a906036906020850190610fb3565b508051610fae906037906020840190610fb3565b505050565b828054610fbf906112f9565b90600052602060002090601f016020900481019282610fe15760008555611027565b82601f10610ffa57805160ff1916838001178555611027565b82800160010185558215611027579182015b8281111561102757825182559160200191906001019061100c565b50611033929150611037565b5090565b5b808211156110335760008155600101611038565b6000815180845260005b8181101561107257602081850181015186830182015201611056565b81811115611084576000602083870101525b50601f01601f19169290920160200192915050565b6020815260006107a2602083018461104c565b80356001600160a01b03811681146110c357600080fd5b919050565b600080604083850312156110db57600080fd5b6110e4836110ac565b946020939093013593505050565b634e487b7160e01b600052604160045260246000fd5b600082601f83011261111957600080fd5b813567ffffffffffffffff80821115611134576111346110f2565b604051601f8301601f19908116603f0116810190828211818310171561115c5761115c6110f2565b8160405283815286602085880101111561117557600080fd5b836020870160208301376000602085830101528094505050505092915050565b600080600080608085870312156111ab57600080fd5b6111b4856110ac565b93506111c2602086016110ac565b9250604085013567ffffffffffffffff808211156111df57600080fd5b6111eb88838901611108565b9350606087013591508082111561120157600080fd5b5061120e87828801611108565b91505092959194509250565b60008060006060848603121561122f57600080fd5b611238846110ac565b9250611246602085016110ac565b9150604084013590509250925092565b60006020828403121561126857600080fd5b6107a2826110ac565b60006020828403121561128357600080fd5b5035919050565b6000806040838503121561129d57600080fd5b6112a6836110ac565b91506112b4602084016110ac565b90509250929050565b6000806000606084860312156112d257600080fd5b6112db846110ac565b9250602084013591506112f0604085016110ac565b90509250925092565b600181811c9082168061130d57607f821691505b6020821081141561132e57634e487b7160e01b600052602260045260246000fd5b50919050565b634e487b7160e01b600052601160045260246000fd5b6000821982111561135d5761135d611334565b500190565b60006020828403121561137457600080fd5b5051919050565b600181815b808511156113b657816000190482111561139c5761139c611334565b808516156113a957918102915b93841c9390800290611380565b509250929050565b6000826113cd5750600161048b565b816113da5750600061048b565b81600181146113f057600281146113fa57611416565b600191505061048b565b60ff84111561140b5761140b611334565b50506001821b61048b565b5060208310610133831016604e8410600b8410161715611439575081810a61048b565b611443838361137b565b806000190482111561145757611457611334565b029392505050565b60006107a283836113be565b600081600019048311821515161561148557611485611334565b500290565b6000826114a757634e487b7160e01b600052601260045260246000fd5b500490565b63ffffffff841681528260208201526060604082015260006114d1606083018461104c565b95945050505050565b6020808252602b908201527f496e697469616c697a61626c653a20636f6e7472616374206973206e6f74206960408201526a6e697469616c697a696e6760a81b60608201526080019056fea2646970667358221220ad0d5ed76f8988cd13852610d1977cd7ffd0e4519566eee175286850cd8ed91864736f6c634300080b0033",
    "linkReferences": {}
  },
  "methodIdentifiers": {
    "allowance(address,address)": "dd62ed3e",
    "approve(address,uint256)": "095ea7b3",
    "balanceOf(address)": "70a08231",
    "decimals()": "313ce567",
    "decreaseAllowance(address,uint256)": "a457c2d7",
    "fromUSD(uint256)": "94a74a37",
    "increaseAllowance(address,uint256)": "39509351",
    "initialize(address,address,string,string)": "2016a0d2",
    "name()": "06fdde03",
    "offsetX(address,uint256,address)": "e08eeb97",
    "oracle()": "7dc0d1d0",
    "owner()": "8da5cb5b",
    "renounceOwnership()": "715018a6",
    "setDependencies(address)": "8389cb18",
    "symbol()": "95d89b41",
    "toUSD(uint256)": "9d9969ed",
    "totalSupply()": "18160ddd",
    "transfer(address,uint256)": "a9059cbb",
    "transferFrom(address,address,uint256)": "23b872dd",
    "transferOwnership(address)": "f2fde38b",
    "withdrawFunds()": "24600fc3"
  },
  "id": 49
}