{
  "abi": [
    {
      "inputs": [],
      "name": "NotImplemented",
      "type": "error"
    },
    {
      "anonymous": false,
      "inputs": [
        {
          "indexed": true,
          "internalType": "address",
          "name": "owner",
          "type": "address"
        },
        {
          "indexed": true,
          "internalType": "address",
          "name": "spender",
          "type": "address"
        },
        {
          "indexed": false,
          "internalType": "uint256",
          "name": "value",
          "type": "uint256"
        }
      ],
      "name": "Approval",
      "type": "event"
    },
    {
      "anonymous": false,
      "inputs": [
        {
          "indexed": false,
          "internalType": "uint8",
          "name": "version",
          "type": "uint8"
        }
      ],
      "name": "Initialized",
      "type": "event"
    },
    {
      "anonymous": false,
      "inputs": [
        {
          "indexed": true,
          "internalType": "address",
          "name": "tCO2",
          "type": "address"
        },
        {
          "indexed": true,
          "internalType": "uint256",
          "name": "amountXCO2",
          "type": "uint256"
        },
        {
          "indexed": true,
          "internalType": "address",
          "name": "beneificiary",
          "type": "address"
        }
      ],
      "name": "Offset",
      "type": "event"
    },
    {
      "anonymous": false,
      "inputs": [
        {
          "indexed": true,
          "internalType": "address",
          "name": "tCO2",
          "type": "address"
        },
        {
          "indexed": true,
          "internalType": "uint256",
          "name": "amountXCO2",
          "type": "uint256"
        },
        {
          "indexed": true,
          "internalType": "address",
          "name": "beneficiary",
          "type": "address"
        },
        {
          "indexed": false,
          "internalType": "uint32",
          "name": "destination",
          "type": "uint32"
        }
      ],
      "name": "OffsetRemote",
      "type": "event"
    },
    {
      "anonymous": false,
      "inputs": [
        {
          "indexed": true,
          "internalType": "address",
          "name": "previousOwner",
          "type": "address"
        },
        {
          "indexed": true,
          "internalType": "address",
          "name": "newOwner",
          "type": "address"
        }
      ],
      "name": "OwnershipTransferred",
      "type": "event"
    },
    {
      "anonymous": false,
      "inputs": [
        {
          "indexed": true,
          "internalType": "address",
          "name": "from",
          "type": "address"
        },
        {
          "indexed": true,
          "internalType": "address",
          "name": "to",
          "type": "address"
        },
        {
          "indexed": false,
          "internalType": "uint256",
          "name": "value",
          "type": "uint256"
        }
      ],
      "name": "Transfer",
      "type": "event"
    },
    {
      "inputs": [
        {
          "internalType": "address",
          "name": "owner",
          "type": "address"
        },
        {
          "internalType": "address",
          "name": "spender",
          "type": "address"
        }
      ],
      "name": "allowance",
      "outputs": [
        {
          "internalType": "uint256",
          "name": "",
          "type": "uint256"
        }
      ],
      "stateMutability": "view",
      "type": "function"
    },
    {
      "inputs": [
        {
          "internalType": "address",
          "name": "spender",
          "type": "address"
        },
        {
          "internalType": "uint256",
          "name": "amount",
          "type": "uint256"
        }
      ],
      "name": "approve",
      "outputs": [
        {
          "internalType": "bool",
          "name": "",
          "type": "bool"
        }
      ],
      "stateMutability": "nonpayable",
      "type": "function"
    },
    {
      "inputs": [
        {
          "internalType": "address",
          "name": "account",
          "type": "address"
        }
      ],
      "name": "balanceOf",
      "outputs": [
        {
          "internalType": "uint256",
          "name": "",
          "type": "uint256"
        }
      ],
      "stateMutability": "view",
      "type": "function"
    },
    {
      "inputs": [],
      "name": "decimals",
      "outputs": [
        {
          "internalType": "uint8",
          "name": "",
          "type": "uint8"
        }
      ],
      "stateMutability": "view",
      "type": "function"
    },
    {
      "inputs": [
        {
          "internalType": "address",
          "name": "spender",
          "type": "address"
        },
        {
          "internalType": "uint256",
          "name": "subtractedValue",
          "type": "uint256"
        }
      ],
      "name": "decreaseAllowance",
      "outputs": [
        {
          "internalType": "bool",
          "name": "",
          "type": "bool"
        }
      ],
      "stateMutability": "nonpayable",
      "type": "function"
    },
    {
      "inputs": [
        {
          "internalType": "uint256",
          "name": "amount",
          "type": "uint256"
        }
      ],
      "name": "fromUSD",
      "outputs": [
        {
          "internalType": "uint256",
          "name": "",
          "type": "uint256"
        }
      ],
      "stateMutability": "view",
      "type": "function"
    },
    {
      "inputs": [
        {
          "internalType": "address",
          "name": "spender",
          "type": "address"
        },
        {
          "internalType": "uint256",
          "name": "addedValue",
          "type": "uint256"
        }
      ],
      "name": "increaseAllowance",
      "outputs": [
        {
          "internalType": "bool",
          "name": "",
          "type": "bool"
        }
      ],
      "stateMutability": "nonpayable",
      "type": "function"
    },
    {
      "inputs": [
        {
          "internalType": "address",
          "name": "_outbox",
          "type": "address"
        },
        {
          "internalType": "address",
          "name": "_xUSDC",
          "type": "address"
        },
        {
          "internalType": "string",
          "name": "_name",
          "type": "string"
        },
        {
          "internalType": "string",
          "name": "_symbol",
          "type": "string"
        }
      ],
      "name": "initialize",
      "outputs": [],
      "stateMutability": "nonpayable",
      "type": "function"
    },
    {
      "inputs": [],
      "name": "name",
      "outputs": [
        {
          "internalType": "string",
          "name": "",
          "type": "string"
        }
      ],
      "stateMutability": "view",
      "type": "function"
    },
    {
      "inputs": [
        {
          "internalType": "address",
          "name": "_tCO2",
          "type": "address"
        },
        {
          "internalType": "uint256",
          "name": "_amountXCO2",
          "type": "uint256"
        },
        {
          "internalType": "address",
          "name": "_beneficiary",
          "type": "address"
        }
      ],
      "name": "offsetX",
      "outputs": [],
      "stateMutability": "payable",
      "type": "function"
    },
    {
      "inputs": [],
      "name": "oracle",
      "outputs": [
        {
          "internalType": "address",
          "name": "",
          "type": "address"
        }
      ],
      "stateMutability": "view",
      "type": "function"
    },
    {
      "inputs": [],
      "name": "outbox",
      "outputs": [
        {
          "internalType": "address",
          "name": "",
          "type": "address"
        }
      ],
      "stateMutability": "view",
      "type": "function"
    },
    {
      "inputs": [],
      "name": "owner",
      "outputs": [
        {
          "internalType": "address",
          "name": "",
          "type": "address"
        }
      ],
      "stateMutability": "view",
      "type": "function"
    },
    {
      "inputs": [],
      "name": "renounceOwnership",
      "outputs": [],
      "stateMutability": "nonpayable",
      "type": "function"
    },
    {
      "inputs": [
        {
          "internalType": "address",
          "name": "_oracle",
          "type": "address"
        }
      ],
      "name": "setDependencies",
      "outputs": [],
      "stateMutability": "nonpayable",
      "type": "function"
    },
    {
      "inputs": [],
      "name": "symbol",
      "outputs": [
        {
          "internalType": "string",
          "name": "",
          "type": "string"
        }
      ],
      "stateMutability": "view",
      "type": "function"
    },
    {
      "inputs": [
        {
          "internalType": "uint256",
          "name": "amount",
          "type": "uint256"
        }
      ],
      "name": "toUSD",
      "outputs": [
        {
          "internalType": "uint256",
          "name": "",
          "type": "uint256"
        }
      ],
      "stateMutability": "view",
      "type": "function"
    },
    {
      "inputs": [],
      "name": "totalSupply",
      "outputs": [
        {
          "internalType": "uint256",
          "name": "",
          "type": "uint256"
        }
      ],
      "stateMutability": "view",
      "type": "function"
    },
    {
      "inputs": [
        {
          "internalType": "address",
          "name": "to",
          "type": "address"
        },
        {
          "internalType": "uint256",
          "name": "amount",
          "type": "uint256"
        }
      ],
      "name": "transfer",
      "outputs": [
        {
          "internalType": "bool",
          "name": "",
          "type": "bool"
        }
      ],
      "stateMutability": "nonpayable",
      "type": "function"
    },
    {
      "inputs": [
        {
          "internalType": "address",
          "name": "from",
          "type": "address"
        },
        {
          "internalType": "address",
          "name": "to",
          "type": "address"
        },
        {
          "internalType": "uint256",
          "name": "amount",
          "type": "uint256"
        }
      ],
      "name": "transferFrom",
      "outputs": [
        {
          "internalType": "bool",
          "name": "",
          "type": "bool"
        }
      ],
      "stateMutability": "nonpayable",
      "type": "function"
    },
    {
      "inputs": [
        {
          "internalType": "address",
          "name": "newOwner",
          "type": "address"
        }
      ],
      "name": "transferOwnership",
      "outputs": [],
      "stateMutability": "nonpayable",
      "type": "function"
    },
    {
      "inputs": [],
      "name": "withdrawFunds",
      "outputs": [],
      "stateMutability": "nonpayable",
      "type": "function"
    },
    {
      "inputs": [],
      "name": "xUSDC",
      "outputs": [
        {
          "internalType": "address",
          "name": "",
          "type": "address"
        }
      ],
      "stateMutability": "view",
      "type": "function"
    }
  ],
  "bytecode": {
    "object": "0x608060405234801561001057600080fd5b506115b1806100206000396000f3fe6080604052600436106101405760003560e01c80638389cb18116100b6578063a9059cbb1161006f578063a9059cbb14610388578063ce11e6ab146103a8578063dd62ed3e146103c8578063e08eeb97146103e8578063e4057027146103fb578063f2fde38b1461041b57600080fd5b80638389cb18146102d55780638da5cb5b146102f557806394a74a371461031357806395d89b41146103335780639d9969ed14610348578063a457c2d71461036857600080fd5b806324600fc31161010857806324600fc314610201578063313ce56714610216578063395093511461023257806370a0823114610252578063715018a6146102885780637dc0d1d01461029d57600080fd5b806306fdde0314610145578063095ea7b31461017057806318160ddd146101a05780632016a0d2146101bf57806323b872dd146101e1575b600080fd5b34801561015157600080fd5b5061015a61043b565b60405161016791906110ef565b60405180910390f35b34801561017c57600080fd5b5061019061018b36600461111e565b6104cd565b6040519015158152602001610167565b3480156101ac57600080fd5b506035545b604051908152602001610167565b3480156101cb57600080fd5b506101df6101da3660046111eb565b6104e7565b005b3480156101ed57600080fd5b506101906101fc366004611270565b61063c565b34801561020d57600080fd5b506101df610660565b34801561022257600080fd5b5060405160128152602001610167565b34801561023e57600080fd5b5061019061024d36600461111e565b610685565b34801561025e57600080fd5b506101b161026d3660046112ac565b6001600160a01b031660009081526033602052604090205490565b34801561029457600080fd5b506101df6106a7565b3480156102a957600080fd5b506099546102bd906001600160a01b031681565b6040516001600160a01b039091168152602001610167565b3480156102e157600080fd5b506101df6102f03660046112ac565b6106bb565b34801561030157600080fd5b506065546001600160a01b03166102bd565b34801561031f57600080fd5b506101b161032e3660046112c7565b6106e5565b34801561033f57600080fd5b5061015a6107ff565b34801561035457600080fd5b506101b16103633660046112c7565b61080e565b34801561037457600080fd5b5061019061038336600461111e565b610916565b34801561039457600080fd5b506101906103a336600461111e565b610991565b3480156103b457600080fd5b506097546102bd906001600160a01b031681565b3480156103d457600080fd5b506101b16103e33660046112e0565b61099f565b6101df6103f6366004611313565b6109ca565b34801561040757600080fd5b506098546102bd906001600160a01b031681565b34801561042757600080fd5b506101df6104363660046112ac565b610b13565b60606036805461044a9061134f565b80601f01602080910402602001604051908101604052809291908181526020018280546104769061134f565b80156104c35780601f10610498576101008083540402835291602001916104c3565b820191906000526020600020905b8154815290600101906020018083116104a657829003601f168201915b5050505050905090565b6000336104db818585610b8c565b60019150505b92915050565b600054610100900460ff16158080156105075750600054600160ff909116105b806105215750303b158015610521575060005460ff166001145b6105895760405162461bcd60e51b815260206004820152602e60248201527f496e697469616c697a61626c653a20636f6e747261637420697320616c72656160448201526d191e481a5b9a5d1a585b1a5e995960921b60648201526084015b60405180910390fd5b6000805460ff1916600117905580156105ac576000805461ff0019166101001790555b6105b533610b13565b609780546001600160a01b038088166001600160a01b03199283161790925560988054928716929091169190911790556105ef8383610cb0565b8015610635576000805461ff0019169055604051600181527f7f26b83ff96e1f2b6a682f133852f6798a09c465da95921460cefb38474024989060200160405180910390a15b5050505050565b60003361064a858285610ce5565b610655858585610d5f565b506001949350505050565b610668610f0a565b60405133904780156108fc02916000818181858888f15050505050565b6000336104db818585610698838361099f565b6106a291906113a0565b610b8c565b6106af610f0a565b6106b96000610f64565b565b6106c3610f0a565b609980546001600160a01b0319166001600160a01b0392909216919091179055565b600080609960009054906101000a90046001600160a01b03166001600160a01b03166350d25bcd6040518163ffffffff1660e01b8152600401602060405180830381865afa15801561073b573d6000803e3d6000fd5b505050506040513d601f19601f8201168201806040525081019061075f91906113b8565b905080609960009054906101000a90046001600160a01b03166001600160a01b031663313ce5676040518163ffffffff1660e01b8152600401602060405180830381865afa1580156107b5573d6000803e3d6000fd5b505050506040513d601f19601f820116820180604052508101906107d991906113b8565b6107e490600a6114b5565b6107ee90856114c1565b6107f891906114e0565b9392505050565b60606037805461044a9061134f565b600080609960009054906101000a90046001600160a01b03166001600160a01b03166350d25bcd6040518163ffffffff1660e01b8152600401602060405180830381865afa158015610864573d6000803e3d6000fd5b505050506040513d601f19601f8201168201806040525081019061088891906113b8565b9050609960009054906101000a90046001600160a01b03166001600160a01b031663313ce5676040518163ffffffff1660e01b8152600401602060405180830381865afa1580156108dd573d6000803e3d6000fd5b505050506040513d601f19601f8201168201806040525081019061090191906113b8565b61090c90600a6114b5565b6107ee84836114c1565b60003381610924828661099f565b9050838110156109845760405162461bcd60e51b815260206004820152602560248201527f45524332303a2064656372656173656420616c6c6f77616e63652062656c6f77604482015264207a65726f60d81b6064820152608401610580565b6106558286868403610b8c565b6000336104db818585610d5f565b6001600160a01b03918216600090815260346020908152604080832093909416825291909152205490565b816109d43461080e565b1015610a185760405162461bcd60e51b81526020600482015260136024820152722737ba1032b737bab3b4103337b9103c21a79960691b6044820152606401610580565b609754609854604080516001600160a01b03878116602083015291810186905284821660608201529281169263fa31de019263706f6c799216906080016040516020818303038152906040526040518463ffffffff1660e01b8152600401610a8293929190611502565b6020604051808303816000875af1158015610aa1573d6000803e3d6000fd5b505050506040513d601f19601f82011682018060405250810190610ac591906113b8565b5060405163706f6c7981526001600160a01b038083169184918616907f917e03cbde5457cdbf299beea5ca8b2a8ac6b1e85030cf06275ec8ecb519c5fa9060200160405180910390a4505050565b610b1b610f0a565b6001600160a01b038116610b805760405162461bcd60e51b815260206004820152602660248201527f4f776e61626c653a206e6577206f776e657220697320746865207a65726f206160448201526564647265737360d01b6064820152608401610580565b610b8981610f64565b50565b6001600160a01b038316610bee5760405162461bcd60e51b8152602060048201526024808201527f45524332303a20617070726f76652066726f6d20746865207a65726f206164646044820152637265737360e01b6064820152608401610580565b6001600160a01b038216610c4f5760405162461bcd60e51b815260206004820152602260248201527f45524332303a20617070726f766520746f20746865207a65726f206164647265604482015261737360f01b6064820152608401610580565b6001600160a01b0383811660008181526034602090815260408083209487168084529482529182902085905590518481527f8c5be1e5ebec7d5bd14f71427d1e84f3dd0314c0f7b2291e5b200ac8c7c3b925910160405180910390a3505050565b600054610100900460ff16610cd75760405162461bcd60e51b815260040161058090611530565b610ce18282610fb6565b5050565b6000610cf1848461099f565b90506000198114610d595781811015610d4c5760405162461bcd60e51b815260206004820152601d60248201527f45524332303a20696e73756666696369656e7420616c6c6f77616e63650000006044820152606401610580565b610d598484848403610b8c565b50505050565b6001600160a01b038316610dc35760405162461bcd60e51b815260206004820152602560248201527f45524332303a207472616e736665722066726f6d20746865207a65726f206164604482015264647265737360d81b6064820152608401610580565b6001600160a01b038216610e255760405162461bcd60e51b815260206004820152602360248201527f45524332303a207472616e7366657220746f20746865207a65726f206164647260448201526265737360e81b6064820152608401610580565b6001600160a01b03831660009081526033602052604090205481811015610e9d5760405162461bcd60e51b815260206004820152602660248201527f45524332303a207472616e7366657220616d6f756e7420657863656564732062604482015265616c616e636560d01b6064820152608401610580565b6001600160a01b0380851660008181526033602052604080822086860390559286168082529083902080548601905591517fddf252ad1be2c89b69c2b068fc378daa952ba7f163c4a11628f55a4df523b3ef90610efd9086815260200190565b60405180910390a3610d59565b6065546001600160a01b031633146106b95760405162461bcd60e51b815260206004820181905260248201527f4f776e61626c653a2063616c6c6572206973206e6f7420746865206f776e65726044820152606401610580565b606580546001600160a01b038381166001600160a01b0319831681179093556040519116919082907f8be0079c531659141344cd1fd0a4f28419497f9722a3daafe3b4186f6b6457e090600090a35050565b600054610100900460ff16610fdd5760405162461bcd60e51b815260040161058090611530565b8151610ff0906036906020850190611009565b508051611004906037906020840190611009565b505050565b8280546110159061134f565b90600052602060002090601f016020900481019282611037576000855561107d565b82601f1061105057805160ff191683800117855561107d565b8280016001018555821561107d579182015b8281111561107d578251825591602001919060010190611062565b5061108992915061108d565b5090565b5b80821115611089576000815560010161108e565b6000815180845260005b818110156110c8576020818501810151868301820152016110ac565b818111156110da576000602083870101525b50601f01601f19169290920160200192915050565b6020815260006107f860208301846110a2565b80356001600160a01b038116811461111957600080fd5b919050565b6000806040838503121561113157600080fd5b61113a83611102565b946020939093013593505050565b634e487b7160e01b600052604160045260246000fd5b600082601f83011261116f57600080fd5b813567ffffffffffffffff8082111561118a5761118a611148565b604051601f8301601f19908116603f011681019082821181831017156111b2576111b2611148565b816040528381528660208588010111156111cb57600080fd5b836020870160208301376000602085830101528094505050505092915050565b6000806000806080858703121561120157600080fd5b61120a85611102565b935061121860208601611102565b9250604085013567ffffffffffffffff8082111561123557600080fd5b6112418883890161115e565b9350606087013591508082111561125757600080fd5b506112648782880161115e565b91505092959194509250565b60008060006060848603121561128557600080fd5b61128e84611102565b925061129c60208501611102565b9150604084013590509250925092565b6000602082840312156112be57600080fd5b6107f882611102565b6000602082840312156112d957600080fd5b5035919050565b600080604083850312156112f357600080fd5b6112fc83611102565b915061130a60208401611102565b90509250929050565b60008060006060848603121561132857600080fd5b61133184611102565b92506020840135915061134660408501611102565b90509250925092565b600181811c9082168061136357607f821691505b6020821081141561138457634e487b7160e01b600052602260045260246000fd5b50919050565b634e487b7160e01b600052601160045260246000fd5b600082198211156113b3576113b361138a565b500190565b6000602082840312156113ca57600080fd5b5051919050565b600181815b8085111561140c5781600019048211156113f2576113f261138a565b808516156113ff57918102915b93841c93908002906113d6565b509250929050565b600082611423575060016104e1565b81611430575060006104e1565b816001811461144657600281146114505761146c565b60019150506104e1565b60ff8411156114615761146161138a565b50506001821b6104e1565b5060208310610133831016604e8410600b841016171561148f575081810a6104e1565b61149983836113d1565b80600019048211156114ad576114ad61138a565b029392505050565b60006107f88383611414565b60008160001904831182151516156114db576114db61138a565b500290565b6000826114fd57634e487b7160e01b600052601260045260246000fd5b500490565b63ffffffff8416815282602082015260606040820152600061152760608301846110a2565b95945050505050565b6020808252602b908201527f496e697469616c697a61626c653a20636f6e7472616374206973206e6f74206960408201526a6e697469616c697a696e6760a81b60608201526080019056fea26469706673582212208f3b8631397d141c35464ba61417636b939af6a17e741d7b2a758dbec0c3ede564736f6c634300080b0033",
    "linkReferences": {}
  },
  "methodIdentifiers": {
    "allowance(address,address)": "dd62ed3e",
    "approve(address,uint256)": "095ea7b3",
    "balanceOf(address)": "70a08231",
    "decimals()": "313ce567",
    "decreaseAllowance(address,uint256)": "a457c2d7",
    "fromUSD(uint256)": "94a74a37",
    "increaseAllowance(address,uint256)": "39509351",
    "initialize(address,address,string,string)": "2016a0d2",
    "name()": "06fdde03",
    "offsetX(address,uint256,address)": "e08eeb97",
    "oracle()": "7dc0d1d0",
    "outbox()": "ce11e6ab",
    "owner()": "8da5cb5b",
    "renounceOwnership()": "715018a6",
    "setDependencies(address)": "8389cb18",
    "symbol()": "95d89b41",
    "toUSD(uint256)": "9d9969ed",
    "totalSupply()": "18160ddd",
    "transfer(address,uint256)": "a9059cbb",
    "transferFrom(address,address,uint256)": "23b872dd",
    "transferOwnership(address)": "f2fde38b",
    "withdrawFunds()": "24600fc3",
    "xUSDC()": "e4057027"
  },
  "id": 66
}