{
  "abi": [
    {
      "inputs": [],
      "name": "NotImplemented",
      "type": "error"
    },
    {
      "anonymous": false,
      "inputs": [
        {
          "indexed": true,
          "internalType": "address",
          "name": "owner",
          "type": "address"
        },
        {
          "indexed": true,
          "internalType": "address",
          "name": "spender",
          "type": "address"
        },
        {
          "indexed": false,
          "internalType": "uint256",
          "name": "value",
          "type": "uint256"
        }
      ],
      "name": "Approval",
      "type": "event"
    },
    {
      "anonymous": false,
      "inputs": [
        {
          "indexed": false,
          "internalType": "uint8",
          "name": "version",
          "type": "uint8"
        }
      ],
      "name": "Initialized",
      "type": "event"
    },
    {
      "anonymous": false,
      "inputs": [
        {
          "indexed": true,
          "internalType": "address",
          "name": "tCO2",
          "type": "address"
        },
        {
          "indexed": true,
          "internalType": "uint256",
          "name": "amountXCO2",
          "type": "uint256"
        },
        {
          "indexed": true,
          "internalType": "address",
          "name": "beneificiary",
          "type": "address"
        }
      ],
      "name": "Offset",
      "type": "event"
    },
    {
      "anonymous": false,
      "inputs": [
        {
          "indexed": true,
          "internalType": "address",
          "name": "tCO2",
          "type": "address"
        },
        {
          "indexed": true,
          "internalType": "uint256",
          "name": "amountXCO2",
          "type": "uint256"
        },
        {
          "indexed": true,
          "internalType": "address",
          "name": "beneficiary",
          "type": "address"
        },
        {
          "indexed": false,
          "internalType": "uint32",
          "name": "destination",
          "type": "uint32"
        }
      ],
      "name": "OffsetRemote",
      "type": "event"
    },
    {
      "anonymous": false,
      "inputs": [
        {
          "indexed": true,
          "internalType": "address",
          "name": "previousOwner",
          "type": "address"
        },
        {
          "indexed": true,
          "internalType": "address",
          "name": "newOwner",
          "type": "address"
        }
      ],
      "name": "OwnershipTransferred",
      "type": "event"
    },
    {
      "anonymous": false,
      "inputs": [
        {
          "indexed": true,
          "internalType": "address",
          "name": "from",
          "type": "address"
        },
        {
          "indexed": true,
          "internalType": "address",
          "name": "to",
          "type": "address"
        },
        {
          "indexed": false,
          "internalType": "uint256",
          "name": "value",
          "type": "uint256"
        }
      ],
      "name": "Transfer",
      "type": "event"
    },
    {
      "inputs": [
        {
          "internalType": "address",
          "name": "owner",
          "type": "address"
        },
        {
          "internalType": "address",
          "name": "spender",
          "type": "address"
        }
      ],
      "name": "allowance",
      "outputs": [
        {
          "internalType": "uint256",
          "name": "",
          "type": "uint256"
        }
      ],
      "stateMutability": "view",
      "type": "function"
    },
    {
      "inputs": [
        {
          "internalType": "address",
          "name": "spender",
          "type": "address"
        },
        {
          "internalType": "uint256",
          "name": "amount",
          "type": "uint256"
        }
      ],
      "name": "approve",
      "outputs": [
        {
          "internalType": "bool",
          "name": "",
          "type": "bool"
        }
      ],
      "stateMutability": "nonpayable",
      "type": "function"
    },
    {
      "inputs": [
        {
          "internalType": "address",
          "name": "account",
          "type": "address"
        }
      ],
      "name": "balanceOf",
      "outputs": [
        {
          "internalType": "uint256",
          "name": "",
          "type": "uint256"
        }
      ],
      "stateMutability": "view",
      "type": "function"
    },
    {
      "inputs": [],
      "name": "decimals",
      "outputs": [
        {
          "internalType": "uint8",
          "name": "",
          "type": "uint8"
        }
      ],
      "stateMutability": "view",
      "type": "function"
    },
    {
      "inputs": [
        {
          "internalType": "address",
          "name": "spender",
          "type": "address"
        },
        {
          "internalType": "uint256",
          "name": "subtractedValue",
          "type": "uint256"
        }
      ],
      "name": "decreaseAllowance",
      "outputs": [
        {
          "internalType": "bool",
          "name": "",
          "type": "bool"
        }
      ],
      "stateMutability": "nonpayable",
      "type": "function"
    },
    {
      "inputs": [
        {
          "internalType": "uint256",
          "name": "amount",
          "type": "uint256"
        }
      ],
      "name": "fromUSD",
      "outputs": [
        {
          "internalType": "uint256",
          "name": "",
          "type": "uint256"
        }
      ],
      "stateMutability": "view",
      "type": "function"
    },
    {
      "inputs": [
        {
          "internalType": "address",
          "name": "spender",
          "type": "address"
        },
        {
          "internalType": "uint256",
          "name": "addedValue",
          "type": "uint256"
        }
      ],
      "name": "increaseAllowance",
      "outputs": [
        {
          "internalType": "bool",
          "name": "",
          "type": "bool"
        }
      ],
      "stateMutability": "nonpayable",
      "type": "function"
    },
    {
      "inputs": [
        {
          "internalType": "address",
          "name": "_outbox",
          "type": "address"
        },
        {
          "internalType": "address",
          "name": "_xUSDC",
          "type": "address"
        },
        {
          "internalType": "string",
          "name": "_name",
          "type": "string"
        },
        {
          "internalType": "string",
          "name": "_symbol",
          "type": "string"
        }
      ],
      "name": "initialize",
      "outputs": [],
      "stateMutability": "nonpayable",
      "type": "function"
    },
    {
      "inputs": [],
      "name": "name",
      "outputs": [
        {
          "internalType": "string",
          "name": "",
          "type": "string"
        }
      ],
      "stateMutability": "view",
      "type": "function"
    },
    {
      "inputs": [
        {
          "internalType": "address",
          "name": "_tCO2",
          "type": "address"
        },
        {
          "internalType": "uint256",
          "name": "_amountXCO2",
          "type": "uint256"
        },
        {
          "internalType": "address",
          "name": "_beneficiary",
          "type": "address"
        }
      ],
      "name": "offsetX",
      "outputs": [],
      "stateMutability": "payable",
      "type": "function"
    },
    {
      "inputs": [],
      "name": "oracle",
      "outputs": [
        {
          "internalType": "address",
          "name": "",
          "type": "address"
        }
      ],
      "stateMutability": "view",
      "type": "function"
    },
    {
      "inputs": [],
      "name": "outbox",
      "outputs": [
        {
          "internalType": "address",
          "name": "",
          "type": "address"
        }
      ],
      "stateMutability": "view",
      "type": "function"
    },
    {
      "inputs": [],
      "name": "owner",
      "outputs": [
        {
          "internalType": "address",
          "name": "",
          "type": "address"
        }
      ],
      "stateMutability": "view",
      "type": "function"
    },
    {
      "inputs": [],
      "name": "renounceOwnership",
      "outputs": [],
      "stateMutability": "nonpayable",
      "type": "function"
    },
    {
      "inputs": [
        {
          "internalType": "address",
          "name": "_oracle",
          "type": "address"
        }
      ],
      "name": "setDependencies",
      "outputs": [],
      "stateMutability": "nonpayable",
      "type": "function"
    },
    {
      "inputs": [
        {
          "internalType": "address",
          "name": "_outbox",
          "type": "address"
        }
      ],
      "name": "setOutbox",
      "outputs": [],
      "stateMutability": "nonpayable",
      "type": "function"
    },
    {
      "inputs": [
        {
          "internalType": "address",
          "name": "_xUSDC",
          "type": "address"
        }
      ],
      "name": "setXUSDC",
      "outputs": [],
      "stateMutability": "nonpayable",
      "type": "function"
    },
    {
      "inputs": [],
      "name": "symbol",
      "outputs": [
        {
          "internalType": "string",
          "name": "",
          "type": "string"
        }
      ],
      "stateMutability": "view",
      "type": "function"
    },
    {
      "inputs": [
        {
          "internalType": "uint256",
          "name": "amount",
          "type": "uint256"
        }
      ],
      "name": "toUSD",
      "outputs": [
        {
          "internalType": "uint256",
          "name": "",
          "type": "uint256"
        }
      ],
      "stateMutability": "view",
      "type": "function"
    },
    {
      "inputs": [],
      "name": "totalSupply",
      "outputs": [
        {
          "internalType": "uint256",
          "name": "",
          "type": "uint256"
        }
      ],
      "stateMutability": "view",
      "type": "function"
    },
    {
      "inputs": [
        {
          "internalType": "address",
          "name": "to",
          "type": "address"
        },
        {
          "internalType": "uint256",
          "name": "amount",
          "type": "uint256"
        }
      ],
      "name": "transfer",
      "outputs": [
        {
          "internalType": "bool",
          "name": "",
          "type": "bool"
        }
      ],
      "stateMutability": "nonpayable",
      "type": "function"
    },
    {
      "inputs": [
        {
          "internalType": "address",
          "name": "from",
          "type": "address"
        },
        {
          "internalType": "address",
          "name": "to",
          "type": "address"
        },
        {
          "internalType": "uint256",
          "name": "amount",
          "type": "uint256"
        }
      ],
      "name": "transferFrom",
      "outputs": [
        {
          "internalType": "bool",
          "name": "",
          "type": "bool"
        }
      ],
      "stateMutability": "nonpayable",
      "type": "function"
    },
    {
      "inputs": [
        {
          "internalType": "address",
          "name": "newOwner",
          "type": "address"
        }
      ],
      "name": "transferOwnership",
      "outputs": [],
      "stateMutability": "nonpayable",
      "type": "function"
    },
    {
      "inputs": [],
      "name": "withdrawFunds",
      "outputs": [],
      "stateMutability": "nonpayable",
      "type": "function"
    },
    {
      "inputs": [],
      "name": "xUSDC",
      "outputs": [
        {
          "internalType": "address",
          "name": "",
          "type": "address"
        }
      ],
      "stateMutability": "view",
      "type": "function"
    }
  ],
  "bytecode": {
    "object": "0x608060405234801561001057600080fd5b5061166b806100206000396000f3fe6080604052600436106101665760003560e01c80638389cb18116100d1578063a9059cbb1161008a578063e08eeb9711610064578063e08eeb971461042e578063e405702714610441578063f2fde38b14610461578063ff204f3b1461048157600080fd5b8063a9059cbb146103ce578063ce11e6ab146103ee578063dd62ed3e1461040e57600080fd5b80638389cb181461031b5780638da5cb5b1461033b57806394a74a371461035957806395d89b41146103795780639d9969ed1461038e578063a457c2d7146103ae57600080fd5b8063313ce56711610123578063313ce5671461023c578063395093511461025857806370a0823114610278578063715018a6146102ae5780637dc0d1d0146102c35780637f6e66b3146102fb57600080fd5b806306fdde031461016b578063095ea7b31461019657806318160ddd146101c65780632016a0d2146101e557806323b872dd1461020757806324600fc314610227575b600080fd5b34801561017757600080fd5b506101806104a1565b60405161018d91906111a9565b60405180910390f35b3480156101a257600080fd5b506101b66101b13660046111d8565b610533565b604051901515815260200161018d565b3480156101d257600080fd5b506035545b60405190815260200161018d565b3480156101f157600080fd5b506102056102003660046112a5565b61054d565b005b34801561021357600080fd5b506101b661022236600461132a565b6106a2565b34801561023357600080fd5b506102056106c6565b34801561024857600080fd5b506040516012815260200161018d565b34801561026457600080fd5b506101b66102733660046111d8565b6106eb565b34801561028457600080fd5b506101d7610293366004611366565b6001600160a01b031660009081526033602052604090205490565b3480156102ba57600080fd5b5061020561070d565b3480156102cf57600080fd5b506099546102e3906001600160a01b031681565b6040516001600160a01b03909116815260200161018d565b34801561030757600080fd5b50610205610316366004611366565b610721565b34801561032757600080fd5b50610205610336366004611366565b61074b565b34801561034757600080fd5b506065546001600160a01b03166102e3565b34801561036557600080fd5b506101d7610374366004611381565b610775565b34801561038557600080fd5b5061018061088f565b34801561039a57600080fd5b506101d76103a9366004611381565b61089e565b3480156103ba57600080fd5b506101b66103c93660046111d8565b6109a6565b3480156103da57600080fd5b506101b66103e93660046111d8565b610a21565b3480156103fa57600080fd5b506097546102e3906001600160a01b031681565b34801561041a57600080fd5b506101d761042936600461139a565b610a2f565b61020561043c3660046113cd565b610a5a565b34801561044d57600080fd5b506098546102e3906001600160a01b031681565b34801561046d57600080fd5b5061020561047c366004611366565b610ba3565b34801561048d57600080fd5b5061020561049c366004611366565b610c1c565b6060603680546104b090611409565b80601f01602080910402602001604051908101604052809291908181526020018280546104dc90611409565b80156105295780601f106104fe57610100808354040283529160200191610529565b820191906000526020600020905b81548152906001019060200180831161050c57829003601f168201915b5050505050905090565b600033610541818585610c46565b60019150505b92915050565b600054610100900460ff161580801561056d5750600054600160ff909116105b806105875750303b158015610587575060005460ff166001145b6105ef5760405162461bcd60e51b815260206004820152602e60248201527f496e697469616c697a61626c653a20636f6e747261637420697320616c72656160448201526d191e481a5b9a5d1a585b1a5e995960921b60648201526084015b60405180910390fd5b6000805460ff191660011790558015610612576000805461ff0019166101001790555b61061b33610ba3565b609780546001600160a01b038088166001600160a01b03199283161790925560988054928716929091169190911790556106558383610d6a565b801561069b576000805461ff0019169055604051600181527f7f26b83ff96e1f2b6a682f133852f6798a09c465da95921460cefb38474024989060200160405180910390a15b5050505050565b6000336106b0858285610d9f565b6106bb858585610e19565b506001949350505050565b6106ce610fc4565b60405133904780156108fc02916000818181858888f15050505050565b6000336105418185856106fe8383610a2f565b610708919061145a565b610c46565b610715610fc4565b61071f600061101e565b565b610729610fc4565b609880546001600160a01b0319166001600160a01b0392909216919091179055565b610753610fc4565b609980546001600160a01b0319166001600160a01b0392909216919091179055565b600080609960009054906101000a90046001600160a01b03166001600160a01b03166350d25bcd6040518163ffffffff1660e01b8152600401602060405180830381865afa1580156107cb573d6000803e3d6000fd5b505050506040513d601f19601f820116820180604052508101906107ef9190611472565b905080609960009054906101000a90046001600160a01b03166001600160a01b031663313ce5676040518163ffffffff1660e01b8152600401602060405180830381865afa158015610845573d6000803e3d6000fd5b505050506040513d601f19601f820116820180604052508101906108699190611472565b61087490600a61156f565b61087e908561157b565b610888919061159a565b9392505050565b6060603780546104b090611409565b600080609960009054906101000a90046001600160a01b03166001600160a01b03166350d25bcd6040518163ffffffff1660e01b8152600401602060405180830381865afa1580156108f4573d6000803e3d6000fd5b505050506040513d601f19601f820116820180604052508101906109189190611472565b9050609960009054906101000a90046001600160a01b03166001600160a01b031663313ce5676040518163ffffffff1660e01b8152600401602060405180830381865afa15801561096d573d6000803e3d6000fd5b505050506040513d601f19601f820116820180604052508101906109919190611472565b61099c90600a61156f565b61087e848361157b565b600033816109b48286610a2f565b905083811015610a145760405162461bcd60e51b815260206004820152602560248201527f45524332303a2064656372656173656420616c6c6f77616e63652062656c6f77604482015264207a65726f60d81b60648201526084016105e6565b6106bb8286868403610c46565b600033610541818585610e19565b6001600160a01b03918216600090815260346020908152604080832093909416825291909152205490565b81610a643461089e565b1015610aa85760405162461bcd60e51b81526020600482015260136024820152722737ba1032b737bab3b4103337b9103c21a79960691b60448201526064016105e6565b609754609854604080516001600160a01b03878116602083015291810186905284821660608201529281169263fa31de019263706f6c799216906080016040516020818303038152906040526040518463ffffffff1660e01b8152600401610b12939291906115bc565b6020604051808303816000875af1158015610b31573d6000803e3d6000fd5b505050506040513d601f19601f82011682018060405250810190610b559190611472565b5060405163706f6c7981526001600160a01b038083169184918616907f917e03cbde5457cdbf299beea5ca8b2a8ac6b1e85030cf06275ec8ecb519c5fa9060200160405180910390a4505050565b610bab610fc4565b6001600160a01b038116610c105760405162461bcd60e51b815260206004820152602660248201527f4f776e61626c653a206e6577206f776e657220697320746865207a65726f206160448201526564647265737360d01b60648201526084016105e6565b610c198161101e565b50565b610c24610fc4565b609780546001600160a01b0319166001600160a01b0392909216919091179055565b6001600160a01b038316610ca85760405162461bcd60e51b8152602060048201526024808201527f45524332303a20617070726f76652066726f6d20746865207a65726f206164646044820152637265737360e01b60648201526084016105e6565b6001600160a01b038216610d095760405162461bcd60e51b815260206004820152602260248201527f45524332303a20617070726f766520746f20746865207a65726f206164647265604482015261737360f01b60648201526084016105e6565b6001600160a01b0383811660008181526034602090815260408083209487168084529482529182902085905590518481527f8c5be1e5ebec7d5bd14f71427d1e84f3dd0314c0f7b2291e5b200ac8c7c3b925910160405180910390a3505050565b600054610100900460ff16610d915760405162461bcd60e51b81526004016105e6906115ea565b610d9b8282611070565b5050565b6000610dab8484610a2f565b90506000198114610e135781811015610e065760405162461bcd60e51b815260206004820152601d60248201527f45524332303a20696e73756666696369656e7420616c6c6f77616e636500000060448201526064016105e6565b610e138484848403610c46565b50505050565b6001600160a01b038316610e7d5760405162461bcd60e51b815260206004820152602560248201527f45524332303a207472616e736665722066726f6d20746865207a65726f206164604482015264647265737360d81b60648201526084016105e6565b6001600160a01b038216610edf5760405162461bcd60e51b815260206004820152602360248201527f45524332303a207472616e7366657220746f20746865207a65726f206164647260448201526265737360e81b60648201526084016105e6565b6001600160a01b03831660009081526033602052604090205481811015610f575760405162461bcd60e51b815260206004820152602660248201527f45524332303a207472616e7366657220616d6f756e7420657863656564732062604482015265616c616e636560d01b60648201526084016105e6565b6001600160a01b0380851660008181526033602052604080822086860390559286168082529083902080548601905591517fddf252ad1be2c89b69c2b068fc378daa952ba7f163c4a11628f55a4df523b3ef90610fb79086815260200190565b60405180910390a3610e13565b6065546001600160a01b0316331461071f5760405162461bcd60e51b815260206004820181905260248201527f4f776e61626c653a2063616c6c6572206973206e6f7420746865206f776e657260448201526064016105e6565b606580546001600160a01b038381166001600160a01b0319831681179093556040519116919082907f8be0079c531659141344cd1fd0a4f28419497f9722a3daafe3b4186f6b6457e090600090a35050565b600054610100900460ff166110975760405162461bcd60e51b81526004016105e6906115ea565b81516110aa9060369060208501906110c3565b5080516110be9060379060208401906110c3565b505050565b8280546110cf90611409565b90600052602060002090601f0160209004810192826110f15760008555611137565b82601f1061110a57805160ff1916838001178555611137565b82800160010185558215611137579182015b8281111561113757825182559160200191906001019061111c565b50611143929150611147565b5090565b5b808211156111435760008155600101611148565b6000815180845260005b8181101561118257602081850181015186830182015201611166565b81811115611194576000602083870101525b50601f01601f19169290920160200192915050565b602081526000610888602083018461115c565b80356001600160a01b03811681146111d357600080fd5b919050565b600080604083850312156111eb57600080fd5b6111f4836111bc565b946020939093013593505050565b634e487b7160e01b600052604160045260246000fd5b600082601f83011261122957600080fd5b813567ffffffffffffffff8082111561124457611244611202565b604051601f8301601f19908116603f0116810190828211818310171561126c5761126c611202565b8160405283815286602085880101111561128557600080fd5b836020870160208301376000602085830101528094505050505092915050565b600080600080608085870312156112bb57600080fd5b6112c4856111bc565b93506112d2602086016111bc565b9250604085013567ffffffffffffffff808211156112ef57600080fd5b6112fb88838901611218565b9350606087013591508082111561131157600080fd5b5061131e87828801611218565b91505092959194509250565b60008060006060848603121561133f57600080fd5b611348846111bc565b9250611356602085016111bc565b9150604084013590509250925092565b60006020828403121561137857600080fd5b610888826111bc565b60006020828403121561139357600080fd5b5035919050565b600080604083850312156113ad57600080fd5b6113b6836111bc565b91506113c4602084016111bc565b90509250929050565b6000806000606084860312156113e257600080fd5b6113eb846111bc565b925060208401359150611400604085016111bc565b90509250925092565b600181811c9082168061141d57607f821691505b6020821081141561143e57634e487b7160e01b600052602260045260246000fd5b50919050565b634e487b7160e01b600052601160045260246000fd5b6000821982111561146d5761146d611444565b500190565b60006020828403121561148457600080fd5b5051919050565b600181815b808511156114c65781600019048211156114ac576114ac611444565b808516156114b957918102915b93841c9390800290611490565b509250929050565b6000826114dd57506001610547565b816114ea57506000610547565b8160018114611500576002811461150a57611526565b6001915050610547565b60ff84111561151b5761151b611444565b50506001821b610547565b5060208310610133831016604e8410600b8410161715611549575081810a610547565b611553838361148b565b806000190482111561156757611567611444565b029392505050565b600061088883836114ce565b600081600019048311821515161561159557611595611444565b500290565b6000826115b757634e487b7160e01b600052601260045260246000fd5b500490565b63ffffffff841681528260208201526060604082015260006115e1606083018461115c565b95945050505050565b6020808252602b908201527f496e697469616c697a61626c653a20636f6e7472616374206973206e6f74206960408201526a6e697469616c697a696e6760a81b60608201526080019056fea2646970667358221220c2ab671b9a6e481962ef1f3b16013b223518fd6ab6b50ffa3dd66447316208c764736f6c634300080b0033",
    "linkReferences": {}
  },
  "methodIdentifiers": {
    "allowance(address,address)": "dd62ed3e",
    "approve(address,uint256)": "095ea7b3",
    "balanceOf(address)": "70a08231",
    "decimals()": "313ce567",
    "decreaseAllowance(address,uint256)": "a457c2d7",
    "fromUSD(uint256)": "94a74a37",
    "increaseAllowance(address,uint256)": "39509351",
    "initialize(address,address,string,string)": "2016a0d2",
    "name()": "06fdde03",
    "offsetX(address,uint256,address)": "e08eeb97",
    "oracle()": "7dc0d1d0",
    "outbox()": "ce11e6ab",
    "owner()": "8da5cb5b",
    "renounceOwnership()": "715018a6",
    "setDependencies(address)": "8389cb18",
    "setOutbox(address)": "ff204f3b",
    "setXUSDC(address)": "7f6e66b3",
    "symbol()": "95d89b41",
    "toUSD(uint256)": "9d9969ed",
    "totalSupply()": "18160ddd",
    "transfer(address,uint256)": "a9059cbb",
    "transferFrom(address,address,uint256)": "23b872dd",
    "transferOwnership(address)": "f2fde38b",
    "withdrawFunds()": "24600fc3",
    "xUSDC()": "e4057027"
  },
  "id": 66
}