{
  "abi": [
    {
      "anonymous": false,
      "inputs": [
        {
          "indexed": true,
          "internalType": "address",
          "name": "abacusConnectionManager",
          "type": "address"
        }
      ],
      "name": "AbacusConnectionManagerSet",
      "type": "event"
    },
    {
      "anonymous": false,
      "inputs": [
        {
          "indexed": true,
          "internalType": "address",
          "name": "owner",
          "type": "address"
        },
        {
          "indexed": true,
          "internalType": "address",
          "name": "spender",
          "type": "address"
        },
        {
          "indexed": false,
          "internalType": "uint256",
          "name": "value",
          "type": "uint256"
        }
      ],
      "name": "Approval",
      "type": "event"
    },
    {
      "anonymous": false,
      "inputs": [
        {
          "indexed": false,
          "internalType": "uint8",
          "name": "version",
          "type": "uint8"
        }
      ],
      "name": "Initialized",
      "type": "event"
    },
    {
      "anonymous": false,
      "inputs": [
        {
          "indexed": true,
          "internalType": "address",
          "name": "interchainGasPaymaster",
          "type": "address"
        }
      ],
      "name": "InterchainGasPaymasterSet",
      "type": "event"
    },
    {
      "anonymous": false,
      "inputs": [
        {
          "indexed": true,
          "internalType": "address",
          "name": "previousOwner",
          "type": "address"
        },
        {
          "indexed": true,
          "internalType": "address",
          "name": "newOwner",
          "type": "address"
        }
      ],
      "name": "OwnershipTransferred",
      "type": "event"
    },
    {
      "anonymous": false,
      "inputs": [
        {
          "indexed": true,
          "internalType": "uint32",
          "name": "origin",
          "type": "uint32"
        },
        {
          "indexed": true,
          "internalType": "address",
          "name": "recipient",
          "type": "address"
        },
        {
          "indexed": false,
          "internalType": "uint256",
          "name": "amount",
          "type": "uint256"
        }
      ],
      "name": "ReceivedTransferRemote",
      "type": "event"
    },
    {
      "anonymous": false,
      "inputs": [
        {
          "indexed": true,
          "internalType": "uint32",
          "name": "domain",
          "type": "uint32"
        },
        {
          "indexed": true,
          "internalType": "bytes32",
          "name": "router",
          "type": "bytes32"
        }
      ],
      "name": "RemoteRouterEnrolled",
      "type": "event"
    },
    {
      "anonymous": false,
      "inputs": [
        {
          "indexed": true,
          "internalType": "uint32",
          "name": "destination",
          "type": "uint32"
        },
        {
          "indexed": true,
          "internalType": "address",
          "name": "recipient",
          "type": "address"
        },
        {
          "indexed": false,
          "internalType": "uint256",
          "name": "amount",
          "type": "uint256"
        }
      ],
      "name": "SentTransferRemote",
      "type": "event"
    },
    {
      "anonymous": false,
      "inputs": [
        {
          "indexed": true,
          "internalType": "address",
          "name": "from",
          "type": "address"
        },
        {
          "indexed": true,
          "internalType": "address",
          "name": "to",
          "type": "address"
        },
        {
          "indexed": false,
          "internalType": "uint256",
          "name": "value",
          "type": "uint256"
        }
      ],
      "name": "Transfer",
      "type": "event"
    },
    {
      "inputs": [],
      "name": "abacusConnectionManager",
      "outputs": [
        {
          "internalType": "contract IAbacusConnectionManager",
          "name": "",
          "type": "address"
        }
      ],
      "stateMutability": "view",
      "type": "function"
    },
    {
      "inputs": [
        {
          "internalType": "address",
          "name": "owner",
          "type": "address"
        },
        {
          "internalType": "address",
          "name": "spender",
          "type": "address"
        }
      ],
      "name": "allowance",
      "outputs": [
        {
          "internalType": "uint256",
          "name": "",
          "type": "uint256"
        }
      ],
      "stateMutability": "view",
      "type": "function"
    },
    {
      "inputs": [
        {
          "internalType": "address",
          "name": "spender",
          "type": "address"
        },
        {
          "internalType": "uint256",
          "name": "amount",
          "type": "uint256"
        }
      ],
      "name": "approve",
      "outputs": [
        {
          "internalType": "bool",
          "name": "",
          "type": "bool"
        }
      ],
      "stateMutability": "nonpayable",
      "type": "function"
    },
    {
      "inputs": [
        {
          "internalType": "address",
          "name": "account",
          "type": "address"
        }
      ],
      "name": "balanceOf",
      "outputs": [
        {
          "internalType": "uint256",
          "name": "",
          "type": "uint256"
        }
      ],
      "stateMutability": "view",
      "type": "function"
    },
    {
      "inputs": [],
      "name": "decimals",
      "outputs": [
        {
          "internalType": "uint8",
          "name": "",
          "type": "uint8"
        }
      ],
      "stateMutability": "view",
      "type": "function"
    },
    {
      "inputs": [
        {
          "internalType": "address",
          "name": "spender",
          "type": "address"
        },
        {
          "internalType": "uint256",
          "name": "subtractedValue",
          "type": "uint256"
        }
      ],
      "name": "decreaseAllowance",
      "outputs": [
        {
          "internalType": "bool",
          "name": "",
          "type": "bool"
        }
      ],
      "stateMutability": "nonpayable",
      "type": "function"
    },
    {
      "inputs": [],
      "name": "deposit",
      "outputs": [],
      "stateMutability": "payable",
      "type": "function"
    },
    {
      "inputs": [
        {
          "internalType": "address",
          "name": "_receiver",
          "type": "address"
        }
      ],
      "name": "depositFor",
      "outputs": [],
      "stateMutability": "payable",
      "type": "function"
    },
    {
      "inputs": [
        {
          "internalType": "uint32",
          "name": "_domain",
          "type": "uint32"
        },
        {
          "internalType": "bytes32",
          "name": "_router",
          "type": "bytes32"
        }
      ],
      "name": "enrollRemoteRouter",
      "outputs": [],
      "stateMutability": "nonpayable",
      "type": "function"
    },
    {
      "inputs": [
        {
          "internalType": "uint32",
          "name": "_origin",
          "type": "uint32"
        },
        {
          "internalType": "bytes32",
          "name": "_sender",
          "type": "bytes32"
        },
        {
          "internalType": "bytes",
          "name": "_message",
          "type": "bytes"
        }
      ],
      "name": "handle",
      "outputs": [],
      "stateMutability": "nonpayable",
      "type": "function"
    },
    {
      "inputs": [
        {
          "internalType": "address",
          "name": "spender",
          "type": "address"
        },
        {
          "internalType": "uint256",
          "name": "addedValue",
          "type": "uint256"
        }
      ],
      "name": "increaseAllowance",
      "outputs": [
        {
          "internalType": "bool",
          "name": "",
          "type": "bool"
        }
      ],
      "stateMutability": "nonpayable",
      "type": "function"
    },
    {
      "inputs": [
        {
          "internalType": "address",
          "name": "_abacusConnectionManager",
          "type": "address"
        },
        {
          "internalType": "address",
          "name": "_interchainGasPaymaster",
          "type": "address"
        },
        {
          "internalType": "string",
          "name": "_name",
          "type": "string"
        },
        {
          "internalType": "string",
          "name": "_symbol",
          "type": "string"
        }
      ],
      "name": "initialize",
      "outputs": [],
      "stateMutability": "nonpayable",
      "type": "function"
    },
    {
      "inputs": [],
      "name": "interchainGasPaymaster",
      "outputs": [
        {
          "internalType": "contract IInterchainGasPaymaster",
          "name": "",
          "type": "address"
        }
      ],
      "stateMutability": "view",
      "type": "function"
    },
    {
      "inputs": [],
      "name": "name",
      "outputs": [
        {
          "internalType": "string",
          "name": "",
          "type": "string"
        }
      ],
      "stateMutability": "view",
      "type": "function"
    },
    {
      "inputs": [],
      "name": "oracle",
      "outputs": [
        {
          "internalType": "address",
          "name": "",
          "type": "address"
        }
      ],
      "stateMutability": "view",
      "type": "function"
    },
    {
      "inputs": [],
      "name": "owner",
      "outputs": [
        {
          "internalType": "address",
          "name": "",
          "type": "address"
        }
      ],
      "stateMutability": "view",
      "type": "function"
    },
    {
      "inputs": [],
      "name": "renounceOwnership",
      "outputs": [],
      "stateMutability": "nonpayable",
      "type": "function"
    },
    {
      "inputs": [
        {
          "internalType": "uint32",
          "name": "",
          "type": "uint32"
        }
      ],
      "name": "routers",
      "outputs": [
        {
          "internalType": "bytes32",
          "name": "",
          "type": "bytes32"
        }
      ],
      "stateMutability": "view",
      "type": "function"
    },
    {
      "inputs": [
        {
          "internalType": "address",
          "name": "_abacusConnectionManager",
          "type": "address"
        }
      ],
      "name": "setAbacusConnectionManager",
      "outputs": [],
      "stateMutability": "nonpayable",
      "type": "function"
    },
    {
      "inputs": [
        {
          "internalType": "address",
          "name": "_oracle",
          "type": "address"
        }
      ],
      "name": "setDependencies",
      "outputs": [],
      "stateMutability": "nonpayable",
      "type": "function"
    },
    {
      "inputs": [
        {
          "internalType": "address",
          "name": "_interchainGasPaymaster",
          "type": "address"
        }
      ],
      "name": "setInterchainGasPaymaster",
      "outputs": [],
      "stateMutability": "nonpayable",
      "type": "function"
    },
    {
      "inputs": [],
      "name": "symbol",
      "outputs": [
        {
          "internalType": "string",
          "name": "",
          "type": "string"
        }
      ],
      "stateMutability": "view",
      "type": "function"
    },
    {
      "inputs": [
        {
          "internalType": "uint256",
          "name": "amount",
          "type": "uint256"
        }
      ],
      "name": "toUSD",
      "outputs": [
        {
          "internalType": "uint256",
          "name": "",
          "type": "uint256"
        }
      ],
      "stateMutability": "view",
      "type": "function"
    },
    {
      "inputs": [],
      "name": "totalSupply",
      "outputs": [
        {
          "internalType": "uint256",
          "name": "",
          "type": "uint256"
        }
      ],
      "stateMutability": "view",
      "type": "function"
    },
    {
      "inputs": [
        {
          "internalType": "address",
          "name": "to",
          "type": "address"
        },
        {
          "internalType": "uint256",
          "name": "amount",
          "type": "uint256"
        }
      ],
      "name": "transfer",
      "outputs": [
        {
          "internalType": "bool",
          "name": "",
          "type": "bool"
        }
      ],
      "stateMutability": "nonpayable",
      "type": "function"
    },
    {
      "inputs": [
        {
          "internalType": "address",
          "name": "from",
          "type": "address"
        },
        {
          "internalType": "address",
          "name": "to",
          "type": "address"
        },
        {
          "internalType": "uint256",
          "name": "amount",
          "type": "uint256"
        }
      ],
      "name": "transferFrom",
      "outputs": [
        {
          "internalType": "bool",
          "name": "",
          "type": "bool"
        }
      ],
      "stateMutability": "nonpayable",
      "type": "function"
    },
    {
      "inputs": [
        {
          "internalType": "address",
          "name": "newOwner",
          "type": "address"
        }
      ],
      "name": "transferOwnership",
      "outputs": [],
      "stateMutability": "nonpayable",
      "type": "function"
    },
    {
      "inputs": [
        {
          "internalType": "uint32",
          "name": "_destination",
          "type": "uint32"
        },
        {
          "internalType": "address",
          "name": "_recipient",
          "type": "address"
        },
        {
          "internalType": "uint256",
          "name": "_amount",
          "type": "uint256"
        }
      ],
      "name": "transferRemote",
      "outputs": [],
      "stateMutability": "payable",
      "type": "function"
    },
    {
      "inputs": [
        {
          "internalType": "uint256",
          "name": "amount",
          "type": "uint256"
        }
      ],
      "name": "withdraw",
      "outputs": [],
      "stateMutability": "payable",
      "type": "function"
    },
    {
      "inputs": [
        {
          "internalType": "uint256",
          "name": "amount",
          "type": "uint256"
        },
        {
          "internalType": "address payable",
          "name": "_receiver",
          "type": "address"
        }
      ],
      "name": "withdrawFor",
      "outputs": [],
      "stateMutability": "payable",
      "type": "function"
    }
  ],
  "bytecode": {
    "object": "0x608060405234801561001057600080fd5b50611d4b806100206000396000f3fe6080604052600436106101cd5760003560e01c80637dc0d1d0116100f7578063a457c2d711610095578063d0e30db011610064578063d0e30db014610519578063dd62ed3e14610521578063f1bd6f0a14610541578063f2fde38b1461056157600080fd5b8063a457c2d7146104a6578063a9059cbb146104c6578063aa67c919146104e6578063b49c53a7146104f957600080fd5b80638da5cb5b116100d15780638da5cb5b1461043357806395d89b41146104515780639a35c359146104665780639d9969ed1461048657600080fd5b80637dc0d1d0146103e05780638389cb1814610400578063895342661461042057600080fd5b80632ead72f61161016f57806339bb4ad91161013e57806339bb4ad91461033d57806356d5d4751461037557806370a0823114610395578063715018a6146103cb57600080fd5b80632ead72f6146102c1578063313ce567146102ee5780633576f6cc1461030a578063395093511461031d57600080fd5b806318160ddd116101ab57806318160ddd1461024f5780632016a0d21461026e57806323b872dd1461028e5780632e1a7d4d146102ae57600080fd5b806306fdde03146101d2578063095ea7b3146101fd57806312b1d7801461022d575b600080fd5b3480156101de57600080fd5b506101e7610581565b6040516101f491906116fe565b60405180910390f35b34801561020957600080fd5b5061021d610218366004611726565b610613565b60405190151581526020016101f4565b34801561023957600080fd5b5061024d610248366004611752565b61062d565b005b34801561025b57600080fd5b5060cb545b6040519081526020016101f4565b34801561027a57600080fd5b5061024d610289366004611812565b610641565b34801561029a57600080fd5b5061021d6102a936600461189b565b610778565b61024d6102bc3660046118dc565b61079c565b3480156102cd57600080fd5b506102606102dc36600461190e565b60976020526000908152604090205481565b3480156102fa57600080fd5b50604051601281526020016101f4565b61024d610318366004611929565b6107a2565b34801561032957600080fd5b5061021d610338366004611726565b6107dd565b34801561034957600080fd5b5060665461035d906001600160a01b031681565b6040516001600160a01b0390911681526020016101f4565b34801561038157600080fd5b5061024d610390366004611959565b6107ff565b3480156103a157600080fd5b506102606103b0366004611752565b6001600160a01b0316600090815260c9602052604090205490565b3480156103d757600080fd5b5061024d6108a5565b3480156103ec57600080fd5b5060fb5461035d906001600160a01b031681565b34801561040c57600080fd5b5061024d61041b366004611752565b6108b9565b61024d61042e3660046119e0565b6108e3565b34801561043f57600080fd5b506033546001600160a01b031661035d565b34801561045d57600080fd5b506101e7610973565b34801561047257600080fd5b5060655461035d906001600160a01b031681565b34801561049257600080fd5b506102606104a13660046118dc565b610982565b3480156104b257600080fd5b5061021d6104c1366004611726565b610a9b565b3480156104d257600080fd5b5061021d6104e1366004611726565b610b16565b61024d6104f4366004611752565b610b24565b34801561050557600080fd5b5061024d6105143660046119fe565b610b36565b61024d610b4c565b34801561052d57600080fd5b5061026061053c366004611a1a565b610b55565b34801561054d57600080fd5b5061024d61055c366004611752565b610b80565b34801561056d57600080fd5b5061024d61057c366004611752565b610b91565b606060cc805461059090611a48565b80601f01602080910402602001604051908101604052809291908181526020018280546105bc90611a48565b80156106095780601f106105de57610100808354040283529160200191610609565b820191906000526020600020905b8154815290600101906020018083116105ec57829003601f168201915b5050505050905090565b600033610621818585610c07565b60019150505b92915050565b610635610d23565b61063e81610d7d565b50565b600054610100900460ff16158080156106615750600054600160ff909116105b8061067b5750303b15801561067b575060005460ff166001145b6106e35760405162461bcd60e51b815260206004820152602e60248201527f496e697469616c697a61626c653a20636f6e747261637420697320616c72656160448201526d191e481a5b9a5d1a585b1a5e995960921b60648201526084015b60405180910390fd5b6000805460ff191660011790558015610706576000805461ff0019166101001790555b61070f33610dc7565b61071885610d7d565b61072184610e19565b61072b8383610e63565b8015610771576000805461ff0019169055604051600181527f7f26b83ff96e1f2b6a682f133852f6798a09c465da95921460cefb38474024989060200160405180910390a15b5050505050565b600033610786858285610e94565b610791858585610f0e565b506001949350505050565b61063e81335b6107b4336107af84610982565b6110b9565b6040516001600160a01b0382169083156108fc029084906000818181858888f150505050505050565b6000336106218185856107f08383610b55565b6107fa9190611a93565b610c07565b610808336111ea565b61083d5760405162461bcd60e51b8152602060048201526006602482015265042d2dcc4def60d31b60448201526064016106da565b63ffffffff8416600090815260976020526040902054849084908114604051806080016040528060438152602001611cd360439139906108905760405162461bcd60e51b81526004016106da91906116fe565b5061089d86868686611259565b505050505050565b6108ad610d23565b6108b76000610dc7565b565b6108c1610d23565b60fb80546001600160a01b0319166001600160a01b0392909216919091179055565b6108ed33826110b9565b604080516001600160a01b0384166020820152908101829052610924908490606001604051602081830303815290604052346112cf565b816001600160a01b03168363ffffffff167fae92e7b61f5cd8ffaad4ff9640d1603475365f121d65769540809f899cc9cfa38360405161096691815260200190565b60405180910390a3505050565b606060cd805461059090611a48565b60008060fb60009054906101000a90046001600160a01b03166001600160a01b03166350d25bcd6040518163ffffffff1660e01b8152600401602060405180830381865afa1580156109d8573d6000803e3d6000fd5b505050506040513d601f19601f820116820180604052508101906109fc9190611aab565b905060fb60009054906101000a90046001600160a01b03166001600160a01b031663313ce5676040518163ffffffff1660e01b8152600401602060405180830381865afa158015610a51573d6000803e3d6000fd5b505050506040513d601f19601f82011682018060405250810190610a759190611aab565b610a8090600a611ba8565b610a8a8483611bb4565b610a949190611bd3565b9392505050565b60003381610aa98286610b55565b905083811015610b095760405162461bcd60e51b815260206004820152602560248201527f45524332303a2064656372656173656420616c6c6f77616e63652062656c6f77604482015264207a65726f60d81b60648201526084016106da565b6107918286868403610c07565b600033610621818585610f0e565b61063e81610b3134610982565b61136b565b610b3e610d23565b610b48828261142c565b5050565b6108b733610b24565b6001600160a01b03918216600090815260ca6020908152604080832093909416825291909152205490565b610b88610d23565b61063e81610e19565b610b99610d23565b6001600160a01b038116610bfe5760405162461bcd60e51b815260206004820152602660248201527f4f776e61626c653a206e6577206f776e657220697320746865207a65726f206160448201526564647265737360d01b60648201526084016106da565b61063e81610dc7565b6001600160a01b038316610c695760405162461bcd60e51b8152602060048201526024808201527f45524332303a20617070726f76652066726f6d20746865207a65726f206164646044820152637265737360e01b60648201526084016106da565b6001600160a01b038216610cca5760405162461bcd60e51b815260206004820152602260248201527f45524332303a20617070726f766520746f20746865207a65726f206164647265604482015261737360f01b60648201526084016106da565b6001600160a01b03838116600081815260ca602090815260408083209487168084529482529182902085905590518481527f8c5be1e5ebec7d5bd14f71427d1e84f3dd0314c0f7b2291e5b200ac8c7c3b9259101610966565b6033546001600160a01b031633146108b75760405162461bcd60e51b815260206004820181905260248201527f4f776e61626c653a2063616c6c6572206973206e6f7420746865206f776e657260448201526064016106da565b606580546001600160a01b0319166001600160a01b0383169081179091556040517f7c10de8878ed89478ff01b9cd8c11a5271ea8ac91d46f662e6aea7e3adf5b11f90600090a250565b603380546001600160a01b038381166001600160a01b0319831681179093556040519116919082907f8be0079c531659141344cd1fd0a4f28419497f9722a3daafe3b4186f6b6457e090600090a35050565b606680546001600160a01b0319166001600160a01b0383169081179091556040517fb87f5a0bface22cde699143559fb99f990ae54eea236995fc54178af91af859f90600090a250565b600054610100900460ff16610e8a5760405162461bcd60e51b81526004016106da90611bf5565b610b488282611470565b6000610ea08484610b55565b90506000198114610f085781811015610efb5760405162461bcd60e51b815260206004820152601d60248201527f45524332303a20696e73756666696369656e7420616c6c6f77616e636500000060448201526064016106da565b610f088484848403610c07565b50505050565b6001600160a01b038316610f725760405162461bcd60e51b815260206004820152602560248201527f45524332303a207472616e736665722066726f6d20746865207a65726f206164604482015264647265737360d81b60648201526084016106da565b6001600160a01b038216610fd45760405162461bcd60e51b815260206004820152602360248201527f45524332303a207472616e7366657220746f20746865207a65726f206164647260448201526265737360e81b60648201526084016106da565b6001600160a01b038316600090815260c960205260409020548181101561104c5760405162461bcd60e51b815260206004820152602660248201527f45524332303a207472616e7366657220616d6f756e7420657863656564732062604482015265616c616e636560d01b60648201526084016106da565b6001600160a01b03808516600081815260c9602052604080822086860390559286168082529083902080548601905591517fddf252ad1be2c89b69c2b068fc378daa952ba7f163c4a11628f55a4df523b3ef906110ac9086815260200190565b60405180910390a3610f08565b6001600160a01b0382166111195760405162461bcd60e51b815260206004820152602160248201527f45524332303a206275726e2066726f6d20746865207a65726f206164647265736044820152607360f81b60648201526084016106da565b6001600160a01b038216600090815260c960205260409020548181101561118d5760405162461bcd60e51b815260206004820152602260248201527f45524332303a206275726e20616d6f756e7420657863656564732062616c616e604482015261636560f01b60648201526084016106da565b6001600160a01b038316600081815260c960209081526040808320868603905560cb80548790039055518581529192917fddf252ad1be2c89b69c2b068fc378daa952ba7f163c4a11628f55a4df523b3ef9101610966565b505050565b60655460405163282f51eb60e01b81526001600160a01b038381166004830152600092169063282f51eb90602401602060405180830381865afa158015611235573d6000803e3d6000fd5b505050506040513d601f19601f820116820180604052508101906106279190611c40565b600080828060200190518101906112709190611c62565b9150915061127e828261136b565b816001600160a01b03168563ffffffff167f10ddaf91e64becb789db2ea1bd076c9e7973123803661fb528d320202698c0fe836040516112c091815260200190565b60405180910390a35050505050565b60006112d96114be565b905060006112e8828686611531565b90508215610771576066546040516352b81e4760e11b81526001600160a01b0384811660048301526024820184905263ffffffff881660448301529091169063a5703c8e9085906064016000604051808303818588803b15801561134b57600080fd5b505af115801561135f573d6000803e3d6000fd5b50505050505050505050565b6001600160a01b0382166113c15760405162461bcd60e51b815260206004820152601f60248201527f45524332303a206d696e7420746f20746865207a65726f20616464726573730060448201526064016106da565b8060cb60008282546113d39190611a93565b90915550506001600160a01b038216600081815260c960209081526040808320805486019055518481527fddf252ad1be2c89b69c2b068fc378daa952ba7f163c4a11628f55a4df523b3ef910160405180910390a35050565b63ffffffff8216600081815260976020526040808220849055518392917f97fd51fef1f80c854cbd0150c248e8b2ac4ecdc97cc05e742b5f61c9f4dc645891a35050565b600054610100900460ff166114975760405162461bcd60e51b81526004016106da90611bf5565b81516114aa9060cc906020850190611618565b5080516111e59060cd906020840190611618565b6065546040805163ce11e6ab60e01b815290516000926001600160a01b03169163ce11e6ab9160048083019260209291908290030181865afa158015611508573d6000803e3d6000fd5b505050506040513d601f19601f8201168201806040525081019061152c9190611c90565b905090565b60008061153d846115bc565b60405163fa31de0160e01b81529091506001600160a01b0386169063fa31de019061157090879085908890600401611cad565b6020604051808303816000875af115801561158f573d6000803e3d6000fd5b505050506040513d601f19601f820116820180604052508101906115b39190611aab565b95945050505050565b63ffffffff8116600090815260976020908152604091829020548251608081019093526043808452909283151592909190611cd390830139906116125760405162461bcd60e51b81526004016106da91906116fe565b50919050565b82805461162490611a48565b90600052602060002090601f016020900481019282611646576000855561168c565b82601f1061165f57805160ff191683800117855561168c565b8280016001018555821561168c579182015b8281111561168c578251825591602001919060010190611671565b5061169892915061169c565b5090565b5b80821115611698576000815560010161169d565b6000815180845260005b818110156116d7576020818501810151868301820152016116bb565b818111156116e9576000602083870101525b50601f01601f19169290920160200192915050565b602081526000610a9460208301846116b1565b6001600160a01b038116811461063e57600080fd5b6000806040838503121561173957600080fd5b823561174481611711565b946020939093013593505050565b60006020828403121561176457600080fd5b8135610a9481611711565b634e487b7160e01b600052604160045260246000fd5b600082601f83011261179657600080fd5b813567ffffffffffffffff808211156117b1576117b161176f565b604051601f8301601f19908116603f011681019082821181831017156117d9576117d961176f565b816040528381528660208588010111156117f257600080fd5b836020870160208301376000602085830101528094505050505092915050565b6000806000806080858703121561182857600080fd5b843561183381611711565b9350602085013561184381611711565b9250604085013567ffffffffffffffff8082111561186057600080fd5b61186c88838901611785565b9350606087013591508082111561188257600080fd5b5061188f87828801611785565b91505092959194509250565b6000806000606084860312156118b057600080fd5b83356118bb81611711565b925060208401356118cb81611711565b929592945050506040919091013590565b6000602082840312156118ee57600080fd5b5035919050565b803563ffffffff8116811461190957600080fd5b919050565b60006020828403121561192057600080fd5b610a94826118f5565b6000806040838503121561193c57600080fd5b82359150602083013561194e81611711565b809150509250929050565b6000806000806060858703121561196f57600080fd5b611978856118f5565b935060208501359250604085013567ffffffffffffffff8082111561199c57600080fd5b818701915087601f8301126119b057600080fd5b8135818111156119bf57600080fd5b8860208285010111156119d157600080fd5b95989497505060200194505050565b6000806000606084860312156119f557600080fd5b6118bb846118f5565b60008060408385031215611a1157600080fd5b611744836118f5565b60008060408385031215611a2d57600080fd5b8235611a3881611711565b9150602083013561194e81611711565b600181811c90821680611a5c57607f821691505b6020821081141561161257634e487b7160e01b600052602260045260246000fd5b634e487b7160e01b600052601160045260246000fd5b60008219821115611aa657611aa6611a7d565b500190565b600060208284031215611abd57600080fd5b5051919050565b600181815b80851115611aff578160001904821115611ae557611ae5611a7d565b80851615611af257918102915b93841c9390800290611ac9565b509250929050565b600082611b1657506001610627565b81611b2357506000610627565b8160018114611b395760028114611b4357611b5f565b6001915050610627565b60ff841115611b5457611b54611a7d565b50506001821b610627565b5060208310610133831016604e8410600b8410161715611b82575081810a610627565b611b8c8383611ac4565b8060001904821115611ba057611ba0611a7d565b029392505050565b6000610a948383611b07565b6000816000190483118215151615611bce57611bce611a7d565b500290565b600082611bf057634e487b7160e01b600052601260045260246000fd5b500490565b6020808252602b908201527f496e697469616c697a61626c653a20636f6e7472616374206973206e6f74206960408201526a6e697469616c697a696e6760a81b606082015260800190565b600060208284031215611c5257600080fd5b81518015158114610a9457600080fd5b60008060408385031215611c7557600080fd5b8251611c8081611711565b6020939093015192949293505050565b600060208284031215611ca257600080fd5b8151610a9481611711565b63ffffffff841681528260208201526060604082015260006115b360608301846116b156fe4e6f20726f7574657220656e726f6c6c656420666f7220646f6d61696e2e2044696420796f7520737065636966792074686520726967687420646f6d61696e2049443fa264697066735822122096c8e827c9549ae62d4324586d2a30f5f667cc04b17df8b543e6e9eb3aafac2164736f6c634300080b0033",
    "linkReferences": {}
  },
  "methodIdentifiers": {
    "abacusConnectionManager()": "9a35c359",
    "allowance(address,address)": "dd62ed3e",
    "approve(address,uint256)": "095ea7b3",
    "balanceOf(address)": "70a08231",
    "decimals()": "313ce567",
    "decreaseAllowance(address,uint256)": "a457c2d7",
    "deposit()": "d0e30db0",
    "depositFor(address)": "aa67c919",
    "enrollRemoteRouter(uint32,bytes32)": "b49c53a7",
    "handle(uint32,bytes32,bytes)": "56d5d475",
    "increaseAllowance(address,uint256)": "39509351",
    "initialize(address,address,string,string)": "2016a0d2",
    "interchainGasPaymaster()": "39bb4ad9",
    "name()": "06fdde03",
    "oracle()": "7dc0d1d0",
    "owner()": "8da5cb5b",
    "renounceOwnership()": "715018a6",
    "routers(uint32)": "2ead72f6",
    "setAbacusConnectionManager(address)": "12b1d780",
    "setDependencies(address)": "8389cb18",
    "setInterchainGasPaymaster(address)": "f1bd6f0a",
    "symbol()": "95d89b41",
    "toUSD(uint256)": "9d9969ed",
    "totalSupply()": "18160ddd",
    "transfer(address,uint256)": "a9059cbb",
    "transferFrom(address,address,uint256)": "23b872dd",
    "transferOwnership(address)": "f2fde38b",
    "transferRemote(uint32,address,uint256)": "89534266",
    "withdraw(uint256)": "2e1a7d4d",
    "withdrawFor(uint256,address)": "3576f6cc"
  },
  "id": 47
}