{
  "abi": [
    {
      "inputs": [],
      "name": "NotImplemented",
      "type": "error"
    },
    {
      "anonymous": false,
      "inputs": [
        {
          "indexed": true,
          "internalType": "address",
          "name": "owner",
          "type": "address"
        },
        {
          "indexed": true,
          "internalType": "address",
          "name": "spender",
          "type": "address"
        },
        {
          "indexed": false,
          "internalType": "uint256",
          "name": "value",
          "type": "uint256"
        }
      ],
      "name": "Approval",
      "type": "event"
    },
    {
      "anonymous": false,
      "inputs": [
        {
          "indexed": false,
          "internalType": "uint8",
          "name": "version",
          "type": "uint8"
        }
      ],
      "name": "Initialized",
      "type": "event"
    },
    {
      "anonymous": false,
      "inputs": [
        {
          "indexed": true,
          "internalType": "address",
          "name": "tCO2",
          "type": "address"
        },
        {
          "indexed": true,
          "internalType": "uint256",
          "name": "amountXCO2",
          "type": "uint256"
        },
        {
          "indexed": true,
          "internalType": "address",
          "name": "beneificiary",
          "type": "address"
        }
      ],
      "name": "Offset",
      "type": "event"
    },
    {
      "anonymous": false,
      "inputs": [
        {
          "indexed": true,
          "internalType": "address",
          "name": "tCO2",
          "type": "address"
        },
        {
          "indexed": true,
          "internalType": "uint256",
          "name": "amountXCO2",
          "type": "uint256"
        },
        {
          "indexed": true,
          "internalType": "address",
          "name": "beneficiary",
          "type": "address"
        },
        {
          "indexed": false,
          "internalType": "uint32",
          "name": "destination",
          "type": "uint32"
        }
      ],
      "name": "OffsetRemote",
      "type": "event"
    },
    {
      "anonymous": false,
      "inputs": [
        {
          "indexed": true,
          "internalType": "address",
          "name": "previousOwner",
          "type": "address"
        },
        {
          "indexed": true,
          "internalType": "address",
          "name": "newOwner",
          "type": "address"
        }
      ],
      "name": "OwnershipTransferred",
      "type": "event"
    },
    {
      "anonymous": false,
      "inputs": [
        {
          "indexed": true,
          "internalType": "address",
          "name": "from",
          "type": "address"
        },
        {
          "indexed": true,
          "internalType": "address",
          "name": "to",
          "type": "address"
        },
        {
          "indexed": false,
          "internalType": "uint256",
          "name": "value",
          "type": "uint256"
        }
      ],
      "name": "Transfer",
      "type": "event"
    },
    {
      "inputs": [
        {
          "internalType": "address",
          "name": "owner",
          "type": "address"
        },
        {
          "internalType": "address",
          "name": "spender",
          "type": "address"
        }
      ],
      "name": "allowance",
      "outputs": [
        {
          "internalType": "uint256",
          "name": "",
          "type": "uint256"
        }
      ],
      "stateMutability": "view",
      "type": "function"
    },
    {
      "inputs": [
        {
          "internalType": "address",
          "name": "spender",
          "type": "address"
        },
        {
          "internalType": "uint256",
          "name": "amount",
          "type": "uint256"
        }
      ],
      "name": "approve",
      "outputs": [
        {
          "internalType": "bool",
          "name": "",
          "type": "bool"
        }
      ],
      "stateMutability": "nonpayable",
      "type": "function"
    },
    {
      "inputs": [
        {
          "internalType": "address",
          "name": "account",
          "type": "address"
        }
      ],
      "name": "balanceOf",
      "outputs": [
        {
          "internalType": "uint256",
          "name": "",
          "type": "uint256"
        }
      ],
      "stateMutability": "view",
      "type": "function"
    },
    {
      "inputs": [],
      "name": "decimals",
      "outputs": [
        {
          "internalType": "uint8",
          "name": "",
          "type": "uint8"
        }
      ],
      "stateMutability": "view",
      "type": "function"
    },
    {
      "inputs": [
        {
          "internalType": "address",
          "name": "spender",
          "type": "address"
        },
        {
          "internalType": "uint256",
          "name": "subtractedValue",
          "type": "uint256"
        }
      ],
      "name": "decreaseAllowance",
      "outputs": [
        {
          "internalType": "bool",
          "name": "",
          "type": "bool"
        }
      ],
      "stateMutability": "nonpayable",
      "type": "function"
    },
    {
      "inputs": [
        {
          "internalType": "uint256",
          "name": "amount",
          "type": "uint256"
        }
      ],
      "name": "fromUSD",
      "outputs": [
        {
          "internalType": "uint256",
          "name": "",
          "type": "uint256"
        }
      ],
      "stateMutability": "view",
      "type": "function"
    },
    {
      "inputs": [
        {
          "internalType": "address",
          "name": "spender",
          "type": "address"
        },
        {
          "internalType": "uint256",
          "name": "addedValue",
          "type": "uint256"
        }
      ],
      "name": "increaseAllowance",
      "outputs": [
        {
          "internalType": "bool",
          "name": "",
          "type": "bool"
        }
      ],
      "stateMutability": "nonpayable",
      "type": "function"
    },
    {
      "inputs": [
        {
          "internalType": "address",
          "name": "_outbox",
          "type": "address"
        },
        {
          "internalType": "address",
          "name": "_xUSDC",
          "type": "address"
        },
        {
          "internalType": "string",
          "name": "_name",
          "type": "string"
        },
        {
          "internalType": "string",
          "name": "_symbol",
          "type": "string"
        }
      ],
      "name": "initialize",
      "outputs": [],
      "stateMutability": "nonpayable",
      "type": "function"
    },
    {
      "inputs": [],
      "name": "name",
      "outputs": [
        {
          "internalType": "string",
          "name": "",
          "type": "string"
        }
      ],
      "stateMutability": "view",
      "type": "function"
    },
    {
      "inputs": [
        {
          "internalType": "address",
          "name": "_tCO2",
          "type": "address"
        },
        {
          "internalType": "uint256",
          "name": "_amountXCO2",
          "type": "uint256"
        },
        {
          "internalType": "string",
          "name": "_entity",
          "type": "string"
        },
        {
          "internalType": "address",
          "name": "_beneficiary",
          "type": "address"
        },
        {
          "internalType": "string",
          "name": "_beneficiaryName",
          "type": "string"
        },
        {
          "internalType": "string",
          "name": "_msg",
          "type": "string"
        }
      ],
      "name": "offsetX",
      "outputs": [],
      "stateMutability": "payable",
      "type": "function"
    },
    {
      "inputs": [],
      "name": "oracle",
      "outputs": [
        {
          "internalType": "address",
          "name": "",
          "type": "address"
        }
      ],
      "stateMutability": "view",
      "type": "function"
    },
    {
      "inputs": [],
      "name": "outbox",
      "outputs": [
        {
          "internalType": "address",
          "name": "",
          "type": "address"
        }
      ],
      "stateMutability": "view",
      "type": "function"
    },
    {
      "inputs": [],
      "name": "owner",
      "outputs": [
        {
          "internalType": "address",
          "name": "",
          "type": "address"
        }
      ],
      "stateMutability": "view",
      "type": "function"
    },
    {
      "inputs": [],
      "name": "renounceOwnership",
      "outputs": [],
      "stateMutability": "nonpayable",
      "type": "function"
    },
    {
      "inputs": [
        {
          "internalType": "address",
          "name": "_oracle",
          "type": "address"
        }
      ],
      "name": "setDependencies",
      "outputs": [],
      "stateMutability": "nonpayable",
      "type": "function"
    },
    {
      "inputs": [
        {
          "internalType": "address",
          "name": "_outbox",
          "type": "address"
        }
      ],
      "name": "setOutbox",
      "outputs": [],
      "stateMutability": "nonpayable",
      "type": "function"
    },
    {
      "inputs": [
        {
          "internalType": "address",
          "name": "_xUSDC",
          "type": "address"
        }
      ],
      "name": "setXUSDC",
      "outputs": [],
      "stateMutability": "nonpayable",
      "type": "function"
    },
    {
      "inputs": [],
      "name": "symbol",
      "outputs": [
        {
          "internalType": "string",
          "name": "",
          "type": "string"
        }
      ],
      "stateMutability": "view",
      "type": "function"
    },
    {
      "inputs": [
        {
          "internalType": "uint256",
          "name": "amount",
          "type": "uint256"
        }
      ],
      "name": "toUSD",
      "outputs": [
        {
          "internalType": "uint256",
          "name": "",
          "type": "uint256"
        }
      ],
      "stateMutability": "view",
      "type": "function"
    },
    {
      "inputs": [],
      "name": "totalSupply",
      "outputs": [
        {
          "internalType": "uint256",
          "name": "",
          "type": "uint256"
        }
      ],
      "stateMutability": "view",
      "type": "function"
    },
    {
      "inputs": [
        {
          "internalType": "address",
          "name": "to",
          "type": "address"
        },
        {
          "internalType": "uint256",
          "name": "amount",
          "type": "uint256"
        }
      ],
      "name": "transfer",
      "outputs": [
        {
          "internalType": "bool",
          "name": "",
          "type": "bool"
        }
      ],
      "stateMutability": "nonpayable",
      "type": "function"
    },
    {
      "inputs": [
        {
          "internalType": "address",
          "name": "from",
          "type": "address"
        },
        {
          "internalType": "address",
          "name": "to",
          "type": "address"
        },
        {
          "internalType": "uint256",
          "name": "amount",
          "type": "uint256"
        }
      ],
      "name": "transferFrom",
      "outputs": [
        {
          "internalType": "bool",
          "name": "",
          "type": "bool"
        }
      ],
      "stateMutability": "nonpayable",
      "type": "function"
    },
    {
      "inputs": [
        {
          "internalType": "address",
          "name": "newOwner",
          "type": "address"
        }
      ],
      "name": "transferOwnership",
      "outputs": [],
      "stateMutability": "nonpayable",
      "type": "function"
    },
    {
      "inputs": [],
      "name": "withdrawFunds",
      "outputs": [],
      "stateMutability": "nonpayable",
      "type": "function"
    },
    {
      "inputs": [],
      "name": "xUSDC",
      "outputs": [
        {
          "internalType": "address",
          "name": "",
          "type": "address"
        }
      ],
      "stateMutability": "view",
      "type": "function"
    }
  ],
  "bytecode": {
    "object": "0x608060405234801561001057600080fd5b50611859806100206000396000f3fe6080604052600436106101665760003560e01c80638389cb18116100d1578063a9059cbb1161008a578063dd62ed3e11610064578063dd62ed3e14610421578063e405702714610441578063f2fde38b14610461578063ff204f3b1461048157600080fd5b8063a9059cbb146103ce578063b587c21a146103ee578063ce11e6ab1461040157600080fd5b80638389cb181461031b5780638da5cb5b1461033b57806394a74a371461035957806395d89b41146103795780639d9969ed1461038e578063a457c2d7146103ae57600080fd5b8063313ce56711610123578063313ce5671461023c578063395093511461025857806370a0823114610278578063715018a6146102ae5780637dc0d1d0146102c35780637f6e66b3146102fb57600080fd5b806306fdde031461016b578063095ea7b31461019657806318160ddd146101c65780632016a0d2146101e557806323b872dd1461020757806324600fc314610227575b600080fd5b34801561017757600080fd5b506101806104a1565b60405161018d919061122d565b60405180910390f35b3480156101a257600080fd5b506101b66101b136600461125c565b610533565b604051901515815260200161018d565b3480156101d257600080fd5b506035545b60405190815260200161018d565b3480156101f157600080fd5b50610205610200366004611329565b61054d565b005b34801561021357600080fd5b506101b66102223660046113ae565b6106a1565b34801561023357600080fd5b506102056106c5565b34801561024857600080fd5b506040516012815260200161018d565b34801561026457600080fd5b506101b661027336600461125c565b6106fc565b34801561028457600080fd5b506101d76102933660046113ea565b6001600160a01b031660009081526033602052604090205490565b3480156102ba57600080fd5b5061020561071e565b3480156102cf57600080fd5b506099546102e3906001600160a01b031681565b6040516001600160a01b03909116815260200161018d565b34801561030757600080fd5b506102056103163660046113ea565b610732565b34801561032757600080fd5b506102056103363660046113ea565b61075c565b34801561034757600080fd5b506065546001600160a01b03166102e3565b34801561036557600080fd5b506101d7610374366004611405565b610786565b34801561038557600080fd5b506101806108a0565b34801561039a57600080fd5b506101d76103a9366004611405565b6108af565b3480156103ba57600080fd5b506101b66103c936600461125c565b6109b7565b3480156103da57600080fd5b506101b66103e936600461125c565b610a32565b6102056103fc366004611467565b610a40565b34801561040d57600080fd5b506097546102e3906001600160a01b031681565b34801561042d57600080fd5b506101d761043c366004611531565b610ba0565b34801561044d57600080fd5b506098546102e3906001600160a01b031681565b34801561046d57600080fd5b5061020561047c3660046113ea565b610bcb565b34801561048d57600080fd5b5061020561049c3660046113ea565b610c41565b6060603680546104b090611564565b80601f01602080910402602001604051908101604052809291908181526020018280546104dc90611564565b80156105295780601f106104fe57610100808354040283529160200191610529565b820191906000526020600020905b81548152906001019060200180831161050c57829003601f168201915b5050505050905090565b600033610541818585610c6b565b60019150505b92915050565b600054610100900460ff161580801561056d5750600054600160ff909116105b806105875750303b158015610587575060005460ff166001145b6105ef5760405162461bcd60e51b815260206004820152602e60248201527f496e697469616c697a61626c653a20636f6e747261637420697320616c72656160448201526d191e481a5b9a5d1a585b1a5e995960921b60648201526084015b60405180910390fd5b6000805460ff191660011790558015610612576000805461ff0019166101001790555b61061a610d8f565b609780546001600160a01b038088166001600160a01b03199283161790925560988054928716929091169190911790556106548383610dbe565b801561069a576000805461ff0019169055604051600181527f7f26b83ff96e1f2b6a682f133852f6798a09c465da95921460cefb38474024989060200160405180910390a15b5050505050565b6000336106af858285610df3565b6106ba858585610e6d565b506001949350505050565b6106cd611018565b60405133904780156108fc02916000818181858888f193505050501580156106f9573d6000803e3d6000fd5b50565b60003361054181858561070f8383610ba0565b61071991906115b5565b610c6b565b610726611018565b6107306000611072565b565b61073a611018565b609880546001600160a01b0319166001600160a01b0392909216919091179055565b610764611018565b609980546001600160a01b0319166001600160a01b0392909216919091179055565b600080609960009054906101000a90046001600160a01b03166001600160a01b03166350d25bcd6040518163ffffffff1660e01b8152600401602060405180830381865afa1580156107dc573d6000803e3d6000fd5b505050506040513d601f19601f8201168201806040525081019061080091906115cd565b905080609960009054906101000a90046001600160a01b03166001600160a01b031663313ce5676040518163ffffffff1660e01b8152600401602060405180830381865afa158015610856573d6000803e3d6000fd5b505050506040513d601f19601f8201168201806040525081019061087a91906115cd565b61088590600a6116ca565b61088f90856116d6565b61089991906116f5565b9392505050565b6060603780546104b090611564565b600080609960009054906101000a90046001600160a01b03166001600160a01b03166350d25bcd6040518163ffffffff1660e01b8152600401602060405180830381865afa158015610905573d6000803e3d6000fd5b505050506040513d601f19601f8201168201806040525081019061092991906115cd565b9050609960009054906101000a90046001600160a01b03166001600160a01b031663313ce5676040518163ffffffff1660e01b8152600401602060405180830381865afa15801561097e573d6000803e3d6000fd5b505050506040513d601f19601f820116820180604052508101906109a291906115cd565b6109ad90600a6116ca565b61088f84836116d6565b600033816109c58286610ba0565b905083811015610a255760405162461bcd60e51b815260206004820152602560248201527f45524332303a2064656372656173656420616c6c6f77616e63652062656c6f77604482015264207a65726f60d81b60648201526084016105e6565b6106ba8286868403610c6b565b600033610541818585610e6d565b87610a4a346108af565b1015610a8e5760405162461bcd60e51b81526020600482015260136024820152722737ba1032b737bab3b4103337b9103c21a79960691b60448201526064016105e6565b6097546098546001600160a01b039182169163fa31de019163706f6c7991168c610abd64e8d4a510008e6116f5565b8c8c8c8c8c8c8c604051602001610adc99989796959493929190611740565b6040516020818303038152906040526040518463ffffffff1660e01b8152600401610b09939291906117aa565b6020604051808303816000875af1158015610b28573d6000803e3d6000fd5b505050506040513d601f19601f82011682018060405250810190610b4c91906115cd565b5060405163706f6c7981526001600160a01b03808716918a918c16907f917e03cbde5457cdbf299beea5ca8b2a8ac6b1e85030cf06275ec8ecb519c5fa9060200160405180910390a4505050505050505050565b6001600160a01b03918216600090815260346020908152604080832093909416825291909152205490565b610bd3611018565b6001600160a01b038116610c385760405162461bcd60e51b815260206004820152602660248201527f4f776e61626c653a206e6577206f776e657220697320746865207a65726f206160448201526564647265737360d01b60648201526084016105e6565b6106f981611072565b610c49611018565b609780546001600160a01b0319166001600160a01b0392909216919091179055565b6001600160a01b038316610ccd5760405162461bcd60e51b8152602060048201526024808201527f45524332303a20617070726f76652066726f6d20746865207a65726f206164646044820152637265737360e01b60648201526084016105e6565b6001600160a01b038216610d2e5760405162461bcd60e51b815260206004820152602260248201527f45524332303a20617070726f766520746f20746865207a65726f206164647265604482015261737360f01b60648201526084016105e6565b6001600160a01b0383811660008181526034602090815260408083209487168084529482529182902085905590518481527f8c5be1e5ebec7d5bd14f71427d1e84f3dd0314c0f7b2291e5b200ac8c7c3b925910160405180910390a3505050565b600054610100900460ff16610db65760405162461bcd60e51b81526004016105e6906117d8565b6107306110c4565b600054610100900460ff16610de55760405162461bcd60e51b81526004016105e6906117d8565b610def82826110f4565b5050565b6000610dff8484610ba0565b90506000198114610e675781811015610e5a5760405162461bcd60e51b815260206004820152601d60248201527f45524332303a20696e73756666696369656e7420616c6c6f77616e636500000060448201526064016105e6565b610e678484848403610c6b565b50505050565b6001600160a01b038316610ed15760405162461bcd60e51b815260206004820152602560248201527f45524332303a207472616e736665722066726f6d20746865207a65726f206164604482015264647265737360d81b60648201526084016105e6565b6001600160a01b038216610f335760405162461bcd60e51b815260206004820152602360248201527f45524332303a207472616e7366657220746f20746865207a65726f206164647260448201526265737360e81b60648201526084016105e6565b6001600160a01b03831660009081526033602052604090205481811015610fab5760405162461bcd60e51b815260206004820152602660248201527f45524332303a207472616e7366657220616d6f756e7420657863656564732062604482015265616c616e636560d01b60648201526084016105e6565b6001600160a01b0380851660008181526033602052604080822086860390559286168082529083902080548601905591517fddf252ad1be2c89b69c2b068fc378daa952ba7f163c4a11628f55a4df523b3ef9061100b9086815260200190565b60405180910390a3610e67565b6065546001600160a01b031633146107305760405162461bcd60e51b815260206004820181905260248201527f4f776e61626c653a2063616c6c6572206973206e6f7420746865206f776e657260448201526064016105e6565b606580546001600160a01b038381166001600160a01b0319831681179093556040519116919082907f8be0079c531659141344cd1fd0a4f28419497f9722a3daafe3b4186f6b6457e090600090a35050565b600054610100900460ff166110eb5760405162461bcd60e51b81526004016105e6906117d8565b61073033611072565b600054610100900460ff1661111b5760405162461bcd60e51b81526004016105e6906117d8565b815161112e906036906020850190611147565b508051611142906037906020840190611147565b505050565b82805461115390611564565b90600052602060002090601f01602090048101928261117557600085556111bb565b82601f1061118e57805160ff19168380011785556111bb565b828001600101855582156111bb579182015b828111156111bb5782518255916020019190600101906111a0565b506111c79291506111cb565b5090565b5b808211156111c757600081556001016111cc565b6000815180845260005b81811015611206576020818501810151868301820152016111ea565b81811115611218576000602083870101525b50601f01601f19169290920160200192915050565b60208152600061089960208301846111e0565b80356001600160a01b038116811461125757600080fd5b919050565b6000806040838503121561126f57600080fd5b61127883611240565b946020939093013593505050565b634e487b7160e01b600052604160045260246000fd5b600082601f8301126112ad57600080fd5b813567ffffffffffffffff808211156112c8576112c8611286565b604051601f8301601f19908116603f011681019082821181831017156112f0576112f0611286565b8160405283815286602085880101111561130957600080fd5b836020870160208301376000602085830101528094505050505092915050565b6000806000806080858703121561133f57600080fd5b61134885611240565b935061135660208601611240565b9250604085013567ffffffffffffffff8082111561137357600080fd5b61137f8883890161129c565b9350606087013591508082111561139557600080fd5b506113a28782880161129c565b91505092959194509250565b6000806000606084860312156113c357600080fd5b6113cc84611240565b92506113da60208501611240565b9150604084013590509250925092565b6000602082840312156113fc57600080fd5b61089982611240565b60006020828403121561141757600080fd5b5035919050565b60008083601f84011261143057600080fd5b50813567ffffffffffffffff81111561144857600080fd5b60208301915083602082850101111561146057600080fd5b9250929050565b600080600080600080600080600060c08a8c03121561148557600080fd5b61148e8a611240565b985060208a0135975060408a013567ffffffffffffffff808211156114b257600080fd5b6114be8d838e0161141e565b90995097508791506114d260608d01611240565b965060808c01359150808211156114e857600080fd5b6114f48d838e0161141e565b909650945060a08c013591508082111561150d57600080fd5b5061151a8c828d0161141e565b915080935050809150509295985092959850929598565b6000806040838503121561154457600080fd5b61154d83611240565b915061155b60208401611240565b90509250929050565b600181811c9082168061157857607f821691505b6020821081141561159957634e487b7160e01b600052602260045260246000fd5b50919050565b634e487b7160e01b600052601160045260246000fd5b600082198211156115c8576115c861159f565b500190565b6000602082840312156115df57600080fd5b5051919050565b600181815b808511156116215781600019048211156116075761160761159f565b8085161561161457918102915b93841c93908002906115eb565b509250929050565b60008261163857506001610547565b8161164557506000610547565b816001811461165b576002811461166557611681565b6001915050610547565b60ff8411156116765761167661159f565b50506001821b610547565b5060208310610133831016604e8410600b84101617156116a4575081810a610547565b6116ae83836115e6565b80600019048211156116c2576116c261159f565b029392505050565b60006108998383611629565b60008160001904831182151516156116f0576116f061159f565b500290565b60008261171257634e487b7160e01b600052601260045260246000fd5b500490565b81835281816020850137506000828201602090810191909152601f909101601f19169091010190565b600060018060a01b03808c1683528a602084015260c0604084015261176960c084018a8c611717565b8189166060850152838103608085015261178481888a611717565b91505082810360a084015261179a818587611717565b9c9b505050505050505050505050565b63ffffffff841681528260208201526060604082015260006117cf60608301846111e0565b95945050505050565b6020808252602b908201527f496e697469616c697a61626c653a20636f6e7472616374206973206e6f74206960408201526a6e697469616c697a696e6760a81b60608201526080019056fea264697066735822122073cb6abc4520a9eb343be888e99c8fab8ffdf0e1eea7825ca9eb6dc1b76f84d964736f6c634300080b0033",
    "linkReferences": {}
  },
  "methodIdentifiers": {
    "allowance(address,address)": "dd62ed3e",
    "approve(address,uint256)": "095ea7b3",
    "balanceOf(address)": "70a08231",
    "decimals()": "313ce567",
    "decreaseAllowance(address,uint256)": "a457c2d7",
    "fromUSD(uint256)": "94a74a37",
    "increaseAllowance(address,uint256)": "39509351",
    "initialize(address,address,string,string)": "2016a0d2",
    "name()": "06fdde03",
    "offsetX(address,uint256,string,address,string,string)": "b587c21a",
    "oracle()": "7dc0d1d0",
    "outbox()": "ce11e6ab",
    "owner()": "8da5cb5b",
    "renounceOwnership()": "715018a6",
    "setDependencies(address)": "8389cb18",
    "setOutbox(address)": "ff204f3b",
    "setXUSDC(address)": "7f6e66b3",
    "symbol()": "95d89b41",
    "toUSD(uint256)": "9d9969ed",
    "totalSupply()": "18160ddd",
    "transfer(address,uint256)": "a9059cbb",
    "transferFrom(address,address,uint256)": "23b872dd",
    "transferOwnership(address)": "f2fde38b",
    "withdrawFunds()": "24600fc3",
    "xUSDC()": "e4057027"
  },
  "id": 67
}