{
  "abi": [
    {
      "anonymous": false,
      "inputs": [
        {
          "indexed": false,
          "internalType": "uint8",
          "name": "version",
          "type": "uint8"
        }
      ],
      "name": "Initialized",
      "type": "event"
    },
    {
      "anonymous": false,
      "inputs": [
        {
          "indexed": true,
          "internalType": "address",
          "name": "previousOwner",
          "type": "address"
        },
        {
          "indexed": true,
          "internalType": "address",
          "name": "newOwner",
          "type": "address"
        }
      ],
      "name": "OwnershipTransferred",
      "type": "event"
    },
    {
      "inputs": [],
      "name": "CERT",
      "outputs": [
        {
          "internalType": "address",
          "name": "",
          "type": "address"
        }
      ],
      "stateMutability": "view",
      "type": "function"
    },
    {
      "inputs": [],
      "name": "NCT",
      "outputs": [
        {
          "internalType": "address",
          "name": "",
          "type": "address"
        }
      ],
      "stateMutability": "view",
      "type": "function"
    },
    {
      "inputs": [],
      "name": "SUSHI_ROUTER",
      "outputs": [
        {
          "internalType": "address",
          "name": "",
          "type": "address"
        }
      ],
      "stateMutability": "view",
      "type": "function"
    },
    {
      "inputs": [],
      "name": "USDC",
      "outputs": [
        {
          "internalType": "address",
          "name": "",
          "type": "address"
        }
      ],
      "stateMutability": "view",
      "type": "function"
    },
    {
      "inputs": [
        {
          "internalType": "address",
          "name": "_tco2",
          "type": "address"
        },
        {
          "internalType": "uint256",
          "name": "_amountToOffset",
          "type": "uint256"
        }
      ],
      "name": "getExpectedNCT",
      "outputs": [
        {
          "internalType": "uint256",
          "name": "",
          "type": "uint256"
        }
      ],
      "stateMutability": "view",
      "type": "function"
    },
    {
      "inputs": [
        {
          "internalType": "address",
          "name": "_tco2",
          "type": "address"
        },
        {
          "internalType": "uint256",
          "name": "_amountToOffset",
          "type": "uint256"
        }
      ],
      "name": "getUSDCNeeded",
      "outputs": [
        {
          "internalType": "uint256",
          "name": "",
          "type": "uint256"
        }
      ],
      "stateMutability": "view",
      "type": "function"
    },
    {
      "inputs": [
        {
          "internalType": "address",
          "name": "_xUSDC",
          "type": "address"
        }
      ],
      "name": "initialize",
      "outputs": [],
      "stateMutability": "nonpayable",
      "type": "function"
    },
    {
      "inputs": [
        {
          "internalType": "address",
          "name": "operator",
          "type": "address"
        },
        {
          "internalType": "address",
          "name": "from",
          "type": "address"
        },
        {
          "internalType": "uint256",
          "name": "tokenId",
          "type": "uint256"
        },
        {
          "internalType": "bytes",
          "name": "data",
          "type": "bytes"
        }
      ],
      "name": "onERC721Received",
      "outputs": [
        {
          "internalType": "bytes4",
          "name": "",
          "type": "bytes4"
        }
      ],
      "stateMutability": "nonpayable",
      "type": "function"
    },
    {
      "inputs": [],
      "name": "owner",
      "outputs": [
        {
          "internalType": "address",
          "name": "",
          "type": "address"
        }
      ],
      "stateMutability": "view",
      "type": "function"
    },
    {
      "inputs": [],
      "name": "renounceOwnership",
      "outputs": [],
      "stateMutability": "nonpayable",
      "type": "function"
    },
    {
      "inputs": [
        {
          "internalType": "address",
          "name": "_tco2",
          "type": "address"
        },
        {
          "internalType": "uint256",
          "name": "_amountUSDC",
          "type": "uint256"
        },
        {
          "internalType": "string",
          "name": "_entity",
          "type": "string"
        },
        {
          "internalType": "address",
          "name": "_beneficiary",
          "type": "address"
        },
        {
          "internalType": "string",
          "name": "_beneficiaryName",
          "type": "string"
        },
        {
          "internalType": "string",
          "name": "_msg",
          "type": "string"
        }
      ],
      "name": "retire",
      "outputs": [],
      "stateMutability": "nonpayable",
      "type": "function"
    },
    {
      "inputs": [
        {
          "internalType": "address",
          "name": "_xUSDC",
          "type": "address"
        }
      ],
      "name": "setXUSDC",
      "outputs": [],
      "stateMutability": "nonpayable",
      "type": "function"
    },
    {
      "inputs": [
        {
          "internalType": "uint256",
          "name": "_amountUSDC",
          "type": "uint256"
        }
      ],
      "name": "swap",
      "outputs": [
        {
          "internalType": "uint256",
          "name": "",
          "type": "uint256"
        }
      ],
      "stateMutability": "nonpayable",
      "type": "function"
    },
    {
      "inputs": [
        {
          "internalType": "address",
          "name": "newOwner",
          "type": "address"
        }
      ],
      "name": "transferOwnership",
      "outputs": [],
      "stateMutability": "nonpayable",
      "type": "function"
    },
    {
      "inputs": [],
      "name": "xUSDC",
      "outputs": [
        {
          "internalType": "address",
          "name": "",
          "type": "address"
        }
      ],
      "stateMutability": "view",
      "type": "function"
    }
  ],
  "bytecode": {
    "object": "0x608060405234801561001057600080fd5b50611373806100206000396000f3fe608060405234801561001057600080fd5b50600436106100f55760003560e01c806389a3027111610097578063c4d66de811610066578063c4d66de814610230578063e405702714610243578063f2fde38b14610256578063f5a7c7881461026957600080fd5b806389a30271146101d65780638da5cb5b146101f157806394b918de14610202578063b0e7af761461021557600080fd5b80635503eb8d116100d35780635503eb8d1461018b578063715018a6146101a65780637f6e66b3146101b057806380cd493a146101c357600080fd5b80630c24f4fa146100fa578063150b7a0214610132578063343a9a761461016a575b600080fd5b610115731b02da8cb0d097eb8d57a175b88c7d8b4799750681565b6040516001600160a01b0390911681526020015b60405180910390f35b610151610140366004610eb3565b630a85bd0160e11b95945050505050565b6040516001600160e01b03199091168152602001610129565b61017d610178366004610f22565b61027c565b604051908152602001610129565b61011573d838290e877e0188a4a44700463419ed96c1610781565b6101ae610479565b005b6101ae6101be366004610f4c565b61048d565b61017d6101d1366004610f22565b6104b7565b610115732791bca1f2de4661ed88a30c99a7a9449aa8417481565b6033546001600160a01b0316610115565b61017d610210366004610f6e565b6106bc565b610115735e377f16e4ec6001652befd737341a28889af00281565b6101ae61023e366004610f4c565b6108d0565b606554610115906001600160a01b031681565b6101ae610264366004610f4c565b610a03565b6101ae610277366004610f87565b610a7c565b6040805160018082528183019092526000918291906020808301908036833701905050905083816000815181106102b5576102b5611067565b6001600160a01b039290921660209283029190910190910152604080516001808252818301909252600091816020016020820280368337019050509050838160008151811061030657610306611067565b60209081029190910101526040516320eddd9560e11b815260009073d838290e877e0188a4a44700463419ed96c16107906341dbbb2a9061034d90869086906004016110c1565b602060405180830381865afa15801561036a573d6000803e3d6000fd5b505050506040513d601f19601f8201168201806040525081019061038e9190611118565b905060006103c473d838290e877e0188a4a44700463419ed96c16107732791bca1f2de4661ed88a30c99a7a9449aa84174610d15565b90506000731b02da8cb0d097eb8d57a175b88c7d8b47997506631f00ca746103ec8986611147565b846040518363ffffffff1660e01b815260040161040a92919061115f565b600060405180830381865afa158015610427573d6000803e3d6000fd5b505050506040513d6000823e601f3d908101601f1916820160405261044f9190810190611180565b90508060008151811061046457610464611067565b60200260200101519550505050505092915050565b610481610da2565b61048b6000610dfc565b565b610495610da2565b606580546001600160a01b0319166001600160a01b0392909216919091179055565b6040805160018082528183019092526000918291906020808301908036833701905050905083816000815181106104f0576104f0611067565b6001600160a01b039290921660209283029190910190910152604080516001808252818301909252600091816020016020820280368337019050509050838160008151811061054157610541611067565b60209081029190910101526040516320eddd9560e11b815260009073d838290e877e0188a4a44700463419ed96c16107906341dbbb2a9061058890869086906004016110c1565b602060405180830381865afa1580156105a5573d6000803e3d6000fd5b505050506040513d601f19601f820116820180604052508101906105c99190611118565b905060006105d78683611147565b9050600061060d732791bca1f2de4661ed88a30c99a7a9449aa8417473d838290e877e0188a4a44700463419ed96c16107610d15565b6040516307c0329d60e21b8152909150600090731b02da8cb0d097eb8d57a175b88c7d8b4799750690631f00ca749061064c908690869060040161115f565b600060405180830381865afa158015610669573d6000803e3d6000fd5b505050506040513d6000823e601f3d908101601f191682016040526106919190810190611180565b9050806000815181106106a6576106a6611067565b6020026020010151965050505050505092915050565b6000731b02da8cb0d097eb8d57a175b88c7d8b4799750681610706732791bca1f2de4661ed88a30c99a7a9449aa8417473d838290e877e0188a4a44700463419ed96c16107610d15565b90506000826001600160a01b031663d06ca61f86846040518363ffffffff1660e01b815260040161073892919061115f565b600060405180830381865afa158015610755573d6000803e3d6000fd5b505050506040513d6000823e601f3d908101601f1916820160405261077d9190810190611180565b60405163095ea7b360e01b8152731b02da8cb0d097eb8d57a175b88c7d8b47997506600482015260248101879052909150732791bca1f2de4661ed88a30c99a7a9449aa841749063095ea7b3906044016020604051808303816000875af11580156107ec573d6000803e3d6000fd5b505050506040513d601f19601f82011682018060405250810190610810919061123e565b506000836001600160a01b03166338ed1739878460008151811061083657610836611067565b60200260200101518630426040518663ffffffff1660e01b8152600401610861959493929190611260565b6000604051808303816000875af1158015610880573d6000803e3d6000fd5b505050506040513d6000823e601f3d908101601f191682016040526108a89190810190611180565b9050806001815181106108bd576108bd611067565b6020026020010151945050505050919050565b600054610100900460ff16158080156108f05750600054600160ff909116105b8061090a5750303b15801561090a575060005460ff166001145b6109725760405162461bcd60e51b815260206004820152602e60248201527f496e697469616c697a61626c653a20636f6e747261637420697320616c72656160448201526d191e481a5b9a5d1a585b1a5e995960921b60648201526084015b60405180910390fd5b6000805460ff191660011790558015610995576000805461ff0019166101001790555b606580546001600160a01b0319166001600160a01b0384161790556109b933610dfc565b80156109ff576000805461ff0019169055604051600181527f7f26b83ff96e1f2b6a682f133852f6798a09c465da95921460cefb38474024989060200160405180910390a15b5050565b610a0b610da2565b6001600160a01b038116610a705760405162461bcd60e51b815260206004820152602660248201527f4f776e61626c653a206e6577206f776e657220697320746865207a65726f206160448201526564647265737360d01b6064820152608401610969565b610a7981610dfc565b50565b6065546001600160a01b03163314610a9357600080fd5b6000610a9e896106bc565b60408051600180825281830190925291925060009190602080830190803683370190505090508a81600081518110610ad857610ad8611067565b6001600160a01b0392909216602092830291909101909101526040805160018082528183019092526000918160200160208202803683370190505090508281600081518110610b2957610b29611067565b60209081029190910101526040516370a0823160e01b81523060048201526000906001600160a01b038e16906370a0823190602401602060405180830381865afa158015610b7b573d6000803e3d6000fd5b505050506040513d601f19601f82011682018060405250810190610b9f9190611118565b6040516315aaa0a160e11b815290915073d838290e877e0188a4a44700463419ed96c1610790632b55414290610bdb90869086906004016110c1565b600060405180830381600087803b158015610bf557600080fd5b505af1158015610c09573d6000803e3d6000fd5b505050506000818e6001600160a01b03166370a08231306040518263ffffffff1660e01b8152600401610c4b91906001600160a01b0391909116815260200190565b602060405180830381865afa158015610c68573d6000803e3d6000fd5b505050506040513d601f19601f82011682018060405250810190610c8c9190611118565b610c96919061129c565b6040516302ef292960e41b81529091506001600160a01b038f1690632ef2929090610cd3908f908f908f908f908f908f908f908b906004016112dc565b600060405180830381600087803b158015610ced57600080fd5b505af1158015610d01573d6000803e3d6000fd5b505050505050505050505050505050505050565b604080516002808252606080830184529260009291906020830190803683370190505090508381600081518110610d4e57610d4e611067565b60200260200101906001600160a01b031690816001600160a01b0316815250508281600181518110610d8257610d82611067565b6001600160a01b0390921660209283029190910190910152905092915050565b6033546001600160a01b0316331461048b5760405162461bcd60e51b815260206004820181905260248201527f4f776e61626c653a2063616c6c6572206973206e6f7420746865206f776e65726044820152606401610969565b603380546001600160a01b038381166001600160a01b0319831681179093556040519116919082907f8be0079c531659141344cd1fd0a4f28419497f9722a3daafe3b4186f6b6457e090600090a35050565b80356001600160a01b0381168114610e6557600080fd5b919050565b60008083601f840112610e7c57600080fd5b50813567ffffffffffffffff811115610e9457600080fd5b602083019150836020828501011115610eac57600080fd5b9250929050565b600080600080600060808688031215610ecb57600080fd5b610ed486610e4e565b9450610ee260208701610e4e565b935060408601359250606086013567ffffffffffffffff811115610f0557600080fd5b610f1188828901610e6a565b969995985093965092949392505050565b60008060408385031215610f3557600080fd5b610f3e83610e4e565b946020939093013593505050565b600060208284031215610f5e57600080fd5b610f6782610e4e565b9392505050565b600060208284031215610f8057600080fd5b5035919050565b600080600080600080600080600060c08a8c031215610fa557600080fd5b610fae8a610e4e565b985060208a0135975060408a013567ffffffffffffffff80821115610fd257600080fd5b610fde8d838e01610e6a565b9099509750879150610ff260608d01610e4e565b965060808c013591508082111561100857600080fd5b6110148d838e01610e6a565b909650945060a08c013591508082111561102d57600080fd5b5061103a8c828d01610e6a565b915080935050809150509295985092959850929598565b634e487b7160e01b600052604160045260246000fd5b634e487b7160e01b600052603260045260246000fd5b600081518084526020808501945080840160005b838110156110b65781516001600160a01b031687529582019590820190600101611091565b509495945050505050565b6040815260006110d4604083018561107d565b82810360208481019190915284518083528582019282019060005b8181101561110b578451835293830193918301916001016110ef565b5090979650505050505050565b60006020828403121561112a57600080fd5b5051919050565b634e487b7160e01b600052601160045260246000fd5b6000821982111561115a5761115a611131565b500190565b828152604060208201526000611178604083018461107d565b949350505050565b6000602080838503121561119357600080fd5b825167ffffffffffffffff808211156111ab57600080fd5b818501915085601f8301126111bf57600080fd5b8151818111156111d1576111d1611051565b8060051b604051601f19603f830116810181811085821117156111f6576111f6611051565b60405291825284820192508381018501918883111561121457600080fd5b938501935b8285101561123257845184529385019392850192611219565b98975050505050505050565b60006020828403121561125057600080fd5b81518015158114610f6757600080fd5b85815284602082015260a06040820152600061127f60a083018661107d565b6001600160a01b0394909416606083015250608001529392505050565b6000828210156112ae576112ae611131565b500390565b81835281816020850137506000828201602090810191909152601f909101601f19169091010190565b60a0815260006112f060a083018a8c6112b3565b6001600160a01b0389166020840152828103604084015261131281888a6112b3565b905082810360608401526113278186886112b3565b915050826080830152999850505050505050505056fea26469706673582212205262dd4da41020447dd44c9451e88dba8d57594133e0df31ac90f9d42ba645e764736f6c634300080b0033",
    "linkReferences": {}
  },
  "methodIdentifiers": {
    "CERT()": "b0e7af76",
    "NCT()": "5503eb8d",
    "SUSHI_ROUTER()": "0c24f4fa",
    "USDC()": "89a30271",
    "getExpectedNCT(address,uint256)": "343a9a76",
    "getUSDCNeeded(address,uint256)": "80cd493a",
    "initialize(address)": "c4d66de8",
    "onERC721Received(address,address,uint256,bytes)": "150b7a02",
    "owner()": "8da5cb5b",
    "renounceOwnership()": "715018a6",
    "retire(address,uint256,string,address,string,string)": "f5a7c788",
    "setXUSDC(address)": "7f6e66b3",
    "swap(uint256)": "94b918de",
    "transferOwnership(address)": "f2fde38b",
    "xUSDC()": "e4057027"
  },
  "id": 66
}