{
  "abi": [
    {
      "anonymous": false,
      "inputs": [
        {
          "indexed": false,
          "internalType": "uint8",
          "name": "version",
          "type": "uint8"
        }
      ],
      "name": "Initialized",
      "type": "event"
    },
    {
      "anonymous": false,
      "inputs": [
        {
          "indexed": true,
          "internalType": "address",
          "name": "previousOwner",
          "type": "address"
        },
        {
          "indexed": true,
          "internalType": "address",
          "name": "newOwner",
          "type": "address"
        }
      ],
      "name": "OwnershipTransferred",
      "type": "event"
    },
    {
      "inputs": [],
      "name": "CERT",
      "outputs": [
        {
          "internalType": "address",
          "name": "",
          "type": "address"
        }
      ],
      "stateMutability": "view",
      "type": "function"
    },
    {
      "inputs": [],
      "name": "NCT",
      "outputs": [
        {
          "internalType": "address",
          "name": "",
          "type": "address"
        }
      ],
      "stateMutability": "view",
      "type": "function"
    },
    {
      "inputs": [],
      "name": "SUSHI_ROUTER",
      "outputs": [
        {
          "internalType": "address",
          "name": "",
          "type": "address"
        }
      ],
      "stateMutability": "view",
      "type": "function"
    },
    {
      "inputs": [],
      "name": "USDC",
      "outputs": [
        {
          "internalType": "address",
          "name": "",
          "type": "address"
        }
      ],
      "stateMutability": "view",
      "type": "function"
    },
    {
      "inputs": [
        {
          "internalType": "address",
          "name": "_tco2",
          "type": "address"
        },
        {
          "internalType": "uint256",
          "name": "_amountToOffset",
          "type": "uint256"
        }
      ],
      "name": "getExpectedNCT",
      "outputs": [
        {
          "internalType": "uint256",
          "name": "",
          "type": "uint256"
        }
      ],
      "stateMutability": "view",
      "type": "function"
    },
    {
      "inputs": [
        {
          "internalType": "address",
          "name": "_tco2",
          "type": "address"
        },
        {
          "internalType": "uint256",
          "name": "_amountToOffset",
          "type": "uint256"
        }
      ],
      "name": "getUSDCNeeded",
      "outputs": [
        {
          "internalType": "uint256",
          "name": "",
          "type": "uint256"
        }
      ],
      "stateMutability": "view",
      "type": "function"
    },
    {
      "inputs": [
        {
          "internalType": "address",
          "name": "_xUSDC",
          "type": "address"
        }
      ],
      "name": "initialize",
      "outputs": [],
      "stateMutability": "nonpayable",
      "type": "function"
    },
    {
      "inputs": [
        {
          "internalType": "address",
          "name": "operator",
          "type": "address"
        },
        {
          "internalType": "address",
          "name": "from",
          "type": "address"
        },
        {
          "internalType": "uint256",
          "name": "tokenId",
          "type": "uint256"
        },
        {
          "internalType": "bytes",
          "name": "data",
          "type": "bytes"
        }
      ],
      "name": "onERC721Received",
      "outputs": [
        {
          "internalType": "bytes4",
          "name": "",
          "type": "bytes4"
        }
      ],
      "stateMutability": "nonpayable",
      "type": "function"
    },
    {
      "inputs": [],
      "name": "owner",
      "outputs": [
        {
          "internalType": "address",
          "name": "",
          "type": "address"
        }
      ],
      "stateMutability": "view",
      "type": "function"
    },
    {
      "inputs": [],
      "name": "renounceOwnership",
      "outputs": [],
      "stateMutability": "nonpayable",
      "type": "function"
    },
    {
      "inputs": [
        {
          "internalType": "address",
          "name": "_tco2",
          "type": "address"
        },
        {
          "internalType": "uint256",
          "name": "_amountUSDC",
          "type": "uint256"
        },
        {
          "internalType": "address",
          "name": "_beneficiary",
          "type": "address"
        }
      ],
      "name": "retire",
      "outputs": [],
      "stateMutability": "nonpayable",
      "type": "function"
    },
    {
      "inputs": [
        {
          "internalType": "address",
          "name": "_xUSDC",
          "type": "address"
        }
      ],
      "name": "setXUSDC",
      "outputs": [],
      "stateMutability": "nonpayable",
      "type": "function"
    },
    {
      "inputs": [
        {
          "internalType": "uint256",
          "name": "_amountUSDC",
          "type": "uint256"
        }
      ],
      "name": "swap",
      "outputs": [
        {
          "internalType": "uint256",
          "name": "",
          "type": "uint256"
        }
      ],
      "stateMutability": "nonpayable",
      "type": "function"
    },
    {
      "inputs": [
        {
          "internalType": "address",
          "name": "",
          "type": "address"
        }
      ],
      "name": "tonsOffsetByAddress",
      "outputs": [
        {
          "internalType": "uint256",
          "name": "",
          "type": "uint256"
        }
      ],
      "stateMutability": "view",
      "type": "function"
    },
    {
      "inputs": [
        {
          "internalType": "address",
          "name": "newOwner",
          "type": "address"
        }
      ],
      "name": "transferOwnership",
      "outputs": [],
      "stateMutability": "nonpayable",
      "type": "function"
    },
    {
      "inputs": [],
      "name": "xUSDC",
      "outputs": [
        {
          "internalType": "address",
          "name": "",
          "type": "address"
        }
      ],
      "stateMutability": "view",
      "type": "function"
    }
  ],
  "bytecode": {
    "object": "0x608060405234801561001057600080fd5b506112d8806100206000396000f3fe608060405234801561001057600080fd5b50600436106101005760003560e01c806380cd493a11610097578063b0e7af7611610066578063b0e7af7614610240578063c4d66de81461025b578063e40570271461026e578063f2fde38b1461028157600080fd5b806380cd493a1461017557806389a30271146102015780638da5cb5b1461021c57806394b918de1461022d57600080fd5b80635503eb8d116100d35780635503eb8d146101b6578063715018a6146101d15780637f6e66b3146101db57806380b8553f146101ee57600080fd5b80630c24f4fa14610105578063150b7a021461013d578063343a9a76146101755780635073bb4314610196575b600080fd5b610120731b02da8cb0d097eb8d57a175b88c7d8b4799750681565b6040516001600160a01b0390911681526020015b60405180910390f35b61015c61014b366004610e82565b630a85bd0160e11b95945050505050565b6040516001600160e01b03199091168152602001610134565b610188610183366004610f1d565b610294565b604051908152602001610134565b6101886101a4366004610f47565b60666020526000908152604090205481565b61012073d838290e877e0188a4a44700463419ed96c1610781565b6101d9610491565b005b6101d96101e9366004610f47565b6104a5565b6101d96101fc366004610f69565b6104cf565b610120732791bca1f2de4661ed88a30c99a7a9449aa8417481565b6033546001600160a01b0316610120565b61018861023b366004610fa5565b6108c8565b610120735e377f16e4ec6001652befd737341a28889af00281565b6101d9610269366004610f47565b610adc565b606554610120906001600160a01b031681565b6101d961028f366004610f47565b610c0f565b6040805160018082528183019092526000918291906020808301908036833701905050905083816000815181106102cd576102cd610fd4565b6001600160a01b039290921660209283029190910190910152604080516001808252818301909252600091816020016020820280368337019050509050838160008151811061031e5761031e610fd4565b60209081029190910101526040516320eddd9560e11b815260009073d838290e877e0188a4a44700463419ed96c16107906341dbbb2a90610365908690869060040161102e565b602060405180830381865afa158015610382573d6000803e3d6000fd5b505050506040513d601f19601f820116820180604052508101906103a69190611085565b905060006103dc73d838290e877e0188a4a44700463419ed96c16107732791bca1f2de4661ed88a30c99a7a9449aa84174610c88565b90506000731b02da8cb0d097eb8d57a175b88c7d8b47997506631f00ca7461040489866110b4565b846040518363ffffffff1660e01b81526004016104229291906110cc565b600060405180830381865afa15801561043f573d6000803e3d6000fd5b505050506040513d6000823e601f3d908101601f1916820160405261046791908101906110ed565b90508060008151811061047c5761047c610fd4565b60200260200101519550505050505092915050565b610499610d15565b6104a36000610d6f565b565b6104ad610d15565b606580546001600160a01b0319166001600160a01b0392909216919091179055565b6065546001600160a01b031633146104e657600080fd5b604080518082018252600c81526b555344432062616c616e636560a01b602082015290516370a0823160e01b81523060048201526105849190732791bca1f2de4661ed88a30c99a7a9449aa84174906370a0823190602401602060405180830381865afa15801561055b573d6000803e3d6000fd5b505050506040513d601f19601f8201168201806040525081019061057f9190611085565b610dc1565b600061058f836108c8565b90506105b9604051806040016040528060078152602001661cddd85c1c195960ca1b815250610e06565b6040805160018082528183019092526000916020808301908036833701905050905084816000815181106105ef576105ef610fd4565b6001600160a01b039290921660209283029190910190910152604080516001808252818301909252600091816020016020820280368337019050509050828160008151811061064057610640610fd4565b60209081029190910101526040516370a0823160e01b81523060048201526000906001600160a01b038816906370a0823190602401602060405180830381865afa158015610692573d6000803e3d6000fd5b505050506040513d601f19601f820116820180604052508101906106b69190611085565b6040516315aaa0a160e11b815290915073d838290e877e0188a4a44700463419ed96c1610790632b554142906106f2908690869060040161102e565b600060405180830381600087803b15801561070c57600080fd5b505af1158015610720573d6000803e3d6000fd5b5050505061074d604051806040016040528060088152602001671c995919595b595960c21b815250610e06565b6040516370a0823160e01b815230600482015260009082906001600160a01b038a16906370a0823190602401602060405180830381865afa158015610796573d6000803e3d6000fd5b505050506040513d601f19601f820116820180604052508101906107ba9190611085565b6107c491906111ab565b6040516302ef292960e41b815260a06004820152600060a48201526001600160a01b03888116602483015260c06044830152600960c4830152682237bab39028b4b0b760b91b60e48301526101006064830152601a6101048301527f4865616c696e672074686520776f726c642040204554482053460000000000006101248301526084820183905291925090891690632ef292909061014401600060405180830381600087803b15801561087857600080fd5b505af115801561088c573d6000803e3d6000fd5b505050506108be6040518060400160405280600d81526020016c1c995d1a5c99505b99135a5b9d609a1b815250610e06565b5050505050505050565b6000731b02da8cb0d097eb8d57a175b88c7d8b4799750681610912732791bca1f2de4661ed88a30c99a7a9449aa8417473d838290e877e0188a4a44700463419ed96c16107610c88565b90506000826001600160a01b031663d06ca61f86846040518363ffffffff1660e01b81526004016109449291906110cc565b600060405180830381865afa158015610961573d6000803e3d6000fd5b505050506040513d6000823e601f3d908101601f1916820160405261098991908101906110ed565b60405163095ea7b360e01b8152731b02da8cb0d097eb8d57a175b88c7d8b47997506600482015260248101879052909150732791bca1f2de4661ed88a30c99a7a9449aa841749063095ea7b3906044016020604051808303816000875af11580156109f8573d6000803e3d6000fd5b505050506040513d601f19601f82011682018060405250810190610a1c91906111c2565b506000836001600160a01b03166338ed17398784600081518110610a4257610a42610fd4565b60200260200101518630426040518663ffffffff1660e01b8152600401610a6d9594939291906111e4565b6000604051808303816000875af1158015610a8c573d6000803e3d6000fd5b505050506040513d6000823e601f3d908101601f19168201604052610ab491908101906110ed565b905080600181518110610ac957610ac9610fd4565b6020026020010151945050505050919050565b600054610100900460ff1615808015610afc5750600054600160ff909116105b80610b165750303b158015610b16575060005460ff166001145b610b7e5760405162461bcd60e51b815260206004820152602e60248201527f496e697469616c697a61626c653a20636f6e747261637420697320616c72656160448201526d191e481a5b9a5d1a585b1a5e995960921b60648201526084015b60405180910390fd5b6000805460ff191660011790558015610ba1576000805461ff0019166101001790555b606580546001600160a01b0319166001600160a01b038416179055610bc533610d6f565b8015610c0b576000805461ff0019169055604051600181527f7f26b83ff96e1f2b6a682f133852f6798a09c465da95921460cefb38474024989060200160405180910390a15b5050565b610c17610d15565b6001600160a01b038116610c7c5760405162461bcd60e51b815260206004820152602660248201527f4f776e61626c653a206e6577206f776e657220697320746865207a65726f206160448201526564647265737360d01b6064820152608401610b75565b610c8581610d6f565b50565b604080516002808252606080830184529260009291906020830190803683370190505090508381600081518110610cc157610cc1610fd4565b60200260200101906001600160a01b031690816001600160a01b0316815250508281600181518110610cf557610cf5610fd4565b6001600160a01b0390921660209283029190910190910152905092915050565b6033546001600160a01b031633146104a35760405162461bcd60e51b815260206004820181905260248201527f4f776e61626c653a2063616c6c6572206973206e6f7420746865206f776e65726044820152606401610b75565b603380546001600160a01b038381166001600160a01b0319831681179093556040519116919082907f8be0079c531659141344cd1fd0a4f28419497f9722a3daafe3b4186f6b6457e090600090a35050565b610c0b8282604051602401610dd792919061126d565b60408051601f198184030181529190526020810180516001600160e01b03166309710a9d60e41b179052610e45565b610c8581604051602401610e1a919061128f565b60408051601f198184030181529190526020810180516001600160e01b031663104c13eb60e21b1790525b80516a636f6e736f6c652e6c6f67602083016000808483855afa5050505050565b80356001600160a01b0381168114610e7d57600080fd5b919050565b600080600080600060808688031215610e9a57600080fd5b610ea386610e66565b9450610eb160208701610e66565b935060408601359250606086013567ffffffffffffffff80821115610ed557600080fd5b818801915088601f830112610ee957600080fd5b813581811115610ef857600080fd5b896020828501011115610f0a57600080fd5b9699959850939650602001949392505050565b60008060408385031215610f3057600080fd5b610f3983610e66565b946020939093013593505050565b600060208284031215610f5957600080fd5b610f6282610e66565b9392505050565b600080600060608486031215610f7e57600080fd5b610f8784610e66565b925060208401359150610f9c60408501610e66565b90509250925092565b600060208284031215610fb757600080fd5b5035919050565b634e487b7160e01b600052604160045260246000fd5b634e487b7160e01b600052603260045260246000fd5b600081518084526020808501945080840160005b838110156110235781516001600160a01b031687529582019590820190600101610ffe565b509495945050505050565b6040815260006110416040830185610fea565b82810360208481019190915284518083528582019282019060005b818110156110785784518352938301939183019160010161105c565b5090979650505050505050565b60006020828403121561109757600080fd5b5051919050565b634e487b7160e01b600052601160045260246000fd5b600082198211156110c7576110c761109e565b500190565b8281526040602082015260006110e56040830184610fea565b949350505050565b6000602080838503121561110057600080fd5b825167ffffffffffffffff8082111561111857600080fd5b818501915085601f83011261112c57600080fd5b81518181111561113e5761113e610fbe565b8060051b604051601f19603f8301168101818110858211171561116357611163610fbe565b60405291825284820192508381018501918883111561118157600080fd5b938501935b8285101561119f57845184529385019392850192611186565b98975050505050505050565b6000828210156111bd576111bd61109e565b500390565b6000602082840312156111d457600080fd5b81518015158114610f6257600080fd5b85815284602082015260a06040820152600061120360a0830186610fea565b6001600160a01b0394909416606083015250608001529392505050565b6000815180845260005b818110156112465760208185018101518683018201520161122a565b81811115611258576000602083870101525b50601f01601f19169290920160200192915050565b6040815260006112806040830185611220565b90508260208301529392505050565b602081526000610f62602083018461122056fea2646970667358221220e3ab41863d48ae4f5eea29c01359c41046a337114afae64967a1e62363294b6a64736f6c634300080b0033",
    "linkReferences": {}
  },
  "methodIdentifiers": {
    "CERT()": "b0e7af76",
    "NCT()": "5503eb8d",
    "SUSHI_ROUTER()": "0c24f4fa",
    "USDC()": "89a30271",
    "getExpectedNCT(address,uint256)": "343a9a76",
    "getUSDCNeeded(address,uint256)": "80cd493a",
    "initialize(address)": "c4d66de8",
    "onERC721Received(address,address,uint256,bytes)": "150b7a02",
    "owner()": "8da5cb5b",
    "renounceOwnership()": "715018a6",
    "retire(address,uint256,address)": "80b8553f",
    "setXUSDC(address)": "7f6e66b3",
    "swap(uint256)": "94b918de",
    "tonsOffsetByAddress(address)": "5073bb43",
    "transferOwnership(address)": "f2fde38b",
    "xUSDC()": "e4057027"
  },
  "id": 65
}