{
  "abi": [
    {
      "anonymous": false,
      "inputs": [
        {
          "indexed": false,
          "internalType": "uint8",
          "name": "version",
          "type": "uint8"
        }
      ],
      "name": "Initialized",
      "type": "event"
    },
    {
      "anonymous": false,
      "inputs": [
        {
          "indexed": true,
          "internalType": "address",
          "name": "previousOwner",
          "type": "address"
        },
        {
          "indexed": true,
          "internalType": "address",
          "name": "newOwner",
          "type": "address"
        }
      ],
      "name": "OwnershipTransferred",
      "type": "event"
    },
    {
      "inputs": [],
      "name": "CERT",
      "outputs": [
        {
          "internalType": "address",
          "name": "",
          "type": "address"
        }
      ],
      "stateMutability": "view",
      "type": "function"
    },
    {
      "inputs": [],
      "name": "NCT",
      "outputs": [
        {
          "internalType": "address",
          "name": "",
          "type": "address"
        }
      ],
      "stateMutability": "view",
      "type": "function"
    },
    {
      "inputs": [],
      "name": "SUSHI_ROUTER",
      "outputs": [
        {
          "internalType": "address",
          "name": "",
          "type": "address"
        }
      ],
      "stateMutability": "view",
      "type": "function"
    },
    {
      "inputs": [],
      "name": "USDC",
      "outputs": [
        {
          "internalType": "address",
          "name": "",
          "type": "address"
        }
      ],
      "stateMutability": "view",
      "type": "function"
    },
    {
      "inputs": [
        {
          "internalType": "address",
          "name": "_tco2",
          "type": "address"
        },
        {
          "internalType": "uint256",
          "name": "_amountToOffset",
          "type": "uint256"
        }
      ],
      "name": "getExpectedNCT",
      "outputs": [
        {
          "internalType": "uint256",
          "name": "",
          "type": "uint256"
        }
      ],
      "stateMutability": "view",
      "type": "function"
    },
    {
      "inputs": [
        {
          "internalType": "address",
          "name": "_tco2",
          "type": "address"
        },
        {
          "internalType": "uint256",
          "name": "_amountToOffset",
          "type": "uint256"
        }
      ],
      "name": "getUSDCNeeded",
      "outputs": [
        {
          "internalType": "uint256",
          "name": "",
          "type": "uint256"
        }
      ],
      "stateMutability": "view",
      "type": "function"
    },
    {
      "inputs": [
        {
          "internalType": "address",
          "name": "_xUSDC",
          "type": "address"
        }
      ],
      "name": "initialize",
      "outputs": [],
      "stateMutability": "nonpayable",
      "type": "function"
    },
    {
      "inputs": [
        {
          "internalType": "address",
          "name": "operator",
          "type": "address"
        },
        {
          "internalType": "address",
          "name": "from",
          "type": "address"
        },
        {
          "internalType": "uint256",
          "name": "tokenId",
          "type": "uint256"
        },
        {
          "internalType": "bytes",
          "name": "data",
          "type": "bytes"
        }
      ],
      "name": "onERC721Received",
      "outputs": [
        {
          "internalType": "bytes4",
          "name": "",
          "type": "bytes4"
        }
      ],
      "stateMutability": "nonpayable",
      "type": "function"
    },
    {
      "inputs": [],
      "name": "owner",
      "outputs": [
        {
          "internalType": "address",
          "name": "",
          "type": "address"
        }
      ],
      "stateMutability": "view",
      "type": "function"
    },
    {
      "inputs": [],
      "name": "renounceOwnership",
      "outputs": [],
      "stateMutability": "nonpayable",
      "type": "function"
    },
    {
      "inputs": [
        {
          "internalType": "address",
          "name": "_tco2",
          "type": "address"
        },
        {
          "internalType": "uint256",
          "name": "_amountUSDC",
          "type": "uint256"
        },
        {
          "internalType": "address",
          "name": "_beneficiary",
          "type": "address"
        }
      ],
      "name": "retire",
      "outputs": [],
      "stateMutability": "nonpayable",
      "type": "function"
    },
    {
      "inputs": [
        {
          "internalType": "uint256",
          "name": "_amountUSDC",
          "type": "uint256"
        }
      ],
      "name": "swap",
      "outputs": [
        {
          "internalType": "uint256",
          "name": "",
          "type": "uint256"
        }
      ],
      "stateMutability": "nonpayable",
      "type": "function"
    },
    {
      "inputs": [
        {
          "internalType": "address",
          "name": "",
          "type": "address"
        }
      ],
      "name": "tonsOffsetByAddress",
      "outputs": [
        {
          "internalType": "uint256",
          "name": "",
          "type": "uint256"
        }
      ],
      "stateMutability": "view",
      "type": "function"
    },
    {
      "inputs": [
        {
          "internalType": "address",
          "name": "newOwner",
          "type": "address"
        }
      ],
      "name": "transferOwnership",
      "outputs": [],
      "stateMutability": "nonpayable",
      "type": "function"
    },
    {
      "inputs": [],
      "name": "xUSDC",
      "outputs": [
        {
          "internalType": "address",
          "name": "",
          "type": "address"
        }
      ],
      "stateMutability": "view",
      "type": "function"
    }
  ],
  "bytecode": {
    "object": "0x608060405234801561001057600080fd5b5061104e806100206000396000f3fe608060405234801561001057600080fd5b50600436106100f55760003560e01c806380cd493a11610097578063b0e7af7611610066578063b0e7af7614610222578063c4d66de81461023d578063e405702714610250578063f2fde38b1461026357600080fd5b806380cd493a1461016a57806389a30271146101e35780638da5cb5b146101fe57806394b918de1461020f57600080fd5b80635073bb43116100d35780635073bb431461018b5780635503eb8d146101ab578063715018a6146101c657806380b8553f146101d057600080fd5b80630c24f4fa146100fa578063150b7a0214610132578063343a9a761461016a575b600080fd5b610115731b02da8cb0d097eb8d57a175b88c7d8b4799750681565b6040516001600160a01b0390911681526020015b60405180910390f35b610151610140366004610c7a565b630a85bd0160e11b95945050505050565b6040516001600160e01b03199091168152602001610129565b61017d610178366004610d15565b610276565b604051908152602001610129565b61017d610199366004610d3f565b60666020526000908152604090205481565b61011573d838290e877e0188a4a44700463419ed96c1610781565b6101ce610473565b005b6101ce6101de366004610d61565b610487565b610115732791bca1f2de4661ed88a30c99a7a9449aa8417481565b6033546001600160a01b0316610115565b61017d61021d366004610d9d565b610765565b610115735e377f16e4ec6001652befd737341a28889af00281565b6101ce61024b366004610d3f565b610979565b606554610115906001600160a01b031681565b6101ce610271366004610d3f565b610aac565b6040805160018082528183019092526000918291906020808301908036833701905050905083816000815181106102af576102af610dcc565b6001600160a01b039290921660209283029190910190910152604080516001808252818301909252600091816020016020820280368337019050509050838160008151811061030057610300610dcc565b60209081029190910101526040516320eddd9560e11b815260009073d838290e877e0188a4a44700463419ed96c16107906341dbbb2a906103479086908690600401610e26565b602060405180830381865afa158015610364573d6000803e3d6000fd5b505050506040513d601f19601f820116820180604052508101906103889190610e7d565b905060006103be73d838290e877e0188a4a44700463419ed96c16107732791bca1f2de4661ed88a30c99a7a9449aa84174610b25565b90506000731b02da8cb0d097eb8d57a175b88c7d8b47997506631f00ca746103e68986610eac565b846040518363ffffffff1660e01b8152600401610404929190610ec4565b600060405180830381865afa158015610421573d6000803e3d6000fd5b505050506040513d6000823e601f3d908101601f191682016040526104499190810190610ee5565b90508060008151811061045e5761045e610dcc565b60200260200101519550505050505092915050565b61047b610bb2565b6104856000610c0c565b565b6065546001600160a01b0316331461049e57600080fd5b60006104a983610765565b604080516001808252818301909252919250600091906020808301908036833701905050905084816000815181106104e3576104e3610dcc565b6001600160a01b039290921660209283029190910190910152604080516001808252818301909252600091816020016020820280368337019050509050828160008151811061053457610534610dcc565b60209081029190910101526040516370a0823160e01b81523060048201526000906001600160a01b038816906370a0823190602401602060405180830381865afa158015610586573d6000803e3d6000fd5b505050506040513d601f19601f820116820180604052508101906105aa9190610e7d565b6040516315aaa0a160e11b815290915073d838290e877e0188a4a44700463419ed96c1610790632b554142906105e69086908690600401610e26565b600060405180830381600087803b15801561060057600080fd5b505af1158015610614573d6000803e3d6000fd5b50506040516370a0823160e01b8152306004820152600092508391506001600160a01b038a16906370a0823190602401602060405180830381865afa158015610661573d6000803e3d6000fd5b505050506040513d601f19601f820116820180604052508101906106859190610e7d565b61068f9190610fa3565b6040516302ef292960e41b815260a06004820152600060a48201526001600160a01b03888116602483015260c06044830152600960c4830152682237bab39028b4b0b760b91b60e48301526101006064830152601a6101048301527f4865616c696e672074686520776f726c642040204554482053460000000000006101248301526084820183905291925090891690632ef292909061014401600060405180830381600087803b15801561074357600080fd5b505af1158015610757573d6000803e3d6000fd5b505050505050505050505050565b6000731b02da8cb0d097eb8d57a175b88c7d8b47997506816107af732791bca1f2de4661ed88a30c99a7a9449aa8417473d838290e877e0188a4a44700463419ed96c16107610b25565b90506000826001600160a01b031663d06ca61f86846040518363ffffffff1660e01b81526004016107e1929190610ec4565b600060405180830381865afa1580156107fe573d6000803e3d6000fd5b505050506040513d6000823e601f3d908101601f191682016040526108269190810190610ee5565b60405163095ea7b360e01b8152731b02da8cb0d097eb8d57a175b88c7d8b47997506600482015260248101879052909150732791bca1f2de4661ed88a30c99a7a9449aa841749063095ea7b3906044016020604051808303816000875af1158015610895573d6000803e3d6000fd5b505050506040513d601f19601f820116820180604052508101906108b99190610fba565b506000836001600160a01b03166338ed173987846000815181106108df576108df610dcc565b60200260200101518630426040518663ffffffff1660e01b815260040161090a959493929190610fdc565b6000604051808303816000875af1158015610929573d6000803e3d6000fd5b505050506040513d6000823e601f3d908101601f191682016040526109519190810190610ee5565b90508060018151811061096657610966610dcc565b6020026020010151945050505050919050565b600054610100900460ff16158080156109995750600054600160ff909116105b806109b35750303b1580156109b3575060005460ff166001145b610a1b5760405162461bcd60e51b815260206004820152602e60248201527f496e697469616c697a61626c653a20636f6e747261637420697320616c72656160448201526d191e481a5b9a5d1a585b1a5e995960921b60648201526084015b60405180910390fd5b6000805460ff191660011790558015610a3e576000805461ff0019166101001790555b606580546001600160a01b0319166001600160a01b038416179055610a6233610c0c565b8015610aa8576000805461ff0019169055604051600181527f7f26b83ff96e1f2b6a682f133852f6798a09c465da95921460cefb38474024989060200160405180910390a15b5050565b610ab4610bb2565b6001600160a01b038116610b195760405162461bcd60e51b815260206004820152602660248201527f4f776e61626c653a206e6577206f776e657220697320746865207a65726f206160448201526564647265737360d01b6064820152608401610a12565b610b2281610c0c565b50565b604080516002808252606080830184529260009291906020830190803683370190505090508381600081518110610b5e57610b5e610dcc565b60200260200101906001600160a01b031690816001600160a01b0316815250508281600181518110610b9257610b92610dcc565b6001600160a01b0390921660209283029190910190910152905092915050565b6033546001600160a01b031633146104855760405162461bcd60e51b815260206004820181905260248201527f4f776e61626c653a2063616c6c6572206973206e6f7420746865206f776e65726044820152606401610a12565b603380546001600160a01b038381166001600160a01b0319831681179093556040519116919082907f8be0079c531659141344cd1fd0a4f28419497f9722a3daafe3b4186f6b6457e090600090a35050565b80356001600160a01b0381168114610c7557600080fd5b919050565b600080600080600060808688031215610c9257600080fd5b610c9b86610c5e565b9450610ca960208701610c5e565b935060408601359250606086013567ffffffffffffffff80821115610ccd57600080fd5b818801915088601f830112610ce157600080fd5b813581811115610cf057600080fd5b896020828501011115610d0257600080fd5b9699959850939650602001949392505050565b60008060408385031215610d2857600080fd5b610d3183610c5e565b946020939093013593505050565b600060208284031215610d5157600080fd5b610d5a82610c5e565b9392505050565b600080600060608486031215610d7657600080fd5b610d7f84610c5e565b925060208401359150610d9460408501610c5e565b90509250925092565b600060208284031215610daf57600080fd5b5035919050565b634e487b7160e01b600052604160045260246000fd5b634e487b7160e01b600052603260045260246000fd5b600081518084526020808501945080840160005b83811015610e1b5781516001600160a01b031687529582019590820190600101610df6565b509495945050505050565b604081526000610e396040830185610de2565b82810360208481019190915284518083528582019282019060005b81811015610e7057845183529383019391830191600101610e54565b5090979650505050505050565b600060208284031215610e8f57600080fd5b5051919050565b634e487b7160e01b600052601160045260246000fd5b60008219821115610ebf57610ebf610e96565b500190565b828152604060208201526000610edd6040830184610de2565b949350505050565b60006020808385031215610ef857600080fd5b825167ffffffffffffffff80821115610f1057600080fd5b818501915085601f830112610f2457600080fd5b815181811115610f3657610f36610db6565b8060051b604051601f19603f83011681018181108582111715610f5b57610f5b610db6565b604052918252848201925083810185019188831115610f7957600080fd5b938501935b82851015610f9757845184529385019392850192610f7e565b98975050505050505050565b600082821015610fb557610fb5610e96565b500390565b600060208284031215610fcc57600080fd5b81518015158114610d5a57600080fd5b85815284602082015260a060408201526000610ffb60a0830186610de2565b6001600160a01b039490941660608301525060800152939250505056fea26469706673582212209971c154a72b559bb514d1dd53fc3afd142c8720cd8130ce14f440ee5133c4a264736f6c634300080b0033",
    "linkReferences": {}
  },
  "methodIdentifiers": {
    "CERT()": "b0e7af76",
    "NCT()": "5503eb8d",
    "SUSHI_ROUTER()": "0c24f4fa",
    "USDC()": "89a30271",
    "getExpectedNCT(address,uint256)": "343a9a76",
    "getUSDCNeeded(address,uint256)": "80cd493a",
    "initialize(address)": "c4d66de8",
    "onERC721Received(address,address,uint256,bytes)": "150b7a02",
    "owner()": "8da5cb5b",
    "renounceOwnership()": "715018a6",
    "retire(address,uint256,address)": "80b8553f",
    "swap(uint256)": "94b918de",
    "tonsOffsetByAddress(address)": "5073bb43",
    "transferOwnership(address)": "f2fde38b",
    "xUSDC()": "e4057027"
  },
  "id": 65
}