{
  "abi": [
    {
      "anonymous": false,
      "inputs": [
        {
          "indexed": false,
          "internalType": "uint8",
          "name": "version",
          "type": "uint8"
        }
      ],
      "name": "Initialized",
      "type": "event"
    },
    {
      "anonymous": false,
      "inputs": [
        {
          "indexed": true,
          "internalType": "address",
          "name": "previousOwner",
          "type": "address"
        },
        {
          "indexed": true,
          "internalType": "address",
          "name": "newOwner",
          "type": "address"
        }
      ],
      "name": "OwnershipTransferred",
      "type": "event"
    },
    {
      "inputs": [],
      "name": "CERT",
      "outputs": [
        {
          "internalType": "address",
          "name": "",
          "type": "address"
        }
      ],
      "stateMutability": "view",
      "type": "function"
    },
    {
      "inputs": [],
      "name": "NCT",
      "outputs": [
        {
          "internalType": "address",
          "name": "",
          "type": "address"
        }
      ],
      "stateMutability": "view",
      "type": "function"
    },
    {
      "inputs": [],
      "name": "SUSHI_ROUTER",
      "outputs": [
        {
          "internalType": "address",
          "name": "",
          "type": "address"
        }
      ],
      "stateMutability": "view",
      "type": "function"
    },
    {
      "inputs": [],
      "name": "USDC",
      "outputs": [
        {
          "internalType": "address",
          "name": "",
          "type": "address"
        }
      ],
      "stateMutability": "view",
      "type": "function"
    },
    {
      "inputs": [
        {
          "internalType": "address",
          "name": "_tco2",
          "type": "address"
        },
        {
          "internalType": "uint256",
          "name": "_amountToOffset",
          "type": "uint256"
        }
      ],
      "name": "getExpectedNCT",
      "outputs": [
        {
          "internalType": "uint256",
          "name": "",
          "type": "uint256"
        }
      ],
      "stateMutability": "view",
      "type": "function"
    },
    {
      "inputs": [
        {
          "internalType": "address",
          "name": "_tco2",
          "type": "address"
        },
        {
          "internalType": "uint256",
          "name": "_amountToOffset",
          "type": "uint256"
        }
      ],
      "name": "getUSDCNeeded",
      "outputs": [
        {
          "internalType": "uint256",
          "name": "",
          "type": "uint256"
        }
      ],
      "stateMutability": "view",
      "type": "function"
    },
    {
      "inputs": [
        {
          "internalType": "address",
          "name": "_xUSDC",
          "type": "address"
        }
      ],
      "name": "initialize",
      "outputs": [],
      "stateMutability": "nonpayable",
      "type": "function"
    },
    {
      "inputs": [
        {
          "internalType": "address",
          "name": "operator",
          "type": "address"
        },
        {
          "internalType": "address",
          "name": "from",
          "type": "address"
        },
        {
          "internalType": "uint256",
          "name": "tokenId",
          "type": "uint256"
        },
        {
          "internalType": "bytes",
          "name": "data",
          "type": "bytes"
        }
      ],
      "name": "onERC721Received",
      "outputs": [
        {
          "internalType": "bytes4",
          "name": "",
          "type": "bytes4"
        }
      ],
      "stateMutability": "nonpayable",
      "type": "function"
    },
    {
      "inputs": [],
      "name": "owner",
      "outputs": [
        {
          "internalType": "address",
          "name": "",
          "type": "address"
        }
      ],
      "stateMutability": "view",
      "type": "function"
    },
    {
      "inputs": [],
      "name": "renounceOwnership",
      "outputs": [],
      "stateMutability": "nonpayable",
      "type": "function"
    },
    {
      "inputs": [
        {
          "internalType": "address",
          "name": "_tco2",
          "type": "address"
        },
        {
          "internalType": "uint256",
          "name": "_amountUSDC",
          "type": "uint256"
        },
        {
          "internalType": "address",
          "name": "_beneficiary",
          "type": "address"
        }
      ],
      "name": "retire",
      "outputs": [],
      "stateMutability": "nonpayable",
      "type": "function"
    },
    {
      "inputs": [
        {
          "internalType": "uint256",
          "name": "_amountUSDC",
          "type": "uint256"
        }
      ],
      "name": "swap",
      "outputs": [
        {
          "internalType": "uint256",
          "name": "",
          "type": "uint256"
        }
      ],
      "stateMutability": "nonpayable",
      "type": "function"
    },
    {
      "inputs": [
        {
          "internalType": "address",
          "name": "",
          "type": "address"
        }
      ],
      "name": "tonsOffsetByAddress",
      "outputs": [
        {
          "internalType": "uint256",
          "name": "",
          "type": "uint256"
        }
      ],
      "stateMutability": "view",
      "type": "function"
    },
    {
      "inputs": [
        {
          "internalType": "address",
          "name": "newOwner",
          "type": "address"
        }
      ],
      "name": "transferOwnership",
      "outputs": [],
      "stateMutability": "nonpayable",
      "type": "function"
    },
    {
      "inputs": [],
      "name": "xUSDC",
      "outputs": [
        {
          "internalType": "address",
          "name": "",
          "type": "address"
        }
      ],
      "stateMutability": "view",
      "type": "function"
    }
  ],
  "bytecode": {
    "object": "0x608060405234801561001057600080fd5b5061155f806100206000396000f3fe608060405234801561001057600080fd5b50600436106100f55760003560e01c806380cd493a11610097578063b0e7af7611610066578063b0e7af7614610216578063c4d66de814610231578063e405702714610244578063f2fde38b1461025757600080fd5b806380cd493a1461015e57806389a30271146101d75780638da5cb5b146101f257806394b918de1461020357600080fd5b80635073bb43116100d35780635073bb431461017f5780635503eb8d1461019f578063715018a6146101ba57806380b8553f146101c457600080fd5b80630c24f4fa146100fa578063150b7a0214610132578063343a9a761461015e575b600080fd5b610115731b02da8cb0d097eb8d57a175b88c7d8b4799750681565b6040516001600160a01b0390911681526020015b60405180910390f35b610145610140366004610f48565b61026a565b6040516001600160e01b03199091168152602001610129565b61017161016c366004610fe7565b6104e5565b604051908152602001610129565b61017161018d366004611013565b60666020526000908152604090205481565b61011573d838290e877e0188a4a44700463419ed96c1610781565b6101c26106e2565b005b6101c26101d2366004611037565b6106f6565b610115732791bca1f2de4661ed88a30c99a7a9449aa8417481565b6033546001600160a01b0316610115565b610171610211366004611079565b6109d4565b610115735e377f16e4ec6001652befd737341a28889af00281565b6101c261023f366004611013565b610be8565b606554610115906001600160a01b031681565b6101c2610265366004611013565b610d1b565b6000610295604051806040016040528060078152602001661d1bdad95b925160ca1b81525085610d94565b604051630178fe3f60e01b815260048101859052600090735e377f16e4ec6001652befd737341a28889af00290630178fe3f90602401600060405180830381865afa1580156102e8573d6000803e3d6000fd5b505050506040513d6000823e601f3d908101601f19168201604052610310919081019061122e565b60600151604051637d13951960e11b815260048101879052909150600090735e377f16e4ec6001652befd737341a28889af0029063fa272a3290602401602060405180830381865afa15801561036a573d6000803e3d6000fd5b505050506040513d601f19601f8201168201806040525081019061038e9190611333565b604080518082018252600c81526b185b5bdd5b9d13d9999cd95d60a21b60208201529051636bc89ccf60e11b81526004810189905291925061043091735e377f16e4ec6001652befd737341a28889af0029063d791399e906024015b602060405180830381865afa158015610407573d6000803e3d6000fd5b505050506040513d601f19601f8201168201806040525081019061042b9190611333565b610d94565b604080518082018252600b81526a1ada5b1bdcd3d9999cd95d60aa1b60208201529051630d4b53e760e01b81526004810188905261048d9190735e377f16e4ec6001652befd737341a28889af00290630d4b53e7906024016103ea565b6104b96040518060400160405280600a8152602001691d1bdb9cd3d9999cd95d60b21b81525082610d94565b6001600160a01b0390911660009081526066602052604090205550630a85bd0160e11b95945050505050565b60408051600180825281830190925260009182919060208083019080368337019050509050838160008151811061051e5761051e61134c565b6001600160a01b039290921660209283029190910190910152604080516001808252818301909252600091816020016020820280368337019050509050838160008151811061056f5761056f61134c565b60209081029190910101526040516320eddd9560e11b815260009073d838290e877e0188a4a44700463419ed96c16107906341dbbb2a906105b690869086906004016113a6565b602060405180830381865afa1580156105d3573d6000803e3d6000fd5b505050506040513d601f19601f820116820180604052508101906105f79190611333565b9050600061062d73d838290e877e0188a4a44700463419ed96c16107732791bca1f2de4661ed88a30c99a7a9449aa84174610dd9565b90506000731b02da8cb0d097eb8d57a175b88c7d8b47997506631f00ca746106558986611413565b846040518363ffffffff1660e01b815260040161067392919061142b565b600060405180830381865afa158015610690573d6000803e3d6000fd5b505050506040513d6000823e601f3d908101601f191682016040526106b89190810190611444565b9050806000815181106106cd576106cd61134c565b60200260200101519550505050505092915050565b6106ea610e66565b6106f46000610ec0565b565b6065546001600160a01b0316331461070d57600080fd5b6000610718836109d4565b604080516001808252818301909252919250600091906020808301908036833701905050905084816000815181106107525761075261134c565b6001600160a01b03929092166020928302919091019091015260408051600180825281830190925260009181602001602082028036833701905050905082816000815181106107a3576107a361134c565b60209081029190910101526040516370a0823160e01b81523060048201526000906001600160a01b038816906370a0823190602401602060405180830381865afa1580156107f5573d6000803e3d6000fd5b505050506040513d601f19601f820116820180604052508101906108199190611333565b6040516315aaa0a160e11b815290915073d838290e877e0188a4a44700463419ed96c1610790632b5541429061085590869086906004016113a6565b600060405180830381600087803b15801561086f57600080fd5b505af1158015610883573d6000803e3d6000fd5b50506040516370a0823160e01b8152306004820152600092508391506001600160a01b038a16906370a0823190602401602060405180830381865afa1580156108d0573d6000803e3d6000fd5b505050506040513d601f19601f820116820180604052508101906108f49190611333565b6108fe9190611479565b6040516302ef292960e41b815260a06004820152600060a48201526001600160a01b03888116602483015260c06044830152600960c4830152682237bab39028b4b0b760b91b60e48301526101006064830152601a6101048301527f4865616c696e672074686520776f726c642040204554482053460000000000006101248301526084820183905291925090891690632ef292909061014401600060405180830381600087803b1580156109b257600080fd5b505af11580156109c6573d6000803e3d6000fd5b505050505050505050505050565b6000731b02da8cb0d097eb8d57a175b88c7d8b4799750681610a1e732791bca1f2de4661ed88a30c99a7a9449aa8417473d838290e877e0188a4a44700463419ed96c16107610dd9565b90506000826001600160a01b031663d06ca61f86846040518363ffffffff1660e01b8152600401610a5092919061142b565b600060405180830381865afa158015610a6d573d6000803e3d6000fd5b505050506040513d6000823e601f3d908101601f19168201604052610a959190810190611444565b60405163095ea7b360e01b8152731b02da8cb0d097eb8d57a175b88c7d8b47997506600482015260248101879052909150732791bca1f2de4661ed88a30c99a7a9449aa841749063095ea7b3906044016020604051808303816000875af1158015610b04573d6000803e3d6000fd5b505050506040513d601f19601f82011682018060405250810190610b289190611490565b506000836001600160a01b03166338ed17398784600081518110610b4e57610b4e61134c565b60200260200101518630426040518663ffffffff1660e01b8152600401610b799594939291906114b2565b6000604051808303816000875af1158015610b98573d6000803e3d6000fd5b505050506040513d6000823e601f3d908101601f19168201604052610bc09190810190611444565b905080600181518110610bd557610bd561134c565b6020026020010151945050505050919050565b600054610100900460ff1615808015610c085750600054600160ff909116105b80610c225750303b158015610c22575060005460ff166001145b610c8a5760405162461bcd60e51b815260206004820152602e60248201527f496e697469616c697a61626c653a20636f6e747261637420697320616c72656160448201526d191e481a5b9a5d1a585b1a5e995960921b60648201526084015b60405180910390fd5b6000805460ff191660011790558015610cad576000805461ff0019166101001790555b606580546001600160a01b0319166001600160a01b038416179055610cd133610ec0565b8015610d17576000805461ff0019169055604051600181527f7f26b83ff96e1f2b6a682f133852f6798a09c465da95921460cefb38474024989060200160405180910390a15b5050565b610d23610e66565b6001600160a01b038116610d885760405162461bcd60e51b815260206004820152602660248201527f4f776e61626c653a206e6577206f776e657220697320746865207a65726f206160448201526564647265737360d01b6064820152608401610c81565b610d9181610ec0565b50565b610d178282604051602401610daa9291906114ee565b60408051601f198184030181529190526020810180516001600160e01b03166309710a9d60e41b179052610f12565b604080516002808252606080830184529260009291906020830190803683370190505090508381600081518110610e1257610e1261134c565b60200260200101906001600160a01b031690816001600160a01b0316815250508281600181518110610e4657610e4661134c565b6001600160a01b0390921660209283029190910190910152905092915050565b6033546001600160a01b031633146106f45760405162461bcd60e51b815260206004820181905260248201527f4f776e61626c653a2063616c6c6572206973206e6f7420746865206f776e65726044820152606401610c81565b603380546001600160a01b038381166001600160a01b0319831681179093556040519116919082907f8be0079c531659141344cd1fd0a4f28419497f9722a3daafe3b4186f6b6457e090600090a35050565b80516a636f6e736f6c652e6c6f67602083016000808483855afa5050505050565b6001600160a01b0381168114610d9157600080fd5b600080600080600060808688031215610f6057600080fd5b8535610f6b81610f33565b94506020860135610f7b81610f33565b935060408601359250606086013567ffffffffffffffff80821115610f9f57600080fd5b818801915088601f830112610fb357600080fd5b813581811115610fc257600080fd5b896020828501011115610fd457600080fd5b9699959850939650602001949392505050565b60008060408385031215610ffa57600080fd5b823561100581610f33565b946020939093013593505050565b60006020828403121561102557600080fd5b813561103081610f33565b9392505050565b60008060006060848603121561104c57600080fd5b833561105781610f33565b925060208401359150604084013561106e81610f33565b809150509250925092565b60006020828403121561108b57600080fd5b5035919050565b634e487b7160e01b600052604160045260246000fd5b60405160e0810167ffffffffffffffff811182821017156110cb576110cb611092565b60405290565b604051601f8201601f1916810167ffffffffffffffff811182821017156110fa576110fa611092565b604052919050565b600082601f83011261111357600080fd5b8151602067ffffffffffffffff82111561112f5761112f611092565b8160051b61113e8282016110d1565b928352848101820192828101908785111561115857600080fd5b83870192505b848310156111775782518252918301919083019061115e565b979650505050505050565b805161118d81610f33565b919050565b60005b838110156111ad578181015183820152602001611195565b838111156111bc576000848401525b50505050565b600082601f8301126111d357600080fd5b815167ffffffffffffffff8111156111ed576111ed611092565b611200601f8201601f19166020016110d1565b81815284602083860101111561121557600080fd5b611226826020830160208701611192565b949350505050565b60006020828403121561124057600080fd5b815167ffffffffffffffff8082111561125857600080fd5b9083019060e0828603121561126c57600080fd5b6112746110a8565b82518281111561128357600080fd5b61128f87828601611102565b825250602083015160208201526112a860408401611182565b60408201526112b960608401611182565b60608201526080830151828111156112d057600080fd5b6112dc878286016111c2565b60808301525060a0830151828111156112f457600080fd5b611300878286016111c2565b60a08301525060c08301518281111561131857600080fd5b611324878286016111c2565b60c08301525095945050505050565b60006020828403121561134557600080fd5b5051919050565b634e487b7160e01b600052603260045260246000fd5b600081518084526020808501945080840160005b8381101561139b5781516001600160a01b031687529582019590820190600101611376565b509495945050505050565b6040815260006113b96040830185611362565b82810360208481019190915284518083528582019282019060005b818110156113f0578451835293830193918301916001016113d4565b5090979650505050505050565b634e487b7160e01b600052601160045260246000fd5b60008219821115611426576114266113fd565b500190565b8281526040602082015260006112266040830184611362565b60006020828403121561145657600080fd5b815167ffffffffffffffff81111561146d57600080fd5b61122684828501611102565b60008282101561148b5761148b6113fd565b500390565b6000602082840312156114a257600080fd5b8151801515811461103057600080fd5b85815284602082015260a0604082015260006114d160a0830186611362565b6001600160a01b0394909416606083015250608001529392505050565b604081526000835180604084015261150d816060850160208801611192565b602083019390935250601f91909101601f19160160600191905056fea26469706673582212205fe7ba6921d182dfb39aa692f7543cc5337b7d4a49da95948cc86b7322aa10bf64736f6c634300080b0033",
    "linkReferences": {}
  },
  "methodIdentifiers": {
    "CERT()": "b0e7af76",
    "NCT()": "5503eb8d",
    "SUSHI_ROUTER()": "0c24f4fa",
    "USDC()": "89a30271",
    "getExpectedNCT(address,uint256)": "343a9a76",
    "getUSDCNeeded(address,uint256)": "80cd493a",
    "initialize(address)": "c4d66de8",
    "onERC721Received(address,address,uint256,bytes)": "150b7a02",
    "owner()": "8da5cb5b",
    "renounceOwnership()": "715018a6",
    "retire(address,uint256,address)": "80b8553f",
    "swap(uint256)": "94b918de",
    "tonsOffsetByAddress(address)": "5073bb43",
    "transferOwnership(address)": "f2fde38b",
    "xUSDC()": "e4057027"
  },
  "id": 65
}