{
  "abi": [
    {
      "inputs": [],
      "name": "NotImplemented",
      "type": "error"
    },
    {
      "anonymous": false,
      "inputs": [
        {
          "indexed": true,
          "internalType": "address",
          "name": "owner",
          "type": "address"
        },
        {
          "indexed": true,
          "internalType": "address",
          "name": "spender",
          "type": "address"
        },
        {
          "indexed": false,
          "internalType": "uint256",
          "name": "value",
          "type": "uint256"
        }
      ],
      "name": "Approval",
      "type": "event"
    },
    {
      "anonymous": false,
      "inputs": [
        {
          "indexed": false,
          "internalType": "uint8",
          "name": "version",
          "type": "uint8"
        }
      ],
      "name": "Initialized",
      "type": "event"
    },
    {
      "anonymous": false,
      "inputs": [
        {
          "indexed": true,
          "internalType": "address",
          "name": "tCO2",
          "type": "address"
        },
        {
          "indexed": true,
          "internalType": "uint256",
          "name": "amountXCO2",
          "type": "uint256"
        },
        {
          "indexed": true,
          "internalType": "address",
          "name": "beneificiary",
          "type": "address"
        }
      ],
      "name": "Offset",
      "type": "event"
    },
    {
      "anonymous": false,
      "inputs": [
        {
          "indexed": true,
          "internalType": "address",
          "name": "tCO2",
          "type": "address"
        },
        {
          "indexed": true,
          "internalType": "uint256",
          "name": "amountXCO2",
          "type": "uint256"
        },
        {
          "indexed": true,
          "internalType": "address",
          "name": "beneficiary",
          "type": "address"
        },
        {
          "indexed": false,
          "internalType": "uint32",
          "name": "destination",
          "type": "uint32"
        }
      ],
      "name": "OffsetRemote",
      "type": "event"
    },
    {
      "anonymous": false,
      "inputs": [
        {
          "indexed": true,
          "internalType": "address",
          "name": "previousOwner",
          "type": "address"
        },
        {
          "indexed": true,
          "internalType": "address",
          "name": "newOwner",
          "type": "address"
        }
      ],
      "name": "OwnershipTransferred",
      "type": "event"
    },
    {
      "anonymous": false,
      "inputs": [
        {
          "indexed": true,
          "internalType": "address",
          "name": "from",
          "type": "address"
        },
        {
          "indexed": true,
          "internalType": "address",
          "name": "to",
          "type": "address"
        },
        {
          "indexed": false,
          "internalType": "uint256",
          "name": "value",
          "type": "uint256"
        }
      ],
      "name": "Transfer",
      "type": "event"
    },
    {
      "inputs": [
        {
          "internalType": "address",
          "name": "owner",
          "type": "address"
        },
        {
          "internalType": "address",
          "name": "spender",
          "type": "address"
        }
      ],
      "name": "allowance",
      "outputs": [
        {
          "internalType": "uint256",
          "name": "",
          "type": "uint256"
        }
      ],
      "stateMutability": "view",
      "type": "function"
    },
    {
      "inputs": [
        {
          "internalType": "address",
          "name": "spender",
          "type": "address"
        },
        {
          "internalType": "uint256",
          "name": "amount",
          "type": "uint256"
        }
      ],
      "name": "approve",
      "outputs": [
        {
          "internalType": "bool",
          "name": "",
          "type": "bool"
        }
      ],
      "stateMutability": "nonpayable",
      "type": "function"
    },
    {
      "inputs": [],
      "name": "asset",
      "outputs": [
        {
          "internalType": "contract ERC20Upgradeable",
          "name": "",
          "type": "address"
        }
      ],
      "stateMutability": "view",
      "type": "function"
    },
    {
      "inputs": [
        {
          "internalType": "address",
          "name": "account",
          "type": "address"
        }
      ],
      "name": "balanceOf",
      "outputs": [
        {
          "internalType": "uint256",
          "name": "",
          "type": "uint256"
        }
      ],
      "stateMutability": "view",
      "type": "function"
    },
    {
      "inputs": [],
      "name": "decimals",
      "outputs": [
        {
          "internalType": "uint8",
          "name": "",
          "type": "uint8"
        }
      ],
      "stateMutability": "view",
      "type": "function"
    },
    {
      "inputs": [
        {
          "internalType": "address",
          "name": "spender",
          "type": "address"
        },
        {
          "internalType": "uint256",
          "name": "subtractedValue",
          "type": "uint256"
        }
      ],
      "name": "decreaseAllowance",
      "outputs": [
        {
          "internalType": "bool",
          "name": "",
          "type": "bool"
        }
      ],
      "stateMutability": "nonpayable",
      "type": "function"
    },
    {
      "inputs": [
        {
          "internalType": "uint256",
          "name": "amount",
          "type": "uint256"
        }
      ],
      "name": "fromUSD",
      "outputs": [
        {
          "internalType": "uint256",
          "name": "",
          "type": "uint256"
        }
      ],
      "stateMutability": "view",
      "type": "function"
    },
    {
      "inputs": [
        {
          "internalType": "uint32",
          "name": "",
          "type": "uint32"
        },
        {
          "internalType": "bytes32",
          "name": "",
          "type": "bytes32"
        },
        {
          "internalType": "bytes",
          "name": "_message",
          "type": "bytes"
        }
      ],
      "name": "handle",
      "outputs": [],
      "stateMutability": "nonpayable",
      "type": "function"
    },
    {
      "inputs": [
        {
          "internalType": "address",
          "name": "spender",
          "type": "address"
        },
        {
          "internalType": "uint256",
          "name": "addedValue",
          "type": "uint256"
        }
      ],
      "name": "increaseAllowance",
      "outputs": [
        {
          "internalType": "bool",
          "name": "",
          "type": "bool"
        }
      ],
      "stateMutability": "nonpayable",
      "type": "function"
    },
    {
      "inputs": [
        {
          "internalType": "address",
          "name": "_outbox",
          "type": "address"
        },
        {
          "internalType": "address",
          "name": "_xUSDC",
          "type": "address"
        },
        {
          "internalType": "string",
          "name": "_name",
          "type": "string"
        },
        {
          "internalType": "string",
          "name": "_symbol",
          "type": "string"
        }
      ],
      "name": "initialize",
      "outputs": [],
      "stateMutability": "nonpayable",
      "type": "function"
    },
    {
      "inputs": [
        {
          "internalType": "address",
          "name": "_outbox",
          "type": "address"
        },
        {
          "internalType": "address",
          "name": "_xUSDC",
          "type": "address"
        },
        {
          "internalType": "string",
          "name": "_name",
          "type": "string"
        },
        {
          "internalType": "string",
          "name": "_symbol",
          "type": "string"
        },
        {
          "internalType": "address",
          "name": "_asset",
          "type": "address"
        }
      ],
      "name": "initialize",
      "outputs": [],
      "stateMutability": "nonpayable",
      "type": "function"
    },
    {
      "inputs": [],
      "name": "name",
      "outputs": [
        {
          "internalType": "string",
          "name": "",
          "type": "string"
        }
      ],
      "stateMutability": "view",
      "type": "function"
    },
    {
      "inputs": [
        {
          "internalType": "address",
          "name": "_tCO2",
          "type": "address"
        },
        {
          "internalType": "uint256",
          "name": "_amountXCO2",
          "type": "uint256"
        },
        {
          "internalType": "string",
          "name": "_entity",
          "type": "string"
        },
        {
          "internalType": "address",
          "name": "_beneficiary",
          "type": "address"
        },
        {
          "internalType": "string",
          "name": "_beneficiaryName",
          "type": "string"
        },
        {
          "internalType": "string",
          "name": "_msg",
          "type": "string"
        }
      ],
      "name": "offset",
      "outputs": [],
      "stateMutability": "nonpayable",
      "type": "function"
    },
    {
      "inputs": [],
      "name": "offsetTerminal",
      "outputs": [
        {
          "internalType": "address",
          "name": "",
          "type": "address"
        }
      ],
      "stateMutability": "view",
      "type": "function"
    },
    {
      "inputs": [
        {
          "internalType": "address",
          "name": "_tCO2",
          "type": "address"
        },
        {
          "internalType": "uint256",
          "name": "_amountXCO2",
          "type": "uint256"
        },
        {
          "internalType": "string",
          "name": "_entity",
          "type": "string"
        },
        {
          "internalType": "address",
          "name": "_beneficiary",
          "type": "address"
        },
        {
          "internalType": "string",
          "name": "_beneficiaryName",
          "type": "string"
        },
        {
          "internalType": "string",
          "name": "_msg",
          "type": "string"
        }
      ],
      "name": "offsetX",
      "outputs": [],
      "stateMutability": "payable",
      "type": "function"
    },
    {
      "inputs": [],
      "name": "outbox",
      "outputs": [
        {
          "internalType": "address",
          "name": "",
          "type": "address"
        }
      ],
      "stateMutability": "view",
      "type": "function"
    },
    {
      "inputs": [],
      "name": "owner",
      "outputs": [
        {
          "internalType": "address",
          "name": "",
          "type": "address"
        }
      ],
      "stateMutability": "view",
      "type": "function"
    },
    {
      "inputs": [],
      "name": "renounceOwnership",
      "outputs": [],
      "stateMutability": "nonpayable",
      "type": "function"
    },
    {
      "inputs": [
        {
          "internalType": "address",
          "name": "_terminal",
          "type": "address"
        }
      ],
      "name": "setOffsetTerminal",
      "outputs": [],
      "stateMutability": "nonpayable",
      "type": "function"
    },
    {
      "inputs": [
        {
          "internalType": "address",
          "name": "_outbox",
          "type": "address"
        }
      ],
      "name": "setOutbox",
      "outputs": [],
      "stateMutability": "nonpayable",
      "type": "function"
    },
    {
      "inputs": [
        {
          "internalType": "address",
          "name": "_xUSDC",
          "type": "address"
        }
      ],
      "name": "setXUSDC",
      "outputs": [],
      "stateMutability": "nonpayable",
      "type": "function"
    },
    {
      "inputs": [],
      "name": "symbol",
      "outputs": [
        {
          "internalType": "string",
          "name": "",
          "type": "string"
        }
      ],
      "stateMutability": "view",
      "type": "function"
    },
    {
      "inputs": [
        {
          "internalType": "uint256",
          "name": "amount",
          "type": "uint256"
        }
      ],
      "name": "toUSD",
      "outputs": [
        {
          "internalType": "uint256",
          "name": "",
          "type": "uint256"
        }
      ],
      "stateMutability": "pure",
      "type": "function"
    },
    {
      "inputs": [],
      "name": "totalSupply",
      "outputs": [
        {
          "internalType": "uint256",
          "name": "",
          "type": "uint256"
        }
      ],
      "stateMutability": "view",
      "type": "function"
    },
    {
      "inputs": [
        {
          "internalType": "address",
          "name": "to",
          "type": "address"
        },
        {
          "internalType": "uint256",
          "name": "amount",
          "type": "uint256"
        }
      ],
      "name": "transfer",
      "outputs": [
        {
          "internalType": "bool",
          "name": "",
          "type": "bool"
        }
      ],
      "stateMutability": "nonpayable",
      "type": "function"
    },
    {
      "inputs": [
        {
          "internalType": "address",
          "name": "from",
          "type": "address"
        },
        {
          "internalType": "address",
          "name": "to",
          "type": "address"
        },
        {
          "internalType": "uint256",
          "name": "amount",
          "type": "uint256"
        }
      ],
      "name": "transferFrom",
      "outputs": [
        {
          "internalType": "bool",
          "name": "",
          "type": "bool"
        }
      ],
      "stateMutability": "nonpayable",
      "type": "function"
    },
    {
      "inputs": [
        {
          "internalType": "address",
          "name": "newOwner",
          "type": "address"
        }
      ],
      "name": "transferOwnership",
      "outputs": [],
      "stateMutability": "nonpayable",
      "type": "function"
    },
    {
      "inputs": [],
      "name": "withdrawFunds",
      "outputs": [],
      "stateMutability": "nonpayable",
      "type": "function"
    },
    {
      "inputs": [],
      "name": "withdrawFunds2",
      "outputs": [],
      "stateMutability": "nonpayable",
      "type": "function"
    },
    {
      "inputs": [],
      "name": "xUSDC",
      "outputs": [
        {
          "internalType": "address",
          "name": "",
          "type": "address"
        }
      ],
      "stateMutability": "view",
      "type": "function"
    }
  ],
  "bytecode": {
    "object": "0x608060405234801561001057600080fd5b50611bd4806100206000396000f3fe6080604052600436106101cd5760003560e01c8063808d27ce116100f7578063b260120711610095578063dd62ed3e11610064578063dd62ed3e146104fb578063e40570271461051b578063f2fde38b1461053b578063ff204f3b1461055b57600080fd5b8063b260120714610488578063b587c21a146104a8578063ce11e6ab146104bb578063d50669d8146104db57600080fd5b806395d89b41116100d157806395d89b41146104335780639d9969ed14610415578063a457c2d714610448578063a9059cbb1461046857600080fd5b8063808d27ce146103d75780638da5cb5b146103f757806394a74a371461041557600080fd5b8063362925c21161016f5780636bea906e1161013e5780636bea906e1461035757806370a082311461036c578063715018a6146103a25780637f6e66b3146103b757600080fd5b8063362925c2146102bf57806338d52e0f146102df578063395093511461031757806356d5d4751461033757600080fd5b80632016a0d2116101ab5780632016a0d21461024c57806323b872dd1461026e57806324600fc31461028e578063313ce567146102a357600080fd5b806306fdde03146101d2578063095ea7b3146101fd57806318160ddd1461022d575b600080fd5b3480156101de57600080fd5b506101e761057b565b6040516101f491906113e2565b60405180910390f35b34801561020957600080fd5b5061021d610218366004611411565b61060d565b60405190151581526020016101f4565b34801561023957600080fd5b506035545b6040519081526020016101f4565b34801561025857600080fd5b5061026c61026736600461150a565b610625565b005b34801561027a57600080fd5b5061021d610289366004611593565b610736565b34801561029a57600080fd5b5061026c61075a565b3480156102af57600080fd5b50604051601281526020016101f4565b3480156102cb57600080fd5b5061026c6102da3660046115d4565b61084b565b3480156102eb57600080fd5b506099546102ff906001600160a01b031681565b6040516001600160a01b0390911681526020016101f4565b34801561032357600080fd5b5061021d610332366004611411565b61096f565b34801561034357600080fd5b5061026c610352366004611672565b610991565b34801561036357600080fd5b5061026c610aef565b34801561037857600080fd5b5061023e6103873660046116e8565b6001600160a01b031660009081526033602052604090205490565b3480156103ae57600080fd5b5061026c610b31565b3480156103c357600080fd5b5061026c6103d23660046116e8565b610b45565b3480156103e357600080fd5b50609a546102ff906001600160a01b031681565b34801561040357600080fd5b506065546001600160a01b03166102ff565b34801561042157600080fd5b5061023e610430366004611705565b90565b34801561043f57600080fd5b506101e7610b6f565b34801561045457600080fd5b5061021d610463366004611411565b610b7e565b34801561047457600080fd5b5061021d610483366004611411565b610bf9565b34801561049457600080fd5b5061026c6104a33660046116e8565b610c07565b61026c6104b6366004611767565b610c31565b3480156104c757600080fd5b506097546102ff906001600160a01b031681565b3480156104e757600080fd5b5061026c6104f6366004611767565b610c4d565b34801561050757600080fd5b5061023e610516366004611834565b610d4a565b34801561052757600080fd5b506098546102ff906001600160a01b031681565b34801561054757600080fd5b5061026c6105563660046116e8565b610d75565b34801561056757600080fd5b5061026c6105763660046116e8565b610deb565b60606036805461058a9061186d565b80601f01602080910402602001604051908101604052809291908181526020018280546105b69061186d565b80156106035780601f106105d857610100808354040283529160200191610603565b820191906000526020600020905b8154815290600101906020018083116105e657829003601f168201915b5050505050905090565b60003361061b818585610e15565b5060019392505050565b600054610100900460ff16158080156106455750600054600160ff909116105b8061065f5750303b15801561065f575060005460ff166001145b6106845760405162461bcd60e51b815260040161067b906118a8565b60405180910390fd5b6000805460ff1916600117905580156106a7576000805461ff0019166101001790555b6106af610f39565b609780546001600160a01b038088166001600160a01b03199283161790925560988054928716929091169190911790556106e98383610f68565b801561072f576000805461ff0019169055604051600181527f7f26b83ff96e1f2b6a682f133852f6798a09c465da95921460cefb38474024989060200160405180910390a15b5050505050565b600033610744858285610f9d565b61074f858585611017565b506001949350505050565b6107626111c2565b6099546040516370a0823160e01b81523060048201526001600160a01b039091169063a9059cbb90339083906370a08231906024015b602060405180830381865afa1580156107b5573d6000803e3d6000fd5b505050506040513d601f19601f820116820180604052508101906107d991906118f6565b6040516001600160e01b031960e085901b1681526001600160a01b03909216600483015260248201526044016020604051808303816000875af1158015610824573d6000803e3d6000fd5b505050506040513d601f19601f82011682018060405250810190610848919061190f565b50565b600054610100900460ff161580801561086b5750600054600160ff909116105b806108855750303b158015610885575060005460ff166001145b6108a15760405162461bcd60e51b815260040161067b906118a8565b6000805460ff1916600117905580156108c4576000805461ff0019166101001790555b6108cc610f39565b609780546001600160a01b038089166001600160a01b03199283161790925560988054928816929091169190911790556109068484610f68565b609980546001600160a01b0319166001600160a01b0384161790558015610967576000805461ff0019169055604051600181527f7f26b83ff96e1f2b6a682f133852f6798a09c465da95921460cefb38474024989060200160405180910390a15b505050505050565b60003361061b8185856109828383610d4a565b61098c9190611931565b610e15565b600080600080600080868060200190518101906109ae91906119a4565b609954609a5460405163a9059cbb60e01b81526001600160a01b03918216600482015260248101889052979d50959b5093995091975095509350169063a9059cbb906044016020604051808303816000875af1158015610a12573d6000803e3d6000fd5b505050506040513d601f19601f82011682018060405250810190610a36919061190f565b50609a54604051631eb4f8f160e31b81526001600160a01b039091169063f5a7c78890610a7190899089908990899089908990600401611a5c565b600060405180830381600087803b158015610a8b57600080fd5b505af1158015610a9f573d6000803e3d6000fd5b50505050826001600160a01b031685876001600160a01b03167f7eb22eec007820595b9863f3fb66d4a43f8c8fd82126b0df9889f4353ac702c060405160405180910390a4505050505050505050565b610af76111c2565b6099546040516370a0823160e01b81523060048201526001600160a01b039091169063095ea7b390339083906370a0823190602401610798565b610b396111c2565b610b43600061121c565b565b610b4d6111c2565b609880546001600160a01b0319166001600160a01b0392909216919091179055565b60606037805461058a9061186d565b60003381610b8c8286610d4a565b905083811015610bec5760405162461bcd60e51b815260206004820152602560248201527f45524332303a2064656372656173656420616c6c6f77616e63652062656c6f77604482015264207a65726f60d81b606482015260840161067b565b61074f8286868403610e15565b60003361061b818585611017565b610c0f6111c2565b609a80546001600160a01b0319166001600160a01b0392909216919091179055565b610c42898989898989898989610c4d565b505050505050505050565b609954609a546040516323b872dd60e01b81523360048201526001600160a01b039182166024820152604481018b90529116906323b872dd906064016020604051808303816000875af1158015610ca8573d6000803e3d6000fd5b505050506040513d601f19601f82011682018060405250810190610ccc919061190f565b50609a54604051631eb4f8f160e31b81526001600160a01b039091169063f5a7c78890610d0d908c908c908c908c908c908c908c908c908c90600401611ae9565b600060405180830381600087803b158015610d2757600080fd5b505af1158015610d3b573d6000803e3d6000fd5b50505050505050505050505050565b6001600160a01b03918216600090815260346020908152604080832093909416825291909152205490565b610d7d6111c2565b6001600160a01b038116610de25760405162461bcd60e51b815260206004820152602660248201527f4f776e61626c653a206e6577206f776e657220697320746865207a65726f206160448201526564647265737360d01b606482015260840161067b565b6108488161121c565b610df36111c2565b609780546001600160a01b0319166001600160a01b0392909216919091179055565b6001600160a01b038316610e775760405162461bcd60e51b8152602060048201526024808201527f45524332303a20617070726f76652066726f6d20746865207a65726f206164646044820152637265737360e01b606482015260840161067b565b6001600160a01b038216610ed85760405162461bcd60e51b815260206004820152602260248201527f45524332303a20617070726f766520746f20746865207a65726f206164647265604482015261737360f01b606482015260840161067b565b6001600160a01b0383811660008181526034602090815260408083209487168084529482529182902085905590518481527f8c5be1e5ebec7d5bd14f71427d1e84f3dd0314c0f7b2291e5b200ac8c7c3b925910160405180910390a3505050565b600054610100900460ff16610f605760405162461bcd60e51b815260040161067b90611b53565b610b4361126e565b600054610100900460ff16610f8f5760405162461bcd60e51b815260040161067b90611b53565b610f99828261129e565b5050565b6000610fa98484610d4a565b9050600019811461101157818110156110045760405162461bcd60e51b815260206004820152601d60248201527f45524332303a20696e73756666696369656e7420616c6c6f77616e6365000000604482015260640161067b565b6110118484848403610e15565b50505050565b6001600160a01b03831661107b5760405162461bcd60e51b815260206004820152602560248201527f45524332303a207472616e736665722066726f6d20746865207a65726f206164604482015264647265737360d81b606482015260840161067b565b6001600160a01b0382166110dd5760405162461bcd60e51b815260206004820152602360248201527f45524332303a207472616e7366657220746f20746865207a65726f206164647260448201526265737360e81b606482015260840161067b565b6001600160a01b038316600090815260336020526040902054818110156111555760405162461bcd60e51b815260206004820152602660248201527f45524332303a207472616e7366657220616d6f756e7420657863656564732062604482015265616c616e636560d01b606482015260840161067b565b6001600160a01b0380851660008181526033602052604080822086860390559286168082529083902080548601905591517fddf252ad1be2c89b69c2b068fc378daa952ba7f163c4a11628f55a4df523b3ef906111b59086815260200190565b60405180910390a3611011565b6065546001600160a01b03163314610b435760405162461bcd60e51b815260206004820181905260248201527f4f776e61626c653a2063616c6c6572206973206e6f7420746865206f776e6572604482015260640161067b565b606580546001600160a01b038381166001600160a01b0319831681179093556040519116919082907f8be0079c531659141344cd1fd0a4f28419497f9722a3daafe3b4186f6b6457e090600090a35050565b600054610100900460ff166112955760405162461bcd60e51b815260040161067b90611b53565b610b433361121c565b600054610100900460ff166112c55760405162461bcd60e51b815260040161067b90611b53565b81516112d89060369060208501906112f1565b5080516112ec9060379060208401906112f1565b505050565b8280546112fd9061186d565b90600052602060002090601f01602090048101928261131f5760008555611365565b82601f1061133857805160ff1916838001178555611365565b82800160010185558215611365579182015b8281111561136557825182559160200191906001019061134a565b50611371929150611375565b5090565b5b808211156113715760008155600101611376565b60005b838110156113a557818101518382015260200161138d565b838111156110115750506000910152565b600081518084526113ce81602086016020860161138a565b601f01601f19169290920160200192915050565b6020815260006113f560208301846113b6565b9392505050565b6001600160a01b038116811461084857600080fd5b6000806040838503121561142457600080fd5b823561142f816113fc565b946020939093013593505050565b634e487b7160e01b600052604160045260246000fd5b604051601f8201601f1916810167ffffffffffffffff8111828210171561147c5761147c61143d565b604052919050565b600067ffffffffffffffff82111561149e5761149e61143d565b50601f01601f191660200190565b60006114bf6114ba84611484565b611453565b90508281528383830111156114d357600080fd5b828260208301376000602084830101529392505050565b600082601f8301126114fb57600080fd5b6113f5838335602085016114ac565b6000806000806080858703121561152057600080fd5b843561152b816113fc565b9350602085013561153b816113fc565b9250604085013567ffffffffffffffff8082111561155857600080fd5b611564888389016114ea565b9350606087013591508082111561157a57600080fd5b50611587878288016114ea565b91505092959194509250565b6000806000606084860312156115a857600080fd5b83356115b3816113fc565b925060208401356115c3816113fc565b929592945050506040919091013590565b600080600080600060a086880312156115ec57600080fd5b85356115f7816113fc565b94506020860135611607816113fc565b9350604086013567ffffffffffffffff8082111561162457600080fd5b61163089838a016114ea565b9450606088013591508082111561164657600080fd5b50611653888289016114ea565b9250506080860135611664816113fc565b809150509295509295909350565b60008060006060848603121561168757600080fd5b833563ffffffff8116811461169b57600080fd5b925060208401359150604084013567ffffffffffffffff8111156116be57600080fd5b8401601f810186136116cf57600080fd5b6116de868235602084016114ac565b9150509250925092565b6000602082840312156116fa57600080fd5b81356113f5816113fc565b60006020828403121561171757600080fd5b5035919050565b60008083601f84011261173057600080fd5b50813567ffffffffffffffff81111561174857600080fd5b60208301915083602082850101111561176057600080fd5b9250929050565b600080600080600080600080600060c08a8c03121561178557600080fd5b8935611790816113fc565b985060208a0135975060408a013567ffffffffffffffff808211156117b457600080fd5b6117c08d838e0161171e565b909950975060608c013591506117d5826113fc565b90955060808b013590808211156117eb57600080fd5b6117f78d838e0161171e565b909650945060a08c013591508082111561181057600080fd5b5061181d8c828d0161171e565b915080935050809150509295985092959850929598565b6000806040838503121561184757600080fd5b8235611852816113fc565b91506020830135611862816113fc565b809150509250929050565b600181811c9082168061188157607f821691505b602082108114156118a257634e487b7160e01b600052602260045260246000fd5b50919050565b6020808252602e908201527f496e697469616c697a61626c653a20636f6e747261637420697320616c72656160408201526d191e481a5b9a5d1a585b1a5e995960921b606082015260800190565b60006020828403121561190857600080fd5b5051919050565b60006020828403121561192157600080fd5b815180151581146113f557600080fd5b6000821982111561195257634e487b7160e01b600052601160045260246000fd5b500190565b600082601f83011261196857600080fd5b81516119766114ba82611484565b81815284602083860101111561198b57600080fd5b61199c82602083016020870161138a565b949350505050565b60008060008060008060c087890312156119bd57600080fd5b86516119c8816113fc565b60208801516040890151919750955067ffffffffffffffff808211156119ed57600080fd5b6119f98a838b01611957565b955060608901519150611a0b826113fc565b608089015191945080821115611a2057600080fd5b611a2c8a838b01611957565b935060a0890151915080821115611a4257600080fd5b50611a4f89828a01611957565b9150509295509295509295565b600060018060a01b03808916835287602084015260c06040840152611a8460c08401886113b6565b81871660608501528381036080850152611a9e81876113b6565b91505082810360a0840152611ab381856113b6565b9998505050505050505050565b81835281816020850137506000828201602090810191909152601f909101601f19169091010190565b600060018060a01b03808c1683528a602084015260c06040840152611b1260c084018a8c611ac0565b81891660608501528381036080850152611b2d81888a611ac0565b91505082810360a0840152611b43818587611ac0565b9c9b505050505050505050505050565b6020808252602b908201527f496e697469616c697a61626c653a20636f6e7472616374206973206e6f74206960408201526a6e697469616c697a696e6760a81b60608201526080019056fea264697066735822122010cd3fbe033e63f6803f45d04dda5f8c57c2317602133c4a1f71370966318e1d64736f6c634300080b0033",
    "linkReferences": {}
  },
  "methodIdentifiers": {
    "allowance(address,address)": "dd62ed3e",
    "approve(address,uint256)": "095ea7b3",
    "asset()": "38d52e0f",
    "balanceOf(address)": "70a08231",
    "decimals()": "313ce567",
    "decreaseAllowance(address,uint256)": "a457c2d7",
    "fromUSD(uint256)": "94a74a37",
    "handle(uint32,bytes32,bytes)": "56d5d475",
    "increaseAllowance(address,uint256)": "39509351",
    "initialize(address,address,string,string)": "2016a0d2",
    "initialize(address,address,string,string,address)": "362925c2",
    "name()": "06fdde03",
    "offset(address,uint256,string,address,string,string)": "d50669d8",
    "offsetTerminal()": "808d27ce",
    "offsetX(address,uint256,string,address,string,string)": "b587c21a",
    "outbox()": "ce11e6ab",
    "owner()": "8da5cb5b",
    "renounceOwnership()": "715018a6",
    "setOffsetTerminal(address)": "b2601207",
    "setOutbox(address)": "ff204f3b",
    "setXUSDC(address)": "7f6e66b3",
    "symbol()": "95d89b41",
    "toUSD(uint256)": "9d9969ed",
    "totalSupply()": "18160ddd",
    "transfer(address,uint256)": "a9059cbb",
    "transferFrom(address,address,uint256)": "23b872dd",
    "transferOwnership(address)": "f2fde38b",
    "withdrawFunds()": "24600fc3",
    "withdrawFunds2()": "6bea906e",
    "xUSDC()": "e4057027"
  },
  "id": 68
}