{
  "abi": [
    {
      "anonymous": false,
      "inputs": [
        {
          "indexed": true,
          "internalType": "address",
          "name": "abacusConnectionManager",
          "type": "address"
        }
      ],
      "name": "AbacusConnectionManagerSet",
      "type": "event"
    },
    {
      "anonymous": false,
      "inputs": [
        {
          "indexed": true,
          "internalType": "address",
          "name": "owner",
          "type": "address"
        },
        {
          "indexed": true,
          "internalType": "address",
          "name": "spender",
          "type": "address"
        },
        {
          "indexed": false,
          "internalType": "uint256",
          "name": "value",
          "type": "uint256"
        }
      ],
      "name": "Approval",
      "type": "event"
    },
    {
      "anonymous": false,
      "inputs": [
        {
          "indexed": false,
          "internalType": "uint8",
          "name": "version",
          "type": "uint8"
        }
      ],
      "name": "Initialized",
      "type": "event"
    },
    {
      "anonymous": false,
      "inputs": [
        {
          "indexed": true,
          "internalType": "address",
          "name": "interchainGasPaymaster",
          "type": "address"
        }
      ],
      "name": "InterchainGasPaymasterSet",
      "type": "event"
    },
    {
      "anonymous": false,
      "inputs": [
        {
          "indexed": true,
          "internalType": "address",
          "name": "previousOwner",
          "type": "address"
        },
        {
          "indexed": true,
          "internalType": "address",
          "name": "newOwner",
          "type": "address"
        }
      ],
      "name": "OwnershipTransferred",
      "type": "event"
    },
    {
      "anonymous": false,
      "inputs": [
        {
          "indexed": true,
          "internalType": "uint32",
          "name": "origin",
          "type": "uint32"
        },
        {
          "indexed": true,
          "internalType": "address",
          "name": "recipient",
          "type": "address"
        },
        {
          "indexed": false,
          "internalType": "uint256",
          "name": "amount",
          "type": "uint256"
        }
      ],
      "name": "ReceivedTransferRemote",
      "type": "event"
    },
    {
      "anonymous": false,
      "inputs": [
        {
          "indexed": true,
          "internalType": "uint32",
          "name": "domain",
          "type": "uint32"
        },
        {
          "indexed": true,
          "internalType": "bytes32",
          "name": "router",
          "type": "bytes32"
        }
      ],
      "name": "RemoteRouterEnrolled",
      "type": "event"
    },
    {
      "anonymous": false,
      "inputs": [
        {
          "indexed": true,
          "internalType": "uint32",
          "name": "destination",
          "type": "uint32"
        },
        {
          "indexed": true,
          "internalType": "address",
          "name": "recipient",
          "type": "address"
        },
        {
          "indexed": false,
          "internalType": "uint256",
          "name": "amount",
          "type": "uint256"
        }
      ],
      "name": "SentTransferRemote",
      "type": "event"
    },
    {
      "anonymous": false,
      "inputs": [
        {
          "indexed": true,
          "internalType": "address",
          "name": "from",
          "type": "address"
        },
        {
          "indexed": true,
          "internalType": "address",
          "name": "to",
          "type": "address"
        },
        {
          "indexed": false,
          "internalType": "uint256",
          "name": "value",
          "type": "uint256"
        }
      ],
      "name": "Transfer",
      "type": "event"
    },
    {
      "inputs": [],
      "name": "abacusConnectionManager",
      "outputs": [
        {
          "internalType": "contract IAbacusConnectionManager",
          "name": "",
          "type": "address"
        }
      ],
      "stateMutability": "view",
      "type": "function"
    },
    {
      "inputs": [
        {
          "internalType": "address",
          "name": "owner",
          "type": "address"
        },
        {
          "internalType": "address",
          "name": "spender",
          "type": "address"
        }
      ],
      "name": "allowance",
      "outputs": [
        {
          "internalType": "uint256",
          "name": "",
          "type": "uint256"
        }
      ],
      "stateMutability": "view",
      "type": "function"
    },
    {
      "inputs": [
        {
          "internalType": "address",
          "name": "spender",
          "type": "address"
        },
        {
          "internalType": "uint256",
          "name": "amount",
          "type": "uint256"
        }
      ],
      "name": "approve",
      "outputs": [
        {
          "internalType": "bool",
          "name": "",
          "type": "bool"
        }
      ],
      "stateMutability": "nonpayable",
      "type": "function"
    },
    {
      "inputs": [],
      "name": "asset",
      "outputs": [
        {
          "internalType": "contract ERC20Upgradeable",
          "name": "",
          "type": "address"
        }
      ],
      "stateMutability": "view",
      "type": "function"
    },
    {
      "inputs": [
        {
          "internalType": "address",
          "name": "account",
          "type": "address"
        }
      ],
      "name": "balanceOf",
      "outputs": [
        {
          "internalType": "uint256",
          "name": "",
          "type": "uint256"
        }
      ],
      "stateMutability": "view",
      "type": "function"
    },
    {
      "inputs": [],
      "name": "decimals",
      "outputs": [
        {
          "internalType": "uint8",
          "name": "",
          "type": "uint8"
        }
      ],
      "stateMutability": "view",
      "type": "function"
    },
    {
      "inputs": [
        {
          "internalType": "address",
          "name": "spender",
          "type": "address"
        },
        {
          "internalType": "uint256",
          "name": "subtractedValue",
          "type": "uint256"
        }
      ],
      "name": "decreaseAllowance",
      "outputs": [
        {
          "internalType": "bool",
          "name": "",
          "type": "bool"
        }
      ],
      "stateMutability": "nonpayable",
      "type": "function"
    },
    {
      "inputs": [
        {
          "internalType": "uint256",
          "name": "_amount",
          "type": "uint256"
        }
      ],
      "name": "deposit",
      "outputs": [],
      "stateMutability": "nonpayable",
      "type": "function"
    },
    {
      "inputs": [
        {
          "internalType": "address",
          "name": "_receiver",
          "type": "address"
        },
        {
          "internalType": "uint256",
          "name": "_amount",
          "type": "uint256"
        }
      ],
      "name": "depositFor",
      "outputs": [],
      "stateMutability": "nonpayable",
      "type": "function"
    },
    {
      "inputs": [
        {
          "internalType": "uint32",
          "name": "_domain",
          "type": "uint32"
        },
        {
          "internalType": "bytes32",
          "name": "_router",
          "type": "bytes32"
        }
      ],
      "name": "enrollRemoteRouter",
      "outputs": [],
      "stateMutability": "nonpayable",
      "type": "function"
    },
    {
      "inputs": [
        {
          "internalType": "address",
          "name": "_tco2",
          "type": "address"
        },
        {
          "internalType": "uint256",
          "name": "_amountToOffset",
          "type": "uint256"
        }
      ],
      "name": "getXUSDCNeeded",
      "outputs": [
        {
          "internalType": "uint256",
          "name": "",
          "type": "uint256"
        }
      ],
      "stateMutability": "view",
      "type": "function"
    },
    {
      "inputs": [
        {
          "internalType": "uint32",
          "name": "_origin",
          "type": "uint32"
        },
        {
          "internalType": "bytes32",
          "name": "_sender",
          "type": "bytes32"
        },
        {
          "internalType": "bytes",
          "name": "_message",
          "type": "bytes"
        }
      ],
      "name": "handle",
      "outputs": [],
      "stateMutability": "nonpayable",
      "type": "function"
    },
    {
      "inputs": [
        {
          "internalType": "address",
          "name": "spender",
          "type": "address"
        },
        {
          "internalType": "uint256",
          "name": "addedValue",
          "type": "uint256"
        }
      ],
      "name": "increaseAllowance",
      "outputs": [
        {
          "internalType": "bool",
          "name": "",
          "type": "bool"
        }
      ],
      "stateMutability": "nonpayable",
      "type": "function"
    },
    {
      "inputs": [
        {
          "internalType": "address",
          "name": "_abacusConnectionManager",
          "type": "address"
        },
        {
          "internalType": "address",
          "name": "_interchainGasPaymaster",
          "type": "address"
        },
        {
          "internalType": "string",
          "name": "_name",
          "type": "string"
        },
        {
          "internalType": "string",
          "name": "_symbol",
          "type": "string"
        }
      ],
      "name": "initialize",
      "outputs": [],
      "stateMutability": "nonpayable",
      "type": "function"
    },
    {
      "inputs": [
        {
          "internalType": "address",
          "name": "_abacusConnectionManager",
          "type": "address"
        },
        {
          "internalType": "address",
          "name": "_interchainGasPaymaster",
          "type": "address"
        },
        {
          "internalType": "string",
          "name": "_name",
          "type": "string"
        },
        {
          "internalType": "string",
          "name": "_symbol",
          "type": "string"
        },
        {
          "internalType": "address",
          "name": "_asset",
          "type": "address"
        }
      ],
      "name": "initialize",
      "outputs": [],
      "stateMutability": "nonpayable",
      "type": "function"
    },
    {
      "inputs": [],
      "name": "interchainGasPaymaster",
      "outputs": [
        {
          "internalType": "contract IInterchainGasPaymaster",
          "name": "",
          "type": "address"
        }
      ],
      "stateMutability": "view",
      "type": "function"
    },
    {
      "inputs": [],
      "name": "name",
      "outputs": [
        {
          "internalType": "string",
          "name": "",
          "type": "string"
        }
      ],
      "stateMutability": "view",
      "type": "function"
    },
    {
      "inputs": [],
      "name": "owner",
      "outputs": [
        {
          "internalType": "address",
          "name": "",
          "type": "address"
        }
      ],
      "stateMutability": "view",
      "type": "function"
    },
    {
      "inputs": [],
      "name": "renounceOwnership",
      "outputs": [],
      "stateMutability": "nonpayable",
      "type": "function"
    },
    {
      "inputs": [
        {
          "internalType": "uint32",
          "name": "",
          "type": "uint32"
        }
      ],
      "name": "routers",
      "outputs": [
        {
          "internalType": "bytes32",
          "name": "",
          "type": "bytes32"
        }
      ],
      "stateMutability": "view",
      "type": "function"
    },
    {
      "inputs": [
        {
          "internalType": "address",
          "name": "_abacusConnectionManager",
          "type": "address"
        }
      ],
      "name": "setAbacusConnectionManager",
      "outputs": [],
      "stateMutability": "nonpayable",
      "type": "function"
    },
    {
      "inputs": [
        {
          "internalType": "address",
          "name": "_interchainGasPaymaster",
          "type": "address"
        }
      ],
      "name": "setInterchainGasPaymaster",
      "outputs": [],
      "stateMutability": "nonpayable",
      "type": "function"
    },
    {
      "inputs": [
        {
          "internalType": "uint256",
          "name": "_amount",
          "type": "uint256"
        }
      ],
      "name": "swap",
      "outputs": [],
      "stateMutability": "nonpayable",
      "type": "function"
    },
    {
      "inputs": [],
      "name": "symbol",
      "outputs": [
        {
          "internalType": "string",
          "name": "",
          "type": "string"
        }
      ],
      "stateMutability": "view",
      "type": "function"
    },
    {
      "inputs": [
        {
          "internalType": "uint256",
          "name": "amount",
          "type": "uint256"
        }
      ],
      "name": "toUSD",
      "outputs": [
        {
          "internalType": "uint256",
          "name": "",
          "type": "uint256"
        }
      ],
      "stateMutability": "pure",
      "type": "function"
    },
    {
      "inputs": [],
      "name": "totalSupply",
      "outputs": [
        {
          "internalType": "uint256",
          "name": "",
          "type": "uint256"
        }
      ],
      "stateMutability": "view",
      "type": "function"
    },
    {
      "inputs": [
        {
          "internalType": "address",
          "name": "to",
          "type": "address"
        },
        {
          "internalType": "uint256",
          "name": "amount",
          "type": "uint256"
        }
      ],
      "name": "transfer",
      "outputs": [
        {
          "internalType": "bool",
          "name": "",
          "type": "bool"
        }
      ],
      "stateMutability": "nonpayable",
      "type": "function"
    },
    {
      "inputs": [
        {
          "internalType": "address",
          "name": "from",
          "type": "address"
        },
        {
          "internalType": "address",
          "name": "to",
          "type": "address"
        },
        {
          "internalType": "uint256",
          "name": "amount",
          "type": "uint256"
        }
      ],
      "name": "transferFrom",
      "outputs": [
        {
          "internalType": "bool",
          "name": "",
          "type": "bool"
        }
      ],
      "stateMutability": "nonpayable",
      "type": "function"
    },
    {
      "inputs": [
        {
          "internalType": "address",
          "name": "newOwner",
          "type": "address"
        }
      ],
      "name": "transferOwnership",
      "outputs": [],
      "stateMutability": "nonpayable",
      "type": "function"
    },
    {
      "inputs": [
        {
          "internalType": "uint32",
          "name": "_destination",
          "type": "uint32"
        },
        {
          "internalType": "address",
          "name": "_recipient",
          "type": "address"
        },
        {
          "internalType": "uint256",
          "name": "_amount",
          "type": "uint256"
        }
      ],
      "name": "transferRemote",
      "outputs": [],
      "stateMutability": "payable",
      "type": "function"
    },
    {
      "inputs": [
        {
          "internalType": "uint256",
          "name": "amount",
          "type": "uint256"
        }
      ],
      "name": "withdraw",
      "outputs": [],
      "stateMutability": "payable",
      "type": "function"
    },
    {
      "inputs": [
        {
          "internalType": "uint256",
          "name": "_amount",
          "type": "uint256"
        },
        {
          "internalType": "address",
          "name": "_receiver",
          "type": "address"
        }
      ],
      "name": "withdrawFor",
      "outputs": [],
      "stateMutability": "payable",
      "type": "function"
    },
    {
      "inputs": [
        {
          "internalType": "address",
          "name": "_tco2",
          "type": "address"
        },
        {
          "internalType": "uint256",
          "name": "_amountToOffset",
          "type": "uint256"
        }
      ],
      "name": "xRetire",
      "outputs": [],
      "stateMutability": "nonpayable",
      "type": "function"
    }
  ],
  "bytecode": {
    "object": "0x608060405234801561001057600080fd5b5061261e806100206000396000f3fe6080604052600436106101ee5760003560e01c806370a082311161010d578063a457c2d7116100a0578063c14890a41161006f578063c14890a414610585578063c4692d57146105a5578063dd62ed3e146105c5578063f1bd6f0a146105e5578063f2fde38b1461060557600080fd5b8063a457c2d714610505578063a9059cbb14610525578063b49c53a714610545578063b6b55f251461056557600080fd5b806394b918de116100dc57806394b918de1461049257806395d89b41146104b25780639a35c359146104c75780639d9969ed146104e757600080fd5b806370a0823114610416578063715018a61461044c57806389534266146104615780638da5cb5b1461047457600080fd5b80632f4f21e21161018557806338d52e0f1161015457806338d52e0f1461037e57806339509351146103b657806339bb4ad9146103d657806356d5d475146103f657600080fd5b80632f4f21e21461030f578063313ce5671461032f5780633576f6cc1461034b578063362925c21461035e57600080fd5b80632016a0d2116101c15780632016a0d21461028f57806323b872dd146102af5780632e1a7d4d146102cf5780632ead72f6146102e257600080fd5b806306fdde03146101f3578063095ea7b31461021e57806312b1d7801461024e57806318160ddd14610270575b600080fd5b3480156101ff57600080fd5b50610208610625565b6040516102159190611e4f565b60405180910390f35b34801561022a57600080fd5b5061023e610239366004611e7e565b6106b7565b6040519015158152602001610215565b34801561025a57600080fd5b5061026e610269366004611eaa565b6106cf565b005b34801561027c57600080fd5b5060cb545b604051908152602001610215565b34801561029b57600080fd5b5061026e6102aa366004611f7e565b6106e3565b3480156102bb57600080fd5b5061023e6102ca366004612007565b6107b2565b61026e6102dd366004612048565b6107d6565b3480156102ee57600080fd5b506102816102fd36600461207a565b60976020526000908152604090205481565b34801561031b57600080fd5b5061026e61032a366004611e7e565b6107e0565b34801561033b57600080fd5b5060405160128152602001610215565b61026e610359366004612095565b61086c565b34801561036a57600080fd5b5061026e6103793660046120c5565b6108f2565b34801561038a57600080fd5b5060fb5461039e906001600160a01b031681565b6040516001600160a01b039091168152602001610215565b3480156103c257600080fd5b5061023e6103d1366004611e7e565b6109f9565b3480156103e257600080fd5b5060665461039e906001600160a01b031681565b34801561040257600080fd5b5061026e610411366004612163565b610a1b565b34801561042257600080fd5b50610281610431366004611eaa565b6001600160a01b0316600090815260c9602052604090205490565b34801561045857600080fd5b5061026e610ab9565b61026e61046f3660046121ea565b610acd565b34801561048057600080fd5b506033546001600160a01b031661039e565b34801561049e57600080fd5b5061026e6104ad366004612048565b610b5d565b3480156104be57600080fd5b50610208610d7c565b3480156104d357600080fd5b5060655461039e906001600160a01b031681565b3480156104f357600080fd5b50610281610502366004612048565b90565b34801561051157600080fd5b5061023e610520366004611e7e565b610d8b565b34801561053157600080fd5b5061023e610540366004611e7e565b610e06565b34801561055157600080fd5b5061026e610560366004612208565b610e14565b34801561057157600080fd5b5061026e610580366004612048565b610e26565b34801561059157600080fd5b506102816105a0366004611e7e565b610e30565b3480156105b157600080fd5b5061026e6105c0366004611e7e565b61102d565b3480156105d157600080fd5b506102816105e0366004612224565b611210565b3480156105f157600080fd5b5061026e610600366004611eaa565b61123b565b34801561061157600080fd5b5061026e610620366004611eaa565b61124c565b606060cc805461063490612252565b80601f016020809104026020016040519081016040528092919081815260200182805461066090612252565b80156106ad5780601f10610682576101008083540402835291602001916106ad565b820191906000526020600020905b81548152906001019060200180831161069057829003601f168201915b5050505050905090565b6000336106c58185856112c2565b5060019392505050565b6106d76113de565b6106e081611438565b50565b600054610100900460ff16158080156107035750600054600160ff909116105b8061071d5750303b15801561071d575060005460ff166001145b6107425760405162461bcd60e51b815260040161073990612287565b60405180910390fd5b6000805460ff191660011790558015610765576000805461ff0019166101001790555b80156107ab576000805461ff0019169055604051600181527f7f26b83ff96e1f2b6a682f133852f6798a09c465da95921460cefb38474024989060200160405180910390a15b5050505050565b6000336107c0858285611482565b6107cb8585856114fc565b506001949350505050565b6106e0813361086c565b60fb546040516323b872dd60e01b81523360048201526001600160a01b03848116602483015260448201849052909116906323b872dd906064016020604051808303816000875af1158015610839573d6000803e3d6000fd5b505050506040513d601f19601f8201168201806040525081019061085d91906122d5565b5061086882826116a7565b5050565b6108763383611768565b60fb5460405163a9059cbb60e01b81526001600160a01b038381166004830152602482018590529091169063a9059cbb906044016020604051808303816000875af11580156108c9573d6000803e3d6000fd5b505050506040513d601f19601f820116820180604052508101906108ed91906122d5565b505050565b600054610100900460ff16158080156109125750600054600160ff909116105b8061092c5750303b15801561092c575060005460ff166001145b6109485760405162461bcd60e51b815260040161073990612287565b6000805460ff19166001179055801561096b576000805461ff0019166101001790555b6109743361189c565b61097d86611438565b610986856118ee565b6109908484611938565b60fb80546001600160a01b0319166001600160a01b03841617905580156109f1576000805461ff0019169055604051600181527f7f26b83ff96e1f2b6a682f133852f6798a09c465da95921460cefb38474024989060200160405180910390a15b505050505050565b6000336106c5818585610a0c8383611210565b610a1691906122f7565b6112c2565b610a2433611969565b610a595760405162461bcd60e51b8152602060048201526006602482015265042d2dcc4def60d31b6044820152606401610739565b63ffffffff84166000908152609760205260409020548490849081146040518060800160405280604381526020016125a66043913990610aac5760405162461bcd60e51b81526004016107399190611e4f565b506109f1868686866119de565b610ac16113de565b610acb600061189c565b565b610ad73382611768565b604080516001600160a01b0384166020820152908101829052610b0e90849060600160405160208183030381529060405234611a54565b816001600160a01b03168363ffffffff167fae92e7b61f5cd8ffaad4ff9640d1603475365f121d65769540809f899cc9cfa383604051610b5091815260200190565b60405180910390a3505050565b731b02da8cb0d097eb8d57a175b88c7d8b479975066000610ba6732791bca1f2de4661ed88a30c99a7a9449aa8417473d838290e877e0188a4a44700463419ed96c16107611af0565b90506000826001600160a01b0316631f00ca7485846040518363ffffffff1660e01b8152600401610bd8929190612361565b600060405180830381865afa158015610bf5573d6000803e3d6000fd5b505050506040513d6000823e601f3d908101601f19168201604052610c1d9190810190612382565b9050732791bca1f2de4661ed88a30c99a7a9449aa841746001600160a01b031663095ea7b3731b02da8cb0d097eb8d57a175b88c7d8b4799750683600081518110610c6a57610c6a612428565b60200260200101516040518363ffffffff1660e01b8152600401610ca39291906001600160a01b03929092168252602082015260400190565b6020604051808303816000875af1158015610cc2573d6000803e3d6000fd5b505050506040513d601f19601f82011682018060405250810190610ce691906122d5565b50826001600160a01b0316638803dbee8583600081518110610d0a57610d0a612428565b60200260200101518530426040518663ffffffff1660e01b8152600401610d3595949392919061243e565b6000604051808303816000875af1158015610d54573d6000803e3d6000fd5b505050506040513d6000823e601f3d908101601f191682016040526107ab9190810190612382565b606060cd805461063490612252565b60003381610d998286611210565b905083811015610df95760405162461bcd60e51b815260206004820152602560248201527f45524332303a2064656372656173656420616c6c6f77616e63652062656c6f77604482015264207a65726f60d81b6064820152608401610739565b6107cb82868684036112c2565b6000336106c58185856114fc565b610e1c6113de565b6108688282611b7d565b6106e033826107e0565b604080516001808252818301909252600091829190602080830190803683370190505090508381600081518110610e6957610e69612428565b6001600160a01b0392909216602092830291909101909101526040805160018082528183019092526000918160200160208202803683370190505090508381600081518110610eba57610eba612428565b60209081029190910101526040516320eddd9560e11b815260009073d838290e877e0188a4a44700463419ed96c16107906341dbbb2a90610f01908690869060040161247a565b602060405180830381865afa158015610f1e573d6000803e3d6000fd5b505050506040513d601f19601f82011682018060405250810190610f4291906124d1565b90506000610f7873d838290e877e0188a4a44700463419ed96c16107732791bca1f2de4661ed88a30c99a7a9449aa84174611af0565b90506000731b02da8cb0d097eb8d57a175b88c7d8b47997506631f00ca74610fa089866122f7565b846040518363ffffffff1660e01b8152600401610fbe929190612361565b600060405180830381865afa158015610fdb573d6000803e3d6000fd5b505050506040513d6000823e601f3d908101601f191682016040526110039190810190612382565b90508060008151811061101857611018612428565b60200260200101519550505050505092915050565b61103681610b5d565b60408051600180825281830190925260009160208083019080368337019050509050828160008151811061106c5761106c612428565b6001600160a01b03929092166020928302919091019091015260408051600180825281830190925260009181602001602082028036833701905050905082816000815181106110bd576110bd612428565b60209081029190910101526040516315aaa0a160e11b815273d838290e877e0188a4a44700463419ed96c1610790632b55414290611101908590859060040161247a565b600060405180830381600087803b15801561111b57600080fd5b505af115801561112f573d6000803e3d6000fd5b50506040516302ef292960e41b815260a06004820152600760a48201526653706972616c7360c81b60c482015233602482015260e06044820152600960e4820152682237bab39028b4b0b760b91b6101048201526101206064820152601a6101248201527f4865616c696e672074686520776f726c64204020455448205346000000000000610144820152608481018690526001600160a01b0387169250632ef29290915061016401600060405180830381600087803b1580156111f257600080fd5b505af1158015611206573d6000803e3d6000fd5b5050505050505050565b6001600160a01b03918216600090815260ca6020908152604080832093909416825291909152205490565b6112436113de565b6106e0816118ee565b6112546113de565b6001600160a01b0381166112b95760405162461bcd60e51b815260206004820152602660248201527f4f776e61626c653a206e6577206f776e657220697320746865207a65726f206160448201526564647265737360d01b6064820152608401610739565b6106e08161189c565b6001600160a01b0383166113245760405162461bcd60e51b8152602060048201526024808201527f45524332303a20617070726f76652066726f6d20746865207a65726f206164646044820152637265737360e01b6064820152608401610739565b6001600160a01b0382166113855760405162461bcd60e51b815260206004820152602260248201527f45524332303a20617070726f766520746f20746865207a65726f206164647265604482015261737360f01b6064820152608401610739565b6001600160a01b03838116600081815260ca602090815260408083209487168084529482529182902085905590518481527f8c5be1e5ebec7d5bd14f71427d1e84f3dd0314c0f7b2291e5b200ac8c7c3b9259101610b50565b6033546001600160a01b03163314610acb5760405162461bcd60e51b815260206004820181905260248201527f4f776e61626c653a2063616c6c6572206973206e6f7420746865206f776e65726044820152606401610739565b606580546001600160a01b0319166001600160a01b0383169081179091556040517f7c10de8878ed89478ff01b9cd8c11a5271ea8ac91d46f662e6aea7e3adf5b11f90600090a250565b600061148e8484611210565b905060001981146114f657818110156114e95760405162461bcd60e51b815260206004820152601d60248201527f45524332303a20696e73756666696369656e7420616c6c6f77616e63650000006044820152606401610739565b6114f684848484036112c2565b50505050565b6001600160a01b0383166115605760405162461bcd60e51b815260206004820152602560248201527f45524332303a207472616e736665722066726f6d20746865207a65726f206164604482015264647265737360d81b6064820152608401610739565b6001600160a01b0382166115c25760405162461bcd60e51b815260206004820152602360248201527f45524332303a207472616e7366657220746f20746865207a65726f206164647260448201526265737360e81b6064820152608401610739565b6001600160a01b038316600090815260c960205260409020548181101561163a5760405162461bcd60e51b815260206004820152602660248201527f45524332303a207472616e7366657220616d6f756e7420657863656564732062604482015265616c616e636560d01b6064820152608401610739565b6001600160a01b03808516600081815260c9602052604080822086860390559286168082529083902080548601905591517fddf252ad1be2c89b69c2b068fc378daa952ba7f163c4a11628f55a4df523b3ef9061169a9086815260200190565b60405180910390a36114f6565b6001600160a01b0382166116fd5760405162461bcd60e51b815260206004820152601f60248201527f45524332303a206d696e7420746f20746865207a65726f2061646472657373006044820152606401610739565b8060cb600082825461170f91906122f7565b90915550506001600160a01b038216600081815260c960209081526040808320805486019055518481527fddf252ad1be2c89b69c2b068fc378daa952ba7f163c4a11628f55a4df523b3ef910160405180910390a35050565b6001600160a01b0382166117c85760405162461bcd60e51b815260206004820152602160248201527f45524332303a206275726e2066726f6d20746865207a65726f206164647265736044820152607360f81b6064820152608401610739565b6001600160a01b038216600090815260c960205260409020548181101561183c5760405162461bcd60e51b815260206004820152602260248201527f45524332303a206275726e20616d6f756e7420657863656564732062616c616e604482015261636560f01b6064820152608401610739565b6001600160a01b038316600081815260c960209081526040808320868603905560cb80548790039055518581529192917fddf252ad1be2c89b69c2b068fc378daa952ba7f163c4a11628f55a4df523b3ef910160405180910390a3505050565b603380546001600160a01b038381166001600160a01b0319831681179093556040519116919082907f8be0079c531659141344cd1fd0a4f28419497f9722a3daafe3b4186f6b6457e090600090a35050565b606680546001600160a01b0319166001600160a01b0383169081179091556040517fb87f5a0bface22cde699143559fb99f990ae54eea236995fc54178af91af859f90600090a250565b600054610100900460ff1661195f5760405162461bcd60e51b8152600401610739906124ea565b6108688282611bc1565b60655460405163282f51eb60e01b81526001600160a01b038381166004830152600092169063282f51eb90602401602060405180830381865afa1580156119b4573d6000803e3d6000fd5b505050506040513d601f19601f820116820180604052508101906119d891906122d5565b92915050565b600080828060200190518101906119f59190612535565b91509150611a0382826116a7565b816001600160a01b03168563ffffffff167f10ddaf91e64becb789db2ea1bd076c9e7973123803661fb528d320202698c0fe83604051611a4591815260200190565b60405180910390a35050505050565b6000611a5e611c0f565b90506000611a6d828686611c82565b905082156107ab576066546040516352b81e4760e11b81526001600160a01b0384811660048301526024820184905263ffffffff881660448301529091169063a5703c8e9085906064016000604051808303818588803b158015611ad057600080fd5b505af1158015611ae4573d6000803e3d6000fd5b50505050505050505050565b604080516002808252606080830184529260009291906020830190803683370190505090508381600081518110611b2957611b29612428565b60200260200101906001600160a01b031690816001600160a01b0316815250508281600181518110611b5d57611b5d612428565b6001600160a01b0390921660209283029190910190910152905092915050565b63ffffffff8216600081815260976020526040808220849055518392917f97fd51fef1f80c854cbd0150c248e8b2ac4ecdc97cc05e742b5f61c9f4dc645891a35050565b600054610100900460ff16611be85760405162461bcd60e51b8152600401610739906124ea565b8151611bfb9060cc906020850190611d69565b5080516108ed9060cd906020840190611d69565b6065546040805163ce11e6ab60e01b815290516000926001600160a01b03169163ce11e6ab9160048083019260209291908290030181865afa158015611c59573d6000803e3d6000fd5b505050506040513d601f19601f82011682018060405250810190611c7d9190612563565b905090565b600080611c8e84611d0d565b60405163fa31de0160e01b81529091506001600160a01b0386169063fa31de0190611cc190879085908890600401612580565b6020604051808303816000875af1158015611ce0573d6000803e3d6000fd5b505050506040513d601f19601f82011682018060405250810190611d0491906124d1565b95945050505050565b63ffffffff81166000908152609760209081526040918290205482516080810190935260438084529092831515929091906125a69083013990611d635760405162461bcd60e51b81526004016107399190611e4f565b50919050565b828054611d7590612252565b90600052602060002090601f016020900481019282611d975760008555611ddd565b82601f10611db057805160ff1916838001178555611ddd565b82800160010185558215611ddd579182015b82811115611ddd578251825591602001919060010190611dc2565b50611de9929150611ded565b5090565b5b80821115611de95760008155600101611dee565b6000815180845260005b81811015611e2857602081850181015186830182015201611e0c565b81811115611e3a576000602083870101525b50601f01601f19169290920160200192915050565b602081526000611e626020830184611e02565b9392505050565b6001600160a01b03811681146106e057600080fd5b60008060408385031215611e9157600080fd5b8235611e9c81611e69565b946020939093013593505050565b600060208284031215611ebc57600080fd5b8135611e6281611e69565b634e487b7160e01b600052604160045260246000fd5b604051601f8201601f1916810167ffffffffffffffff81118282101715611f0657611f06611ec7565b604052919050565b600082601f830112611f1f57600080fd5b813567ffffffffffffffff811115611f3957611f39611ec7565b611f4c601f8201601f1916602001611edd565b818152846020838601011115611f6157600080fd5b816020850160208301376000918101602001919091529392505050565b60008060008060808587031215611f9457600080fd5b8435611f9f81611e69565b93506020850135611faf81611e69565b9250604085013567ffffffffffffffff80821115611fcc57600080fd5b611fd888838901611f0e565b93506060870135915080821115611fee57600080fd5b50611ffb87828801611f0e565b91505092959194509250565b60008060006060848603121561201c57600080fd5b833561202781611e69565b9250602084013561203781611e69565b929592945050506040919091013590565b60006020828403121561205a57600080fd5b5035919050565b803563ffffffff8116811461207557600080fd5b919050565b60006020828403121561208c57600080fd5b611e6282612061565b600080604083850312156120a857600080fd5b8235915060208301356120ba81611e69565b809150509250929050565b600080600080600060a086880312156120dd57600080fd5b85356120e881611e69565b945060208601356120f881611e69565b9350604086013567ffffffffffffffff8082111561211557600080fd5b61212189838a01611f0e565b9450606088013591508082111561213757600080fd5b5061214488828901611f0e565b925050608086013561215581611e69565b809150509295509295909350565b6000806000806060858703121561217957600080fd5b61218285612061565b935060208501359250604085013567ffffffffffffffff808211156121a657600080fd5b818701915087601f8301126121ba57600080fd5b8135818111156121c957600080fd5b8860208285010111156121db57600080fd5b95989497505060200194505050565b6000806000606084860312156121ff57600080fd5b61202784612061565b6000806040838503121561221b57600080fd5b611e9c83612061565b6000806040838503121561223757600080fd5b823561224281611e69565b915060208301356120ba81611e69565b600181811c9082168061226657607f821691505b60208210811415611d6357634e487b7160e01b600052602260045260246000fd5b6020808252602e908201527f496e697469616c697a61626c653a20636f6e747261637420697320616c72656160408201526d191e481a5b9a5d1a585b1a5e995960921b606082015260800190565b6000602082840312156122e757600080fd5b81518015158114611e6257600080fd5b6000821982111561231857634e487b7160e01b600052601160045260246000fd5b500190565b600081518084526020808501945080840160005b838110156123565781516001600160a01b031687529582019590820190600101612331565b509495945050505050565b82815260406020820152600061237a604083018461231d565b949350505050565b6000602080838503121561239557600080fd5b825167ffffffffffffffff808211156123ad57600080fd5b818501915085601f8301126123c157600080fd5b8151818111156123d3576123d3611ec7565b8060051b91506123e4848301611edd565b81815291830184019184810190888411156123fe57600080fd5b938501935b8385101561241c57845182529385019390850190612403565b98975050505050505050565b634e487b7160e01b600052603260045260246000fd5b85815284602082015260a06040820152600061245d60a083018661231d565b6001600160a01b0394909416606083015250608001529392505050565b60408152600061248d604083018561231d565b82810360208481019190915284518083528582019282019060005b818110156124c4578451835293830193918301916001016124a8565b5090979650505050505050565b6000602082840312156124e357600080fd5b5051919050565b6020808252602b908201527f496e697469616c697a61626c653a20636f6e7472616374206973206e6f74206960408201526a6e697469616c697a696e6760a81b606082015260800190565b6000806040838503121561254857600080fd5b825161255381611e69565b6020939093015192949293505050565b60006020828403121561257557600080fd5b8151611e6281611e69565b63ffffffff84168152826020820152606060408201526000611d046060830184611e0256fe4e6f20726f7574657220656e726f6c6c656420666f7220646f6d61696e2e2044696420796f7520737065636966792074686520726967687420646f6d61696e2049443fa2646970667358221220b2f99eec66c1abc95df74f00f87b270a51b4c6eb1a7fc21e463a8bdd3b8265f864736f6c634300080b0033",
    "linkReferences": {}
  },
  "methodIdentifiers": {
    "abacusConnectionManager()": "9a35c359",
    "allowance(address,address)": "dd62ed3e",
    "approve(address,uint256)": "095ea7b3",
    "asset()": "38d52e0f",
    "balanceOf(address)": "70a08231",
    "decimals()": "313ce567",
    "decreaseAllowance(address,uint256)": "a457c2d7",
    "deposit(uint256)": "b6b55f25",
    "depositFor(address,uint256)": "2f4f21e2",
    "enrollRemoteRouter(uint32,bytes32)": "b49c53a7",
    "getXUSDCNeeded(address,uint256)": "c14890a4",
    "handle(uint32,bytes32,bytes)": "56d5d475",
    "increaseAllowance(address,uint256)": "39509351",
    "initialize(address,address,string,string)": "2016a0d2",
    "initialize(address,address,string,string,address)": "362925c2",
    "interchainGasPaymaster()": "39bb4ad9",
    "name()": "06fdde03",
    "owner()": "8da5cb5b",
    "renounceOwnership()": "715018a6",
    "routers(uint32)": "2ead72f6",
    "setAbacusConnectionManager(address)": "12b1d780",
    "setInterchainGasPaymaster(address)": "f1bd6f0a",
    "swap(uint256)": "94b918de",
    "symbol()": "95d89b41",
    "toUSD(uint256)": "9d9969ed",
    "totalSupply()": "18160ddd",
    "transfer(address,uint256)": "a9059cbb",
    "transferFrom(address,address,uint256)": "23b872dd",
    "transferOwnership(address)": "f2fde38b",
    "transferRemote(uint32,address,uint256)": "89534266",
    "withdraw(uint256)": "2e1a7d4d",
    "withdrawFor(uint256,address)": "3576f6cc",
    "xRetire(address,uint256)": "c4692d57"
  },
  "id": 54
}