{
  "abi": [
    {
      "inputs": [],
      "name": "NotImplemented",
      "type": "error"
    },
    {
      "anonymous": false,
      "inputs": [
        {
          "indexed": true,
          "internalType": "address",
          "name": "owner",
          "type": "address"
        },
        {
          "indexed": true,
          "internalType": "address",
          "name": "spender",
          "type": "address"
        },
        {
          "indexed": false,
          "internalType": "uint256",
          "name": "value",
          "type": "uint256"
        }
      ],
      "name": "Approval",
      "type": "event"
    },
    {
      "anonymous": false,
      "inputs": [
        {
          "indexed": false,
          "internalType": "uint8",
          "name": "version",
          "type": "uint8"
        }
      ],
      "name": "Initialized",
      "type": "event"
    },
    {
      "anonymous": false,
      "inputs": [
        {
          "indexed": true,
          "internalType": "address",
          "name": "tCO2",
          "type": "address"
        },
        {
          "indexed": true,
          "internalType": "uint256",
          "name": "amountXCO2",
          "type": "uint256"
        },
        {
          "indexed": true,
          "internalType": "address",
          "name": "beneificiary",
          "type": "address"
        }
      ],
      "name": "Offset",
      "type": "event"
    },
    {
      "anonymous": false,
      "inputs": [
        {
          "indexed": true,
          "internalType": "address",
          "name": "tCO2",
          "type": "address"
        },
        {
          "indexed": true,
          "internalType": "uint256",
          "name": "amountXCO2",
          "type": "uint256"
        },
        {
          "indexed": true,
          "internalType": "address",
          "name": "beneficiary",
          "type": "address"
        },
        {
          "indexed": false,
          "internalType": "uint32",
          "name": "destination",
          "type": "uint32"
        }
      ],
      "name": "OffsetRemote",
      "type": "event"
    },
    {
      "anonymous": false,
      "inputs": [
        {
          "indexed": true,
          "internalType": "address",
          "name": "previousOwner",
          "type": "address"
        },
        {
          "indexed": true,
          "internalType": "address",
          "name": "newOwner",
          "type": "address"
        }
      ],
      "name": "OwnershipTransferred",
      "type": "event"
    },
    {
      "anonymous": false,
      "inputs": [
        {
          "indexed": true,
          "internalType": "address",
          "name": "from",
          "type": "address"
        },
        {
          "indexed": true,
          "internalType": "address",
          "name": "to",
          "type": "address"
        },
        {
          "indexed": false,
          "internalType": "uint256",
          "name": "value",
          "type": "uint256"
        }
      ],
      "name": "Transfer",
      "type": "event"
    },
    {
      "inputs": [
        {
          "internalType": "address",
          "name": "owner",
          "type": "address"
        },
        {
          "internalType": "address",
          "name": "spender",
          "type": "address"
        }
      ],
      "name": "allowance",
      "outputs": [
        {
          "internalType": "uint256",
          "name": "",
          "type": "uint256"
        }
      ],
      "stateMutability": "view",
      "type": "function"
    },
    {
      "inputs": [
        {
          "internalType": "address",
          "name": "spender",
          "type": "address"
        },
        {
          "internalType": "uint256",
          "name": "amount",
          "type": "uint256"
        }
      ],
      "name": "approve",
      "outputs": [
        {
          "internalType": "bool",
          "name": "",
          "type": "bool"
        }
      ],
      "stateMutability": "nonpayable",
      "type": "function"
    },
    {
      "inputs": [],
      "name": "asset",
      "outputs": [
        {
          "internalType": "contract ERC20Upgradeable",
          "name": "",
          "type": "address"
        }
      ],
      "stateMutability": "view",
      "type": "function"
    },
    {
      "inputs": [
        {
          "internalType": "address",
          "name": "account",
          "type": "address"
        }
      ],
      "name": "balanceOf",
      "outputs": [
        {
          "internalType": "uint256",
          "name": "",
          "type": "uint256"
        }
      ],
      "stateMutability": "view",
      "type": "function"
    },
    {
      "inputs": [],
      "name": "decimals",
      "outputs": [
        {
          "internalType": "uint8",
          "name": "",
          "type": "uint8"
        }
      ],
      "stateMutability": "view",
      "type": "function"
    },
    {
      "inputs": [
        {
          "internalType": "address",
          "name": "spender",
          "type": "address"
        },
        {
          "internalType": "uint256",
          "name": "subtractedValue",
          "type": "uint256"
        }
      ],
      "name": "decreaseAllowance",
      "outputs": [
        {
          "internalType": "bool",
          "name": "",
          "type": "bool"
        }
      ],
      "stateMutability": "nonpayable",
      "type": "function"
    },
    {
      "inputs": [
        {
          "internalType": "uint256",
          "name": "amount",
          "type": "uint256"
        }
      ],
      "name": "fromUSD",
      "outputs": [
        {
          "internalType": "uint256",
          "name": "",
          "type": "uint256"
        }
      ],
      "stateMutability": "view",
      "type": "function"
    },
    {
      "inputs": [
        {
          "internalType": "address",
          "name": "spender",
          "type": "address"
        },
        {
          "internalType": "uint256",
          "name": "addedValue",
          "type": "uint256"
        }
      ],
      "name": "increaseAllowance",
      "outputs": [
        {
          "internalType": "bool",
          "name": "",
          "type": "bool"
        }
      ],
      "stateMutability": "nonpayable",
      "type": "function"
    },
    {
      "inputs": [
        {
          "internalType": "address",
          "name": "_outbox",
          "type": "address"
        },
        {
          "internalType": "address",
          "name": "_xUSDC",
          "type": "address"
        },
        {
          "internalType": "string",
          "name": "_name",
          "type": "string"
        },
        {
          "internalType": "string",
          "name": "_symbol",
          "type": "string"
        }
      ],
      "name": "initialize",
      "outputs": [],
      "stateMutability": "nonpayable",
      "type": "function"
    },
    {
      "inputs": [
        {
          "internalType": "address",
          "name": "_outbox",
          "type": "address"
        },
        {
          "internalType": "address",
          "name": "_xUSDC",
          "type": "address"
        },
        {
          "internalType": "string",
          "name": "_name",
          "type": "string"
        },
        {
          "internalType": "string",
          "name": "_symbol",
          "type": "string"
        },
        {
          "internalType": "address",
          "name": "_asset",
          "type": "address"
        }
      ],
      "name": "initialize",
      "outputs": [],
      "stateMutability": "nonpayable",
      "type": "function"
    },
    {
      "inputs": [],
      "name": "name",
      "outputs": [
        {
          "internalType": "string",
          "name": "",
          "type": "string"
        }
      ],
      "stateMutability": "view",
      "type": "function"
    },
    {
      "inputs": [
        {
          "internalType": "address",
          "name": "_tCO2",
          "type": "address"
        },
        {
          "internalType": "uint256",
          "name": "_amountXCO2",
          "type": "uint256"
        },
        {
          "internalType": "address",
          "name": "_beneficiary",
          "type": "address"
        }
      ],
      "name": "offset",
      "outputs": [],
      "stateMutability": "nonpayable",
      "type": "function"
    },
    {
      "inputs": [],
      "name": "offsetTerminal",
      "outputs": [
        {
          "internalType": "address",
          "name": "",
          "type": "address"
        }
      ],
      "stateMutability": "view",
      "type": "function"
    },
    {
      "inputs": [
        {
          "internalType": "address",
          "name": "_tCO2",
          "type": "address"
        },
        {
          "internalType": "uint256",
          "name": "_amountXCO2",
          "type": "uint256"
        },
        {
          "internalType": "address",
          "name": "_beneficiary",
          "type": "address"
        }
      ],
      "name": "offsetX",
      "outputs": [],
      "stateMutability": "payable",
      "type": "function"
    },
    {
      "inputs": [],
      "name": "owner",
      "outputs": [
        {
          "internalType": "address",
          "name": "",
          "type": "address"
        }
      ],
      "stateMutability": "view",
      "type": "function"
    },
    {
      "inputs": [],
      "name": "renounceOwnership",
      "outputs": [],
      "stateMutability": "nonpayable",
      "type": "function"
    },
    {
      "inputs": [],
      "name": "symbol",
      "outputs": [
        {
          "internalType": "string",
          "name": "",
          "type": "string"
        }
      ],
      "stateMutability": "view",
      "type": "function"
    },
    {
      "inputs": [
        {
          "internalType": "uint256",
          "name": "amount",
          "type": "uint256"
        }
      ],
      "name": "toUSD",
      "outputs": [
        {
          "internalType": "uint256",
          "name": "",
          "type": "uint256"
        }
      ],
      "stateMutability": "pure",
      "type": "function"
    },
    {
      "inputs": [],
      "name": "totalSupply",
      "outputs": [
        {
          "internalType": "uint256",
          "name": "",
          "type": "uint256"
        }
      ],
      "stateMutability": "view",
      "type": "function"
    },
    {
      "inputs": [
        {
          "internalType": "address",
          "name": "to",
          "type": "address"
        },
        {
          "internalType": "uint256",
          "name": "amount",
          "type": "uint256"
        }
      ],
      "name": "transfer",
      "outputs": [
        {
          "internalType": "bool",
          "name": "",
          "type": "bool"
        }
      ],
      "stateMutability": "nonpayable",
      "type": "function"
    },
    {
      "inputs": [
        {
          "internalType": "address",
          "name": "from",
          "type": "address"
        },
        {
          "internalType": "address",
          "name": "to",
          "type": "address"
        },
        {
          "internalType": "uint256",
          "name": "amount",
          "type": "uint256"
        }
      ],
      "name": "transferFrom",
      "outputs": [
        {
          "internalType": "bool",
          "name": "",
          "type": "bool"
        }
      ],
      "stateMutability": "nonpayable",
      "type": "function"
    },
    {
      "inputs": [
        {
          "internalType": "address",
          "name": "newOwner",
          "type": "address"
        }
      ],
      "name": "transferOwnership",
      "outputs": [],
      "stateMutability": "nonpayable",
      "type": "function"
    },
    {
      "inputs": [],
      "name": "withdrawFunds",
      "outputs": [],
      "stateMutability": "nonpayable",
      "type": "function"
    }
  ],
  "bytecode": {
    "object": "0x608060405234801561001057600080fd5b506115ed806100206000396000f3fe6080604052600436106101405760003560e01c806370a08231116100b65780639d9969ed1161006f5780639d9969ed14610353578063a457c2d714610386578063a9059cbb146103a6578063dd62ed3e146103c6578063e08eeb97146103e6578063f2fde38b146103f957600080fd5b806370a08231146102ca578063715018a614610300578063808d27ce146103155780638da5cb5b1461033557806394a74a371461035357806395d89b411461037157600080fd5b806324600fc31161010857806324600fc314610201578063313ce56714610216578063362925c21461023257806336aeab681461025257806338d52e0f1461027257806339509351146102aa57600080fd5b806306fdde0314610145578063095ea7b31461017057806318160ddd146101a05780632016a0d2146101bf57806323b872dd146101e1575b600080fd5b34801561015157600080fd5b5061015a610419565b6040516101679190611157565b60405180910390f35b34801561017c57600080fd5b5061019061018b36600461118d565b6104ab565b6040519015158152602001610167565b3480156101ac57600080fd5b506035545b604051908152602001610167565b3480156101cb57600080fd5b506101df6101da36600461125a565b6104c3565b005b3480156101ed57600080fd5b506101906101fc3660046112df565b6105d5565b34801561020d57600080fd5b506101df6105f9565b34801561022257600080fd5b5060405160128152602001610167565b34801561023e57600080fd5b506101df61024d36600461131b565b6106e9565b34801561025e57600080fd5b506101df61026d3660046113b1565b61080e565b34801561027e57600080fd5b50609954610292906001600160a01b031681565b6040516001600160a01b039091168152602001610167565b3480156102b657600080fd5b506101906102c536600461118d565b6108fd565b3480156102d657600080fd5b506101b16102e53660046113ed565b6001600160a01b031660009081526033602052604090205490565b34801561030c57600080fd5b506101df61091f565b34801561032157600080fd5b50609a54610292906001600160a01b031681565b34801561034157600080fd5b506065546001600160a01b0316610292565b34801561035f57600080fd5b506101b161036e366004611408565b90565b34801561037d57600080fd5b5061015a610933565b34801561039257600080fd5b506101906103a136600461118d565b610942565b3480156103b257600080fd5b506101906103c136600461118d565b6109bd565b3480156103d257600080fd5b506101b16103e1366004611421565b6109cb565b6101df6103f43660046113b1565b6109f6565b34801561040557600080fd5b506101df6104143660046113ed565b610b7e565b60606036805461042890611454565b80601f016020809104026020016040519081016040528092919081815260200182805461045490611454565b80156104a15780601f10610476576101008083540402835291602001916104a1565b820191906000526020600020905b81548152906001019060200180831161048457829003601f168201915b5050505050905090565b6000336104b9818585610bf4565b5060019392505050565b600054610100900460ff16158080156104e35750600054600160ff909116105b806104fd5750303b1580156104fd575060005460ff166001145b6105225760405162461bcd60e51b81526004016105199061148f565b60405180910390fd5b6000805460ff191660011790558015610545576000805461ff0019166101001790555b61054e33610b7e565b609780546001600160a01b038088166001600160a01b03199283161790925560988054928716929091169190911790556105888383610d18565b80156105ce576000805461ff0019169055604051600181527f7f26b83ff96e1f2b6a682f133852f6798a09c465da95921460cefb38474024989060200160405180910390a15b5050505050565b6000336105e3858285610d4d565b6105ee858585610dc7565b506001949350505050565b610601610f72565b6099546040516370a0823160e01b81523060048201526001600160a01b039091169063a9059cbb90339083906370a0823190602401602060405180830381865afa158015610653573d6000803e3d6000fd5b505050506040513d601f19601f8201168201806040525081019061067791906114dd565b6040516001600160e01b031960e085901b1681526001600160a01b03909216600483015260248201526044016020604051808303816000875af11580156106c2573d6000803e3d6000fd5b505050506040513d601f19601f820116820180604052508101906106e691906114f6565b50565b600054610100900460ff16158080156107095750600054600160ff909116105b806107235750303b158015610723575060005460ff166001145b61073f5760405162461bcd60e51b81526004016105199061148f565b6000805460ff191660011790558015610762576000805461ff0019166101001790555b61076b33610fcc565b609780546001600160a01b038089166001600160a01b03199283161790925560988054928816929091169190911790556107a58484610d18565b609980546001600160a01b0319166001600160a01b0384161790558015610806576000805461ff0019169055604051600181527f7f26b83ff96e1f2b6a682f133852f6798a09c465da95921460cefb38474024989060200160405180910390a15b505050505050565b6099546040516323b872dd60e01b8152336004820152306024820152604481018490526001600160a01b03909116906323b872dd906064016020604051808303816000875af1158015610865573d6000803e3d6000fd5b505050506040513d601f19601f8201168201806040525081019061088991906114f6565b50609a546040516380b8553f60e01b81526001600160a01b038581166004830152602482018590528381166044830152909116906380b8553f90606401600060405180830381600087803b1580156108e057600080fd5b505af11580156108f4573d6000803e3d6000fd5b50505050505050565b6000336104b981858561091083836109cb565b61091a9190611518565b610bf4565b610927610f72565b6109316000610fcc565b565b60606037805461042890611454565b6000338161095082866109cb565b9050838110156109b05760405162461bcd60e51b815260206004820152602560248201527f45524332303a2064656372656173656420616c6c6f77616e63652062656c6f77604482015264207a65726f60d81b6064820152608401610519565b6105ee8286868403610bf4565b6000336104b9818585610dc7565b6001600160a01b03918216600090815260346020908152604080832093909416825291909152205490565b6099546001600160a01b03166323b872dd3330856040516001600160e01b031960e086901b1681526001600160a01b03938416600482015292909116602483015260448201526064016020604051808303816000875af1158015610a5e573d6000803e3d6000fd5b505050506040513d601f19601f82011682018060405250810190610a8291906114f6565b50609754609854604080516001600160a01b03878116602083015291810186905284821660608201529281169263fa31de019263706f6c799216906080016040516020818303038152906040526040518463ffffffff1660e01b8152600401610aed9392919061153e565b6020604051808303816000875af1158015610b0c573d6000803e3d6000fd5b505050506040513d601f19601f82011682018060405250810190610b3091906114dd565b5060405163706f6c7981526001600160a01b038083169184918616907f917e03cbde5457cdbf299beea5ca8b2a8ac6b1e85030cf06275ec8ecb519c5fa9060200160405180910390a4505050565b610b86610f72565b6001600160a01b038116610beb5760405162461bcd60e51b815260206004820152602660248201527f4f776e61626c653a206e6577206f776e657220697320746865207a65726f206160448201526564647265737360d01b6064820152608401610519565b6106e681610fcc565b6001600160a01b038316610c565760405162461bcd60e51b8152602060048201526024808201527f45524332303a20617070726f76652066726f6d20746865207a65726f206164646044820152637265737360e01b6064820152608401610519565b6001600160a01b038216610cb75760405162461bcd60e51b815260206004820152602260248201527f45524332303a20617070726f766520746f20746865207a65726f206164647265604482015261737360f01b6064820152608401610519565b6001600160a01b0383811660008181526034602090815260408083209487168084529482529182902085905590518481527f8c5be1e5ebec7d5bd14f71427d1e84f3dd0314c0f7b2291e5b200ac8c7c3b925910160405180910390a3505050565b600054610100900460ff16610d3f5760405162461bcd60e51b81526004016105199061156c565b610d49828261101e565b5050565b6000610d5984846109cb565b90506000198114610dc15781811015610db45760405162461bcd60e51b815260206004820152601d60248201527f45524332303a20696e73756666696369656e7420616c6c6f77616e63650000006044820152606401610519565b610dc18484848403610bf4565b50505050565b6001600160a01b038316610e2b5760405162461bcd60e51b815260206004820152602560248201527f45524332303a207472616e736665722066726f6d20746865207a65726f206164604482015264647265737360d81b6064820152608401610519565b6001600160a01b038216610e8d5760405162461bcd60e51b815260206004820152602360248201527f45524332303a207472616e7366657220746f20746865207a65726f206164647260448201526265737360e81b6064820152608401610519565b6001600160a01b03831660009081526033602052604090205481811015610f055760405162461bcd60e51b815260206004820152602660248201527f45524332303a207472616e7366657220616d6f756e7420657863656564732062604482015265616c616e636560d01b6064820152608401610519565b6001600160a01b0380851660008181526033602052604080822086860390559286168082529083902080548601905591517fddf252ad1be2c89b69c2b068fc378daa952ba7f163c4a11628f55a4df523b3ef90610f659086815260200190565b60405180910390a3610dc1565b6065546001600160a01b031633146109315760405162461bcd60e51b815260206004820181905260248201527f4f776e61626c653a2063616c6c6572206973206e6f7420746865206f776e65726044820152606401610519565b606580546001600160a01b038381166001600160a01b0319831681179093556040519116919082907f8be0079c531659141344cd1fd0a4f28419497f9722a3daafe3b4186f6b6457e090600090a35050565b600054610100900460ff166110455760405162461bcd60e51b81526004016105199061156c565b8151611058906036906020850190611071565b50805161106c906037906020840190611071565b505050565b82805461107d90611454565b90600052602060002090601f01602090048101928261109f57600085556110e5565b82601f106110b857805160ff19168380011785556110e5565b828001600101855582156110e5579182015b828111156110e55782518255916020019190600101906110ca565b506110f19291506110f5565b5090565b5b808211156110f157600081556001016110f6565b6000815180845260005b8181101561113057602081850181015186830182015201611114565b81811115611142576000602083870101525b50601f01601f19169290920160200192915050565b60208152600061116a602083018461110a565b9392505050565b80356001600160a01b038116811461118857600080fd5b919050565b600080604083850312156111a057600080fd5b6111a983611171565b946020939093013593505050565b634e487b7160e01b600052604160045260246000fd5b600082601f8301126111de57600080fd5b813567ffffffffffffffff808211156111f9576111f96111b7565b604051601f8301601f19908116603f01168101908282118183101715611221576112216111b7565b8160405283815286602085880101111561123a57600080fd5b836020870160208301376000602085830101528094505050505092915050565b6000806000806080858703121561127057600080fd5b61127985611171565b935061128760208601611171565b9250604085013567ffffffffffffffff808211156112a457600080fd5b6112b0888389016111cd565b935060608701359150808211156112c657600080fd5b506112d3878288016111cd565b91505092959194509250565b6000806000606084860312156112f457600080fd5b6112fd84611171565b925061130b60208501611171565b9150604084013590509250925092565b600080600080600060a0868803121561133357600080fd5b61133c86611171565b945061134a60208701611171565b9350604086013567ffffffffffffffff8082111561136757600080fd5b61137389838a016111cd565b9450606088013591508082111561138957600080fd5b50611396888289016111cd565b9250506113a560808701611171565b90509295509295909350565b6000806000606084860312156113c657600080fd5b6113cf84611171565b9250602084013591506113e460408501611171565b90509250925092565b6000602082840312156113ff57600080fd5b61116a82611171565b60006020828403121561141a57600080fd5b5035919050565b6000806040838503121561143457600080fd5b61143d83611171565b915061144b60208401611171565b90509250929050565b600181811c9082168061146857607f821691505b6020821081141561148957634e487b7160e01b600052602260045260246000fd5b50919050565b6020808252602e908201527f496e697469616c697a61626c653a20636f6e747261637420697320616c72656160408201526d191e481a5b9a5d1a585b1a5e995960921b606082015260800190565b6000602082840312156114ef57600080fd5b5051919050565b60006020828403121561150857600080fd5b8151801515811461116a57600080fd5b6000821982111561153957634e487b7160e01b600052601160045260246000fd5b500190565b63ffffffff84168152826020820152606060408201526000611563606083018461110a565b95945050505050565b6020808252602b908201527f496e697469616c697a61626c653a20636f6e7472616374206973206e6f74206960408201526a6e697469616c697a696e6760a81b60608201526080019056fea26469706673582212202bab016cdbf1ba9db4eb7bab99cc0fe6d8b8d392f6f3e78d2c168af16fd40c5264736f6c634300080b0033",
    "linkReferences": {}
  },
  "methodIdentifiers": {
    "allowance(address,address)": "dd62ed3e",
    "approve(address,uint256)": "095ea7b3",
    "asset()": "38d52e0f",
    "balanceOf(address)": "70a08231",
    "decimals()": "313ce567",
    "decreaseAllowance(address,uint256)": "a457c2d7",
    "fromUSD(uint256)": "94a74a37",
    "increaseAllowance(address,uint256)": "39509351",
    "initialize(address,address,string,string)": "2016a0d2",
    "initialize(address,address,string,string,address)": "362925c2",
    "name()": "06fdde03",
    "offset(address,uint256,address)": "36aeab68",
    "offsetTerminal()": "808d27ce",
    "offsetX(address,uint256,address)": "e08eeb97",
    "owner()": "8da5cb5b",
    "renounceOwnership()": "715018a6",
    "symbol()": "95d89b41",
    "toUSD(uint256)": "9d9969ed",
    "totalSupply()": "18160ddd",
    "transfer(address,uint256)": "a9059cbb",
    "transferFrom(address,address,uint256)": "23b872dd",
    "transferOwnership(address)": "f2fde38b",
    "withdrawFunds()": "24600fc3"
  },
  "id": 50
}