{
  "abi": [
    {
      "inputs": [],
      "name": "NotImplemented",
      "type": "error"
    },
    {
      "anonymous": false,
      "inputs": [
        {
          "indexed": true,
          "internalType": "address",
          "name": "owner",
          "type": "address"
        },
        {
          "indexed": true,
          "internalType": "address",
          "name": "spender",
          "type": "address"
        },
        {
          "indexed": false,
          "internalType": "uint256",
          "name": "value",
          "type": "uint256"
        }
      ],
      "name": "Approval",
      "type": "event"
    },
    {
      "anonymous": false,
      "inputs": [
        {
          "indexed": false,
          "internalType": "uint8",
          "name": "version",
          "type": "uint8"
        }
      ],
      "name": "Initialized",
      "type": "event"
    },
    {
      "anonymous": false,
      "inputs": [
        {
          "indexed": true,
          "internalType": "address",
          "name": "tCO2",
          "type": "address"
        },
        {
          "indexed": true,
          "internalType": "uint256",
          "name": "amountXCO2",
          "type": "uint256"
        },
        {
          "indexed": true,
          "internalType": "address",
          "name": "beneificiary",
          "type": "address"
        }
      ],
      "name": "Offset",
      "type": "event"
    },
    {
      "anonymous": false,
      "inputs": [
        {
          "indexed": true,
          "internalType": "address",
          "name": "tCO2",
          "type": "address"
        },
        {
          "indexed": true,
          "internalType": "uint256",
          "name": "amountXCO2",
          "type": "uint256"
        },
        {
          "indexed": true,
          "internalType": "address",
          "name": "beneficiary",
          "type": "address"
        },
        {
          "indexed": false,
          "internalType": "uint32",
          "name": "destination",
          "type": "uint32"
        }
      ],
      "name": "OffsetRemote",
      "type": "event"
    },
    {
      "anonymous": false,
      "inputs": [
        {
          "indexed": true,
          "internalType": "address",
          "name": "previousOwner",
          "type": "address"
        },
        {
          "indexed": true,
          "internalType": "address",
          "name": "newOwner",
          "type": "address"
        }
      ],
      "name": "OwnershipTransferred",
      "type": "event"
    },
    {
      "anonymous": false,
      "inputs": [
        {
          "indexed": true,
          "internalType": "address",
          "name": "from",
          "type": "address"
        },
        {
          "indexed": true,
          "internalType": "address",
          "name": "to",
          "type": "address"
        },
        {
          "indexed": false,
          "internalType": "uint256",
          "name": "value",
          "type": "uint256"
        }
      ],
      "name": "Transfer",
      "type": "event"
    },
    {
      "inputs": [
        {
          "internalType": "address",
          "name": "owner",
          "type": "address"
        },
        {
          "internalType": "address",
          "name": "spender",
          "type": "address"
        }
      ],
      "name": "allowance",
      "outputs": [
        {
          "internalType": "uint256",
          "name": "",
          "type": "uint256"
        }
      ],
      "stateMutability": "view",
      "type": "function"
    },
    {
      "inputs": [
        {
          "internalType": "address",
          "name": "spender",
          "type": "address"
        },
        {
          "internalType": "uint256",
          "name": "amount",
          "type": "uint256"
        }
      ],
      "name": "approve",
      "outputs": [
        {
          "internalType": "bool",
          "name": "",
          "type": "bool"
        }
      ],
      "stateMutability": "nonpayable",
      "type": "function"
    },
    {
      "inputs": [],
      "name": "asset",
      "outputs": [
        {
          "internalType": "contract ERC20Upgradeable",
          "name": "",
          "type": "address"
        }
      ],
      "stateMutability": "view",
      "type": "function"
    },
    {
      "inputs": [
        {
          "internalType": "address",
          "name": "account",
          "type": "address"
        }
      ],
      "name": "balanceOf",
      "outputs": [
        {
          "internalType": "uint256",
          "name": "",
          "type": "uint256"
        }
      ],
      "stateMutability": "view",
      "type": "function"
    },
    {
      "inputs": [],
      "name": "decimals",
      "outputs": [
        {
          "internalType": "uint8",
          "name": "",
          "type": "uint8"
        }
      ],
      "stateMutability": "view",
      "type": "function"
    },
    {
      "inputs": [
        {
          "internalType": "address",
          "name": "spender",
          "type": "address"
        },
        {
          "internalType": "uint256",
          "name": "subtractedValue",
          "type": "uint256"
        }
      ],
      "name": "decreaseAllowance",
      "outputs": [
        {
          "internalType": "bool",
          "name": "",
          "type": "bool"
        }
      ],
      "stateMutability": "nonpayable",
      "type": "function"
    },
    {
      "inputs": [
        {
          "internalType": "uint256",
          "name": "amount",
          "type": "uint256"
        }
      ],
      "name": "fromUSD",
      "outputs": [
        {
          "internalType": "uint256",
          "name": "",
          "type": "uint256"
        }
      ],
      "stateMutability": "view",
      "type": "function"
    },
    {
      "inputs": [
        {
          "internalType": "uint32",
          "name": "",
          "type": "uint32"
        },
        {
          "internalType": "bytes32",
          "name": "",
          "type": "bytes32"
        },
        {
          "internalType": "bytes",
          "name": "_message",
          "type": "bytes"
        }
      ],
      "name": "handle",
      "outputs": [],
      "stateMutability": "nonpayable",
      "type": "function"
    },
    {
      "inputs": [
        {
          "internalType": "address",
          "name": "spender",
          "type": "address"
        },
        {
          "internalType": "uint256",
          "name": "addedValue",
          "type": "uint256"
        }
      ],
      "name": "increaseAllowance",
      "outputs": [
        {
          "internalType": "bool",
          "name": "",
          "type": "bool"
        }
      ],
      "stateMutability": "nonpayable",
      "type": "function"
    },
    {
      "inputs": [
        {
          "internalType": "address",
          "name": "_outbox",
          "type": "address"
        },
        {
          "internalType": "address",
          "name": "_xUSDC",
          "type": "address"
        },
        {
          "internalType": "string",
          "name": "_name",
          "type": "string"
        },
        {
          "internalType": "string",
          "name": "_symbol",
          "type": "string"
        }
      ],
      "name": "initialize",
      "outputs": [],
      "stateMutability": "nonpayable",
      "type": "function"
    },
    {
      "inputs": [
        {
          "internalType": "address",
          "name": "_outbox",
          "type": "address"
        },
        {
          "internalType": "address",
          "name": "_xUSDC",
          "type": "address"
        },
        {
          "internalType": "string",
          "name": "_name",
          "type": "string"
        },
        {
          "internalType": "string",
          "name": "_symbol",
          "type": "string"
        },
        {
          "internalType": "address",
          "name": "_asset",
          "type": "address"
        }
      ],
      "name": "initialize",
      "outputs": [],
      "stateMutability": "nonpayable",
      "type": "function"
    },
    {
      "inputs": [],
      "name": "name",
      "outputs": [
        {
          "internalType": "string",
          "name": "",
          "type": "string"
        }
      ],
      "stateMutability": "view",
      "type": "function"
    },
    {
      "inputs": [
        {
          "internalType": "address",
          "name": "_tCO2",
          "type": "address"
        },
        {
          "internalType": "uint256",
          "name": "_amountXCO2",
          "type": "uint256"
        },
        {
          "internalType": "address",
          "name": "_beneficiary",
          "type": "address"
        }
      ],
      "name": "offset",
      "outputs": [],
      "stateMutability": "nonpayable",
      "type": "function"
    },
    {
      "inputs": [],
      "name": "offsetTerminal",
      "outputs": [
        {
          "internalType": "address",
          "name": "",
          "type": "address"
        }
      ],
      "stateMutability": "view",
      "type": "function"
    },
    {
      "inputs": [
        {
          "internalType": "address",
          "name": "_tCO2",
          "type": "address"
        },
        {
          "internalType": "uint256",
          "name": "_amountXCO2",
          "type": "uint256"
        },
        {
          "internalType": "address",
          "name": "_beneficiary",
          "type": "address"
        }
      ],
      "name": "offsetX",
      "outputs": [],
      "stateMutability": "payable",
      "type": "function"
    },
    {
      "inputs": [],
      "name": "outbox",
      "outputs": [
        {
          "internalType": "address",
          "name": "",
          "type": "address"
        }
      ],
      "stateMutability": "view",
      "type": "function"
    },
    {
      "inputs": [],
      "name": "owner",
      "outputs": [
        {
          "internalType": "address",
          "name": "",
          "type": "address"
        }
      ],
      "stateMutability": "view",
      "type": "function"
    },
    {
      "inputs": [],
      "name": "renounceOwnership",
      "outputs": [],
      "stateMutability": "nonpayable",
      "type": "function"
    },
    {
      "inputs": [
        {
          "internalType": "address",
          "name": "_terminal",
          "type": "address"
        }
      ],
      "name": "setOffsetTerminal",
      "outputs": [],
      "stateMutability": "nonpayable",
      "type": "function"
    },
    {
      "inputs": [
        {
          "internalType": "address",
          "name": "_outbox",
          "type": "address"
        }
      ],
      "name": "setOutbox",
      "outputs": [],
      "stateMutability": "nonpayable",
      "type": "function"
    },
    {
      "inputs": [
        {
          "internalType": "address",
          "name": "_xUSDC",
          "type": "address"
        }
      ],
      "name": "setXUSDC",
      "outputs": [],
      "stateMutability": "nonpayable",
      "type": "function"
    },
    {
      "inputs": [],
      "name": "symbol",
      "outputs": [
        {
          "internalType": "string",
          "name": "",
          "type": "string"
        }
      ],
      "stateMutability": "view",
      "type": "function"
    },
    {
      "inputs": [
        {
          "internalType": "uint256",
          "name": "amount",
          "type": "uint256"
        }
      ],
      "name": "toUSD",
      "outputs": [
        {
          "internalType": "uint256",
          "name": "",
          "type": "uint256"
        }
      ],
      "stateMutability": "pure",
      "type": "function"
    },
    {
      "inputs": [],
      "name": "totalSupply",
      "outputs": [
        {
          "internalType": "uint256",
          "name": "",
          "type": "uint256"
        }
      ],
      "stateMutability": "view",
      "type": "function"
    },
    {
      "inputs": [
        {
          "internalType": "address",
          "name": "to",
          "type": "address"
        },
        {
          "internalType": "uint256",
          "name": "amount",
          "type": "uint256"
        }
      ],
      "name": "transfer",
      "outputs": [
        {
          "internalType": "bool",
          "name": "",
          "type": "bool"
        }
      ],
      "stateMutability": "nonpayable",
      "type": "function"
    },
    {
      "inputs": [
        {
          "internalType": "address",
          "name": "from",
          "type": "address"
        },
        {
          "internalType": "address",
          "name": "to",
          "type": "address"
        },
        {
          "internalType": "uint256",
          "name": "amount",
          "type": "uint256"
        }
      ],
      "name": "transferFrom",
      "outputs": [
        {
          "internalType": "bool",
          "name": "",
          "type": "bool"
        }
      ],
      "stateMutability": "nonpayable",
      "type": "function"
    },
    {
      "inputs": [
        {
          "internalType": "address",
          "name": "newOwner",
          "type": "address"
        }
      ],
      "name": "transferOwnership",
      "outputs": [],
      "stateMutability": "nonpayable",
      "type": "function"
    },
    {
      "inputs": [],
      "name": "withdrawFunds",
      "outputs": [],
      "stateMutability": "nonpayable",
      "type": "function"
    },
    {
      "inputs": [],
      "name": "withdrawFunds2",
      "outputs": [],
      "stateMutability": "nonpayable",
      "type": "function"
    },
    {
      "inputs": [],
      "name": "xUSDC",
      "outputs": [
        {
          "internalType": "address",
          "name": "",
          "type": "address"
        }
      ],
      "stateMutability": "view",
      "type": "function"
    }
  ],
  "bytecode": {
    "object": "0x608060405234801561001057600080fd5b5061187d806100206000396000f3fe6080604052600436106101cd5760003560e01c80637f6e66b3116100f7578063a9059cbb11610095578063e08eeb9711610064578063e08eeb9714610508578063e40570271461051b578063f2fde38b1461053b578063ff204f3b1461055b57600080fd5b8063a9059cbb14610488578063b2601207146104a8578063ce11e6ab146104c8578063dd62ed3e146104e857600080fd5b806394a74a37116100d157806394a74a371461043557806395d89b41146104535780639d9969ed14610435578063a457c2d71461046857600080fd5b80637f6e66b3146103d7578063808d27ce146103f75780638da5cb5b1461041757600080fd5b8063362925c21161016f57806356d5d4751161013e57806356d5d475146103575780636bea906e1461037757806370a082311461038c578063715018a6146103c257600080fd5b8063362925c2146102bf57806336aeab68146102df57806338d52e0f146102ff578063395093511461033757600080fd5b80632016a0d2116101ab5780632016a0d21461024c57806323b872dd1461026e57806324600fc31461028e578063313ce567146102a357600080fd5b806306fdde03146101d2578063095ea7b3146101fd57806318160ddd1461022d575b600080fd5b3480156101de57600080fd5b506101e761057b565b6040516101f49190611302565b60405180910390f35b34801561020957600080fd5b5061021d61021836600461136c565b61060d565b60405190151581526020016101f4565b34801561023957600080fd5b506035545b6040519081526020016101f4565b34801561025857600080fd5b5061026c61026736600461144b565b610625565b005b34801561027a57600080fd5b5061021d6102893660046114d4565b610737565b34801561029a57600080fd5b5061026c61075b565b3480156102af57600080fd5b50604051601281526020016101f4565b3480156102cb57600080fd5b5061026c6102da366004611515565b61084c565b3480156102eb57600080fd5b5061026c6102fa3660046115b3565b610971565b34801561030b57600080fd5b5060995461031f906001600160a01b031681565b6040516001600160a01b0390911681526020016101f4565b34801561034357600080fd5b5061021d61035236600461136c565b610a64565b34801561036357600080fd5b5061026c6103723660046115f5565b610a86565b34801561038357600080fd5b5061026c610bd8565b34801561039857600080fd5b5061023e6103a736600461166b565b6001600160a01b031660009081526033602052604090205490565b3480156103ce57600080fd5b5061026c610c1a565b3480156103e357600080fd5b5061026c6103f236600461166b565b610c2e565b34801561040357600080fd5b50609a5461031f906001600160a01b031681565b34801561042357600080fd5b506065546001600160a01b031661031f565b34801561044157600080fd5b5061023e610450366004611688565b90565b34801561045f57600080fd5b506101e7610c58565b34801561047457600080fd5b5061021d61048336600461136c565b610c67565b34801561049457600080fd5b5061021d6104a336600461136c565b610ce2565b3480156104b457600080fd5b5061026c6104c336600461166b565b610cf0565b3480156104d457600080fd5b5060975461031f906001600160a01b031681565b3480156104f457600080fd5b5061023e6105033660046116a1565b610d1a565b61026c6105163660046115b3565b610d45565b34801561052757600080fd5b5060985461031f906001600160a01b031681565b34801561054757600080fd5b5061026c61055636600461166b565b610d55565b34801561056757600080fd5b5061026c61057636600461166b565b610dcb565b60606036805461058a906116da565b80601f01602080910402602001604051908101604052809291908181526020018280546105b6906116da565b80156106035780601f106105d857610100808354040283529160200191610603565b820191906000526020600020905b8154815290600101906020018083116105e657829003601f168201915b5050505050905090565b60003361061b818585610df5565b5060019392505050565b600054610100900460ff16158080156106455750600054600160ff909116105b8061065f5750303b15801561065f575060005460ff166001145b6106845760405162461bcd60e51b815260040161067b90611715565b60405180910390fd5b6000805460ff1916600117905580156106a7576000805461ff0019166101001790555b6106b033610d55565b609780546001600160a01b038088166001600160a01b03199283161790925560988054928716929091169190911790556106ea8383610f19565b8015610730576000805461ff0019169055604051600181527f7f26b83ff96e1f2b6a682f133852f6798a09c465da95921460cefb38474024989060200160405180910390a15b5050505050565b600033610745858285610f4e565b610750858585610fc8565b506001949350505050565b610763611173565b6099546040516370a0823160e01b81523060048201526001600160a01b039091169063a9059cbb90339083906370a08231906024015b602060405180830381865afa1580156107b6573d6000803e3d6000fd5b505050506040513d601f19601f820116820180604052508101906107da9190611763565b6040516001600160e01b031960e085901b1681526001600160a01b03909216600483015260248201526044016020604051808303816000875af1158015610825573d6000803e3d6000fd5b505050506040513d601f19601f82011682018060405250810190610849919061177c565b50565b600054610100900460ff161580801561086c5750600054600160ff909116105b806108865750303b158015610886575060005460ff166001145b6108a25760405162461bcd60e51b815260040161067b90611715565b6000805460ff1916600117905580156108c5576000805461ff0019166101001790555b6108ce336111cd565b609780546001600160a01b038089166001600160a01b03199283161790925560988054928816929091169190911790556109088484610f19565b609980546001600160a01b0319166001600160a01b0384161790558015610969576000805461ff0019169055604051600181527f7f26b83ff96e1f2b6a682f133852f6798a09c465da95921460cefb38474024989060200160405180910390a15b505050505050565b609954609a546040516323b872dd60e01b81523360048201526001600160a01b039182166024820152604481018590529116906323b872dd906064016020604051808303816000875af11580156109cc573d6000803e3d6000fd5b505050506040513d601f19601f820116820180604052508101906109f0919061177c565b50609a546040516380b8553f60e01b81526001600160a01b038581166004830152602482018590528381166044830152909116906380b8553f90606401600060405180830381600087803b158015610a4757600080fd5b505af1158015610a5b573d6000803e3d6000fd5b50505050505050565b60003361061b818585610a778383610d1a565b610a81919061179e565b610df5565b600080600083806020019051810190610a9f91906117c4565b609954609a5460405163a9059cbb60e01b81526001600160a01b03918216600482015260248101859052949750929550909350169063a9059cbb906044016020604051808303816000875af1158015610afc573d6000803e3d6000fd5b505050506040513d601f19601f82011682018060405250810190610b20919061177c565b50609a546040516380b8553f60e01b81526001600160a01b038581166004830152602482018590528381166044830152909116906380b8553f90606401600060405180830381600087803b158015610b7757600080fd5b505af1158015610b8b573d6000803e3d6000fd5b50505050806001600160a01b031682846001600160a01b03167f7eb22eec007820595b9863f3fb66d4a43f8c8fd82126b0df9889f4353ac702c060405160405180910390a4505050505050565b610be0611173565b6099546040516370a0823160e01b81523060048201526001600160a01b039091169063095ea7b390339083906370a0823190602401610799565b610c22611173565b610c2c60006111cd565b565b610c36611173565b609880546001600160a01b0319166001600160a01b0392909216919091179055565b60606037805461058a906116da565b60003381610c758286610d1a565b905083811015610cd55760405162461bcd60e51b815260206004820152602560248201527f45524332303a2064656372656173656420616c6c6f77616e63652062656c6f77604482015264207a65726f60d81b606482015260840161067b565b6107508286868403610df5565b60003361061b818585610fc8565b610cf8611173565b609a80546001600160a01b0319166001600160a01b0392909216919091179055565b6001600160a01b03918216600090815260346020908152604080832093909416825291909152205490565b610d50838383610971565b505050565b610d5d611173565b6001600160a01b038116610dc25760405162461bcd60e51b815260206004820152602660248201527f4f776e61626c653a206e6577206f776e657220697320746865207a65726f206160448201526564647265737360d01b606482015260840161067b565b610849816111cd565b610dd3611173565b609780546001600160a01b0319166001600160a01b0392909216919091179055565b6001600160a01b038316610e575760405162461bcd60e51b8152602060048201526024808201527f45524332303a20617070726f76652066726f6d20746865207a65726f206164646044820152637265737360e01b606482015260840161067b565b6001600160a01b038216610eb85760405162461bcd60e51b815260206004820152602260248201527f45524332303a20617070726f766520746f20746865207a65726f206164647265604482015261737360f01b606482015260840161067b565b6001600160a01b0383811660008181526034602090815260408083209487168084529482529182902085905590518481527f8c5be1e5ebec7d5bd14f71427d1e84f3dd0314c0f7b2291e5b200ac8c7c3b925910160405180910390a3505050565b600054610100900460ff16610f405760405162461bcd60e51b815260040161067b906117fc565b610f4a828261121f565b5050565b6000610f5a8484610d1a565b90506000198114610fc25781811015610fb55760405162461bcd60e51b815260206004820152601d60248201527f45524332303a20696e73756666696369656e7420616c6c6f77616e6365000000604482015260640161067b565b610fc28484848403610df5565b50505050565b6001600160a01b03831661102c5760405162461bcd60e51b815260206004820152602560248201527f45524332303a207472616e736665722066726f6d20746865207a65726f206164604482015264647265737360d81b606482015260840161067b565b6001600160a01b03821661108e5760405162461bcd60e51b815260206004820152602360248201527f45524332303a207472616e7366657220746f20746865207a65726f206164647260448201526265737360e81b606482015260840161067b565b6001600160a01b038316600090815260336020526040902054818110156111065760405162461bcd60e51b815260206004820152602660248201527f45524332303a207472616e7366657220616d6f756e7420657863656564732062604482015265616c616e636560d01b606482015260840161067b565b6001600160a01b0380851660008181526033602052604080822086860390559286168082529083902080548601905591517fddf252ad1be2c89b69c2b068fc378daa952ba7f163c4a11628f55a4df523b3ef906111669086815260200190565b60405180910390a3610fc2565b6065546001600160a01b03163314610c2c5760405162461bcd60e51b815260206004820181905260248201527f4f776e61626c653a2063616c6c6572206973206e6f7420746865206f776e6572604482015260640161067b565b606580546001600160a01b038381166001600160a01b0319831681179093556040519116919082907f8be0079c531659141344cd1fd0a4f28419497f9722a3daafe3b4186f6b6457e090600090a35050565b600054610100900460ff166112465760405162461bcd60e51b815260040161067b906117fc565b8151611259906036906020850190611269565b508051610d509060379060208401905b828054611275906116da565b90600052602060002090601f01602090048101928261129757600085556112dd565b82601f106112b057805160ff19168380011785556112dd565b828001600101855582156112dd579182015b828111156112dd5782518255916020019190600101906112c2565b506112e99291506112ed565b5090565b5b808211156112e957600081556001016112ee565b600060208083528351808285015260005b8181101561132f57858101830151858201604001528201611313565b81811115611341576000604083870101525b50601f01601f1916929092016040019392505050565b6001600160a01b038116811461084957600080fd5b6000806040838503121561137f57600080fd5b823561138a81611357565b946020939093013593505050565b634e487b7160e01b600052604160045260246000fd5b600067ffffffffffffffff808411156113c9576113c9611398565b604051601f8501601f19908116603f011681019082821181831017156113f1576113f1611398565b8160405280935085815286868601111561140a57600080fd5b858560208301376000602087830101525050509392505050565b600082601f83011261143557600080fd5b611444838335602085016113ae565b9392505050565b6000806000806080858703121561146157600080fd5b843561146c81611357565b9350602085013561147c81611357565b9250604085013567ffffffffffffffff8082111561149957600080fd5b6114a588838901611424565b935060608701359150808211156114bb57600080fd5b506114c887828801611424565b91505092959194509250565b6000806000606084860312156114e957600080fd5b83356114f481611357565b9250602084013561150481611357565b929592945050506040919091013590565b600080600080600060a0868803121561152d57600080fd5b853561153881611357565b9450602086013561154881611357565b9350604086013567ffffffffffffffff8082111561156557600080fd5b61157189838a01611424565b9450606088013591508082111561158757600080fd5b5061159488828901611424565b92505060808601356115a581611357565b809150509295509295909350565b6000806000606084860312156115c857600080fd5b83356115d381611357565b92506020840135915060408401356115ea81611357565b809150509250925092565b60008060006060848603121561160a57600080fd5b833563ffffffff8116811461161e57600080fd5b925060208401359150604084013567ffffffffffffffff81111561164157600080fd5b8401601f8101861361165257600080fd5b611661868235602084016113ae565b9150509250925092565b60006020828403121561167d57600080fd5b813561144481611357565b60006020828403121561169a57600080fd5b5035919050565b600080604083850312156116b457600080fd5b82356116bf81611357565b915060208301356116cf81611357565b809150509250929050565b600181811c908216806116ee57607f821691505b6020821081141561170f57634e487b7160e01b600052602260045260246000fd5b50919050565b6020808252602e908201527f496e697469616c697a61626c653a20636f6e747261637420697320616c72656160408201526d191e481a5b9a5d1a585b1a5e995960921b606082015260800190565b60006020828403121561177557600080fd5b5051919050565b60006020828403121561178e57600080fd5b8151801515811461144457600080fd5b600082198211156117bf57634e487b7160e01b600052601160045260246000fd5b500190565b6000806000606084860312156117d957600080fd5b83516117e481611357565b6020850151604086015191945092506115ea81611357565b6020808252602b908201527f496e697469616c697a61626c653a20636f6e7472616374206973206e6f74206960408201526a6e697469616c697a696e6760a81b60608201526080019056fea2646970667358221220770f2df7d686f58834d0ab69f8aecd1c578f084fda0ae37e873482195ea98e1664736f6c634300080b0033",
    "linkReferences": {}
  },
  "methodIdentifiers": {
    "allowance(address,address)": "dd62ed3e",
    "approve(address,uint256)": "095ea7b3",
    "asset()": "38d52e0f",
    "balanceOf(address)": "70a08231",
    "decimals()": "313ce567",
    "decreaseAllowance(address,uint256)": "a457c2d7",
    "fromUSD(uint256)": "94a74a37",
    "handle(uint32,bytes32,bytes)": "56d5d475",
    "increaseAllowance(address,uint256)": "39509351",
    "initialize(address,address,string,string)": "2016a0d2",
    "initialize(address,address,string,string,address)": "362925c2",
    "name()": "06fdde03",
    "offset(address,uint256,address)": "36aeab68",
    "offsetTerminal()": "808d27ce",
    "offsetX(address,uint256,address)": "e08eeb97",
    "outbox()": "ce11e6ab",
    "owner()": "8da5cb5b",
    "renounceOwnership()": "715018a6",
    "setOffsetTerminal(address)": "b2601207",
    "setOutbox(address)": "ff204f3b",
    "setXUSDC(address)": "7f6e66b3",
    "symbol()": "95d89b41",
    "toUSD(uint256)": "9d9969ed",
    "totalSupply()": "18160ddd",
    "transfer(address,uint256)": "a9059cbb",
    "transferFrom(address,address,uint256)": "23b872dd",
    "transferOwnership(address)": "f2fde38b",
    "withdrawFunds()": "24600fc3",
    "withdrawFunds2()": "6bea906e",
    "xUSDC()": "e4057027"
  },
  "id": 67
}