{
  "abi": [
    {
      "inputs": [],
      "name": "NotImplemented",
      "type": "error"
    },
    {
      "anonymous": false,
      "inputs": [
        {
          "indexed": true,
          "internalType": "address",
          "name": "owner",
          "type": "address"
        },
        {
          "indexed": true,
          "internalType": "address",
          "name": "spender",
          "type": "address"
        },
        {
          "indexed": false,
          "internalType": "uint256",
          "name": "value",
          "type": "uint256"
        }
      ],
      "name": "Approval",
      "type": "event"
    },
    {
      "anonymous": false,
      "inputs": [
        {
          "indexed": false,
          "internalType": "uint8",
          "name": "version",
          "type": "uint8"
        }
      ],
      "name": "Initialized",
      "type": "event"
    },
    {
      "anonymous": false,
      "inputs": [
        {
          "indexed": true,
          "internalType": "address",
          "name": "tCO2",
          "type": "address"
        },
        {
          "indexed": true,
          "internalType": "uint256",
          "name": "amountXCO2",
          "type": "uint256"
        },
        {
          "indexed": true,
          "internalType": "address",
          "name": "beneificiary",
          "type": "address"
        }
      ],
      "name": "Offset",
      "type": "event"
    },
    {
      "anonymous": false,
      "inputs": [
        {
          "indexed": true,
          "internalType": "address",
          "name": "tCO2",
          "type": "address"
        },
        {
          "indexed": true,
          "internalType": "uint256",
          "name": "amountXCO2",
          "type": "uint256"
        },
        {
          "indexed": true,
          "internalType": "address",
          "name": "beneficiary",
          "type": "address"
        },
        {
          "indexed": false,
          "internalType": "uint32",
          "name": "destination",
          "type": "uint32"
        }
      ],
      "name": "OffsetRemote",
      "type": "event"
    },
    {
      "anonymous": false,
      "inputs": [
        {
          "indexed": true,
          "internalType": "address",
          "name": "previousOwner",
          "type": "address"
        },
        {
          "indexed": true,
          "internalType": "address",
          "name": "newOwner",
          "type": "address"
        }
      ],
      "name": "OwnershipTransferred",
      "type": "event"
    },
    {
      "anonymous": false,
      "inputs": [
        {
          "indexed": true,
          "internalType": "address",
          "name": "from",
          "type": "address"
        },
        {
          "indexed": true,
          "internalType": "address",
          "name": "to",
          "type": "address"
        },
        {
          "indexed": false,
          "internalType": "uint256",
          "name": "value",
          "type": "uint256"
        }
      ],
      "name": "Transfer",
      "type": "event"
    },
    {
      "inputs": [
        {
          "internalType": "address",
          "name": "owner",
          "type": "address"
        },
        {
          "internalType": "address",
          "name": "spender",
          "type": "address"
        }
      ],
      "name": "allowance",
      "outputs": [
        {
          "internalType": "uint256",
          "name": "",
          "type": "uint256"
        }
      ],
      "stateMutability": "view",
      "type": "function"
    },
    {
      "inputs": [
        {
          "internalType": "address",
          "name": "spender",
          "type": "address"
        },
        {
          "internalType": "uint256",
          "name": "amount",
          "type": "uint256"
        }
      ],
      "name": "approve",
      "outputs": [
        {
          "internalType": "bool",
          "name": "",
          "type": "bool"
        }
      ],
      "stateMutability": "nonpayable",
      "type": "function"
    },
    {
      "inputs": [],
      "name": "asset",
      "outputs": [
        {
          "internalType": "contract ERC20Upgradeable",
          "name": "",
          "type": "address"
        }
      ],
      "stateMutability": "view",
      "type": "function"
    },
    {
      "inputs": [
        {
          "internalType": "address",
          "name": "account",
          "type": "address"
        }
      ],
      "name": "balanceOf",
      "outputs": [
        {
          "internalType": "uint256",
          "name": "",
          "type": "uint256"
        }
      ],
      "stateMutability": "view",
      "type": "function"
    },
    {
      "inputs": [],
      "name": "decimals",
      "outputs": [
        {
          "internalType": "uint8",
          "name": "",
          "type": "uint8"
        }
      ],
      "stateMutability": "view",
      "type": "function"
    },
    {
      "inputs": [
        {
          "internalType": "address",
          "name": "spender",
          "type": "address"
        },
        {
          "internalType": "uint256",
          "name": "subtractedValue",
          "type": "uint256"
        }
      ],
      "name": "decreaseAllowance",
      "outputs": [
        {
          "internalType": "bool",
          "name": "",
          "type": "bool"
        }
      ],
      "stateMutability": "nonpayable",
      "type": "function"
    },
    {
      "inputs": [
        {
          "internalType": "uint256",
          "name": "amount",
          "type": "uint256"
        }
      ],
      "name": "fromUSD",
      "outputs": [
        {
          "internalType": "uint256",
          "name": "",
          "type": "uint256"
        }
      ],
      "stateMutability": "view",
      "type": "function"
    },
    {
      "inputs": [
        {
          "internalType": "address",
          "name": "spender",
          "type": "address"
        },
        {
          "internalType": "uint256",
          "name": "addedValue",
          "type": "uint256"
        }
      ],
      "name": "increaseAllowance",
      "outputs": [
        {
          "internalType": "bool",
          "name": "",
          "type": "bool"
        }
      ],
      "stateMutability": "nonpayable",
      "type": "function"
    },
    {
      "inputs": [
        {
          "internalType": "address",
          "name": "_outbox",
          "type": "address"
        },
        {
          "internalType": "address",
          "name": "_xUSDC",
          "type": "address"
        },
        {
          "internalType": "string",
          "name": "_name",
          "type": "string"
        },
        {
          "internalType": "string",
          "name": "_symbol",
          "type": "string"
        }
      ],
      "name": "initialize",
      "outputs": [],
      "stateMutability": "nonpayable",
      "type": "function"
    },
    {
      "inputs": [
        {
          "internalType": "address",
          "name": "_outbox",
          "type": "address"
        },
        {
          "internalType": "address",
          "name": "_xUSDC",
          "type": "address"
        },
        {
          "internalType": "string",
          "name": "_name",
          "type": "string"
        },
        {
          "internalType": "string",
          "name": "_symbol",
          "type": "string"
        },
        {
          "internalType": "address",
          "name": "_asset",
          "type": "address"
        }
      ],
      "name": "initialize",
      "outputs": [],
      "stateMutability": "nonpayable",
      "type": "function"
    },
    {
      "inputs": [],
      "name": "name",
      "outputs": [
        {
          "internalType": "string",
          "name": "",
          "type": "string"
        }
      ],
      "stateMutability": "view",
      "type": "function"
    },
    {
      "inputs": [
        {
          "internalType": "address",
          "name": "_tCO2",
          "type": "address"
        },
        {
          "internalType": "uint256",
          "name": "_amountXCO2",
          "type": "uint256"
        },
        {
          "internalType": "address",
          "name": "_beneficiary",
          "type": "address"
        }
      ],
      "name": "offset",
      "outputs": [],
      "stateMutability": "nonpayable",
      "type": "function"
    },
    {
      "inputs": [],
      "name": "offsetTerminal",
      "outputs": [
        {
          "internalType": "address",
          "name": "",
          "type": "address"
        }
      ],
      "stateMutability": "view",
      "type": "function"
    },
    {
      "inputs": [
        {
          "internalType": "address",
          "name": "_tCO2",
          "type": "address"
        },
        {
          "internalType": "uint256",
          "name": "_amountXCO2",
          "type": "uint256"
        },
        {
          "internalType": "address",
          "name": "_beneficiary",
          "type": "address"
        }
      ],
      "name": "offsetX",
      "outputs": [],
      "stateMutability": "payable",
      "type": "function"
    },
    {
      "inputs": [],
      "name": "outbox",
      "outputs": [
        {
          "internalType": "address",
          "name": "",
          "type": "address"
        }
      ],
      "stateMutability": "view",
      "type": "function"
    },
    {
      "inputs": [],
      "name": "owner",
      "outputs": [
        {
          "internalType": "address",
          "name": "",
          "type": "address"
        }
      ],
      "stateMutability": "view",
      "type": "function"
    },
    {
      "inputs": [],
      "name": "renounceOwnership",
      "outputs": [],
      "stateMutability": "nonpayable",
      "type": "function"
    },
    {
      "inputs": [
        {
          "internalType": "address",
          "name": "_terminal",
          "type": "address"
        }
      ],
      "name": "setOffsetTerminal",
      "outputs": [],
      "stateMutability": "nonpayable",
      "type": "function"
    },
    {
      "inputs": [],
      "name": "symbol",
      "outputs": [
        {
          "internalType": "string",
          "name": "",
          "type": "string"
        }
      ],
      "stateMutability": "view",
      "type": "function"
    },
    {
      "inputs": [
        {
          "internalType": "uint256",
          "name": "amount",
          "type": "uint256"
        }
      ],
      "name": "toUSD",
      "outputs": [
        {
          "internalType": "uint256",
          "name": "",
          "type": "uint256"
        }
      ],
      "stateMutability": "pure",
      "type": "function"
    },
    {
      "inputs": [],
      "name": "totalSupply",
      "outputs": [
        {
          "internalType": "uint256",
          "name": "",
          "type": "uint256"
        }
      ],
      "stateMutability": "view",
      "type": "function"
    },
    {
      "inputs": [
        {
          "internalType": "address",
          "name": "to",
          "type": "address"
        },
        {
          "internalType": "uint256",
          "name": "amount",
          "type": "uint256"
        }
      ],
      "name": "transfer",
      "outputs": [
        {
          "internalType": "bool",
          "name": "",
          "type": "bool"
        }
      ],
      "stateMutability": "nonpayable",
      "type": "function"
    },
    {
      "inputs": [
        {
          "internalType": "address",
          "name": "from",
          "type": "address"
        },
        {
          "internalType": "address",
          "name": "to",
          "type": "address"
        },
        {
          "internalType": "uint256",
          "name": "amount",
          "type": "uint256"
        }
      ],
      "name": "transferFrom",
      "outputs": [
        {
          "internalType": "bool",
          "name": "",
          "type": "bool"
        }
      ],
      "stateMutability": "nonpayable",
      "type": "function"
    },
    {
      "inputs": [
        {
          "internalType": "address",
          "name": "newOwner",
          "type": "address"
        }
      ],
      "name": "transferOwnership",
      "outputs": [],
      "stateMutability": "nonpayable",
      "type": "function"
    },
    {
      "inputs": [],
      "name": "withdrawFunds",
      "outputs": [],
      "stateMutability": "nonpayable",
      "type": "function"
    },
    {
      "inputs": [],
      "name": "xUSDC",
      "outputs": [
        {
          "internalType": "address",
          "name": "",
          "type": "address"
        }
      ],
      "stateMutability": "view",
      "type": "function"
    }
  ],
  "bytecode": {
    "object": "0x608060405234801561001057600080fd5b50611502806100206000396000f3fe6080604052600436106101815760003560e01c8063808d27ce116100d1578063a9059cbb1161008a578063dd62ed3e11610064578063dd62ed3e14610447578063e08eeb9714610467578063e40570271461047a578063f2fde38b1461049a57600080fd5b8063a9059cbb146103e7578063b260120714610407578063ce11e6ab1461042757600080fd5b8063808d27ce146103565780638da5cb5b1461037657806394a74a371461039457806395d89b41146103b25780639d9969ed14610394578063a457c2d7146103c757600080fd5b8063313ce5671161013e57806338d52e0f1161011857806338d52e0f146102b357806339509351146102eb57806370a082311461030b578063715018a61461034157600080fd5b8063313ce56714610257578063362925c21461027357806336aeab681461029357600080fd5b806306fdde0314610186578063095ea7b3146101b157806318160ddd146101e15780632016a0d21461020057806323b872dd1461022257806324600fc314610242575b600080fd5b34801561019257600080fd5b5061019b6104ba565b6040516101a89190611058565b60405180910390f35b3480156101bd57600080fd5b506101d16101cc3660046110c9565b61054c565b60405190151581526020016101a8565b3480156101ed57600080fd5b506035545b6040519081526020016101a8565b34801561020c57600080fd5b5061022061021b366004611196565b610564565b005b34801561022e57600080fd5b506101d161023d36600461121b565b610676565b34801561024e57600080fd5b5061022061069a565b34801561026357600080fd5b50604051601281526020016101a8565b34801561027f57600080fd5b5061022061028e366004611257565b61078a565b34801561029f57600080fd5b506102206102ae3660046112ed565b6108af565b3480156102bf57600080fd5b506099546102d3906001600160a01b031681565b6040516001600160a01b0390911681526020016101a8565b3480156102f757600080fd5b506101d16103063660046110c9565b6109a2565b34801561031757600080fd5b506101f2610326366004611329565b6001600160a01b031660009081526033602052604090205490565b34801561034d57600080fd5b506102206109c4565b34801561036257600080fd5b50609a546102d3906001600160a01b031681565b34801561038257600080fd5b506065546001600160a01b03166102d3565b3480156103a057600080fd5b506101f26103af36600461134b565b90565b3480156103be57600080fd5b5061019b6109d8565b3480156103d357600080fd5b506101d16103e23660046110c9565b6109e7565b3480156103f357600080fd5b506101d16104023660046110c9565b610a62565b34801561041357600080fd5b50610220610422366004611329565b610a70565b34801561043357600080fd5b506097546102d3906001600160a01b031681565b34801561045357600080fd5b506101f2610462366004611364565b610a9a565b6102206104753660046112ed565b610ac5565b34801561048657600080fd5b506098546102d3906001600160a01b031681565b3480156104a657600080fd5b506102206104b5366004611329565b610ad5565b6060603680546104c990611397565b80601f01602080910402602001604051908101604052809291908181526020018280546104f590611397565b80156105425780601f1061051757610100808354040283529160200191610542565b820191906000526020600020905b81548152906001019060200180831161052557829003601f168201915b5050505050905090565b60003361055a818585610b4b565b5060019392505050565b600054610100900460ff16158080156105845750600054600160ff909116105b8061059e5750303b15801561059e575060005460ff166001145b6105c35760405162461bcd60e51b81526004016105ba906113d2565b60405180910390fd5b6000805460ff1916600117905580156105e6576000805461ff0019166101001790555b6105ef33610ad5565b609780546001600160a01b038088166001600160a01b03199283161790925560988054928716929091169190911790556106298383610c6f565b801561066f576000805461ff0019169055604051600181527f7f26b83ff96e1f2b6a682f133852f6798a09c465da95921460cefb38474024989060200160405180910390a15b5050505050565b600033610684858285610ca4565b61068f858585610d1e565b506001949350505050565b6106a2610ec9565b6099546040516370a0823160e01b81523060048201526001600160a01b039091169063a9059cbb90339083906370a0823190602401602060405180830381865afa1580156106f4573d6000803e3d6000fd5b505050506040513d601f19601f820116820180604052508101906107189190611420565b6040516001600160e01b031960e085901b1681526001600160a01b03909216600483015260248201526044016020604051808303816000875af1158015610763573d6000803e3d6000fd5b505050506040513d601f19601f820116820180604052508101906107879190611439565b50565b600054610100900460ff16158080156107aa5750600054600160ff909116105b806107c45750303b1580156107c4575060005460ff166001145b6107e05760405162461bcd60e51b81526004016105ba906113d2565b6000805460ff191660011790558015610803576000805461ff0019166101001790555b61080c33610f23565b609780546001600160a01b038089166001600160a01b03199283161790925560988054928816929091169190911790556108468484610c6f565b609980546001600160a01b0319166001600160a01b03841617905580156108a7576000805461ff0019169055604051600181527f7f26b83ff96e1f2b6a682f133852f6798a09c465da95921460cefb38474024989060200160405180910390a15b505050505050565b609954609a546040516323b872dd60e01b81523360048201526001600160a01b039182166024820152604481018590529116906323b872dd906064016020604051808303816000875af115801561090a573d6000803e3d6000fd5b505050506040513d601f19601f8201168201806040525081019061092e9190611439565b50609a546040516380b8553f60e01b81526001600160a01b038581166004830152602482018590528381166044830152909116906380b8553f90606401600060405180830381600087803b15801561098557600080fd5b505af1158015610999573d6000803e3d6000fd5b50505050505050565b60003361055a8185856109b58383610a9a565b6109bf919061145b565b610b4b565b6109cc610ec9565b6109d66000610f23565b565b6060603780546104c990611397565b600033816109f58286610a9a565b905083811015610a555760405162461bcd60e51b815260206004820152602560248201527f45524332303a2064656372656173656420616c6c6f77616e63652062656c6f77604482015264207a65726f60d81b60648201526084016105ba565b61068f8286868403610b4b565b60003361055a818585610d1e565b610a78610ec9565b609a80546001600160a01b0319166001600160a01b0392909216919091179055565b6001600160a01b03918216600090815260346020908152604080832093909416825291909152205490565b610ad08383836108af565b505050565b610add610ec9565b6001600160a01b038116610b425760405162461bcd60e51b815260206004820152602660248201527f4f776e61626c653a206e6577206f776e657220697320746865207a65726f206160448201526564647265737360d01b60648201526084016105ba565b61078781610f23565b6001600160a01b038316610bad5760405162461bcd60e51b8152602060048201526024808201527f45524332303a20617070726f76652066726f6d20746865207a65726f206164646044820152637265737360e01b60648201526084016105ba565b6001600160a01b038216610c0e5760405162461bcd60e51b815260206004820152602260248201527f45524332303a20617070726f766520746f20746865207a65726f206164647265604482015261737360f01b60648201526084016105ba565b6001600160a01b0383811660008181526034602090815260408083209487168084529482529182902085905590518481527f8c5be1e5ebec7d5bd14f71427d1e84f3dd0314c0f7b2291e5b200ac8c7c3b925910160405180910390a3505050565b600054610100900460ff16610c965760405162461bcd60e51b81526004016105ba90611481565b610ca08282610f75565b5050565b6000610cb08484610a9a565b90506000198114610d185781811015610d0b5760405162461bcd60e51b815260206004820152601d60248201527f45524332303a20696e73756666696369656e7420616c6c6f77616e636500000060448201526064016105ba565b610d188484848403610b4b565b50505050565b6001600160a01b038316610d825760405162461bcd60e51b815260206004820152602560248201527f45524332303a207472616e736665722066726f6d20746865207a65726f206164604482015264647265737360d81b60648201526084016105ba565b6001600160a01b038216610de45760405162461bcd60e51b815260206004820152602360248201527f45524332303a207472616e7366657220746f20746865207a65726f206164647260448201526265737360e81b60648201526084016105ba565b6001600160a01b03831660009081526033602052604090205481811015610e5c5760405162461bcd60e51b815260206004820152602660248201527f45524332303a207472616e7366657220616d6f756e7420657863656564732062604482015265616c616e636560d01b60648201526084016105ba565b6001600160a01b0380851660008181526033602052604080822086860390559286168082529083902080548601905591517fddf252ad1be2c89b69c2b068fc378daa952ba7f163c4a11628f55a4df523b3ef90610ebc9086815260200190565b60405180910390a3610d18565b6065546001600160a01b031633146109d65760405162461bcd60e51b815260206004820181905260248201527f4f776e61626c653a2063616c6c6572206973206e6f7420746865206f776e657260448201526064016105ba565b606580546001600160a01b038381166001600160a01b0319831681179093556040519116919082907f8be0079c531659141344cd1fd0a4f28419497f9722a3daafe3b4186f6b6457e090600090a35050565b600054610100900460ff16610f9c5760405162461bcd60e51b81526004016105ba90611481565b8151610faf906036906020850190610fbf565b508051610ad09060379060208401905b828054610fcb90611397565b90600052602060002090601f016020900481019282610fed5760008555611033565b82601f1061100657805160ff1916838001178555611033565b82800160010185558215611033579182015b82811115611033578251825591602001919060010190611018565b5061103f929150611043565b5090565b5b8082111561103f5760008155600101611044565b600060208083528351808285015260005b8181101561108557858101830151858201604001528201611069565b81811115611097576000604083870101525b50601f01601f1916929092016040019392505050565b80356001600160a01b03811681146110c457600080fd5b919050565b600080604083850312156110dc57600080fd5b6110e5836110ad565b946020939093013593505050565b634e487b7160e01b600052604160045260246000fd5b600082601f83011261111a57600080fd5b813567ffffffffffffffff80821115611135576111356110f3565b604051601f8301601f19908116603f0116810190828211818310171561115d5761115d6110f3565b8160405283815286602085880101111561117657600080fd5b836020870160208301376000602085830101528094505050505092915050565b600080600080608085870312156111ac57600080fd5b6111b5856110ad565b93506111c3602086016110ad565b9250604085013567ffffffffffffffff808211156111e057600080fd5b6111ec88838901611109565b9350606087013591508082111561120257600080fd5b5061120f87828801611109565b91505092959194509250565b60008060006060848603121561123057600080fd5b611239846110ad565b9250611247602085016110ad565b9150604084013590509250925092565b600080600080600060a0868803121561126f57600080fd5b611278866110ad565b9450611286602087016110ad565b9350604086013567ffffffffffffffff808211156112a357600080fd5b6112af89838a01611109565b945060608801359150808211156112c557600080fd5b506112d288828901611109565b9250506112e1608087016110ad565b90509295509295909350565b60008060006060848603121561130257600080fd5b61130b846110ad565b925060208401359150611320604085016110ad565b90509250925092565b60006020828403121561133b57600080fd5b611344826110ad565b9392505050565b60006020828403121561135d57600080fd5b5035919050565b6000806040838503121561137757600080fd5b611380836110ad565b915061138e602084016110ad565b90509250929050565b600181811c908216806113ab57607f821691505b602082108114156113cc57634e487b7160e01b600052602260045260246000fd5b50919050565b6020808252602e908201527f496e697469616c697a61626c653a20636f6e747261637420697320616c72656160408201526d191e481a5b9a5d1a585b1a5e995960921b606082015260800190565b60006020828403121561143257600080fd5b5051919050565b60006020828403121561144b57600080fd5b8151801515811461134457600080fd5b6000821982111561147c57634e487b7160e01b600052601160045260246000fd5b500190565b6020808252602b908201527f496e697469616c697a61626c653a20636f6e7472616374206973206e6f74206960408201526a6e697469616c697a696e6760a81b60608201526080019056fea2646970667358221220019971a8de2dc42692b6e5a193fb2a542b81aeead2d59a46acb5715388427e1864736f6c634300080b0033",
    "linkReferences": {}
  },
  "methodIdentifiers": {
    "allowance(address,address)": "dd62ed3e",
    "approve(address,uint256)": "095ea7b3",
    "asset()": "38d52e0f",
    "balanceOf(address)": "70a08231",
    "decimals()": "313ce567",
    "decreaseAllowance(address,uint256)": "a457c2d7",
    "fromUSD(uint256)": "94a74a37",
    "increaseAllowance(address,uint256)": "39509351",
    "initialize(address,address,string,string)": "2016a0d2",
    "initialize(address,address,string,string,address)": "362925c2",
    "name()": "06fdde03",
    "offset(address,uint256,address)": "36aeab68",
    "offsetTerminal()": "808d27ce",
    "offsetX(address,uint256,address)": "e08eeb97",
    "outbox()": "ce11e6ab",
    "owner()": "8da5cb5b",
    "renounceOwnership()": "715018a6",
    "setOffsetTerminal(address)": "b2601207",
    "symbol()": "95d89b41",
    "toUSD(uint256)": "9d9969ed",
    "totalSupply()": "18160ddd",
    "transfer(address,uint256)": "a9059cbb",
    "transferFrom(address,address,uint256)": "23b872dd",
    "transferOwnership(address)": "f2fde38b",
    "withdrawFunds()": "24600fc3",
    "xUSDC()": "e4057027"
  },
  "id": 67
}