{
  "abi": [
    {
      "inputs": [],
      "name": "NotImplemented",
      "type": "error"
    },
    {
      "anonymous": false,
      "inputs": [
        {
          "indexed": true,
          "internalType": "address",
          "name": "owner",
          "type": "address"
        },
        {
          "indexed": true,
          "internalType": "address",
          "name": "spender",
          "type": "address"
        },
        {
          "indexed": false,
          "internalType": "uint256",
          "name": "value",
          "type": "uint256"
        }
      ],
      "name": "Approval",
      "type": "event"
    },
    {
      "anonymous": false,
      "inputs": [
        {
          "indexed": false,
          "internalType": "uint8",
          "name": "version",
          "type": "uint8"
        }
      ],
      "name": "Initialized",
      "type": "event"
    },
    {
      "anonymous": false,
      "inputs": [
        {
          "indexed": true,
          "internalType": "address",
          "name": "tCO2",
          "type": "address"
        },
        {
          "indexed": true,
          "internalType": "uint256",
          "name": "amountXCO2",
          "type": "uint256"
        },
        {
          "indexed": true,
          "internalType": "address",
          "name": "beneificiary",
          "type": "address"
        }
      ],
      "name": "Offset",
      "type": "event"
    },
    {
      "anonymous": false,
      "inputs": [
        {
          "indexed": true,
          "internalType": "address",
          "name": "tCO2",
          "type": "address"
        },
        {
          "indexed": true,
          "internalType": "uint256",
          "name": "amountXCO2",
          "type": "uint256"
        },
        {
          "indexed": true,
          "internalType": "address",
          "name": "beneficiary",
          "type": "address"
        },
        {
          "indexed": false,
          "internalType": "uint32",
          "name": "destination",
          "type": "uint32"
        }
      ],
      "name": "OffsetRemote",
      "type": "event"
    },
    {
      "anonymous": false,
      "inputs": [
        {
          "indexed": true,
          "internalType": "address",
          "name": "previousOwner",
          "type": "address"
        },
        {
          "indexed": true,
          "internalType": "address",
          "name": "newOwner",
          "type": "address"
        }
      ],
      "name": "OwnershipTransferred",
      "type": "event"
    },
    {
      "anonymous": false,
      "inputs": [
        {
          "indexed": true,
          "internalType": "address",
          "name": "from",
          "type": "address"
        },
        {
          "indexed": true,
          "internalType": "address",
          "name": "to",
          "type": "address"
        },
        {
          "indexed": false,
          "internalType": "uint256",
          "name": "value",
          "type": "uint256"
        }
      ],
      "name": "Transfer",
      "type": "event"
    },
    {
      "inputs": [
        {
          "internalType": "address",
          "name": "owner",
          "type": "address"
        },
        {
          "internalType": "address",
          "name": "spender",
          "type": "address"
        }
      ],
      "name": "allowance",
      "outputs": [
        {
          "internalType": "uint256",
          "name": "",
          "type": "uint256"
        }
      ],
      "stateMutability": "view",
      "type": "function"
    },
    {
      "inputs": [
        {
          "internalType": "address",
          "name": "spender",
          "type": "address"
        },
        {
          "internalType": "uint256",
          "name": "amount",
          "type": "uint256"
        }
      ],
      "name": "approve",
      "outputs": [
        {
          "internalType": "bool",
          "name": "",
          "type": "bool"
        }
      ],
      "stateMutability": "nonpayable",
      "type": "function"
    },
    {
      "inputs": [],
      "name": "asset",
      "outputs": [
        {
          "internalType": "contract ERC20Upgradeable",
          "name": "",
          "type": "address"
        }
      ],
      "stateMutability": "view",
      "type": "function"
    },
    {
      "inputs": [
        {
          "internalType": "address",
          "name": "account",
          "type": "address"
        }
      ],
      "name": "balanceOf",
      "outputs": [
        {
          "internalType": "uint256",
          "name": "",
          "type": "uint256"
        }
      ],
      "stateMutability": "view",
      "type": "function"
    },
    {
      "inputs": [],
      "name": "decimals",
      "outputs": [
        {
          "internalType": "uint8",
          "name": "",
          "type": "uint8"
        }
      ],
      "stateMutability": "view",
      "type": "function"
    },
    {
      "inputs": [
        {
          "internalType": "address",
          "name": "spender",
          "type": "address"
        },
        {
          "internalType": "uint256",
          "name": "subtractedValue",
          "type": "uint256"
        }
      ],
      "name": "decreaseAllowance",
      "outputs": [
        {
          "internalType": "bool",
          "name": "",
          "type": "bool"
        }
      ],
      "stateMutability": "nonpayable",
      "type": "function"
    },
    {
      "inputs": [
        {
          "internalType": "uint256",
          "name": "amount",
          "type": "uint256"
        }
      ],
      "name": "fromUSD",
      "outputs": [
        {
          "internalType": "uint256",
          "name": "",
          "type": "uint256"
        }
      ],
      "stateMutability": "view",
      "type": "function"
    },
    {
      "inputs": [
        {
          "internalType": "address",
          "name": "spender",
          "type": "address"
        },
        {
          "internalType": "uint256",
          "name": "addedValue",
          "type": "uint256"
        }
      ],
      "name": "increaseAllowance",
      "outputs": [
        {
          "internalType": "bool",
          "name": "",
          "type": "bool"
        }
      ],
      "stateMutability": "nonpayable",
      "type": "function"
    },
    {
      "inputs": [
        {
          "internalType": "address",
          "name": "_outbox",
          "type": "address"
        },
        {
          "internalType": "address",
          "name": "_xUSDC",
          "type": "address"
        },
        {
          "internalType": "string",
          "name": "_name",
          "type": "string"
        },
        {
          "internalType": "string",
          "name": "_symbol",
          "type": "string"
        }
      ],
      "name": "initialize",
      "outputs": [],
      "stateMutability": "nonpayable",
      "type": "function"
    },
    {
      "inputs": [
        {
          "internalType": "address",
          "name": "_outbox",
          "type": "address"
        },
        {
          "internalType": "address",
          "name": "_xUSDC",
          "type": "address"
        },
        {
          "internalType": "string",
          "name": "_name",
          "type": "string"
        },
        {
          "internalType": "string",
          "name": "_symbol",
          "type": "string"
        },
        {
          "internalType": "address",
          "name": "_asset",
          "type": "address"
        }
      ],
      "name": "initialize",
      "outputs": [],
      "stateMutability": "nonpayable",
      "type": "function"
    },
    {
      "inputs": [],
      "name": "name",
      "outputs": [
        {
          "internalType": "string",
          "name": "",
          "type": "string"
        }
      ],
      "stateMutability": "view",
      "type": "function"
    },
    {
      "inputs": [
        {
          "internalType": "address",
          "name": "_tCO2",
          "type": "address"
        },
        {
          "internalType": "uint256",
          "name": "_amountXCO2",
          "type": "uint256"
        },
        {
          "internalType": "address",
          "name": "_beneficiary",
          "type": "address"
        }
      ],
      "name": "offset",
      "outputs": [],
      "stateMutability": "nonpayable",
      "type": "function"
    },
    {
      "inputs": [],
      "name": "offsetTerminal",
      "outputs": [
        {
          "internalType": "address",
          "name": "",
          "type": "address"
        }
      ],
      "stateMutability": "view",
      "type": "function"
    },
    {
      "inputs": [
        {
          "internalType": "address",
          "name": "_tCO2",
          "type": "address"
        },
        {
          "internalType": "uint256",
          "name": "_amountXCO2",
          "type": "uint256"
        },
        {
          "internalType": "address",
          "name": "_beneficiary",
          "type": "address"
        }
      ],
      "name": "offsetX",
      "outputs": [],
      "stateMutability": "payable",
      "type": "function"
    },
    {
      "inputs": [],
      "name": "owner",
      "outputs": [
        {
          "internalType": "address",
          "name": "",
          "type": "address"
        }
      ],
      "stateMutability": "view",
      "type": "function"
    },
    {
      "inputs": [],
      "name": "renounceOwnership",
      "outputs": [],
      "stateMutability": "nonpayable",
      "type": "function"
    },
    {
      "inputs": [
        {
          "internalType": "address",
          "name": "_terminal",
          "type": "address"
        }
      ],
      "name": "setOffsetTerminal",
      "outputs": [],
      "stateMutability": "nonpayable",
      "type": "function"
    },
    {
      "inputs": [],
      "name": "symbol",
      "outputs": [
        {
          "internalType": "string",
          "name": "",
          "type": "string"
        }
      ],
      "stateMutability": "view",
      "type": "function"
    },
    {
      "inputs": [
        {
          "internalType": "uint256",
          "name": "amount",
          "type": "uint256"
        }
      ],
      "name": "toUSD",
      "outputs": [
        {
          "internalType": "uint256",
          "name": "",
          "type": "uint256"
        }
      ],
      "stateMutability": "pure",
      "type": "function"
    },
    {
      "inputs": [],
      "name": "totalSupply",
      "outputs": [
        {
          "internalType": "uint256",
          "name": "",
          "type": "uint256"
        }
      ],
      "stateMutability": "view",
      "type": "function"
    },
    {
      "inputs": [
        {
          "internalType": "address",
          "name": "to",
          "type": "address"
        },
        {
          "internalType": "uint256",
          "name": "amount",
          "type": "uint256"
        }
      ],
      "name": "transfer",
      "outputs": [
        {
          "internalType": "bool",
          "name": "",
          "type": "bool"
        }
      ],
      "stateMutability": "nonpayable",
      "type": "function"
    },
    {
      "inputs": [
        {
          "internalType": "address",
          "name": "from",
          "type": "address"
        },
        {
          "internalType": "address",
          "name": "to",
          "type": "address"
        },
        {
          "internalType": "uint256",
          "name": "amount",
          "type": "uint256"
        }
      ],
      "name": "transferFrom",
      "outputs": [
        {
          "internalType": "bool",
          "name": "",
          "type": "bool"
        }
      ],
      "stateMutability": "nonpayable",
      "type": "function"
    },
    {
      "inputs": [
        {
          "internalType": "address",
          "name": "newOwner",
          "type": "address"
        }
      ],
      "name": "transferOwnership",
      "outputs": [],
      "stateMutability": "nonpayable",
      "type": "function"
    },
    {
      "inputs": [],
      "name": "withdrawFunds",
      "outputs": [],
      "stateMutability": "nonpayable",
      "type": "function"
    }
  ],
  "bytecode": {
    "object": "0x608060405234801561001057600080fd5b50611630806100206000396000f3fe60806040526004361061014b5760003560e01c8063715018a6116100b6578063a457c2d71161006f578063a457c2d714610391578063a9059cbb146103b1578063b2601207146103d1578063dd62ed3e146103f1578063e08eeb9714610411578063f2fde38b1461042457600080fd5b8063715018a61461030b578063808d27ce146103205780638da5cb5b1461034057806394a74a371461035e57806395d89b411461037c5780639d9969ed1461035e57600080fd5b8063313ce56711610108578063313ce56714610221578063362925c21461023d57806336aeab681461025d57806338d52e0f1461027d57806339509351146102b557806370a08231146102d557600080fd5b806306fdde0314610150578063095ea7b31461017b57806318160ddd146101ab5780632016a0d2146101ca57806323b872dd146101ec57806324600fc31461020c575b600080fd5b34801561015c57600080fd5b50610165610444565b60405161017291906111a6565b60405180910390f35b34801561018757600080fd5b5061019b6101963660046111dc565b6104d6565b6040519015158152602001610172565b3480156101b757600080fd5b506035545b604051908152602001610172565b3480156101d657600080fd5b506101ea6101e53660046112a9565b6104ee565b005b3480156101f857600080fd5b5061019b61020736600461132e565b610600565b34801561021857600080fd5b506101ea610624565b34801561022d57600080fd5b5060405160128152602001610172565b34801561024957600080fd5b506101ea61025836600461136a565b610714565b34801561026957600080fd5b506101ea610278366004611400565b610839565b34801561028957600080fd5b5060995461029d906001600160a01b031681565b6040516001600160a01b039091168152602001610172565b3480156102c157600080fd5b5061019b6102d03660046111dc565b610a06565b3480156102e157600080fd5b506101bc6102f036600461143c565b6001600160a01b031660009081526033602052604090205490565b34801561031757600080fd5b506101ea610a28565b34801561032c57600080fd5b50609a5461029d906001600160a01b031681565b34801561034c57600080fd5b506065546001600160a01b031661029d565b34801561036a57600080fd5b506101bc610379366004611457565b90565b34801561038857600080fd5b50610165610a3c565b34801561039d57600080fd5b5061019b6103ac3660046111dc565b610a4b565b3480156103bd57600080fd5b5061019b6103cc3660046111dc565b610ac6565b3480156103dd57600080fd5b506101ea6103ec36600461143c565b610ad4565b3480156103fd57600080fd5b506101bc61040c366004611470565b610afe565b6101ea61041f366004611400565b505050565b34801561043057600080fd5b506101ea61043f36600461143c565b610b29565b606060368054610453906114a3565b80601f016020809104026020016040519081016040528092919081815260200182805461047f906114a3565b80156104cc5780601f106104a1576101008083540402835291602001916104cc565b820191906000526020600020905b8154815290600101906020018083116104af57829003601f168201915b5050505050905090565b6000336104e4818585610b9f565b5060019392505050565b600054610100900460ff161580801561050e5750600054600160ff909116105b806105285750303b158015610528575060005460ff166001145b61054d5760405162461bcd60e51b8152600401610544906114de565b60405180910390fd5b6000805460ff191660011790558015610570576000805461ff0019166101001790555b61057933610b29565b609780546001600160a01b038088166001600160a01b03199283161790925560988054928716929091169190911790556105b38383610cc3565b80156105f9576000805461ff0019169055604051600181527f7f26b83ff96e1f2b6a682f133852f6798a09c465da95921460cefb38474024989060200160405180910390a15b5050505050565b60003361060e858285610cf8565b610619858585610d72565b506001949350505050565b61062c610f1d565b6099546040516370a0823160e01b81523060048201526001600160a01b039091169063a9059cbb90339083906370a0823190602401602060405180830381865afa15801561067e573d6000803e3d6000fd5b505050506040513d601f19601f820116820180604052508101906106a2919061152c565b6040516001600160e01b031960e085901b1681526001600160a01b03909216600483015260248201526044016020604051808303816000875af11580156106ed573d6000803e3d6000fd5b505050506040513d601f19601f820116820180604052508101906107119190611545565b50565b600054610100900460ff16158080156107345750600054600160ff909116105b8061074e5750303b15801561074e575060005460ff166001145b61076a5760405162461bcd60e51b8152600401610544906114de565b6000805460ff19166001179055801561078d576000805461ff0019166101001790555b61079633610f77565b609780546001600160a01b038089166001600160a01b03199283161790925560988054928816929091169190911790556107d08484610cc3565b609980546001600160a01b0319166001600160a01b0384161790558015610831576000805461ff0019169055604051600181527f7f26b83ff96e1f2b6a682f133852f6798a09c465da95921460cefb38474024989060200160405180910390a15b505050505050565b61086260405180604001604052806007815260200166030b6b7bab73a160cd1b81525083610fc9565b604080518082018252600781526662616c616e636560c81b602082015260995491516370a0823160e01b81523360048201526108f1926001600160a01b0316906370a0823190602401602060405180830381865afa1580156108c8573d6000803e3d6000fd5b505050506040513d601f19601f820116820180604052508101906108ec919061152c565b610fc9565b609954609a546040516323b872dd60e01b81523360048201526001600160a01b039182166024820152604481018590529116906323b872dd906064016020604051808303816000875af115801561094c573d6000803e3d6000fd5b505050506040513d601f19601f820116820180604052508101906109709190611545565b50610993604051806040016040528060018152602001600360fc1b81525061100e565b609a546040516380b8553f60e01b81526001600160a01b038581166004830152602482018590528381166044830152909116906380b8553f90606401600060405180830381600087803b1580156109e957600080fd5b505af11580156109fd573d6000803e3d6000fd5b50505050505050565b6000336104e4818585610a198383610afe565b610a239190611567565b610b9f565b610a30610f1d565b610a3a6000610f77565b565b606060378054610453906114a3565b60003381610a598286610afe565b905083811015610ab95760405162461bcd60e51b815260206004820152602560248201527f45524332303a2064656372656173656420616c6c6f77616e63652062656c6f77604482015264207a65726f60d81b6064820152608401610544565b6106198286868403610b9f565b6000336104e4818585610d72565b610adc610f1d565b609a80546001600160a01b0319166001600160a01b0392909216919091179055565b6001600160a01b03918216600090815260346020908152604080832093909416825291909152205490565b610b31610f1d565b6001600160a01b038116610b965760405162461bcd60e51b815260206004820152602660248201527f4f776e61626c653a206e6577206f776e657220697320746865207a65726f206160448201526564647265737360d01b6064820152608401610544565b61071181610f77565b6001600160a01b038316610c015760405162461bcd60e51b8152602060048201526024808201527f45524332303a20617070726f76652066726f6d20746865207a65726f206164646044820152637265737360e01b6064820152608401610544565b6001600160a01b038216610c625760405162461bcd60e51b815260206004820152602260248201527f45524332303a20617070726f766520746f20746865207a65726f206164647265604482015261737360f01b6064820152608401610544565b6001600160a01b0383811660008181526034602090815260408083209487168084529482529182902085905590518481527f8c5be1e5ebec7d5bd14f71427d1e84f3dd0314c0f7b2291e5b200ac8c7c3b925910160405180910390a3505050565b600054610100900460ff16610cea5760405162461bcd60e51b81526004016105449061158d565b610cf48282611051565b5050565b6000610d048484610afe565b90506000198114610d6c5781811015610d5f5760405162461bcd60e51b815260206004820152601d60248201527f45524332303a20696e73756666696369656e7420616c6c6f77616e63650000006044820152606401610544565b610d6c8484848403610b9f565b50505050565b6001600160a01b038316610dd65760405162461bcd60e51b815260206004820152602560248201527f45524332303a207472616e736665722066726f6d20746865207a65726f206164604482015264647265737360d81b6064820152608401610544565b6001600160a01b038216610e385760405162461bcd60e51b815260206004820152602360248201527f45524332303a207472616e7366657220746f20746865207a65726f206164647260448201526265737360e81b6064820152608401610544565b6001600160a01b03831660009081526033602052604090205481811015610eb05760405162461bcd60e51b815260206004820152602660248201527f45524332303a207472616e7366657220616d6f756e7420657863656564732062604482015265616c616e636560d01b6064820152608401610544565b6001600160a01b0380851660008181526033602052604080822086860390559286168082529083902080548601905591517fddf252ad1be2c89b69c2b068fc378daa952ba7f163c4a11628f55a4df523b3ef90610f109086815260200190565b60405180910390a3610d6c565b6065546001600160a01b03163314610a3a5760405162461bcd60e51b815260206004820181905260248201527f4f776e61626c653a2063616c6c6572206973206e6f7420746865206f776e65726044820152606401610544565b606580546001600160a01b038381166001600160a01b0319831681179093556040519116919082907f8be0079c531659141344cd1fd0a4f28419497f9722a3daafe3b4186f6b6457e090600090a35050565b610cf48282604051602401610fdf9291906115d8565b60408051601f198184030181529190526020810180516001600160e01b03166309710a9d60e41b17905261109f565b6107118160405160240161102291906111a6565b60408051601f198184030181529190526020810180516001600160e01b031663104c13eb60e21b17905261109f565b600054610100900460ff166110785760405162461bcd60e51b81526004016105449061158d565b815161108b9060369060208501906110c0565b50805161041f9060379060208401906110c0565b80516a636f6e736f6c652e6c6f67602083016000808483855afa5050505050565b8280546110cc906114a3565b90600052602060002090601f0160209004810192826110ee5760008555611134565b82601f1061110757805160ff1916838001178555611134565b82800160010185558215611134579182015b82811115611134578251825591602001919060010190611119565b50611140929150611144565b5090565b5b808211156111405760008155600101611145565b6000815180845260005b8181101561117f57602081850181015186830182015201611163565b81811115611191576000602083870101525b50601f01601f19169290920160200192915050565b6020815260006111b96020830184611159565b9392505050565b80356001600160a01b03811681146111d757600080fd5b919050565b600080604083850312156111ef57600080fd5b6111f8836111c0565b946020939093013593505050565b634e487b7160e01b600052604160045260246000fd5b600082601f83011261122d57600080fd5b813567ffffffffffffffff8082111561124857611248611206565b604051601f8301601f19908116603f0116810190828211818310171561127057611270611206565b8160405283815286602085880101111561128957600080fd5b836020870160208301376000602085830101528094505050505092915050565b600080600080608085870312156112bf57600080fd5b6112c8856111c0565b93506112d6602086016111c0565b9250604085013567ffffffffffffffff808211156112f357600080fd5b6112ff8883890161121c565b9350606087013591508082111561131557600080fd5b506113228782880161121c565b91505092959194509250565b60008060006060848603121561134357600080fd5b61134c846111c0565b925061135a602085016111c0565b9150604084013590509250925092565b600080600080600060a0868803121561138257600080fd5b61138b866111c0565b9450611399602087016111c0565b9350604086013567ffffffffffffffff808211156113b657600080fd5b6113c289838a0161121c565b945060608801359150808211156113d857600080fd5b506113e58882890161121c565b9250506113f4608087016111c0565b90509295509295909350565b60008060006060848603121561141557600080fd5b61141e846111c0565b925060208401359150611433604085016111c0565b90509250925092565b60006020828403121561144e57600080fd5b6111b9826111c0565b60006020828403121561146957600080fd5b5035919050565b6000806040838503121561148357600080fd5b61148c836111c0565b915061149a602084016111c0565b90509250929050565b600181811c908216806114b757607f821691505b602082108114156114d857634e487b7160e01b600052602260045260246000fd5b50919050565b6020808252602e908201527f496e697469616c697a61626c653a20636f6e747261637420697320616c72656160408201526d191e481a5b9a5d1a585b1a5e995960921b606082015260800190565b60006020828403121561153e57600080fd5b5051919050565b60006020828403121561155757600080fd5b815180151581146111b957600080fd5b6000821982111561158857634e487b7160e01b600052601160045260246000fd5b500190565b6020808252602b908201527f496e697469616c697a61626c653a20636f6e7472616374206973206e6f74206960408201526a6e697469616c697a696e6760a81b606082015260800190565b6040815260006115eb6040830185611159565b9050826020830152939250505056fea26469706673582212201a5298738e980df6cf9797f6d143044a973334ed3e5efc82d3160bd827cdd1a164736f6c634300080b0033",
    "linkReferences": {}
  },
  "methodIdentifiers": {
    "allowance(address,address)": "dd62ed3e",
    "approve(address,uint256)": "095ea7b3",
    "asset()": "38d52e0f",
    "balanceOf(address)": "70a08231",
    "decimals()": "313ce567",
    "decreaseAllowance(address,uint256)": "a457c2d7",
    "fromUSD(uint256)": "94a74a37",
    "increaseAllowance(address,uint256)": "39509351",
    "initialize(address,address,string,string)": "2016a0d2",
    "initialize(address,address,string,string,address)": "362925c2",
    "name()": "06fdde03",
    "offset(address,uint256,address)": "36aeab68",
    "offsetTerminal()": "808d27ce",
    "offsetX(address,uint256,address)": "e08eeb97",
    "owner()": "8da5cb5b",
    "renounceOwnership()": "715018a6",
    "setOffsetTerminal(address)": "b2601207",
    "symbol()": "95d89b41",
    "toUSD(uint256)": "9d9969ed",
    "totalSupply()": "18160ddd",
    "transfer(address,uint256)": "a9059cbb",
    "transferFrom(address,address,uint256)": "23b872dd",
    "transferOwnership(address)": "f2fde38b",
    "withdrawFunds()": "24600fc3"
  },
  "id": 67
}