{
  "abi": [
    {
      "inputs": [
        {
          "internalType": "bytes32",
          "name": "_sender",
          "type": "bytes32"
        },
        {
          "internalType": "bytes32",
          "name": "_recipient",
          "type": "bytes32"
        },
        {
          "internalType": "bytes",
          "name": "_messageBody",
          "type": "bytes"
        }
      ],
      "name": "addPendingMessage",
      "outputs": [],
      "stateMutability": "nonpayable",
      "type": "function"
    },
    {
      "inputs": [],
      "name": "processNextPendingMessage",
      "outputs": [],
      "stateMutability": "nonpayable",
      "type": "function"
    }
  ],
  "bytecode": {
    "object": "0x60806040526000600155600060025534801561001a57600080fd5b506105a78061002a6000396000f3fe608060405234801561001057600080fd5b50600436106100365760003560e01c8063f366fac31461003b578063f9f312ad14610050575b600080fd5b61004e610049366004610396565b610058565b005b61004e610125565b61007960405180606001604052806021815260200161055160219139610280565b6040805160608101825284815260208082018581528284018581526001805460009081528085529590952084518155915194820194909455925180519293926100c892600285019201906102e7565b5090505060018060008282546100de919061045a565b909155505060408051808201909152601e81527f696e626f78202d2061646465642070656e64696e67206d657373616765210000602082015261012090610280565b505050565b60008060006002548152602001908152602001600020604051806060016040529081600082015481526020016001820154815260200160028201805461016a90610480565b80601f016020809104026020016040519081016040528092919081815260200182805461019690610480565b80156101e35780601f106101b8576101008083540402835291602001916101e3565b820191906000526020600020905b8154815290600101906020018083116101c657829003601f168201915b505050505081525050905060006101fb826020015190565b825160408085015190516356d5d47560e01b81529293506001600160a01b038416926356d5d4759261023292600192600401610508565b600060405180830381600087803b15801561024c57600080fd5b505af1158015610260573d6000803e3d6000fd5b50505050600160026000828254610277919061045a565b90915550505050565b6102c3816040516024016102949190610536565b60408051601f198184030181529190526020810180516001600160e01b031663104c13eb60e21b1790526102c6565b50565b80516a636f6e736f6c652e6c6f67602083016000808483855afa5050505050565b8280546102f390610480565b90600052602060002090601f016020900481019282610315576000855561035b565b82601f1061032e57805160ff191683800117855561035b565b8280016001018555821561035b579182015b8281111561035b578251825591602001919060010190610340565b5061036792915061036b565b5090565b5b80821115610367576000815560010161036c565b634e487b7160e01b600052604160045260246000fd5b6000806000606084860312156103ab57600080fd5b8335925060208401359150604084013567ffffffffffffffff808211156103d157600080fd5b818601915086601f8301126103e557600080fd5b8135818111156103f7576103f7610380565b604051601f8201601f19908116603f0116810190838211818310171561041f5761041f610380565b8160405282815289602084870101111561043857600080fd5b8260208601602083013760006020848301015280955050505050509250925092565b6000821982111561047b57634e487b7160e01b600052601160045260246000fd5b500190565b600181811c9082168061049457607f821691505b602082108114156104b557634e487b7160e01b600052602260045260246000fd5b50919050565b6000815180845260005b818110156104e1576020818501810151868301820152016104c5565b818111156104f3576000602083870101525b50601f01601f19169290920160200192915050565b63ffffffff8416815282602082015260606040820152600061052d60608301846104bb565b95945050505050565b60208152600061054960208301846104bb565b939250505056fe696e626f78202d20616464696e672070656e64696e67206d6573736167652e2e2ea26469706673582212200d904a0f0b60064679fdccaaf6170d53684484a99ddf2fd6c55322e79bbb073164736f6c634300080b0033",
    "linkReferences": {}
  },
  "methodIdentifiers": {
    "addPendingMessage(bytes32,bytes32,bytes)": "f366fac3",
    "processNextPendingMessage()": "f9f312ad"
  },
  "id": 51
}