{
  "abi": [
    {
      "anonymous": false,
      "inputs": [
        {
          "indexed": false,
          "internalType": "uint8",
          "name": "version",
          "type": "uint8"
        }
      ],
      "name": "Initialized",
      "type": "event"
    },
    {
      "anonymous": false,
      "inputs": [
        {
          "indexed": true,
          "internalType": "address",
          "name": "previousOwner",
          "type": "address"
        },
        {
          "indexed": true,
          "internalType": "address",
          "name": "newOwner",
          "type": "address"
        }
      ],
      "name": "OwnershipTransferred",
      "type": "event"
    },
    {
      "inputs": [
        {
          "internalType": "address",
          "name": "_tco2",
          "type": "address"
        },
        {
          "internalType": "uint256",
          "name": "_amountToOffset",
          "type": "uint256"
        }
      ],
      "name": "getExpectedNCT",
      "outputs": [
        {
          "internalType": "uint256",
          "name": "",
          "type": "uint256"
        }
      ],
      "stateMutability": "view",
      "type": "function"
    },
    {
      "inputs": [
        {
          "internalType": "address",
          "name": "_tco2",
          "type": "address"
        },
        {
          "internalType": "uint256",
          "name": "_amountToOffset",
          "type": "uint256"
        }
      ],
      "name": "getUSDCNeeded",
      "outputs": [
        {
          "internalType": "uint256",
          "name": "",
          "type": "uint256"
        }
      ],
      "stateMutability": "view",
      "type": "function"
    },
    {
      "inputs": [
        {
          "internalType": "address",
          "name": "_xUSDC",
          "type": "address"
        }
      ],
      "name": "initialize",
      "outputs": [],
      "stateMutability": "nonpayable",
      "type": "function"
    },
    {
      "inputs": [],
      "name": "owner",
      "outputs": [
        {
          "internalType": "address",
          "name": "",
          "type": "address"
        }
      ],
      "stateMutability": "view",
      "type": "function"
    },
    {
      "inputs": [],
      "name": "renounceOwnership",
      "outputs": [],
      "stateMutability": "nonpayable",
      "type": "function"
    },
    {
      "inputs": [
        {
          "internalType": "address",
          "name": "_tco2",
          "type": "address"
        },
        {
          "internalType": "uint256",
          "name": "_amountUSDC",
          "type": "uint256"
        },
        {
          "internalType": "address",
          "name": "_beneficiary",
          "type": "address"
        }
      ],
      "name": "retire",
      "outputs": [],
      "stateMutability": "nonpayable",
      "type": "function"
    },
    {
      "inputs": [
        {
          "internalType": "uint256",
          "name": "_amountUSDC",
          "type": "uint256"
        }
      ],
      "name": "swap",
      "outputs": [
        {
          "internalType": "uint256",
          "name": "",
          "type": "uint256"
        }
      ],
      "stateMutability": "nonpayable",
      "type": "function"
    },
    {
      "inputs": [
        {
          "internalType": "address",
          "name": "newOwner",
          "type": "address"
        }
      ],
      "name": "transferOwnership",
      "outputs": [],
      "stateMutability": "nonpayable",
      "type": "function"
    },
    {
      "inputs": [],
      "name": "xUSDC",
      "outputs": [
        {
          "internalType": "address",
          "name": "",
          "type": "address"
        }
      ],
      "stateMutability": "view",
      "type": "function"
    }
  ],
  "bytecode": {
    "object": "0x608060405234801561001057600080fd5b50610d7f806100206000396000f3fe608060405234801561001057600080fd5b50600436106100935760003560e01c80638da5cb5b116100665780638da5cb5b146100db57806394b918de14610100578063c4d66de814610113578063e405702714610126578063f2fde38b1461013957600080fd5b8063343a9a7614610098578063715018a6146100be57806380b8553f146100c857806380cd493a14610098575b600080fd5b6100ab6100a6366004610a65565b61014c565b6040519081526020015b60405180910390f35b6100c6610349565b005b6100c66100d6366004610a8f565b61035d565b6033546001600160a01b03165b6040516001600160a01b0390911681526020016100b5565b6100ab61010e366004610acb565b610550565b6100c6610121366004610ae4565b610764565b6065546100e8906001600160a01b031681565b6100c6610147366004610ae4565b610897565b60408051600180825281830190925260009182919060208083019080368337019050509050838160008151811061018557610185610b1c565b6001600160a01b03929092166020928302919091019091015260408051600180825281830190925260009181602001602082028036833701905050905083816000815181106101d6576101d6610b1c565b60209081029190910101526040516320eddd9560e11b815260009073d838290e877e0188a4a44700463419ed96c16107906341dbbb2a9061021d9086908690600401610b76565b602060405180830381865afa15801561023a573d6000803e3d6000fd5b505050506040513d601f19601f8201168201806040525081019061025e9190610bcd565b9050600061029473d838290e877e0188a4a44700463419ed96c16107732791bca1f2de4661ed88a30c99a7a9449aa84174610910565b90506000731b02da8cb0d097eb8d57a175b88c7d8b47997506631f00ca746102bc8986610be6565b846040518363ffffffff1660e01b81526004016102da929190610c0c565b600060405180830381865afa1580156102f7573d6000803e3d6000fd5b505050506040513d6000823e601f3d908101601f1916820160405261031f9190810190610c2d565b90508060008151811061033457610334610b1c565b60200260200101519550505050505092915050565b61035161099d565b61035b60006109f7565b565b6065546001600160a01b0316331461037457600080fd5b600061037f83610550565b604080516001808252818301909252919250600091906020808301908036833701905050905084816000815181106103b9576103b9610b1c565b6001600160a01b039290921660209283029190910190910152604080516001808252818301909252600091816020016020820280368337019050509050828160008151811061040a5761040a610b1c565b60209081029190910101526040516315aaa0a160e11b815273d838290e877e0188a4a44700463419ed96c1610790632b5541429061044e9085908590600401610b76565b600060405180830381600087803b15801561046857600080fd5b505af115801561047c573d6000803e3d6000fd5b50506040516302ef292960e41b815260a06004820152600060a48201526001600160a01b03878116602483015260c06044830152600960c4830152682237bab39028b4b0b760b91b60e48301526101006064830152601a6101048301527f4865616c696e672074686520776f726c642040204554482053460000000000006101248301526084820187905289169250632ef29290915061014401600060405180830381600087803b15801561053057600080fd5b505af1158015610544573d6000803e3d6000fd5b50505050505050505050565b6000731b02da8cb0d097eb8d57a175b88c7d8b479975068161059a732791bca1f2de4661ed88a30c99a7a9449aa8417473d838290e877e0188a4a44700463419ed96c16107610910565b90506000826001600160a01b031663d06ca61f86846040518363ffffffff1660e01b81526004016105cc929190610c0c565b600060405180830381865afa1580156105e9573d6000803e3d6000fd5b505050506040513d6000823e601f3d908101601f191682016040526106119190810190610c2d565b60405163095ea7b360e01b8152731b02da8cb0d097eb8d57a175b88c7d8b47997506600482015260248101879052909150732791bca1f2de4661ed88a30c99a7a9449aa841749063095ea7b3906044016020604051808303816000875af1158015610680573d6000803e3d6000fd5b505050506040513d601f19601f820116820180604052508101906106a49190610ceb565b506000836001600160a01b03166338ed173987846000815181106106ca576106ca610b1c565b60200260200101518630426040518663ffffffff1660e01b81526004016106f5959493929190610d0d565b6000604051808303816000875af1158015610714573d6000803e3d6000fd5b505050506040513d6000823e601f3d908101601f1916820160405261073c9190810190610c2d565b90508060008151811061075157610751610b1c565b6020026020010151945050505050919050565b600054610100900460ff16158080156107845750600054600160ff909116105b8061079e5750303b15801561079e575060005460ff166001145b6108065760405162461bcd60e51b815260206004820152602e60248201527f496e697469616c697a61626c653a20636f6e747261637420697320616c72656160448201526d191e481a5b9a5d1a585b1a5e995960921b60648201526084015b60405180910390fd5b6000805460ff191660011790558015610829576000805461ff0019166101001790555b606580546001600160a01b0319166001600160a01b03841617905561084d336109f7565b8015610893576000805461ff0019169055604051600181527f7f26b83ff96e1f2b6a682f133852f6798a09c465da95921460cefb38474024989060200160405180910390a15b5050565b61089f61099d565b6001600160a01b0381166109045760405162461bcd60e51b815260206004820152602660248201527f4f776e61626c653a206e6577206f776e657220697320746865207a65726f206160448201526564647265737360d01b60648201526084016107fd565b61090d816109f7565b50565b60408051600280825260608083018452926000929190602083019080368337019050509050838160008151811061094957610949610b1c565b60200260200101906001600160a01b031690816001600160a01b031681525050828160018151811061097d5761097d610b1c565b6001600160a01b0390921660209283029190910190910152905092915050565b6033546001600160a01b0316331461035b5760405162461bcd60e51b815260206004820181905260248201527f4f776e61626c653a2063616c6c6572206973206e6f7420746865206f776e657260448201526064016107fd565b603380546001600160a01b038381166001600160a01b0319831681179093556040519116919082907f8be0079c531659141344cd1fd0a4f28419497f9722a3daafe3b4186f6b6457e090600090a35050565b80356001600160a01b0381168114610a6057600080fd5b919050565b60008060408385031215610a7857600080fd5b610a8183610a49565b946020939093013593505050565b600080600060608486031215610aa457600080fd5b610aad84610a49565b925060208401359150610ac260408501610a49565b90509250925092565b600060208284031215610add57600080fd5b5035919050565b600060208284031215610af657600080fd5b610aff82610a49565b9392505050565b634e487b7160e01b600052604160045260246000fd5b634e487b7160e01b600052603260045260246000fd5b600081518084526020808501945080840160005b83811015610b6b5781516001600160a01b031687529582019590820190600101610b46565b509495945050505050565b604081526000610b896040830185610b32565b82810360208481019190915284518083528582019282019060005b81811015610bc057845183529383019391830191600101610ba4565b5090979650505050505050565b600060208284031215610bdf57600080fd5b5051919050565b60008219821115610c0757634e487b7160e01b600052601160045260246000fd5b500190565b828152604060208201526000610c256040830184610b32565b949350505050565b60006020808385031215610c4057600080fd5b825167ffffffffffffffff80821115610c5857600080fd5b818501915085601f830112610c6c57600080fd5b815181811115610c7e57610c7e610b06565b8060051b604051601f19603f83011681018181108582111715610ca357610ca3610b06565b604052918252848201925083810185019188831115610cc157600080fd5b938501935b82851015610cdf57845184529385019392850192610cc6565b98975050505050505050565b600060208284031215610cfd57600080fd5b81518015158114610aff57600080fd5b85815284602082015260a060408201526000610d2c60a0830186610b32565b6001600160a01b039490941660608301525060800152939250505056fea2646970667358221220075170f5e2fe58388277596621485628aad6e6caa171ac4b8c167bb51c915ff864736f6c634300080b0033",
    "linkReferences": {}
  },
  "methodIdentifiers": {
    "getExpectedNCT(address,uint256)": "343a9a76",
    "getUSDCNeeded(address,uint256)": "80cd493a",
    "initialize(address)": "c4d66de8",
    "owner()": "8da5cb5b",
    "renounceOwnership()": "715018a6",
    "retire(address,uint256,address)": "80b8553f",
    "swap(uint256)": "94b918de",
    "transferOwnership(address)": "f2fde38b",
    "xUSDC()": "e4057027"
  },
  "id": 48
}