{
  "abi": [
    {
      "inputs": [],
      "stateMutability": "nonpayable",
      "type": "constructor"
    },
    {
      "anonymous": false,
      "inputs": [
        {
          "indexed": false,
          "internalType": "address",
          "name": "previousAdmin",
          "type": "address"
        },
        {
          "indexed": false,
          "internalType": "address",
          "name": "newAdmin",
          "type": "address"
        }
      ],
      "name": "AdminChanged",
      "type": "event"
    },
    {
      "anonymous": false,
      "inputs": [
        {
          "indexed": true,
          "internalType": "address",
          "name": "owner",
          "type": "address"
        },
        {
          "indexed": true,
          "internalType": "address",
          "name": "approved",
          "type": "address"
        },
        {
          "indexed": true,
          "internalType": "uint256",
          "name": "tokenId",
          "type": "uint256"
        }
      ],
      "name": "Approval",
      "type": "event"
    },
    {
      "anonymous": false,
      "inputs": [
        {
          "indexed": true,
          "internalType": "address",
          "name": "owner",
          "type": "address"
        },
        {
          "indexed": true,
          "internalType": "address",
          "name": "operator",
          "type": "address"
        },
        {
          "indexed": false,
          "internalType": "bool",
          "name": "approved",
          "type": "bool"
        }
      ],
      "name": "ApprovalForAll",
      "type": "event"
    },
    {
      "anonymous": false,
      "inputs": [
        {
          "indexed": false,
          "internalType": "string",
          "name": "baseURI",
          "type": "string"
        }
      ],
      "name": "BaseURISet",
      "type": "event"
    },
    {
      "anonymous": false,
      "inputs": [
        {
          "indexed": true,
          "internalType": "address",
          "name": "beacon",
          "type": "address"
        }
      ],
      "name": "BeaconUpgraded",
      "type": "event"
    },
    {
      "anonymous": false,
      "inputs": [
        {
          "indexed": false,
          "internalType": "uint256",
          "name": "tokenId",
          "type": "uint256"
        }
      ],
      "name": "CertificateMinted",
      "type": "event"
    },
    {
      "anonymous": false,
      "inputs": [
        {
          "indexed": false,
          "internalType": "uint256",
          "name": "tokenId",
          "type": "uint256"
        }
      ],
      "name": "CertificateUpdated",
      "type": "event"
    },
    {
      "anonymous": false,
      "inputs": [
        {
          "indexed": false,
          "internalType": "uint256",
          "name": "tokenId",
          "type": "uint256"
        },
        {
          "indexed": false,
          "internalType": "uint256[]",
          "name": "eventIds",
          "type": "uint256[]"
        }
      ],
      "name": "EventsAttached",
      "type": "event"
    },
    {
      "anonymous": false,
      "inputs": [
        {
          "indexed": false,
          "internalType": "uint8",
          "name": "version",
          "type": "uint8"
        }
      ],
      "name": "Initialized",
      "type": "event"
    },
    {
      "anonymous": false,
      "inputs": [
        {
          "indexed": false,
          "internalType": "uint256",
          "name": "previousAmount",
          "type": "uint256"
        },
        {
          "indexed": false,
          "internalType": "uint256",
          "name": "newAmount",
          "type": "uint256"
        }
      ],
      "name": "MinValidAmountSet",
      "type": "event"
    },
    {
      "anonymous": false,
      "inputs": [
        {
          "indexed": true,
          "internalType": "address",
          "name": "previousOwner",
          "type": "address"
        },
        {
          "indexed": true,
          "internalType": "address",
          "name": "newOwner",
          "type": "address"
        }
      ],
      "name": "OwnershipTransferred",
      "type": "event"
    },
    {
      "anonymous": false,
      "inputs": [
        {
          "indexed": false,
          "internalType": "address",
          "name": "ContractRegistry",
          "type": "address"
        }
      ],
      "name": "ToucanRegistrySet",
      "type": "event"
    },
    {
      "anonymous": false,
      "inputs": [
        {
          "indexed": true,
          "internalType": "address",
          "name": "from",
          "type": "address"
        },
        {
          "indexed": true,
          "internalType": "address",
          "name": "to",
          "type": "address"
        },
        {
          "indexed": true,
          "internalType": "uint256",
          "name": "tokenId",
          "type": "uint256"
        }
      ],
      "name": "Transfer",
      "type": "event"
    },
    {
      "anonymous": false,
      "inputs": [
        {
          "indexed": true,
          "internalType": "address",
          "name": "implementation",
          "type": "address"
        }
      ],
      "name": "Upgraded",
      "type": "event"
    },
    {
      "inputs": [
        {
          "internalType": "address",
          "name": "to",
          "type": "address"
        },
        {
          "internalType": "uint256",
          "name": "tokenId",
          "type": "uint256"
        }
      ],
      "name": "approve",
      "outputs": [],
      "stateMutability": "nonpayable",
      "type": "function"
    },
    {
      "inputs": [
        {
          "internalType": "uint256",
          "name": "tokenId",
          "type": "uint256"
        },
        {
          "internalType": "uint256[]",
          "name": "retirementEventIds",
          "type": "uint256[]"
        }
      ],
      "name": "attachRetirementEvents",
      "outputs": [],
      "stateMutability": "nonpayable",
      "type": "function"
    },
    {
      "inputs": [
        {
          "internalType": "address",
          "name": "owner",
          "type": "address"
        }
      ],
      "name": "balanceOf",
      "outputs": [
        {
          "internalType": "uint256",
          "name": "",
          "type": "uint256"
        }
      ],
      "stateMutability": "view",
      "type": "function"
    },
    {
      "inputs": [],
      "name": "baseURI",
      "outputs": [
        {
          "internalType": "string",
          "name": "",
          "type": "string"
        }
      ],
      "stateMutability": "view",
      "type": "function"
    },
    {
      "inputs": [
        {
          "internalType": "uint256",
          "name": "",
          "type": "uint256"
        }
      ],
      "name": "certificates",
      "outputs": [
        {
          "internalType": "uint256",
          "name": "createdAt",
          "type": "uint256"
        },
        {
          "internalType": "address",
          "name": "retiringEntity",
          "type": "address"
        },
        {
          "internalType": "address",
          "name": "beneficiary",
          "type": "address"
        },
        {
          "internalType": "string",
          "name": "retiringEntityString",
          "type": "string"
        },
        {
          "internalType": "string",
          "name": "beneficiaryString",
          "type": "string"
        },
        {
          "internalType": "string",
          "name": "retirementMessage",
          "type": "string"
        }
      ],
      "stateMutability": "view",
      "type": "function"
    },
    {
      "inputs": [
        {
          "internalType": "uint256",
          "name": "",
          "type": "uint256"
        }
      ],
      "name": "claimedEvents",
      "outputs": [
        {
          "internalType": "bool",
          "name": "",
          "type": "bool"
        }
      ],
      "stateMutability": "view",
      "type": "function"
    },
    {
      "inputs": [],
      "name": "contractRegistry",
      "outputs": [
        {
          "internalType": "address",
          "name": "",
          "type": "address"
        }
      ],
      "stateMutability": "view",
      "type": "function"
    },
    {
      "inputs": [
        {
          "internalType": "uint256",
          "name": "tokenId",
          "type": "uint256"
        }
      ],
      "name": "getApproved",
      "outputs": [
        {
          "internalType": "address",
          "name": "",
          "type": "address"
        }
      ],
      "stateMutability": "view",
      "type": "function"
    },
    {
      "inputs": [
        {
          "internalType": "uint256",
          "name": "tokenId",
          "type": "uint256"
        }
      ],
      "name": "getData",
      "outputs": [
        {
          "components": [
            {
              "internalType": "uint256[]",
              "name": "retirementEventIds",
              "type": "uint256[]"
            },
            {
              "internalType": "uint256",
              "name": "createdAt",
              "type": "uint256"
            },
            {
              "internalType": "address",
              "name": "retiringEntity",
              "type": "address"
            },
            {
              "internalType": "address",
              "name": "beneficiary",
              "type": "address"
            },
            {
              "internalType": "string",
              "name": "retiringEntityString",
              "type": "string"
            },
            {
              "internalType": "string",
              "name": "beneficiaryString",
              "type": "string"
            },
            {
              "internalType": "string",
              "name": "retirementMessage",
              "type": "string"
            }
          ],
          "internalType": "struct RetirementCertificatesStorageV1.Data",
          "name": "",
          "type": "tuple"
        }
      ],
      "stateMutability": "view",
      "type": "function"
    },
    {
      "inputs": [
        {
          "internalType": "uint256",
          "name": "tokenId",
          "type": "uint256"
        }
      ],
      "name": "getRetiredAmount",
      "outputs": [
        {
          "internalType": "uint256",
          "name": "amount",
          "type": "uint256"
        }
      ],
      "stateMutability": "view",
      "type": "function"
    },
    {
      "inputs": [
        {
          "internalType": "uint256",
          "name": "tokenId",
          "type": "uint256"
        }
      ],
      "name": "getRetiredAmountInKilos",
      "outputs": [
        {
          "internalType": "uint256",
          "name": "",
          "type": "uint256"
        }
      ],
      "stateMutability": "view",
      "type": "function"
    },
    {
      "inputs": [
        {
          "internalType": "uint256",
          "name": "tokenId",
          "type": "uint256"
        }
      ],
      "name": "getRetiredAmountInTonnes",
      "outputs": [
        {
          "internalType": "uint256",
          "name": "",
          "type": "uint256"
        }
      ],
      "stateMutability": "view",
      "type": "function"
    },
    {
      "inputs": [
        {
          "internalType": "address",
          "name": "user",
          "type": "address"
        }
      ],
      "name": "getUserEvents",
      "outputs": [
        {
          "internalType": "uint256[]",
          "name": "",
          "type": "uint256[]"
        }
      ],
      "stateMutability": "view",
      "type": "function"
    },
    {
      "inputs": [
        {
          "internalType": "address",
          "name": "_contractRegistry",
          "type": "address"
        },
        {
          "internalType": "string",
          "name": "_baseURI",
          "type": "string"
        }
      ],
      "name": "initialize",
      "outputs": [],
      "stateMutability": "nonpayable",
      "type": "function"
    },
    {
      "inputs": [
        {
          "internalType": "address",
          "name": "owner",
          "type": "address"
        },
        {
          "internalType": "address",
          "name": "operator",
          "type": "address"
        }
      ],
      "name": "isApprovedForAll",
      "outputs": [
        {
          "internalType": "bool",
          "name": "",
          "type": "bool"
        }
      ],
      "stateMutability": "view",
      "type": "function"
    },
    {
      "inputs": [],
      "name": "kiloDenomination",
      "outputs": [
        {
          "internalType": "uint256",
          "name": "",
          "type": "uint256"
        }
      ],
      "stateMutability": "view",
      "type": "function"
    },
    {
      "inputs": [],
      "name": "minValidRetirementAmount",
      "outputs": [
        {
          "internalType": "uint256",
          "name": "",
          "type": "uint256"
        }
      ],
      "stateMutability": "view",
      "type": "function"
    },
    {
      "inputs": [
        {
          "internalType": "address",
          "name": "retiringEntity",
          "type": "address"
        },
        {
          "internalType": "string",
          "name": "retiringEntityString",
          "type": "string"
        },
        {
          "internalType": "address",
          "name": "beneficiary",
          "type": "address"
        },
        {
          "internalType": "string",
          "name": "beneficiaryString",
          "type": "string"
        },
        {
          "internalType": "string",
          "name": "retirementMessage",
          "type": "string"
        },
        {
          "internalType": "uint256[]",
          "name": "retirementEventIds",
          "type": "uint256[]"
        }
      ],
      "name": "mintCertificate",
      "outputs": [],
      "stateMutability": "nonpayable",
      "type": "function"
    },
    {
      "inputs": [],
      "name": "name",
      "outputs": [
        {
          "internalType": "string",
          "name": "",
          "type": "string"
        }
      ],
      "stateMutability": "view",
      "type": "function"
    },
    {
      "inputs": [],
      "name": "owner",
      "outputs": [
        {
          "internalType": "address",
          "name": "",
          "type": "address"
        }
      ],
      "stateMutability": "view",
      "type": "function"
    },
    {
      "inputs": [
        {
          "internalType": "uint256",
          "name": "tokenId",
          "type": "uint256"
        }
      ],
      "name": "ownerOf",
      "outputs": [
        {
          "internalType": "address",
          "name": "",
          "type": "address"
        }
      ],
      "stateMutability": "view",
      "type": "function"
    },
    {
      "inputs": [],
      "name": "proxiableUUID",
      "outputs": [
        {
          "internalType": "bytes32",
          "name": "",
          "type": "bytes32"
        }
      ],
      "stateMutability": "view",
      "type": "function"
    },
    {
      "inputs": [
        {
          "internalType": "address",
          "name": "retiringEntity",
          "type": "address"
        },
        {
          "internalType": "uint256",
          "name": "projectVintageTokenId",
          "type": "uint256"
        },
        {
          "internalType": "uint256",
          "name": "amount",
          "type": "uint256"
        },
        {
          "internalType": "bool",
          "name": "isLegacy",
          "type": "bool"
        }
      ],
      "name": "registerEvent",
      "outputs": [
        {
          "internalType": "uint256",
          "name": "",
          "type": "uint256"
        }
      ],
      "stateMutability": "nonpayable",
      "type": "function"
    },
    {
      "inputs": [],
      "name": "renounceOwnership",
      "outputs": [],
      "stateMutability": "nonpayable",
      "type": "function"
    },
    {
      "inputs": [],
      "name": "retireEventCounter",
      "outputs": [
        {
          "internalType": "uint256",
          "name": "",
          "type": "uint256"
        }
      ],
      "stateMutability": "view",
      "type": "function"
    },
    {
      "inputs": [
        {
          "internalType": "uint256",
          "name": "",
          "type": "uint256"
        }
      ],
      "name": "retirements",
      "outputs": [
        {
          "internalType": "uint256",
          "name": "createdAt",
          "type": "uint256"
        },
        {
          "internalType": "address",
          "name": "retiringEntity",
          "type": "address"
        },
        {
          "internalType": "uint256",
          "name": "amount",
          "type": "uint256"
        },
        {
          "internalType": "uint256",
          "name": "projectVintageTokenId",
          "type": "uint256"
        }
      ],
      "stateMutability": "view",
      "type": "function"
    },
    {
      "inputs": [
        {
          "internalType": "address",
          "name": "from",
          "type": "address"
        },
        {
          "internalType": "address",
          "name": "to",
          "type": "address"
        },
        {
          "internalType": "uint256",
          "name": "tokenId",
          "type": "uint256"
        }
      ],
      "name": "safeTransferFrom",
      "outputs": [],
      "stateMutability": "nonpayable",
      "type": "function"
    },
    {
      "inputs": [
        {
          "internalType": "address",
          "name": "from",
          "type": "address"
        },
        {
          "internalType": "address",
          "name": "to",
          "type": "address"
        },
        {
          "internalType": "uint256",
          "name": "tokenId",
          "type": "uint256"
        },
        {
          "internalType": "bytes",
          "name": "data",
          "type": "bytes"
        }
      ],
      "name": "safeTransferFrom",
      "outputs": [],
      "stateMutability": "nonpayable",
      "type": "function"
    },
    {
      "inputs": [
        {
          "internalType": "address",
          "name": "operator",
          "type": "address"
        },
        {
          "internalType": "bool",
          "name": "approved",
          "type": "bool"
        }
      ],
      "name": "setApprovalForAll",
      "outputs": [],
      "stateMutability": "nonpayable",
      "type": "function"
    },
    {
      "inputs": [
        {
          "internalType": "string",
          "name": "baseURI_",
          "type": "string"
        }
      ],
      "name": "setBaseURI",
      "outputs": [],
      "stateMutability": "nonpayable",
      "type": "function"
    },
    {
      "inputs": [
        {
          "internalType": "uint256",
          "name": "amount",
          "type": "uint256"
        }
      ],
      "name": "setMinValidRetirementAmount",
      "outputs": [],
      "stateMutability": "nonpayable",
      "type": "function"
    },
    {
      "inputs": [
        {
          "internalType": "address",
          "name": "_address",
          "type": "address"
        }
      ],
      "name": "setToucanContractRegistry",
      "outputs": [],
      "stateMutability": "nonpayable",
      "type": "function"
    },
    {
      "inputs": [
        {
          "internalType": "bytes4",
          "name": "interfaceId",
          "type": "bytes4"
        }
      ],
      "name": "supportsInterface",
      "outputs": [
        {
          "internalType": "bool",
          "name": "",
          "type": "bool"
        }
      ],
      "stateMutability": "view",
      "type": "function"
    },
    {
      "inputs": [],
      "name": "symbol",
      "outputs": [
        {
          "internalType": "string",
          "name": "",
          "type": "string"
        }
      ],
      "stateMutability": "view",
      "type": "function"
    },
    {
      "inputs": [
        {
          "internalType": "uint256",
          "name": "tokenId",
          "type": "uint256"
        }
      ],
      "name": "tokenURI",
      "outputs": [
        {
          "internalType": "string",
          "name": "",
          "type": "string"
        }
      ],
      "stateMutability": "view",
      "type": "function"
    },
    {
      "inputs": [],
      "name": "tonneDenomination",
      "outputs": [
        {
          "internalType": "uint256",
          "name": "",
          "type": "uint256"
        }
      ],
      "stateMutability": "view",
      "type": "function"
    },
    {
      "inputs": [
        {
          "internalType": "address",
          "name": "from",
          "type": "address"
        },
        {
          "internalType": "address",
          "name": "to",
          "type": "address"
        },
        {
          "internalType": "uint256",
          "name": "tokenId",
          "type": "uint256"
        }
      ],
      "name": "transferFrom",
      "outputs": [],
      "stateMutability": "nonpayable",
      "type": "function"
    },
    {
      "inputs": [
        {
          "internalType": "address",
          "name": "newOwner",
          "type": "address"
        }
      ],
      "name": "transferOwnership",
      "outputs": [],
      "stateMutability": "nonpayable",
      "type": "function"
    },
    {
      "inputs": [
        {
          "internalType": "uint256",
          "name": "tokenId",
          "type": "uint256"
        },
        {
          "internalType": "string",
          "name": "retiringEntityString",
          "type": "string"
        },
        {
          "internalType": "address",
          "name": "beneficiary",
          "type": "address"
        },
        {
          "internalType": "string",
          "name": "beneficiaryString",
          "type": "string"
        },
        {
          "internalType": "string",
          "name": "retirementMessage",
          "type": "string"
        }
      ],
      "name": "updateCertificate",
      "outputs": [],
      "stateMutability": "nonpayable",
      "type": "function"
    },
    {
      "inputs": [
        {
          "internalType": "address",
          "name": "newImplementation",
          "type": "address"
        }
      ],
      "name": "upgradeTo",
      "outputs": [],
      "stateMutability": "nonpayable",
      "type": "function"
    },
    {
      "inputs": [
        {
          "internalType": "address",
          "name": "newImplementation",
          "type": "address"
        },
        {
          "internalType": "bytes",
          "name": "data",
          "type": "bytes"
        }
      ],
      "name": "upgradeToAndCall",
      "outputs": [],
      "stateMutability": "payable",
      "type": "function"
    },
    {
      "inputs": [],
      "name": "version",
      "outputs": [
        {
          "internalType": "string",
          "name": "",
          "type": "string"
        }
      ],
      "stateMutability": "pure",
      "type": "function"
    }
  ],
  "bytecode": {
    "object": "0x60a0604052306080523480156200001557600080fd5b506200002062000026565b620000e7565b600054610100900460ff1615620000935760405162461bcd60e51b815260206004820152602760248201527f496e697469616c697a61626c653a20636f6e747261637420697320696e697469604482015266616c697a696e6760c81b606482015260840160405180910390fd5b60005460ff90811614620000e5576000805460ff191660ff9081179091556040519081527f7f26b83ff96e1f2b6a682f133852f6798a09c465da95921460cefb38474024989060200160405180910390a15b565b608051613cac6200011f600039600081816111e601528181611226015281816112e10152818161132101526113b40152613cac6000f3fe6080604052600436106102515760003560e01c8063715018a611610139578063c6986067116100b6578063e882e37b1161007a578063e882e37b14610764578063e985e9c514610784578063f2fde38b146107cd578063f399e22e146107ed578063fa272a321461080d578063ff0116771461082d57600080fd5b8063c6986067146106d2578063c87b56dd146106e9578063d791399e14610709578063d84650be14610729578063d894203d1461074457600080fd5b8063abf410e5116100fd578063abf410e514610624578063b2114f4114610645578063b88d4fde14610676578063bba34a3714610696578063bbec9a2e146106b657600080fd5b8063715018a6146105a55780638da5cb5b146105ba57806395d89b41146105d857806399b00a8d146105ed578063a22cb4651461060457600080fd5b80633659cfe6116101d257806355f804b31161019657806355f804b31461048957806361e4678b146104a95780636352211e1461051e578063663b3e221461053e5780636c0360eb1461057057806370a082311461058557600080fd5b80633659cfe6146103f357806342842e0e146104135780634f1ef2861461043357806352d1902d1461044657806354fd4d501461045b57600080fd5b80630d4b53e7116102195780630d4b53e714610338578063163c131914610366578063171e5ba21461038657806323b872dd146103b357806327de49ee146103d357600080fd5b80630178fe3f1461025657806301ffc9a71461028c57806306fdde03146102bc578063081812fc146102de578063095ea7b314610316575b600080fd5b34801561026257600080fd5b50610276610271366004613003565b61084d565b6040516102839190613074565b60405180910390f35b34801561029857600080fd5b506102ac6102a7366004613170565b610af5565b6040519015158152602001610283565b3480156102c857600080fd5b506102d1610b47565b604051610283919061318d565b3480156102ea57600080fd5b506102fe6102f9366004613003565b610bd9565b6040516001600160a01b039091168152602001610283565b34801561032257600080fd5b506103366103313660046131bc565b610c00565b005b34801561034457600080fd5b50610358610353366004613003565b610d1b565b604051908152602001610283565b34801561037257600080fd5b50610336610381366004613274565b610def565b34801561039257600080fd5b506103a66103a136600461335f565b610fad565b604051610283919061337a565b3480156103bf57600080fd5b506103366103ce3660046133be565b61101a565b3480156103df57600080fd5b506103586103ee366004613408565b61104b565b3480156103ff57600080fd5b5061033661040e36600461335f565b6111db565b34801561041f57600080fd5b5061033661042e3660046133be565b6112bb565b6103366104413660046134f3565b6112d6565b34801561045257600080fd5b506103586113a7565b34801561046757600080fd5b506040805180820190915260058152640312e302e360dc1b60208201526102d1565b34801561049557600080fd5b506103366104a4366004613541565b61145a565b3480156104b557600080fd5b506104f66104c4366004613003565b61012e60205260009081526040902080546001820154600283015460039093015491926001600160a01b039091169184565b604080519485526001600160a01b039093166020850152918301526060820152608001610283565b34801561052a57600080fd5b506102fe610539366004613003565b6114b1565b34801561054a57600080fd5b5061055e610559366004613003565b611511565b60405161028396959493929190613576565b34801561057c57600080fd5b506102d16116f0565b34801561059157600080fd5b506103586105a036600461335f565b61177f565b3480156105b157600080fd5b50610336611805565b3480156105c657600080fd5b506097546001600160a01b03166102fe565b3480156105e457600080fd5b506102d1611819565b3480156105f957600080fd5b5061035861012d5481565b34801561061057600080fd5b5061033661061f3660046135db565b611828565b34801561063057600080fd5b50610132546102fe906001600160a01b031681565b34801561065157600080fd5b506102ac610660366004613003565b61012f6020526000908152604090205460ff1681565b34801561068257600080fd5b50610336610691366004613612565b611833565b3480156106a257600080fd5b506103366106b136600461367a565b61186b565b3480156106c257600080fd5b50610358670de0b6b3a764000081565b3480156106de57600080fd5b506103586101355481565b3480156106f557600080fd5b506102d1610704366004613003565b611a12565b34801561071557600080fd5b50610358610724366004613003565b611ac6565b34801561073557600080fd5b5061035866038d7ea4c6800081565b34801561075057600080fd5b5061033661075f366004613731565b611b82565b34801561077057600080fd5b5061033661077f36600461335f565b611be2565b34801561079057600080fd5b506102ac61079f36600461377d565b6001600160a01b039182166000908152606a6020908152604080832093909416825291909152205460ff1690565b3480156107d957600080fd5b506103366107e836600461335f565b611c39565b3480156107f957600080fd5b506103366108083660046134f3565b611caf565b34801561081957600080fd5b50610358610828366004613003565b611e3f565b34801561083957600080fd5b50610336610848366004613003565b611f0c565b61089f6040518060e00160405280606081526020016000815260200160006001600160a01b0316815260200160006001600160a01b031681526020016060815260200160608152602001606081525090565b60008281526101346020908152604091829020825181546101009381028201840190945260e08101848152909391928492849184018282801561090157602002820191906000526020600020905b8154815260200190600101908083116108ed575b50505091835250506001820154602082015260028201546001600160a01b0390811660408301526003830154166060820152600482018054608090920191610948906137b0565b80601f0160208091040260200160405190810160405280929190818152602001828054610974906137b0565b80156109c15780601f10610996576101008083540402835291602001916109c1565b820191906000526020600020905b8154815290600101906020018083116109a457829003601f168201915b505050505081526020016005820180546109da906137b0565b80601f0160208091040260200160405190810160405280929190818152602001828054610a06906137b0565b8015610a535780601f10610a2857610100808354040283529160200191610a53565b820191906000526020600020905b815481529060010190602001808311610a3657829003601f168201915b50505050508152602001600682018054610a6c906137b0565b80601f0160208091040260200160405190810160405280929190818152602001828054610a98906137b0565b8015610ae55780601f10610aba57610100808354040283529160200191610ae5565b820191906000526020600020905b815481529060010190602001808311610ac857829003601f168201915b5050505050815250509050919050565b60006001600160e01b031982166380ac58cd60e01b1480610b2657506001600160e01b03198216635b5e139f60e01b145b80610b4157506301ffc9a760e01b6001600160e01b03198316145b92915050565b606060658054610b56906137b0565b80601f0160208091040260200160405190810160405280929190818152602001828054610b82906137b0565b8015610bcf5780601f10610ba457610100808354040283529160200191610bcf565b820191906000526020600020905b815481529060010190602001808311610bb257829003601f168201915b5050505050905090565b6000610be482611f99565b506000908152606960205260409020546001600160a01b031690565b6000610c0b826114b1565b9050806001600160a01b0316836001600160a01b03161415610c7e5760405162461bcd60e51b815260206004820152602160248201527f4552433732313a20617070726f76616c20746f2063757272656e74206f776e656044820152603960f91b60648201526084015b60405180910390fd5b336001600160a01b0382161480610c9a5750610c9a813361079f565b610d0c5760405162461bcd60e51b815260206004820152603d60248201527f4552433732313a20617070726f76652063616c6c6572206973206e6f7420746f60448201527f6b656e206f776e6572206f7220617070726f76656420666f7220616c6c0000006064820152608401610c75565b610d168383611ff8565b505050565b600081815261013460209081526040808320805482518185028101850190935280835284938493929190830182828015610d7457602002820191906000526020600020905b815481526020019060010190808311610d60575b5050505050905060005b8151811015610dd55761012e6000838381518110610d9e57610d9e6137eb565b602002602001015181526020019081526020016000206002015483610dc39190613817565b9250610dce8161382f565b9050610d7e565b50610de766038d7ea4c680008361384a565b949350505050565b6001600160a01b038a16331480610e7457506101325460405163787d871360e01b81523360048201526001600160a01b039091169063787d871390602401602060405180830381865afa158015610e4a573d6000803e3d6000fd5b505050506040513d601f19601f82011682018060405250810190610e6e919061386c565b15156001145b610eb15760405162461bcd60e51b815260206004820152600e60248201526d24b73b30b634b21031b0b63632b960911b6044820152606401610c75565b610133805460010190819055610ec78b82612066565b610ed3818c8585612080565b6000818152610134602052604090204260018201556003810180546001600160a01b0319166001600160a01b038b16179055610f13906005018888612ef6565b506000818152610134602052604090206002810180546001600160a01b0319166001600160a01b038e16179055610f4e906004018b8b612ef6565b50600081815261013460205260409020610f6c906006018686612ef6565b506040518181527f54b249c3cd4a5f80e81d2ad036b251d58d8f5482a926f25d12eabec192cf1ecd9060200160405180910390a15050505050505050505050565b6001600160a01b0381166000908152610130602090815260409182902080548351818402810184019094528084526060939283018282801561100e57602002820191906000526020600020905b815481526020019060010190808311610ffa575b50505050509050919050565b611024338261223e565b6110405760405162461bcd60e51b8152600401610c7590613889565b610d168383836122bc565b6101325460405163787d871360e01b81523360048201526000916001600160a01b03169063787d871390602401602060405180830381865afa158015611095573d6000803e3d6000fd5b505050506040513d601f19601f820116820180604052508101906110b9919061386c565b6110f95760405162461bcd60e51b815260206004820152601160248201527021b0b63632b9103737ba1030902a21a79960791b6044820152606401610c75565b821580159061110b5750610135548310155b6111485760405162461bcd60e51b815260206004820152600e60248201526d125b9d985b1a5908185b5bdd5b9d60921b6044820152606401610c75565b61012d80546001908101918290556001600160a01b03871660009081526101306020908152604082208054938401815582529020018190558261119857600081815261012e602052604090204290555b600081815261012e602052604090206001810180546001600160a01b0319166001600160a01b038916179055600281018590556003018590559050949350505050565b306001600160a01b037f00000000000000000000000000000000000000000000000000000000000000001614156112245760405162461bcd60e51b8152600401610c75906138d6565b7f00000000000000000000000000000000000000000000000000000000000000006001600160a01b031661126d600080516020613c30833981519152546001600160a01b031690565b6001600160a01b0316146112935760405162461bcd60e51b8152600401610c7590613922565b61129c8161242d565b604080516000808252602082019092526112b891839190612435565b50565b610d1683838360405180602001604052806000815250611833565b306001600160a01b037f000000000000000000000000000000000000000000000000000000000000000016141561131f5760405162461bcd60e51b8152600401610c75906138d6565b7f00000000000000000000000000000000000000000000000000000000000000006001600160a01b0316611368600080516020613c30833981519152546001600160a01b031690565b6001600160a01b03161461138e5760405162461bcd60e51b8152600401610c7590613922565b6113978261242d565b6113a382826001612435565b5050565b6000306001600160a01b037f000000000000000000000000000000000000000000000000000000000000000016146114475760405162461bcd60e51b815260206004820152603860248201527f555550535570677261646561626c653a206d757374206e6f742062652063616c60448201527f6c6564207468726f7567682064656c656761746563616c6c00000000000000006064820152608401610c75565b50600080516020613c3083398151915290565b6114626125a0565b805161147690610131906020840190612f7a565b507ff9c7803e94e0d3c02900d8a90893a6d5e90dd04d32a4cfe825520f82bf9f32f6816040516114a6919061318d565b60405180910390a150565b6000818152606760205260408120546001600160a01b031680610b415760405162461bcd60e51b8152602060048201526018602482015277115490cdcc8c4e881a5b9d985b1a59081d1bdad95b88125160421b6044820152606401610c75565b61013460205260009081526040902060018101546002820154600383015460048401805493946001600160a01b03938416949390921692611551906137b0565b80601f016020809104026020016040519081016040528092919081815260200182805461157d906137b0565b80156115ca5780601f1061159f576101008083540402835291602001916115ca565b820191906000526020600020905b8154815290600101906020018083116115ad57829003601f168201915b5050505050908060050180546115df906137b0565b80601f016020809104026020016040519081016040528092919081815260200182805461160b906137b0565b80156116585780601f1061162d57610100808354040283529160200191611658565b820191906000526020600020905b81548152906001019060200180831161163b57829003601f168201915b50505050509080600601805461166d906137b0565b80601f0160208091040260200160405190810160405280929190818152602001828054611699906137b0565b80156116e65780601f106116bb576101008083540402835291602001916116e6565b820191906000526020600020905b8154815290600101906020018083116116c957829003601f168201915b5050505050905086565b61013180546116fe906137b0565b80601f016020809104026020016040519081016040528092919081815260200182805461172a906137b0565b80156117775780601f1061174c57610100808354040283529160200191611777565b820191906000526020600020905b81548152906001019060200180831161175a57829003601f168201915b505050505081565b60006001600160a01b0382166117e95760405162461bcd60e51b815260206004820152602960248201527f4552433732313a2061646472657373207a65726f206973206e6f7420612076616044820152683634b21037bbb732b960b91b6064820152608401610c75565b506001600160a01b031660009081526068602052604090205490565b61180d6125a0565b61181760006125fa565b565b606060668054610b56906137b0565b6113a333838361264c565b61183d338361223e565b6118595760405162461bcd60e51b8152600401610c7590613889565b6118658484848461271b565b50505050565b611874886114b1565b6001600160a01b0316336001600160a01b0316146118ca5760405162461bcd60e51b815260206004820152601360248201527229b2b73232b91034b9903737ba1037bbb732b960691b6044820152606401610c75565b600088815261013460205260409020600101546118ea9062015180613817565b421061192b5760405162461bcd60e51b815260206004820152601060248201526f0c8d081a1bdd5c9cc8195b185c1cd95960821b6044820152606401610c75565b85156119505760008881526101346020526040902061194e906004018888612ef6565b505b6001600160a01b0385161561198b5760008881526101346020526040902060030180546001600160a01b0319166001600160a01b0387161790555b82156119b0576000888152610134602052604090206119ae906005018585612ef6565b505b80156119d5576000888152610134602052604090206119d3906006018383612ef6565b505b6040518881527f9a100d2018161ede6ca34c8007992b09bbffc636a636014a922e4c87504126289060200160405180910390a15050505050505050565b6000818152606760205260409020546060906001600160a01b0316611a935760405162461bcd60e51b815260206004820152603160248201527f45524337323155524953746f726167653a2055524920717565727920666f72206044820152703737b732bc34b9ba32b73a103a37b5b2b760791b6064820152608401610c75565b610131611a9f8361274e565b604051602001611ab092919061398a565b6040516020818303038152906040529050919050565b60008181526101346020908152604080832080548251818502810185019093528083528493830182828015611b1a57602002820191906000526020600020905b815481526020019060010190808311611b06575b5050505050905060005b8151811015611b7b5761012e6000838381518110611b4457611b446137eb565b602002602001015181526020019081526020016000206002015483611b699190613817565b9250611b748161382f565b9050611b24565b5050919050565b6000611b8d846114b1565b90506001600160a01b0381163314611bd65760405162461bcd60e51b815260206004820152600c60248201526b155b985d5d1a1bdc9a5e995960a21b6044820152606401610c75565b61186584828585612080565b611bea6125a0565b61013280546001600160a01b0319166001600160a01b0383169081179091556040519081527f86907b53cf2024579968511876daf0b4620d65803b550e33101baf70aeb6f5eb906020016114a6565b611c416125a0565b6001600160a01b038116611ca65760405162461bcd60e51b815260206004820152602660248201527f4f776e61626c653a206e6577206f776e657220697320746865207a65726f206160448201526564647265737360d01b6064820152608401610c75565b6112b8816125fa565b600054610100900460ff1615808015611ccf5750600054600160ff909116105b80611ce95750303b158015611ce9575060005460ff166001145b611d4c5760405162461bcd60e51b815260206004820152602e60248201527f496e697469616c697a61626c653a20636f6e747261637420697320616c72656160448201526d191e481a5b9a5d1a585b1a5e995960921b6064820152608401610c75565b6000805460ff191660011790558015611d6f576000805461ff0019166101001790555b611d776127eb565b611dbc604051806080016040528060458152602001613beb604591396040518060400160405280600b81526020016a1513d550d0538b50d1549560aa1b815250612812565b611dc4612860565b61013280546001600160a01b0319166001600160a01b0385161790558151611df490610131906020850190612f7a565b508015610d16576000805461ff0019169055604051600181527f7f26b83ff96e1f2b6a682f133852f6798a09c465da95921460cefb38474024989060200160405180910390a1505050565b600081815261013460209081526040808320805482518185028101850190935280835284938493929190830182828015611e9857602002820191906000526020600020905b815481526020019060010190808311611e84575b5050505050905060005b8151811015611ef95761012e6000838381518110611ec257611ec26137eb565b602002602001015181526020019081526020016000206002015483611ee79190613817565b9250611ef28161382f565b9050611ea2565b50610de7670de0b6b3a76400008361384a565b611f146125a0565b6101355481811415611f565760405162461bcd60e51b815260206004820152600b60248201526a105b1c9958591e481cd95d60aa1b6044820152606401610c75565b61013582905560408051828152602081018490527f551d481ccb1906e06e26b2f8bedf0b21755e092f001c4465f99aab9c67d8a039910160405180910390a15050565b6000818152606760205260409020546001600160a01b03166112b85760405162461bcd60e51b8152602060048201526018602482015277115490cdcc8c4e881a5b9d985b1a59081d1bdad95b88125160421b6044820152606401610c75565b600081815260696020526040902080546001600160a01b0319166001600160a01b038416908117909155819061202d826114b1565b6001600160a01b03167f8c5be1e5ebec7d5bd14f71427d1e84f3dd0314c0f7b2291e5b200ac8c7c3b92560405160405180910390a45050565b6113a3828260405180602001604052806000815250612890565b806120c15760405162461bcd60e51b8152602060048201526011602482015270456d707479206576656e7420617272617960781b6044820152606401610c75565b60005b818110156121fc5760008383838181106120e0576120e06137eb565b60209081029290920135600081815261012e909352604090922060010154919250506001600160a01b0386811691161461215c5760405162461bcd60e51b815260206004820152601b60248201527f496e76616c6964206576656e7420746f20626520636c61696d656400000000006044820152606401610c75565b600081815261012f602052604090205460ff16156121b45760405162461bcd60e51b8152602060048201526015602482015274105b1c9958591e4818db185a5b595908195d995b9d605a1b6044820152606401610c75565b600081815261012f60209081526040808320805460ff191660019081179091558984526101348352908320805491820181558352912001556121f58161382f565b90506120c4565b507fc5872b1b6098a26efa71189456aa230cff448e7d6fbfa3b42d7eb105d541d43184838360405161223093929190613a28565b60405180910390a150505050565b60008061224a836114b1565b9050806001600160a01b0316846001600160a01b0316148061229157506001600160a01b038082166000908152606a602090815260408083209388168352929052205460ff165b80610de75750836001600160a01b03166122aa84610bd9565b6001600160a01b031614949350505050565b826001600160a01b03166122cf826114b1565b6001600160a01b0316146122f55760405162461bcd60e51b8152600401610c7590613a6c565b6001600160a01b0382166123575760405162461bcd60e51b8152602060048201526024808201527f4552433732313a207472616e7366657220746f20746865207a65726f206164646044820152637265737360e01b6064820152608401610c75565b61236483838360016128c3565b826001600160a01b0316612377826114b1565b6001600160a01b03161461239d5760405162461bcd60e51b8152600401610c7590613a6c565b600081815260696020908152604080832080546001600160a01b03199081169091556001600160a01b0387811680865260688552838620805460001901905590871680865283862080546001019055868652606790945282852080549092168417909155905184937fddf252ad1be2c89b69c2b068fc378daa952ba7f163c4a11628f55a4df523b3ef91a4505050565b6112b86125a0565b7f4910fdfa16fed3260ed0e7147f7cc6da11a60208b5b9406d12a635614ffd91435460ff161561246857610d168361294b565b826001600160a01b03166352d1902d6040518163ffffffff1660e01b8152600401602060405180830381865afa9250505080156124c2575060408051601f3d908101601f191682019092526124bf91810190613ab1565b60015b6125255760405162461bcd60e51b815260206004820152602e60248201527f45524331393637557067726164653a206e657720696d706c656d656e7461746960448201526d6f6e206973206e6f74205555505360901b6064820152608401610c75565b600080516020613c3083398151915281146125945760405162461bcd60e51b815260206004820152602960248201527f45524331393637557067726164653a20756e737570706f727465642070726f786044820152681a58589b195555525160ba1b6064820152608401610c75565b50610d168383836129e7565b6097546001600160a01b031633146118175760405162461bcd60e51b815260206004820181905260248201527f4f776e61626c653a2063616c6c6572206973206e6f7420746865206f776e65726044820152606401610c75565b609780546001600160a01b038381166001600160a01b0319831681179093556040519116919082907f8be0079c531659141344cd1fd0a4f28419497f9722a3daafe3b4186f6b6457e090600090a35050565b816001600160a01b0316836001600160a01b031614156126ae5760405162461bcd60e51b815260206004820152601960248201527f4552433732313a20617070726f766520746f2063616c6c6572000000000000006044820152606401610c75565b6001600160a01b038381166000818152606a6020908152604080832094871680845294825291829020805460ff191686151590811790915591519182527f17307eab39ab6107e8899845ad3d59bd9653f200f220920489ca2b5937696c31910160405180910390a3505050565b6127268484846122bc565b61273284848484612a0c565b6118655760405162461bcd60e51b8152600401610c7590613aca565b6060600061275b83612b07565b600101905060008167ffffffffffffffff81111561277b5761277b613450565b6040519080825280601f01601f1916602001820160405280156127a5576020820181803683370190505b5090508181016020015b600019016f181899199a1a9b1b9c1cb0b131b232b360811b600a86061a8153600a85049450846127de576127e3565b6127af565b509392505050565b600054610100900460ff166118175760405162461bcd60e51b8152600401610c7590613b1c565b600054610100900460ff166128395760405162461bcd60e51b8152600401610c7590613b1c565b815161284c906065906020850190612f7a565b508051610d16906066906020840190612f7a565b600054610100900460ff166128875760405162461bcd60e51b8152600401610c7590613b1c565b611817336125fa565b61289a8383612bdf565b6128a76000848484612a0c565b610d165760405162461bcd60e51b8152600401610c7590613aca565b6001811115611865576001600160a01b03841615612909576001600160a01b03841660009081526068602052604081208054839290612903908490613b67565b90915550505b6001600160a01b03831615611865576001600160a01b03831660009081526068602052604081208054839290612940908490613817565b909155505050505050565b6001600160a01b0381163b6129b85760405162461bcd60e51b815260206004820152602d60248201527f455243313936373a206e657720696d706c656d656e746174696f6e206973206e60448201526c1bdd08184818dbdb9d1c9858dd609a1b6064820152608401610c75565b600080516020613c3083398151915280546001600160a01b0319166001600160a01b0392909216919091179055565b6129f083612d78565b6000825111806129fd5750805b15610d16576118658383612db8565b60006001600160a01b0384163b15612aff57604051630a85bd0160e11b81526001600160a01b0385169063150b7a0290612a50903390899088908890600401613b7e565b6020604051808303816000875af1925050508015612a8b575060408051601f3d908101601f19168201909252612a8891810190613bb1565b60015b612ae5573d808015612ab9576040519150601f19603f3d011682016040523d82523d6000602084013e612abe565b606091505b508051612add5760405162461bcd60e51b8152600401610c7590613aca565b805181602001fd5b6001600160e01b031916630a85bd0160e11b149050610de7565b506001610de7565b60008072184f03e93ff9f4daa797ed6e38ed64bf6a1f0160401b8310612b465772184f03e93ff9f4daa797ed6e38ed64bf6a1f0160401b830492506040015b6d04ee2d6d415b85acef81000000008310612b72576d04ee2d6d415b85acef8100000000830492506020015b662386f26fc100008310612b9057662386f26fc10000830492506010015b6305f5e1008310612ba8576305f5e100830492506008015b6127108310612bbc57612710830492506004015b60648310612bce576064830492506002015b600a8310610b415760010192915050565b6001600160a01b038216612c355760405162461bcd60e51b815260206004820181905260248201527f4552433732313a206d696e7420746f20746865207a65726f20616464726573736044820152606401610c75565b6000818152606760205260409020546001600160a01b031615612c9a5760405162461bcd60e51b815260206004820152601c60248201527f4552433732313a20746f6b656e20616c7265616479206d696e746564000000006044820152606401610c75565b612ca86000838360016128c3565b6000818152606760205260409020546001600160a01b031615612d0d5760405162461bcd60e51b815260206004820152601c60248201527f4552433732313a20746f6b656e20616c7265616479206d696e746564000000006044820152606401610c75565b6001600160a01b038216600081815260686020908152604080832080546001019055848352606790915280822080546001600160a01b0319168417905551839291907fddf252ad1be2c89b69c2b068fc378daa952ba7f163c4a11628f55a4df523b3ef908290a45050565b612d818161294b565b6040516001600160a01b038216907fbc7cd75a20ee27fd9adebab32041f755214dbc6bffa90cc0225b39da2e5c2d3b90600090a250565b60606001600160a01b0383163b612e205760405162461bcd60e51b815260206004820152602660248201527f416464726573733a2064656c65676174652063616c6c20746f206e6f6e2d636f6044820152651b9d1c9858dd60d21b6064820152608401610c75565b600080846001600160a01b031684604051612e3b9190613bce565b600060405180830381855af49150503d8060008114612e76576040519150601f19603f3d011682016040523d82523d6000602084013e612e7b565b606091505b5091509150612ea38282604051806060016040528060278152602001613c5060279139612eac565b95945050505050565b60608315612ebb575081612ec5565b612ec58383612ecc565b9392505050565b815115612edc5781518083602001fd5b8060405162461bcd60e51b8152600401610c75919061318d565b828054612f02906137b0565b90600052602060002090601f016020900481019282612f245760008555612f6a565b82601f10612f3d5782800160ff19823516178555612f6a565b82800160010185558215612f6a579182015b82811115612f6a578235825591602001919060010190612f4f565b50612f76929150612fee565b5090565b828054612f86906137b0565b90600052602060002090601f016020900481019282612fa85760008555612f6a565b82601f10612fc157805160ff1916838001178555612f6a565b82800160010185558215612f6a579182015b82811115612f6a578251825591602001919060010190612fd3565b5b80821115612f765760008155600101612fef565b60006020828403121561301557600080fd5b5035919050565b60005b8381101561303757818101518382015260200161301f565b838111156118655750506000910152565b6000815180845261306081602086016020860161301c565b601f01601f19169290920160200192915050565b6020808252825160e083830152805161010084018190526000929182019083906101208601905b808310156130bb578351825292840192600192909201919084019061309b565b50838701516040870152604087015193506130e160608701856001600160a01b03169052565b60608701516001600160a01b0381166080880152935060808701519350601f199250828682030160a08701526131178185613048565b9350505060a0850151818584030160c08601526131348382613048565b92505060c0850151818584030160e08601526131508382613048565b9695505050505050565b6001600160e01b0319811681146112b857600080fd5b60006020828403121561318257600080fd5b8135612ec58161315a565b602081526000612ec56020830184613048565b80356001600160a01b03811681146131b757600080fd5b919050565b600080604083850312156131cf57600080fd5b6131d8836131a0565b946020939093013593505050565b60008083601f8401126131f857600080fd5b50813567ffffffffffffffff81111561321057600080fd5b60208301915083602082850101111561322857600080fd5b9250929050565b60008083601f84011261324157600080fd5b50813567ffffffffffffffff81111561325957600080fd5b6020830191508360208260051b850101111561322857600080fd5b60008060008060008060008060008060c08b8d03121561329357600080fd5b61329c8b6131a0565b995060208b013567ffffffffffffffff808211156132b957600080fd5b6132c58e838f016131e6565b909b5099508991506132d960408e016131a0565b985060608d01359150808211156132ef57600080fd5b6132fb8e838f016131e6565b909850965060808d013591508082111561331457600080fd5b6133208e838f016131e6565b909650945060a08d013591508082111561333957600080fd5b506133468d828e0161322f565b915080935050809150509295989b9194979a5092959850565b60006020828403121561337157600080fd5b612ec5826131a0565b6020808252825182820181905260009190848201906040850190845b818110156133b257835183529284019291840191600101613396565b50909695505050505050565b6000806000606084860312156133d357600080fd5b6133dc846131a0565b92506133ea602085016131a0565b9150604084013590509250925092565b80151581146112b857600080fd5b6000806000806080858703121561341e57600080fd5b613427856131a0565b935060208501359250604085013591506060850135613445816133fa565b939692955090935050565b634e487b7160e01b600052604160045260246000fd5b600082601f83011261347757600080fd5b813567ffffffffffffffff8082111561349257613492613450565b604051601f8301601f19908116603f011681019082821181831017156134ba576134ba613450565b816040528381528660208588010111156134d357600080fd5b836020870160208301376000602085830101528094505050505092915050565b6000806040838503121561350657600080fd5b61350f836131a0565b9150602083013567ffffffffffffffff81111561352b57600080fd5b61353785828601613466565b9150509250929050565b60006020828403121561355357600080fd5b813567ffffffffffffffff81111561356a57600080fd5b610de784828501613466565b8681526001600160a01b0386811660208301528516604082015260c0606082018190526000906135a890830186613048565b82810360808401526135ba8186613048565b905082810360a08401526135ce8185613048565b9998505050505050505050565b600080604083850312156135ee57600080fd5b6135f7836131a0565b91506020830135613607816133fa565b809150509250929050565b6000806000806080858703121561362857600080fd5b613631856131a0565b935061363f602086016131a0565b925060408501359150606085013567ffffffffffffffff81111561366257600080fd5b61366e87828801613466565b91505092959194509250565b60008060008060008060008060a0898b03121561369657600080fd5b88359750602089013567ffffffffffffffff808211156136b557600080fd5b6136c18c838d016131e6565b90995097508791506136d560408c016131a0565b965060608b01359150808211156136eb57600080fd5b6136f78c838d016131e6565b909650945060808b013591508082111561371057600080fd5b5061371d8b828c016131e6565b999c989b5096995094979396929594505050565b60008060006040848603121561374657600080fd5b83359250602084013567ffffffffffffffff81111561376457600080fd5b6137708682870161322f565b9497909650939450505050565b6000806040838503121561379057600080fd5b613799836131a0565b91506137a7602084016131a0565b90509250929050565b600181811c908216806137c457607f821691505b602082108114156137e557634e487b7160e01b600052602260045260246000fd5b50919050565b634e487b7160e01b600052603260045260246000fd5b634e487b7160e01b600052601160045260246000fd5b6000821982111561382a5761382a613801565b500190565b600060001982141561384357613843613801565b5060010190565b60008261386757634e487b7160e01b600052601260045260246000fd5b500490565b60006020828403121561387e57600080fd5b8151612ec5816133fa565b6020808252602d908201527f4552433732313a2063616c6c6572206973206e6f7420746f6b656e206f776e6560408201526c1c881bdc88185c1c1c9bdd9959609a1b606082015260800190565b6020808252602c908201527f46756e6374696f6e206d7573742062652063616c6c6564207468726f7567682060408201526b19195b1959d85d1958d85b1b60a21b606082015260800190565b6020808252602c908201527f46756e6374696f6e206d7573742062652063616c6c6564207468726f7567682060408201526b6163746976652070726f787960a01b606082015260800190565b6000815161398081856020860161301c565b9290920192915050565b600080845481600182811c9150808316806139a657607f831692505b60208084108214156139c657634e487b7160e01b86526022600452602486fd5b8180156139da57600181146139eb57613a18565b60ff19861689528489019650613a18565b60008b81526020902060005b86811015613a105781548b8201529085019083016139f7565b505084890196505b505050505050612ea3818561396e565b838152604060208201819052810182905260006001600160fb1b03831115613a4f57600080fd5b8260051b8085606085013760009201606001918252509392505050565b60208082526025908201527f4552433732313a207472616e736665722066726f6d20696e636f72726563742060408201526437bbb732b960d91b606082015260800190565b600060208284031215613ac357600080fd5b5051919050565b60208082526032908201527f4552433732313a207472616e7366657220746f206e6f6e20455243373231526560408201527131b2b4bb32b91034b6b83632b6b2b73a32b960711b606082015260800190565b6020808252602b908201527f496e697469616c697a61626c653a20636f6e7472616374206973206e6f74206960408201526a6e697469616c697a696e6760a81b606082015260800190565b600082821015613b7957613b79613801565b500390565b6001600160a01b038581168252841660208201526040810183905260806060820181905260009061315090830184613048565b600060208284031215613bc357600080fd5b8151612ec58161315a565b60008251613be081846020870161301c565b919091019291505056fe546f7563616e2050726f746f636f6c3a205265746972656d656e742043657274696669636174657320666f7220546f6b656e697a656420436172626f6e204f666673657473360894a13ba1a3210667c828492db98dca3e2076cc3735a920a3ca505d382bbc416464726573733a206c6f772d6c6576656c2064656c65676174652063616c6c206661696c6564a2646970667358221220a91a9ffbe99b25d09d6e6e0466209f2c43fd1edcb184b4a5ae35caee08b6a49164736f6c634300080b0033",
    "linkReferences": {}
  },
  "methodIdentifiers": {
    "approve(address,uint256)": "095ea7b3",
    "attachRetirementEvents(uint256,uint256[])": "d894203d",
    "balanceOf(address)": "70a08231",
    "baseURI()": "6c0360eb",
    "certificates(uint256)": "663b3e22",
    "claimedEvents(uint256)": "b2114f41",
    "contractRegistry()": "abf410e5",
    "getApproved(uint256)": "081812fc",
    "getData(uint256)": "0178fe3f",
    "getRetiredAmount(uint256)": "d791399e",
    "getRetiredAmountInKilos(uint256)": "0d4b53e7",
    "getRetiredAmountInTonnes(uint256)": "fa272a32",
    "getUserEvents(address)": "171e5ba2",
    "initialize(address,string)": "f399e22e",
    "isApprovedForAll(address,address)": "e985e9c5",
    "kiloDenomination()": "d84650be",
    "minValidRetirementAmount()": "c6986067",
    "mintCertificate(address,string,address,string,string,uint256[])": "163c1319",
    "name()": "06fdde03",
    "owner()": "8da5cb5b",
    "ownerOf(uint256)": "6352211e",
    "proxiableUUID()": "52d1902d",
    "registerEvent(address,uint256,uint256,bool)": "27de49ee",
    "renounceOwnership()": "715018a6",
    "retireEventCounter()": "99b00a8d",
    "retirements(uint256)": "61e4678b",
    "safeTransferFrom(address,address,uint256)": "42842e0e",
    "safeTransferFrom(address,address,uint256,bytes)": "b88d4fde",
    "setApprovalForAll(address,bool)": "a22cb465",
    "setBaseURI(string)": "55f804b3",
    "setMinValidRetirementAmount(uint256)": "ff011677",
    "setToucanContractRegistry(address)": "e882e37b",
    "supportsInterface(bytes4)": "01ffc9a7",
    "symbol()": "95d89b41",
    "tokenURI(uint256)": "c87b56dd",
    "tonneDenomination()": "bbec9a2e",
    "transferFrom(address,address,uint256)": "23b872dd",
    "transferOwnership(address)": "f2fde38b",
    "updateCertificate(uint256,string,address,string,string)": "bba34a37",
    "upgradeTo(address)": "3659cfe6",
    "upgradeToAndCall(address,bytes)": "4f1ef286",
    "version()": "54fd4d50"
  },
  "id": 4
}