{
  "abi": [
    {
      "inputs": [],
      "name": "NotImplemented",
      "type": "error"
    },
    {
      "anonymous": false,
      "inputs": [
        {
          "indexed": true,
          "internalType": "address",
          "name": "owner",
          "type": "address"
        },
        {
          "indexed": true,
          "internalType": "address",
          "name": "spender",
          "type": "address"
        },
        {
          "indexed": false,
          "internalType": "uint256",
          "name": "value",
          "type": "uint256"
        }
      ],
      "name": "Approval",
      "type": "event"
    },
    {
      "anonymous": false,
      "inputs": [
        {
          "indexed": false,
          "internalType": "uint8",
          "name": "version",
          "type": "uint8"
        }
      ],
      "name": "Initialized",
      "type": "event"
    },
    {
      "anonymous": false,
      "inputs": [
        {
          "indexed": true,
          "internalType": "address",
          "name": "tCO2",
          "type": "address"
        },
        {
          "indexed": true,
          "internalType": "uint256",
          "name": "amountXCO2",
          "type": "uint256"
        },
        {
          "indexed": true,
          "internalType": "address",
          "name": "beneificiary",
          "type": "address"
        }
      ],
      "name": "Offset",
      "type": "event"
    },
    {
      "anonymous": false,
      "inputs": [
        {
          "indexed": true,
          "internalType": "address",
          "name": "tCO2",
          "type": "address"
        },
        {
          "indexed": true,
          "internalType": "uint256",
          "name": "amountXCO2",
          "type": "uint256"
        },
        {
          "indexed": true,
          "internalType": "address",
          "name": "beneficiary",
          "type": "address"
        },
        {
          "indexed": false,
          "internalType": "uint32",
          "name": "destination",
          "type": "uint32"
        }
      ],
      "name": "OffsetRemote",
      "type": "event"
    },
    {
      "anonymous": false,
      "inputs": [
        {
          "indexed": true,
          "internalType": "address",
          "name": "previousOwner",
          "type": "address"
        },
        {
          "indexed": true,
          "internalType": "address",
          "name": "newOwner",
          "type": "address"
        }
      ],
      "name": "OwnershipTransferred",
      "type": "event"
    },
    {
      "anonymous": false,
      "inputs": [
        {
          "indexed": true,
          "internalType": "address",
          "name": "from",
          "type": "address"
        },
        {
          "indexed": true,
          "internalType": "address",
          "name": "to",
          "type": "address"
        },
        {
          "indexed": false,
          "internalType": "uint256",
          "name": "value",
          "type": "uint256"
        }
      ],
      "name": "Transfer",
      "type": "event"
    },
    {
      "inputs": [
        {
          "internalType": "address",
          "name": "owner",
          "type": "address"
        },
        {
          "internalType": "address",
          "name": "spender",
          "type": "address"
        }
      ],
      "name": "allowance",
      "outputs": [
        {
          "internalType": "uint256",
          "name": "",
          "type": "uint256"
        }
      ],
      "stateMutability": "view",
      "type": "function"
    },
    {
      "inputs": [
        {
          "internalType": "address",
          "name": "spender",
          "type": "address"
        },
        {
          "internalType": "uint256",
          "name": "amount",
          "type": "uint256"
        }
      ],
      "name": "approve",
      "outputs": [
        {
          "internalType": "bool",
          "name": "",
          "type": "bool"
        }
      ],
      "stateMutability": "nonpayable",
      "type": "function"
    },
    {
      "inputs": [],
      "name": "asset",
      "outputs": [
        {
          "internalType": "contract ERC20Upgradeable",
          "name": "",
          "type": "address"
        }
      ],
      "stateMutability": "view",
      "type": "function"
    },
    {
      "inputs": [
        {
          "internalType": "address",
          "name": "account",
          "type": "address"
        }
      ],
      "name": "balanceOf",
      "outputs": [
        {
          "internalType": "uint256",
          "name": "",
          "type": "uint256"
        }
      ],
      "stateMutability": "view",
      "type": "function"
    },
    {
      "inputs": [],
      "name": "decimals",
      "outputs": [
        {
          "internalType": "uint8",
          "name": "",
          "type": "uint8"
        }
      ],
      "stateMutability": "view",
      "type": "function"
    },
    {
      "inputs": [
        {
          "internalType": "address",
          "name": "spender",
          "type": "address"
        },
        {
          "internalType": "uint256",
          "name": "subtractedValue",
          "type": "uint256"
        }
      ],
      "name": "decreaseAllowance",
      "outputs": [
        {
          "internalType": "bool",
          "name": "",
          "type": "bool"
        }
      ],
      "stateMutability": "nonpayable",
      "type": "function"
    },
    {
      "inputs": [
        {
          "internalType": "uint256",
          "name": "amount",
          "type": "uint256"
        }
      ],
      "name": "fromUSD",
      "outputs": [
        {
          "internalType": "uint256",
          "name": "",
          "type": "uint256"
        }
      ],
      "stateMutability": "view",
      "type": "function"
    },
    {
      "inputs": [
        {
          "internalType": "address",
          "name": "spender",
          "type": "address"
        },
        {
          "internalType": "uint256",
          "name": "addedValue",
          "type": "uint256"
        }
      ],
      "name": "increaseAllowance",
      "outputs": [
        {
          "internalType": "bool",
          "name": "",
          "type": "bool"
        }
      ],
      "stateMutability": "nonpayable",
      "type": "function"
    },
    {
      "inputs": [
        {
          "internalType": "address",
          "name": "_outbox",
          "type": "address"
        },
        {
          "internalType": "address",
          "name": "_xUSDC",
          "type": "address"
        },
        {
          "internalType": "string",
          "name": "_name",
          "type": "string"
        },
        {
          "internalType": "string",
          "name": "_symbol",
          "type": "string"
        }
      ],
      "name": "initialize",
      "outputs": [],
      "stateMutability": "nonpayable",
      "type": "function"
    },
    {
      "inputs": [
        {
          "internalType": "address",
          "name": "_outbox",
          "type": "address"
        },
        {
          "internalType": "address",
          "name": "_xUSDC",
          "type": "address"
        },
        {
          "internalType": "string",
          "name": "_name",
          "type": "string"
        },
        {
          "internalType": "string",
          "name": "_symbol",
          "type": "string"
        },
        {
          "internalType": "address",
          "name": "_asset",
          "type": "address"
        }
      ],
      "name": "initialize",
      "outputs": [],
      "stateMutability": "nonpayable",
      "type": "function"
    },
    {
      "inputs": [],
      "name": "name",
      "outputs": [
        {
          "internalType": "string",
          "name": "",
          "type": "string"
        }
      ],
      "stateMutability": "view",
      "type": "function"
    },
    {
      "inputs": [
        {
          "internalType": "address",
          "name": "_tCO2",
          "type": "address"
        },
        {
          "internalType": "uint256",
          "name": "_amountXCO2",
          "type": "uint256"
        },
        {
          "internalType": "string",
          "name": "_entity",
          "type": "string"
        },
        {
          "internalType": "address",
          "name": "_beneficiary",
          "type": "address"
        },
        {
          "internalType": "string",
          "name": "_beneficiaryName",
          "type": "string"
        },
        {
          "internalType": "string",
          "name": "_msg",
          "type": "string"
        }
      ],
      "name": "offsetX",
      "outputs": [],
      "stateMutability": "payable",
      "type": "function"
    },
    {
      "inputs": [],
      "name": "outbox",
      "outputs": [
        {
          "internalType": "address",
          "name": "",
          "type": "address"
        }
      ],
      "stateMutability": "view",
      "type": "function"
    },
    {
      "inputs": [],
      "name": "owner",
      "outputs": [
        {
          "internalType": "address",
          "name": "",
          "type": "address"
        }
      ],
      "stateMutability": "view",
      "type": "function"
    },
    {
      "inputs": [],
      "name": "renounceOwnership",
      "outputs": [],
      "stateMutability": "nonpayable",
      "type": "function"
    },
    {
      "inputs": [
        {
          "internalType": "address",
          "name": "_outbox",
          "type": "address"
        }
      ],
      "name": "setOutbox",
      "outputs": [],
      "stateMutability": "nonpayable",
      "type": "function"
    },
    {
      "inputs": [
        {
          "internalType": "address",
          "name": "_xUSDC",
          "type": "address"
        }
      ],
      "name": "setXUSDC",
      "outputs": [],
      "stateMutability": "nonpayable",
      "type": "function"
    },
    {
      "inputs": [],
      "name": "symbol",
      "outputs": [
        {
          "internalType": "string",
          "name": "",
          "type": "string"
        }
      ],
      "stateMutability": "view",
      "type": "function"
    },
    {
      "inputs": [
        {
          "internalType": "uint256",
          "name": "amount",
          "type": "uint256"
        }
      ],
      "name": "toUSD",
      "outputs": [
        {
          "internalType": "uint256",
          "name": "",
          "type": "uint256"
        }
      ],
      "stateMutability": "pure",
      "type": "function"
    },
    {
      "inputs": [],
      "name": "totalSupply",
      "outputs": [
        {
          "internalType": "uint256",
          "name": "",
          "type": "uint256"
        }
      ],
      "stateMutability": "view",
      "type": "function"
    },
    {
      "inputs": [
        {
          "internalType": "address",
          "name": "to",
          "type": "address"
        },
        {
          "internalType": "uint256",
          "name": "amount",
          "type": "uint256"
        }
      ],
      "name": "transfer",
      "outputs": [
        {
          "internalType": "bool",
          "name": "",
          "type": "bool"
        }
      ],
      "stateMutability": "nonpayable",
      "type": "function"
    },
    {
      "inputs": [
        {
          "internalType": "address",
          "name": "from",
          "type": "address"
        },
        {
          "internalType": "address",
          "name": "to",
          "type": "address"
        },
        {
          "internalType": "uint256",
          "name": "amount",
          "type": "uint256"
        }
      ],
      "name": "transferFrom",
      "outputs": [
        {
          "internalType": "bool",
          "name": "",
          "type": "bool"
        }
      ],
      "stateMutability": "nonpayable",
      "type": "function"
    },
    {
      "inputs": [
        {
          "internalType": "address",
          "name": "newOwner",
          "type": "address"
        }
      ],
      "name": "transferOwnership",
      "outputs": [],
      "stateMutability": "nonpayable",
      "type": "function"
    },
    {
      "inputs": [],
      "name": "withdrawFunds",
      "outputs": [],
      "stateMutability": "nonpayable",
      "type": "function"
    },
    {
      "inputs": [],
      "name": "withdrawFunds2",
      "outputs": [],
      "stateMutability": "nonpayable",
      "type": "function"
    },
    {
      "inputs": [],
      "name": "xUSDC",
      "outputs": [
        {
          "internalType": "address",
          "name": "",
          "type": "address"
        }
      ],
      "stateMutability": "view",
      "type": "function"
    }
  ],
  "bytecode": {
    "object": "0x608060405234801561001057600080fd5b50611a0f806100206000396000f3fe6080604052600436106101815760003560e01c80637f6e66b3116100d1578063a9059cbb1161008a578063dd62ed3e11610064578063dd62ed3e1461042f578063e40570271461044f578063f2fde38b1461046f578063ff204f3b1461048f57600080fd5b8063a9059cbb146103dc578063b587c21a146103fc578063ce11e6ab1461040f57600080fd5b80637f6e66b31461034b5780638da5cb5b1461036b57806394a74a371461038957806395d89b41146103a75780639d9969ed14610389578063a457c2d7146103bc57600080fd5b8063313ce5671161013e578063395093511161011857806339509351146102cb5780636bea906e146102eb57806370a0823114610300578063715018a61461033657600080fd5b8063313ce56714610257578063362925c21461027357806338d52e0f1461029357600080fd5b806306fdde0314610186578063095ea7b3146101b157806318160ddd146101e15780632016a0d21461020057806323b872dd1461022257806324600fc314610242575b600080fd5b34801561019257600080fd5b5061019b6104af565b6040516101a891906112b0565b60405180910390f35b3480156101bd57600080fd5b506101d16101cc3660046112e6565b610541565b60405190151581526020016101a8565b3480156101ed57600080fd5b506035545b6040519081526020016101a8565b34801561020c57600080fd5b5061022061021b3660046113b3565b61055b565b005b34801561022e57600080fd5b506101d161023d366004611438565b61066c565b34801561024e57600080fd5b50610220610690565b34801561026357600080fd5b50604051601281526020016101a8565b34801561027f57600080fd5b5061022061028e366004611474565b610781565b34801561029f57600080fd5b506099546102b3906001600160a01b031681565b6040516001600160a01b0390911681526020016101a8565b3480156102d757600080fd5b506101d16102e63660046112e6565b6108a5565b3480156102f757600080fd5b506102206108c7565b34801561030c57600080fd5b506101f261031b36600461150a565b6001600160a01b031660009081526033602052604090205490565b34801561034257600080fd5b50610220610909565b34801561035757600080fd5b5061022061036636600461150a565b61091d565b34801561037757600080fd5b506065546001600160a01b03166102b3565b34801561039557600080fd5b506101f26103a4366004611525565b90565b3480156103b357600080fd5b5061019b610947565b3480156103c857600080fd5b506101d16103d73660046112e6565b610956565b3480156103e857600080fd5b506101d16103f73660046112e6565b6109d1565b61022061040a366004611587565b6109df565b34801561041b57600080fd5b506097546102b3906001600160a01b031681565b34801561043b57600080fd5b506101f261044a366004611651565b610c23565b34801561045b57600080fd5b506098546102b3906001600160a01b031681565b34801561047b57600080fd5b5061022061048a36600461150a565b610c4e565b34801561049b57600080fd5b506102206104aa36600461150a565b610cc4565b6060603680546104be90611684565b80601f01602080910402602001604051908101604052809291908181526020018280546104ea90611684565b80156105375780601f1061050c57610100808354040283529160200191610537565b820191906000526020600020905b81548152906001019060200180831161051a57829003601f168201915b5050505050905090565b60003361054f818585610cee565b60019150505b92915050565b600054610100900460ff161580801561057b5750600054600160ff909116105b806105955750303b158015610595575060005460ff166001145b6105ba5760405162461bcd60e51b81526004016105b1906116bf565b60405180910390fd5b6000805460ff1916600117905580156105dd576000805461ff0019166101001790555b6105e5610e12565b609780546001600160a01b038088166001600160a01b031992831617909255609880549287169290911691909117905561061f8383610e41565b8015610665576000805461ff0019169055604051600181527f7f26b83ff96e1f2b6a682f133852f6798a09c465da95921460cefb38474024989060200160405180910390a15b5050505050565b60003361067a858285610e76565b610685858585610ef0565b506001949350505050565b61069861109b565b6099546040516370a0823160e01b81523060048201526001600160a01b039091169063a9059cbb90339083906370a08231906024015b602060405180830381865afa1580156106eb573d6000803e3d6000fd5b505050506040513d601f19601f8201168201806040525081019061070f919061170d565b6040516001600160e01b031960e085901b1681526001600160a01b03909216600483015260248201526044016020604051808303816000875af115801561075a573d6000803e3d6000fd5b505050506040513d601f19601f8201168201806040525081019061077e9190611726565b50565b600054610100900460ff16158080156107a15750600054600160ff909116105b806107bb5750303b1580156107bb575060005460ff166001145b6107d75760405162461bcd60e51b81526004016105b1906116bf565b6000805460ff1916600117905580156107fa576000805461ff0019166101001790555b610802610e12565b609780546001600160a01b038089166001600160a01b031992831617909255609880549288169290911691909117905561083c8484610e41565b609980546001600160a01b0319166001600160a01b038416179055801561089d576000805461ff0019169055604051600181527f7f26b83ff96e1f2b6a682f133852f6798a09c465da95921460cefb38474024989060200160405180910390a15b505050505050565b60003361054f8185856108b88383610c23565b6108c2919061175e565b610cee565b6108cf61109b565b6099546040516370a0823160e01b81523060048201526001600160a01b039091169063095ea7b390339083906370a08231906024016106ce565b61091161109b565b61091b60006110f5565b565b61092561109b565b609880546001600160a01b0319166001600160a01b0392909216919091179055565b6060603780546104be90611684565b600033816109648286610c23565b9050838110156109c45760405162461bcd60e51b815260206004820152602560248201527f45524332303a2064656372656173656420616c6c6f77616e63652062656c6f77604482015264207a65726f60d81b60648201526084016105b1565b6106858286868403610cee565b60003361054f818585610ef0565b6000886099546040516323b872dd60e01b8152336004820152306024820152604481018390529192506001600160a01b0316906323b872dd906064016020604051808303816000875af1158015610a3a573d6000803e3d6000fd5b505050506040513d601f19601f82011682018060405250810190610a5e9190611726565b506099546040805163313ce56760e01b815290516000926001600160a01b03169163313ce5679160048083019260209291908290030181865afa158015610aa9573d6000803e3d6000fd5b505050506040513d601f19601f82011682018060405250810190610acd9190611776565b610ad890600a61187d565b610ae58b620f424061188c565b610aef91906118ab565b9050609760009054906101000a90046001600160a01b03166001600160a01b031663fa31de0163706f6c79609860009054906101000a90046001600160a01b03166001600160a01b031660001b8e858e8e8e8e8e8e8e604051602001610b5d999897969594939291906118f6565b6040516020818303038152906040526040518463ffffffff1660e01b8152600401610b8a93929190611960565b6020604051808303816000875af1158015610ba9573d6000803e3d6000fd5b505050506040513d601f19601f82011682018060405250810190610bcd919061170d565b5060405163706f6c7981526001600160a01b03808916918c918e16907f917e03cbde5457cdbf299beea5ca8b2a8ac6b1e85030cf06275ec8ecb519c5fa9060200160405180910390a45050505050505050505050565b6001600160a01b03918216600090815260346020908152604080832093909416825291909152205490565b610c5661109b565b6001600160a01b038116610cbb5760405162461bcd60e51b815260206004820152602660248201527f4f776e61626c653a206e6577206f776e657220697320746865207a65726f206160448201526564647265737360d01b60648201526084016105b1565b61077e816110f5565b610ccc61109b565b609780546001600160a01b0319166001600160a01b0392909216919091179055565b6001600160a01b038316610d505760405162461bcd60e51b8152602060048201526024808201527f45524332303a20617070726f76652066726f6d20746865207a65726f206164646044820152637265737360e01b60648201526084016105b1565b6001600160a01b038216610db15760405162461bcd60e51b815260206004820152602260248201527f45524332303a20617070726f766520746f20746865207a65726f206164647265604482015261737360f01b60648201526084016105b1565b6001600160a01b0383811660008181526034602090815260408083209487168084529482529182902085905590518481527f8c5be1e5ebec7d5bd14f71427d1e84f3dd0314c0f7b2291e5b200ac8c7c3b925910160405180910390a3505050565b600054610100900460ff16610e395760405162461bcd60e51b81526004016105b19061198e565b61091b611147565b600054610100900460ff16610e685760405162461bcd60e51b81526004016105b19061198e565b610e728282611177565b5050565b6000610e828484610c23565b90506000198114610eea5781811015610edd5760405162461bcd60e51b815260206004820152601d60248201527f45524332303a20696e73756666696369656e7420616c6c6f77616e636500000060448201526064016105b1565b610eea8484848403610cee565b50505050565b6001600160a01b038316610f545760405162461bcd60e51b815260206004820152602560248201527f45524332303a207472616e736665722066726f6d20746865207a65726f206164604482015264647265737360d81b60648201526084016105b1565b6001600160a01b038216610fb65760405162461bcd60e51b815260206004820152602360248201527f45524332303a207472616e7366657220746f20746865207a65726f206164647260448201526265737360e81b60648201526084016105b1565b6001600160a01b0383166000908152603360205260409020548181101561102e5760405162461bcd60e51b815260206004820152602660248201527f45524332303a207472616e7366657220616d6f756e7420657863656564732062604482015265616c616e636560d01b60648201526084016105b1565b6001600160a01b0380851660008181526033602052604080822086860390559286168082529083902080548601905591517fddf252ad1be2c89b69c2b068fc378daa952ba7f163c4a11628f55a4df523b3ef9061108e9086815260200190565b60405180910390a3610eea565b6065546001600160a01b0316331461091b5760405162461bcd60e51b815260206004820181905260248201527f4f776e61626c653a2063616c6c6572206973206e6f7420746865206f776e657260448201526064016105b1565b606580546001600160a01b038381166001600160a01b0319831681179093556040519116919082907f8be0079c531659141344cd1fd0a4f28419497f9722a3daafe3b4186f6b6457e090600090a35050565b600054610100900460ff1661116e5760405162461bcd60e51b81526004016105b19061198e565b61091b336110f5565b600054610100900460ff1661119e5760405162461bcd60e51b81526004016105b19061198e565b81516111b19060369060208501906111ca565b5080516111c59060379060208401906111ca565b505050565b8280546111d690611684565b90600052602060002090601f0160209004810192826111f8576000855561123e565b82601f1061121157805160ff191683800117855561123e565b8280016001018555821561123e579182015b8281111561123e578251825591602001919060010190611223565b5061124a92915061124e565b5090565b5b8082111561124a576000815560010161124f565b6000815180845260005b818110156112895760208185018101518683018201520161126d565b8181111561129b576000602083870101525b50601f01601f19169290920160200192915050565b6020815260006112c36020830184611263565b9392505050565b80356001600160a01b03811681146112e157600080fd5b919050565b600080604083850312156112f957600080fd5b611302836112ca565b946020939093013593505050565b634e487b7160e01b600052604160045260246000fd5b600082601f83011261133757600080fd5b813567ffffffffffffffff8082111561135257611352611310565b604051601f8301601f19908116603f0116810190828211818310171561137a5761137a611310565b8160405283815286602085880101111561139357600080fd5b836020870160208301376000602085830101528094505050505092915050565b600080600080608085870312156113c957600080fd5b6113d2856112ca565b93506113e0602086016112ca565b9250604085013567ffffffffffffffff808211156113fd57600080fd5b61140988838901611326565b9350606087013591508082111561141f57600080fd5b5061142c87828801611326565b91505092959194509250565b60008060006060848603121561144d57600080fd5b611456846112ca565b9250611464602085016112ca565b9150604084013590509250925092565b600080600080600060a0868803121561148c57600080fd5b611495866112ca565b94506114a3602087016112ca565b9350604086013567ffffffffffffffff808211156114c057600080fd5b6114cc89838a01611326565b945060608801359150808211156114e257600080fd5b506114ef88828901611326565b9250506114fe608087016112ca565b90509295509295909350565b60006020828403121561151c57600080fd5b6112c3826112ca565b60006020828403121561153757600080fd5b5035919050565b60008083601f84011261155057600080fd5b50813567ffffffffffffffff81111561156857600080fd5b60208301915083602082850101111561158057600080fd5b9250929050565b600080600080600080600080600060c08a8c0312156115a557600080fd5b6115ae8a6112ca565b985060208a0135975060408a013567ffffffffffffffff808211156115d257600080fd5b6115de8d838e0161153e565b90995097508791506115f260608d016112ca565b965060808c013591508082111561160857600080fd5b6116148d838e0161153e565b909650945060a08c013591508082111561162d57600080fd5b5061163a8c828d0161153e565b915080935050809150509295985092959850929598565b6000806040838503121561166457600080fd5b61166d836112ca565b915061167b602084016112ca565b90509250929050565b600181811c9082168061169857607f821691505b602082108114156116b957634e487b7160e01b600052602260045260246000fd5b50919050565b6020808252602e908201527f496e697469616c697a61626c653a20636f6e747261637420697320616c72656160408201526d191e481a5b9a5d1a585b1a5e995960921b606082015260800190565b60006020828403121561171f57600080fd5b5051919050565b60006020828403121561173857600080fd5b815180151581146112c357600080fd5b634e487b7160e01b600052601160045260246000fd5b6000821982111561177157611771611748565b500190565b60006020828403121561178857600080fd5b815160ff811681146112c357600080fd5b600181815b808511156117d45781600019048211156117ba576117ba611748565b808516156117c757918102915b93841c939080029061179e565b509250929050565b6000826117eb57506001610555565b816117f857506000610555565b816001811461180e576002811461181857611834565b6001915050610555565b60ff84111561182957611829611748565b50506001821b610555565b5060208310610133831016604e8410600b8410161715611857575081810a610555565b6118618383611799565b806000190482111561187557611875611748565b029392505050565b60006112c360ff8416836117dc565b60008160001904831182151516156118a6576118a6611748565b500290565b6000826118c857634e487b7160e01b600052601260045260246000fd5b500490565b81835281816020850137506000828201602090810191909152601f909101601f19169091010190565b600060018060a01b03808c1683528a602084015260c0604084015261191f60c084018a8c6118cd565b8189166060850152838103608085015261193a81888a6118cd565b91505082810360a08401526119508185876118cd565b9c9b505050505050505050505050565b63ffffffff841681528260208201526060604082015260006119856060830184611263565b95945050505050565b6020808252602b908201527f496e697469616c697a61626c653a20636f6e7472616374206973206e6f74206960408201526a6e697469616c697a696e6760a81b60608201526080019056fea26469706673582212206891b1723f11fcfbdeb2ca326242bfecda4f4cd5a1b71831b24c903fd266690664736f6c634300080b0033",
    "linkReferences": {}
  },
  "methodIdentifiers": {
    "allowance(address,address)": "dd62ed3e",
    "approve(address,uint256)": "095ea7b3",
    "asset()": "38d52e0f",
    "balanceOf(address)": "70a08231",
    "decimals()": "313ce567",
    "decreaseAllowance(address,uint256)": "a457c2d7",
    "fromUSD(uint256)": "94a74a37",
    "increaseAllowance(address,uint256)": "39509351",
    "initialize(address,address,string,string)": "2016a0d2",
    "initialize(address,address,string,string,address)": "362925c2",
    "name()": "06fdde03",
    "offsetX(address,uint256,string,address,string,string)": "b587c21a",
    "outbox()": "ce11e6ab",
    "owner()": "8da5cb5b",
    "renounceOwnership()": "715018a6",
    "setOutbox(address)": "ff204f3b",
    "setXUSDC(address)": "7f6e66b3",
    "symbol()": "95d89b41",
    "toUSD(uint256)": "9d9969ed",
    "totalSupply()": "18160ddd",
    "transfer(address,uint256)": "a9059cbb",
    "transferFrom(address,address,uint256)": "23b872dd",
    "transferOwnership(address)": "f2fde38b",
    "withdrawFunds()": "24600fc3",
    "withdrawFunds2()": "6bea906e",
    "xUSDC()": "e4057027"
  },
  "id": 58
}