{
  "abi": [
    {
      "anonymous": false,
      "inputs": [
        {
          "indexed": true,
          "internalType": "address",
          "name": "abacusConnectionManager",
          "type": "address"
        }
      ],
      "name": "AbacusConnectionManagerSet",
      "type": "event"
    },
    {
      "anonymous": false,
      "inputs": [
        {
          "indexed": true,
          "internalType": "address",
          "name": "owner",
          "type": "address"
        },
        {
          "indexed": true,
          "internalType": "address",
          "name": "spender",
          "type": "address"
        },
        {
          "indexed": false,
          "internalType": "uint256",
          "name": "value",
          "type": "uint256"
        }
      ],
      "name": "Approval",
      "type": "event"
    },
    {
      "anonymous": false,
      "inputs": [
        {
          "indexed": false,
          "internalType": "uint8",
          "name": "version",
          "type": "uint8"
        }
      ],
      "name": "Initialized",
      "type": "event"
    },
    {
      "anonymous": false,
      "inputs": [
        {
          "indexed": true,
          "internalType": "address",
          "name": "interchainGasPaymaster",
          "type": "address"
        }
      ],
      "name": "InterchainGasPaymasterSet",
      "type": "event"
    },
    {
      "anonymous": false,
      "inputs": [
        {
          "indexed": true,
          "internalType": "address",
          "name": "previousOwner",
          "type": "address"
        },
        {
          "indexed": true,
          "internalType": "address",
          "name": "newOwner",
          "type": "address"
        }
      ],
      "name": "OwnershipTransferred",
      "type": "event"
    },
    {
      "anonymous": false,
      "inputs": [
        {
          "indexed": true,
          "internalType": "uint32",
          "name": "origin",
          "type": "uint32"
        },
        {
          "indexed": true,
          "internalType": "address",
          "name": "recipient",
          "type": "address"
        },
        {
          "indexed": false,
          "internalType": "uint256",
          "name": "amount",
          "type": "uint256"
        }
      ],
      "name": "ReceivedTransferRemote",
      "type": "event"
    },
    {
      "anonymous": false,
      "inputs": [
        {
          "indexed": true,
          "internalType": "uint32",
          "name": "domain",
          "type": "uint32"
        },
        {
          "indexed": true,
          "internalType": "bytes32",
          "name": "router",
          "type": "bytes32"
        }
      ],
      "name": "RemoteRouterEnrolled",
      "type": "event"
    },
    {
      "anonymous": false,
      "inputs": [
        {
          "indexed": true,
          "internalType": "uint32",
          "name": "destination",
          "type": "uint32"
        },
        {
          "indexed": true,
          "internalType": "address",
          "name": "recipient",
          "type": "address"
        },
        {
          "indexed": false,
          "internalType": "uint256",
          "name": "amount",
          "type": "uint256"
        }
      ],
      "name": "SentTransferRemote",
      "type": "event"
    },
    {
      "anonymous": false,
      "inputs": [
        {
          "indexed": true,
          "internalType": "address",
          "name": "from",
          "type": "address"
        },
        {
          "indexed": true,
          "internalType": "address",
          "name": "to",
          "type": "address"
        },
        {
          "indexed": false,
          "internalType": "uint256",
          "name": "value",
          "type": "uint256"
        }
      ],
      "name": "Transfer",
      "type": "event"
    },
    {
      "inputs": [],
      "name": "abacusConnectionManager",
      "outputs": [
        {
          "internalType": "contract IAbacusConnectionManager",
          "name": "",
          "type": "address"
        }
      ],
      "stateMutability": "view",
      "type": "function"
    },
    {
      "inputs": [
        {
          "internalType": "address",
          "name": "owner",
          "type": "address"
        },
        {
          "internalType": "address",
          "name": "spender",
          "type": "address"
        }
      ],
      "name": "allowance",
      "outputs": [
        {
          "internalType": "uint256",
          "name": "",
          "type": "uint256"
        }
      ],
      "stateMutability": "view",
      "type": "function"
    },
    {
      "inputs": [
        {
          "internalType": "address",
          "name": "spender",
          "type": "address"
        },
        {
          "internalType": "uint256",
          "name": "amount",
          "type": "uint256"
        }
      ],
      "name": "approve",
      "outputs": [
        {
          "internalType": "bool",
          "name": "",
          "type": "bool"
        }
      ],
      "stateMutability": "nonpayable",
      "type": "function"
    },
    {
      "inputs": [],
      "name": "asset",
      "outputs": [
        {
          "internalType": "contract ERC20Upgradeable",
          "name": "",
          "type": "address"
        }
      ],
      "stateMutability": "view",
      "type": "function"
    },
    {
      "inputs": [
        {
          "internalType": "address",
          "name": "account",
          "type": "address"
        }
      ],
      "name": "balanceOf",
      "outputs": [
        {
          "internalType": "uint256",
          "name": "",
          "type": "uint256"
        }
      ],
      "stateMutability": "view",
      "type": "function"
    },
    {
      "inputs": [],
      "name": "decimals",
      "outputs": [
        {
          "internalType": "uint8",
          "name": "",
          "type": "uint8"
        }
      ],
      "stateMutability": "view",
      "type": "function"
    },
    {
      "inputs": [
        {
          "internalType": "address",
          "name": "spender",
          "type": "address"
        },
        {
          "internalType": "uint256",
          "name": "subtractedValue",
          "type": "uint256"
        }
      ],
      "name": "decreaseAllowance",
      "outputs": [
        {
          "internalType": "bool",
          "name": "",
          "type": "bool"
        }
      ],
      "stateMutability": "nonpayable",
      "type": "function"
    },
    {
      "inputs": [
        {
          "internalType": "uint256",
          "name": "_amount",
          "type": "uint256"
        }
      ],
      "name": "deposit",
      "outputs": [],
      "stateMutability": "nonpayable",
      "type": "function"
    },
    {
      "inputs": [
        {
          "internalType": "address",
          "name": "_receiver",
          "type": "address"
        },
        {
          "internalType": "uint256",
          "name": "_amount",
          "type": "uint256"
        }
      ],
      "name": "depositFor",
      "outputs": [],
      "stateMutability": "nonpayable",
      "type": "function"
    },
    {
      "inputs": [
        {
          "internalType": "uint32",
          "name": "_domain",
          "type": "uint32"
        },
        {
          "internalType": "bytes32",
          "name": "_router",
          "type": "bytes32"
        }
      ],
      "name": "enrollRemoteRouter",
      "outputs": [],
      "stateMutability": "nonpayable",
      "type": "function"
    },
    {
      "inputs": [
        {
          "internalType": "uint32",
          "name": "_origin",
          "type": "uint32"
        },
        {
          "internalType": "bytes32",
          "name": "_sender",
          "type": "bytes32"
        },
        {
          "internalType": "bytes",
          "name": "_message",
          "type": "bytes"
        }
      ],
      "name": "handle",
      "outputs": [],
      "stateMutability": "nonpayable",
      "type": "function"
    },
    {
      "inputs": [
        {
          "internalType": "address",
          "name": "spender",
          "type": "address"
        },
        {
          "internalType": "uint256",
          "name": "addedValue",
          "type": "uint256"
        }
      ],
      "name": "increaseAllowance",
      "outputs": [
        {
          "internalType": "bool",
          "name": "",
          "type": "bool"
        }
      ],
      "stateMutability": "nonpayable",
      "type": "function"
    },
    {
      "inputs": [
        {
          "internalType": "address",
          "name": "_abacusConnectionManager",
          "type": "address"
        },
        {
          "internalType": "address",
          "name": "_interchainGasPaymaster",
          "type": "address"
        },
        {
          "internalType": "string",
          "name": "_name",
          "type": "string"
        },
        {
          "internalType": "string",
          "name": "_symbol",
          "type": "string"
        }
      ],
      "name": "initialize",
      "outputs": [],
      "stateMutability": "nonpayable",
      "type": "function"
    },
    {
      "inputs": [
        {
          "internalType": "address",
          "name": "_abacusConnectionManager",
          "type": "address"
        },
        {
          "internalType": "address",
          "name": "_interchainGasPaymaster",
          "type": "address"
        },
        {
          "internalType": "string",
          "name": "_name",
          "type": "string"
        },
        {
          "internalType": "string",
          "name": "_symbol",
          "type": "string"
        },
        {
          "internalType": "address",
          "name": "_asset",
          "type": "address"
        }
      ],
      "name": "initialize",
      "outputs": [],
      "stateMutability": "nonpayable",
      "type": "function"
    },
    {
      "inputs": [],
      "name": "interchainGasPaymaster",
      "outputs": [
        {
          "internalType": "contract IInterchainGasPaymaster",
          "name": "",
          "type": "address"
        }
      ],
      "stateMutability": "view",
      "type": "function"
    },
    {
      "inputs": [],
      "name": "name",
      "outputs": [
        {
          "internalType": "string",
          "name": "",
          "type": "string"
        }
      ],
      "stateMutability": "view",
      "type": "function"
    },
    {
      "inputs": [],
      "name": "owner",
      "outputs": [
        {
          "internalType": "address",
          "name": "",
          "type": "address"
        }
      ],
      "stateMutability": "view",
      "type": "function"
    },
    {
      "inputs": [],
      "name": "renounceOwnership",
      "outputs": [],
      "stateMutability": "nonpayable",
      "type": "function"
    },
    {
      "inputs": [
        {
          "internalType": "uint32",
          "name": "",
          "type": "uint32"
        }
      ],
      "name": "routers",
      "outputs": [
        {
          "internalType": "bytes32",
          "name": "",
          "type": "bytes32"
        }
      ],
      "stateMutability": "view",
      "type": "function"
    },
    {
      "inputs": [
        {
          "internalType": "address",
          "name": "_abacusConnectionManager",
          "type": "address"
        }
      ],
      "name": "setAbacusConnectionManager",
      "outputs": [],
      "stateMutability": "nonpayable",
      "type": "function"
    },
    {
      "inputs": [
        {
          "internalType": "address",
          "name": "_interchainGasPaymaster",
          "type": "address"
        }
      ],
      "name": "setInterchainGasPaymaster",
      "outputs": [],
      "stateMutability": "nonpayable",
      "type": "function"
    },
    {
      "inputs": [],
      "name": "symbol",
      "outputs": [
        {
          "internalType": "string",
          "name": "",
          "type": "string"
        }
      ],
      "stateMutability": "view",
      "type": "function"
    },
    {
      "inputs": [
        {
          "internalType": "uint256",
          "name": "amount",
          "type": "uint256"
        }
      ],
      "name": "toUSD",
      "outputs": [
        {
          "internalType": "uint256",
          "name": "",
          "type": "uint256"
        }
      ],
      "stateMutability": "view",
      "type": "function"
    },
    {
      "inputs": [],
      "name": "totalSupply",
      "outputs": [
        {
          "internalType": "uint256",
          "name": "",
          "type": "uint256"
        }
      ],
      "stateMutability": "view",
      "type": "function"
    },
    {
      "inputs": [
        {
          "internalType": "address",
          "name": "to",
          "type": "address"
        },
        {
          "internalType": "uint256",
          "name": "amount",
          "type": "uint256"
        }
      ],
      "name": "transfer",
      "outputs": [
        {
          "internalType": "bool",
          "name": "",
          "type": "bool"
        }
      ],
      "stateMutability": "nonpayable",
      "type": "function"
    },
    {
      "inputs": [
        {
          "internalType": "address",
          "name": "from",
          "type": "address"
        },
        {
          "internalType": "address",
          "name": "to",
          "type": "address"
        },
        {
          "internalType": "uint256",
          "name": "amount",
          "type": "uint256"
        }
      ],
      "name": "transferFrom",
      "outputs": [
        {
          "internalType": "bool",
          "name": "",
          "type": "bool"
        }
      ],
      "stateMutability": "nonpayable",
      "type": "function"
    },
    {
      "inputs": [
        {
          "internalType": "address",
          "name": "newOwner",
          "type": "address"
        }
      ],
      "name": "transferOwnership",
      "outputs": [],
      "stateMutability": "nonpayable",
      "type": "function"
    },
    {
      "inputs": [
        {
          "internalType": "uint32",
          "name": "_destination",
          "type": "uint32"
        },
        {
          "internalType": "address",
          "name": "_recipient",
          "type": "address"
        },
        {
          "internalType": "uint256",
          "name": "_amount",
          "type": "uint256"
        }
      ],
      "name": "transferRemote",
      "outputs": [],
      "stateMutability": "payable",
      "type": "function"
    },
    {
      "inputs": [
        {
          "internalType": "uint256",
          "name": "amount",
          "type": "uint256"
        }
      ],
      "name": "withdraw",
      "outputs": [],
      "stateMutability": "payable",
      "type": "function"
    },
    {
      "inputs": [
        {
          "internalType": "uint256",
          "name": "_amount",
          "type": "uint256"
        },
        {
          "internalType": "address",
          "name": "_receiver",
          "type": "address"
        }
      ],
      "name": "withdrawFor",
      "outputs": [],
      "stateMutability": "payable",
      "type": "function"
    }
  ],
  "bytecode": {
    "object": "0x608060405234801561001057600080fd5b50611d49806100206000396000f3fe6080604052600436106101cd5760003560e01c806356d5d475116100f75780639d9969ed11610095578063b6b55f2511610064578063b6b55f2514610524578063dd62ed3e14610544578063f1bd6f0a14610564578063f2fde38b1461058457600080fd5b80639d9969ed146104a6578063a457c2d7146104c4578063a9059cbb146104e4578063b49c53a71461050457600080fd5b806389534266116100d157806389534266146104405780638da5cb5b1461045357806395d89b41146104715780639a35c3591461048657600080fd5b806356d5d475146103d557806370a08231146103f5578063715018a61461042b57600080fd5b80632ead72f61161016f578063362925c21161013e578063362925c21461033d57806338d52e0f1461035d578063395093511461039557806339bb4ad9146103b557600080fd5b80632ead72f6146102c15780632f4f21e2146102ee578063313ce5671461030e5780633576f6cc1461032a57600080fd5b806318160ddd116101ab57806318160ddd1461024f5780632016a0d21461026e57806323b872dd1461028e5780632e1a7d4d146102ae57600080fd5b806306fdde03146101d2578063095ea7b3146101fd57806312b1d7801461022d575b600080fd5b3480156101de57600080fd5b506101e76105a4565b6040516101f49190611742565b60405180910390f35b34801561020957600080fd5b5061021d610218366004611771565b610636565b60405190151581526020016101f4565b34801561023957600080fd5b5061024d61024836600461179d565b61064e565b005b34801561025b57600080fd5b5060cb545b6040519081526020016101f4565b34801561027a57600080fd5b5061024d61028936600461185d565b610662565b34801561029a57600080fd5b5061021d6102a93660046118e6565b610731565b61024d6102bc366004611927565b610755565b3480156102cd57600080fd5b506102606102dc366004611959565b60976020526000908152604090205481565b3480156102fa57600080fd5b5061024d610309366004611771565b61075f565b34801561031a57600080fd5b50604051601281526020016101f4565b61024d610338366004611974565b6107eb565b34801561034957600080fd5b5061024d6103583660046119a4565b610871565b34801561036957600080fd5b5060fb5461037d906001600160a01b031681565b6040516001600160a01b0390911681526020016101f4565b3480156103a157600080fd5b5061021d6103b0366004611771565b610978565b3480156103c157600080fd5b5060665461037d906001600160a01b031681565b3480156103e157600080fd5b5061024d6103f0366004611a42565b61099a565b34801561040157600080fd5b5061026061041036600461179d565b6001600160a01b0316600090815260c9602052604090205490565b34801561043757600080fd5b5061024d610a38565b61024d61044e366004611ac9565b610a4c565b34801561045f57600080fd5b506033546001600160a01b031661037d565b34801561047d57600080fd5b506101e7610adc565b34801561049257600080fd5b5060655461037d906001600160a01b031681565b3480156104b257600080fd5b506102606104c1366004611927565b90565b3480156104d057600080fd5b5061021d6104df366004611771565b610aeb565b3480156104f057600080fd5b5061021d6104ff366004611771565b610b66565b34801561051057600080fd5b5061024d61051f366004611ae7565b610b74565b34801561053057600080fd5b5061024d61053f366004611927565b610b86565b34801561055057600080fd5b5061026061055f366004611b03565b610b90565b34801561057057600080fd5b5061024d61057f36600461179d565b610bbb565b34801561059057600080fd5b5061024d61059f36600461179d565b610bcc565b606060cc80546105b390611b31565b80601f01602080910402602001604051908101604052809291908181526020018280546105df90611b31565b801561062c5780601f106106015761010080835404028352916020019161062c565b820191906000526020600020905b81548152906001019060200180831161060f57829003601f168201915b5050505050905090565b600033610644818585610c42565b5060019392505050565b610656610d5e565b61065f81610db8565b50565b600054610100900460ff16158080156106825750600054600160ff909116105b8061069c5750303b15801561069c575060005460ff166001145b6106c15760405162461bcd60e51b81526004016106b890611b66565b60405180910390fd5b6000805460ff1916600117905580156106e4576000805461ff0019166101001790555b801561072a576000805461ff0019169055604051600181527f7f26b83ff96e1f2b6a682f133852f6798a09c465da95921460cefb38474024989060200160405180910390a15b5050505050565b60003361073f858285610e02565b61074a858585610e7c565b506001949350505050565b61065f81336107eb565b60fb546040516323b872dd60e01b81523360048201526001600160a01b03848116602483015260448201849052909116906323b872dd906064016020604051808303816000875af11580156107b8573d6000803e3d6000fd5b505050506040513d601f19601f820116820180604052508101906107dc9190611bb4565b506107e78282611027565b5050565b6107f533836110e8565b60fb5460405163a9059cbb60e01b81526001600160a01b038381166004830152602482018590529091169063a9059cbb906044016020604051808303816000875af1158015610848573d6000803e3d6000fd5b505050506040513d601f19601f8201168201806040525081019061086c9190611bb4565b505050565b600054610100900460ff16158080156108915750600054600160ff909116105b806108ab5750303b1580156108ab575060005460ff166001145b6108c75760405162461bcd60e51b81526004016106b890611b66565b6000805460ff1916600117905580156108ea576000805461ff0019166101001790555b6108f33361121c565b6108fc86610db8565b6109058561126e565b61090f84846112b8565b60fb80546001600160a01b0319166001600160a01b0384161790558015610970576000805461ff0019169055604051600181527f7f26b83ff96e1f2b6a682f133852f6798a09c465da95921460cefb38474024989060200160405180910390a15b505050505050565b60003361064481858561098b8383610b90565b6109959190611bd6565b610c42565b6109a3336112e9565b6109d85760405162461bcd60e51b8152602060048201526006602482015265042d2dcc4def60d31b60448201526064016106b8565b63ffffffff8416600090815260976020526040902054849084908114604051806080016040528060438152602001611cd16043913990610a2b5760405162461bcd60e51b81526004016106b89190611742565b506109708686868661135e565b610a40610d5e565b610a4a600061121c565b565b610a5633826110e8565b604080516001600160a01b0384166020820152908101829052610a8d908490606001604051602081830303815290604052346113d4565b816001600160a01b03168363ffffffff167fae92e7b61f5cd8ffaad4ff9640d1603475365f121d65769540809f899cc9cfa383604051610acf91815260200190565b60405180910390a3505050565b606060cd80546105b390611b31565b60003381610af98286610b90565b905083811015610b595760405162461bcd60e51b815260206004820152602560248201527f45524332303a2064656372656173656420616c6c6f77616e63652062656c6f77604482015264207a65726f60d81b60648201526084016106b8565b61074a8286868403610c42565b600033610644818585610e7c565b610b7c610d5e565b6107e78282611470565b61065f338261075f565b6001600160a01b03918216600090815260ca6020908152604080832093909416825291909152205490565b610bc3610d5e565b61065f8161126e565b610bd4610d5e565b6001600160a01b038116610c395760405162461bcd60e51b815260206004820152602660248201527f4f776e61626c653a206e6577206f776e657220697320746865207a65726f206160448201526564647265737360d01b60648201526084016106b8565b61065f8161121c565b6001600160a01b038316610ca45760405162461bcd60e51b8152602060048201526024808201527f45524332303a20617070726f76652066726f6d20746865207a65726f206164646044820152637265737360e01b60648201526084016106b8565b6001600160a01b038216610d055760405162461bcd60e51b815260206004820152602260248201527f45524332303a20617070726f766520746f20746865207a65726f206164647265604482015261737360f01b60648201526084016106b8565b6001600160a01b03838116600081815260ca602090815260408083209487168084529482529182902085905590518481527f8c5be1e5ebec7d5bd14f71427d1e84f3dd0314c0f7b2291e5b200ac8c7c3b9259101610acf565b6033546001600160a01b03163314610a4a5760405162461bcd60e51b815260206004820181905260248201527f4f776e61626c653a2063616c6c6572206973206e6f7420746865206f776e657260448201526064016106b8565b606580546001600160a01b0319166001600160a01b0383169081179091556040517f7c10de8878ed89478ff01b9cd8c11a5271ea8ac91d46f662e6aea7e3adf5b11f90600090a250565b6000610e0e8484610b90565b90506000198114610e765781811015610e695760405162461bcd60e51b815260206004820152601d60248201527f45524332303a20696e73756666696369656e7420616c6c6f77616e636500000060448201526064016106b8565b610e768484848403610c42565b50505050565b6001600160a01b038316610ee05760405162461bcd60e51b815260206004820152602560248201527f45524332303a207472616e736665722066726f6d20746865207a65726f206164604482015264647265737360d81b60648201526084016106b8565b6001600160a01b038216610f425760405162461bcd60e51b815260206004820152602360248201527f45524332303a207472616e7366657220746f20746865207a65726f206164647260448201526265737360e81b60648201526084016106b8565b6001600160a01b038316600090815260c9602052604090205481811015610fba5760405162461bcd60e51b815260206004820152602660248201527f45524332303a207472616e7366657220616d6f756e7420657863656564732062604482015265616c616e636560d01b60648201526084016106b8565b6001600160a01b03808516600081815260c9602052604080822086860390559286168082529083902080548601905591517fddf252ad1be2c89b69c2b068fc378daa952ba7f163c4a11628f55a4df523b3ef9061101a9086815260200190565b60405180910390a3610e76565b6001600160a01b03821661107d5760405162461bcd60e51b815260206004820152601f60248201527f45524332303a206d696e7420746f20746865207a65726f20616464726573730060448201526064016106b8565b8060cb600082825461108f9190611bd6565b90915550506001600160a01b038216600081815260c960209081526040808320805486019055518481527fddf252ad1be2c89b69c2b068fc378daa952ba7f163c4a11628f55a4df523b3ef910160405180910390a35050565b6001600160a01b0382166111485760405162461bcd60e51b815260206004820152602160248201527f45524332303a206275726e2066726f6d20746865207a65726f206164647265736044820152607360f81b60648201526084016106b8565b6001600160a01b038216600090815260c96020526040902054818110156111bc5760405162461bcd60e51b815260206004820152602260248201527f45524332303a206275726e20616d6f756e7420657863656564732062616c616e604482015261636560f01b60648201526084016106b8565b6001600160a01b038316600081815260c960209081526040808320868603905560cb80548790039055518581529192917fddf252ad1be2c89b69c2b068fc378daa952ba7f163c4a11628f55a4df523b3ef910160405180910390a3505050565b603380546001600160a01b038381166001600160a01b0319831681179093556040519116919082907f8be0079c531659141344cd1fd0a4f28419497f9722a3daafe3b4186f6b6457e090600090a35050565b606680546001600160a01b0319166001600160a01b0383169081179091556040517fb87f5a0bface22cde699143559fb99f990ae54eea236995fc54178af91af859f90600090a250565b600054610100900460ff166112df5760405162461bcd60e51b81526004016106b890611bfc565b6107e782826114b4565b60655460405163282f51eb60e01b81526001600160a01b038381166004830152600092169063282f51eb90602401602060405180830381865afa158015611334573d6000803e3d6000fd5b505050506040513d601f19601f820116820180604052508101906113589190611bb4565b92915050565b600080828060200190518101906113759190611c47565b915091506113838282611027565b816001600160a01b03168563ffffffff167f10ddaf91e64becb789db2ea1bd076c9e7973123803661fb528d320202698c0fe836040516113c591815260200190565b60405180910390a35050505050565b60006113de611502565b905060006113ed828686611575565b9050821561072a576066546040516352b81e4760e11b81526001600160a01b0384811660048301526024820184905263ffffffff881660448301529091169063a5703c8e9085906064016000604051808303818588803b15801561145057600080fd5b505af1158015611464573d6000803e3d6000fd5b50505050505050505050565b63ffffffff8216600081815260976020526040808220849055518392917f97fd51fef1f80c854cbd0150c248e8b2ac4ecdc97cc05e742b5f61c9f4dc645891a35050565b600054610100900460ff166114db5760405162461bcd60e51b81526004016106b890611bfc565b81516114ee9060cc90602085019061165c565b50805161086c9060cd90602084019061165c565b6065546040805163ce11e6ab60e01b815290516000926001600160a01b03169163ce11e6ab9160048083019260209291908290030181865afa15801561154c573d6000803e3d6000fd5b505050506040513d601f19601f820116820180604052508101906115709190611c75565b905090565b60008061158184611600565b60405163fa31de0160e01b81529091506001600160a01b0386169063fa31de01906115b490879085908890600401611c92565b6020604051808303816000875af11580156115d3573d6000803e3d6000fd5b505050506040513d601f19601f820116820180604052508101906115f79190611cb7565b95945050505050565b63ffffffff8116600090815260976020908152604091829020548251608081019093526043808452909283151592909190611cd190830139906116565760405162461bcd60e51b81526004016106b89190611742565b50919050565b82805461166890611b31565b90600052602060002090601f01602090048101928261168a57600085556116d0565b82601f106116a357805160ff19168380011785556116d0565b828001600101855582156116d0579182015b828111156116d05782518255916020019190600101906116b5565b506116dc9291506116e0565b5090565b5b808211156116dc57600081556001016116e1565b6000815180845260005b8181101561171b576020818501810151868301820152016116ff565b8181111561172d576000602083870101525b50601f01601f19169290920160200192915050565b60208152600061175560208301846116f5565b9392505050565b6001600160a01b038116811461065f57600080fd5b6000806040838503121561178457600080fd5b823561178f8161175c565b946020939093013593505050565b6000602082840312156117af57600080fd5b81356117558161175c565b634e487b7160e01b600052604160045260246000fd5b600082601f8301126117e157600080fd5b813567ffffffffffffffff808211156117fc576117fc6117ba565b604051601f8301601f19908116603f01168101908282118183101715611824576118246117ba565b8160405283815286602085880101111561183d57600080fd5b836020870160208301376000602085830101528094505050505092915050565b6000806000806080858703121561187357600080fd5b843561187e8161175c565b9350602085013561188e8161175c565b9250604085013567ffffffffffffffff808211156118ab57600080fd5b6118b7888389016117d0565b935060608701359150808211156118cd57600080fd5b506118da878288016117d0565b91505092959194509250565b6000806000606084860312156118fb57600080fd5b83356119068161175c565b925060208401356119168161175c565b929592945050506040919091013590565b60006020828403121561193957600080fd5b5035919050565b803563ffffffff8116811461195457600080fd5b919050565b60006020828403121561196b57600080fd5b61175582611940565b6000806040838503121561198757600080fd5b8235915060208301356119998161175c565b809150509250929050565b600080600080600060a086880312156119bc57600080fd5b85356119c78161175c565b945060208601356119d78161175c565b9350604086013567ffffffffffffffff808211156119f457600080fd5b611a0089838a016117d0565b94506060880135915080821115611a1657600080fd5b50611a23888289016117d0565b9250506080860135611a348161175c565b809150509295509295909350565b60008060008060608587031215611a5857600080fd5b611a6185611940565b935060208501359250604085013567ffffffffffffffff80821115611a8557600080fd5b818701915087601f830112611a9957600080fd5b813581811115611aa857600080fd5b886020828501011115611aba57600080fd5b95989497505060200194505050565b600080600060608486031215611ade57600080fd5b61190684611940565b60008060408385031215611afa57600080fd5b61178f83611940565b60008060408385031215611b1657600080fd5b8235611b218161175c565b915060208301356119998161175c565b600181811c90821680611b4557607f821691505b6020821081141561165657634e487b7160e01b600052602260045260246000fd5b6020808252602e908201527f496e697469616c697a61626c653a20636f6e747261637420697320616c72656160408201526d191e481a5b9a5d1a585b1a5e995960921b606082015260800190565b600060208284031215611bc657600080fd5b8151801515811461175557600080fd5b60008219821115611bf757634e487b7160e01b600052601160045260246000fd5b500190565b6020808252602b908201527f496e697469616c697a61626c653a20636f6e7472616374206973206e6f74206960408201526a6e697469616c697a696e6760a81b606082015260800190565b60008060408385031215611c5a57600080fd5b8251611c658161175c565b6020939093015192949293505050565b600060208284031215611c8757600080fd5b81516117558161175c565b63ffffffff841681528260208201526060604082015260006115f760608301846116f5565b600060208284031215611cc957600080fd5b505191905056fe4e6f20726f7574657220656e726f6c6c656420666f7220646f6d61696e2e2044696420796f7520737065636966792074686520726967687420646f6d61696e2049443fa2646970667358221220b50b682c3b9ecbaf8215dac1c64210c55d5a6f9bbb2090fcbed2d89c43f1b6ae64736f6c634300080b0033",
    "linkReferences": {}
  },
  "methodIdentifiers": {
    "abacusConnectionManager()": "9a35c359",
    "allowance(address,address)": "dd62ed3e",
    "approve(address,uint256)": "095ea7b3",
    "asset()": "38d52e0f",
    "balanceOf(address)": "70a08231",
    "decimals()": "313ce567",
    "decreaseAllowance(address,uint256)": "a457c2d7",
    "deposit(uint256)": "b6b55f25",
    "depositFor(address,uint256)": "2f4f21e2",
    "enrollRemoteRouter(uint32,bytes32)": "b49c53a7",
    "handle(uint32,bytes32,bytes)": "56d5d475",
    "increaseAllowance(address,uint256)": "39509351",
    "initialize(address,address,string,string)": "2016a0d2",
    "initialize(address,address,string,string,address)": "362925c2",
    "interchainGasPaymaster()": "39bb4ad9",
    "name()": "06fdde03",
    "owner()": "8da5cb5b",
    "renounceOwnership()": "715018a6",
    "routers(uint32)": "2ead72f6",
    "setAbacusConnectionManager(address)": "12b1d780",
    "setInterchainGasPaymaster(address)": "f1bd6f0a",
    "symbol()": "95d89b41",
    "toUSD(uint256)": "9d9969ed",
    "totalSupply()": "18160ddd",
    "transfer(address,uint256)": "a9059cbb",
    "transferFrom(address,address,uint256)": "23b872dd",
    "transferOwnership(address)": "f2fde38b",
    "transferRemote(uint32,address,uint256)": "89534266",
    "withdraw(uint256)": "2e1a7d4d",
    "withdrawFor(uint256,address)": "3576f6cc"
  },
  "id": 41
}