{
  "abi": [
    {
      "inputs": [],
      "name": "NotImplemented",
      "type": "error"
    },
    {
      "anonymous": false,
      "inputs": [
        {
          "indexed": true,
          "internalType": "address",
          "name": "owner",
          "type": "address"
        },
        {
          "indexed": true,
          "internalType": "address",
          "name": "spender",
          "type": "address"
        },
        {
          "indexed": false,
          "internalType": "uint256",
          "name": "value",
          "type": "uint256"
        }
      ],
      "name": "Approval",
      "type": "event"
    },
    {
      "anonymous": false,
      "inputs": [
        {
          "indexed": false,
          "internalType": "uint8",
          "name": "version",
          "type": "uint8"
        }
      ],
      "name": "Initialized",
      "type": "event"
    },
    {
      "anonymous": false,
      "inputs": [
        {
          "indexed": true,
          "internalType": "address",
          "name": "tCO2",
          "type": "address"
        },
        {
          "indexed": true,
          "internalType": "uint256",
          "name": "amountXCO2",
          "type": "uint256"
        },
        {
          "indexed": true,
          "internalType": "address",
          "name": "beneificiary",
          "type": "address"
        }
      ],
      "name": "Offset",
      "type": "event"
    },
    {
      "anonymous": false,
      "inputs": [
        {
          "indexed": true,
          "internalType": "address",
          "name": "tCO2",
          "type": "address"
        },
        {
          "indexed": true,
          "internalType": "uint256",
          "name": "amountXCO2",
          "type": "uint256"
        },
        {
          "indexed": true,
          "internalType": "address",
          "name": "beneficiary",
          "type": "address"
        },
        {
          "indexed": false,
          "internalType": "uint32",
          "name": "destination",
          "type": "uint32"
        }
      ],
      "name": "OffsetRemote",
      "type": "event"
    },
    {
      "anonymous": false,
      "inputs": [
        {
          "indexed": true,
          "internalType": "address",
          "name": "previousOwner",
          "type": "address"
        },
        {
          "indexed": true,
          "internalType": "address",
          "name": "newOwner",
          "type": "address"
        }
      ],
      "name": "OwnershipTransferred",
      "type": "event"
    },
    {
      "anonymous": false,
      "inputs": [
        {
          "indexed": true,
          "internalType": "address",
          "name": "from",
          "type": "address"
        },
        {
          "indexed": true,
          "internalType": "address",
          "name": "to",
          "type": "address"
        },
        {
          "indexed": false,
          "internalType": "uint256",
          "name": "value",
          "type": "uint256"
        }
      ],
      "name": "Transfer",
      "type": "event"
    },
    {
      "inputs": [
        {
          "internalType": "address",
          "name": "owner",
          "type": "address"
        },
        {
          "internalType": "address",
          "name": "spender",
          "type": "address"
        }
      ],
      "name": "allowance",
      "outputs": [
        {
          "internalType": "uint256",
          "name": "",
          "type": "uint256"
        }
      ],
      "stateMutability": "view",
      "type": "function"
    },
    {
      "inputs": [
        {
          "internalType": "address",
          "name": "spender",
          "type": "address"
        },
        {
          "internalType": "uint256",
          "name": "amount",
          "type": "uint256"
        }
      ],
      "name": "approve",
      "outputs": [
        {
          "internalType": "bool",
          "name": "",
          "type": "bool"
        }
      ],
      "stateMutability": "nonpayable",
      "type": "function"
    },
    {
      "inputs": [],
      "name": "asset",
      "outputs": [
        {
          "internalType": "contract ERC20Upgradeable",
          "name": "",
          "type": "address"
        }
      ],
      "stateMutability": "view",
      "type": "function"
    },
    {
      "inputs": [
        {
          "internalType": "address",
          "name": "account",
          "type": "address"
        }
      ],
      "name": "balanceOf",
      "outputs": [
        {
          "internalType": "uint256",
          "name": "",
          "type": "uint256"
        }
      ],
      "stateMutability": "view",
      "type": "function"
    },
    {
      "inputs": [],
      "name": "decimals",
      "outputs": [
        {
          "internalType": "uint8",
          "name": "",
          "type": "uint8"
        }
      ],
      "stateMutability": "view",
      "type": "function"
    },
    {
      "inputs": [
        {
          "internalType": "address",
          "name": "spender",
          "type": "address"
        },
        {
          "internalType": "uint256",
          "name": "subtractedValue",
          "type": "uint256"
        }
      ],
      "name": "decreaseAllowance",
      "outputs": [
        {
          "internalType": "bool",
          "name": "",
          "type": "bool"
        }
      ],
      "stateMutability": "nonpayable",
      "type": "function"
    },
    {
      "inputs": [
        {
          "internalType": "uint256",
          "name": "amount",
          "type": "uint256"
        }
      ],
      "name": "fromUSD",
      "outputs": [
        {
          "internalType": "uint256",
          "name": "",
          "type": "uint256"
        }
      ],
      "stateMutability": "view",
      "type": "function"
    },
    {
      "inputs": [
        {
          "internalType": "address",
          "name": "spender",
          "type": "address"
        },
        {
          "internalType": "uint256",
          "name": "addedValue",
          "type": "uint256"
        }
      ],
      "name": "increaseAllowance",
      "outputs": [
        {
          "internalType": "bool",
          "name": "",
          "type": "bool"
        }
      ],
      "stateMutability": "nonpayable",
      "type": "function"
    },
    {
      "inputs": [
        {
          "internalType": "address",
          "name": "_outbox",
          "type": "address"
        },
        {
          "internalType": "address",
          "name": "_xUSDC",
          "type": "address"
        },
        {
          "internalType": "string",
          "name": "_name",
          "type": "string"
        },
        {
          "internalType": "string",
          "name": "_symbol",
          "type": "string"
        }
      ],
      "name": "initialize",
      "outputs": [],
      "stateMutability": "nonpayable",
      "type": "function"
    },
    {
      "inputs": [
        {
          "internalType": "address",
          "name": "_outbox",
          "type": "address"
        },
        {
          "internalType": "address",
          "name": "_xUSDC",
          "type": "address"
        },
        {
          "internalType": "string",
          "name": "_name",
          "type": "string"
        },
        {
          "internalType": "string",
          "name": "_symbol",
          "type": "string"
        },
        {
          "internalType": "address",
          "name": "_asset",
          "type": "address"
        }
      ],
      "name": "initialize",
      "outputs": [],
      "stateMutability": "nonpayable",
      "type": "function"
    },
    {
      "inputs": [],
      "name": "name",
      "outputs": [
        {
          "internalType": "string",
          "name": "",
          "type": "string"
        }
      ],
      "stateMutability": "view",
      "type": "function"
    },
    {
      "inputs": [
        {
          "internalType": "address",
          "name": "_tCO2",
          "type": "address"
        },
        {
          "internalType": "uint256",
          "name": "_amountXCO2",
          "type": "uint256"
        },
        {
          "internalType": "address",
          "name": "_beneficiary",
          "type": "address"
        }
      ],
      "name": "offsetX",
      "outputs": [],
      "stateMutability": "payable",
      "type": "function"
    },
    {
      "inputs": [],
      "name": "outbox",
      "outputs": [
        {
          "internalType": "address",
          "name": "",
          "type": "address"
        }
      ],
      "stateMutability": "view",
      "type": "function"
    },
    {
      "inputs": [],
      "name": "owner",
      "outputs": [
        {
          "internalType": "address",
          "name": "",
          "type": "address"
        }
      ],
      "stateMutability": "view",
      "type": "function"
    },
    {
      "inputs": [],
      "name": "renounceOwnership",
      "outputs": [],
      "stateMutability": "nonpayable",
      "type": "function"
    },
    {
      "inputs": [
        {
          "internalType": "address",
          "name": "_outbox",
          "type": "address"
        }
      ],
      "name": "setOutbox",
      "outputs": [],
      "stateMutability": "nonpayable",
      "type": "function"
    },
    {
      "inputs": [
        {
          "internalType": "address",
          "name": "_xUSDC",
          "type": "address"
        }
      ],
      "name": "setXUSDC",
      "outputs": [],
      "stateMutability": "nonpayable",
      "type": "function"
    },
    {
      "inputs": [],
      "name": "symbol",
      "outputs": [
        {
          "internalType": "string",
          "name": "",
          "type": "string"
        }
      ],
      "stateMutability": "view",
      "type": "function"
    },
    {
      "inputs": [
        {
          "internalType": "uint256",
          "name": "amount",
          "type": "uint256"
        }
      ],
      "name": "toUSD",
      "outputs": [
        {
          "internalType": "uint256",
          "name": "",
          "type": "uint256"
        }
      ],
      "stateMutability": "pure",
      "type": "function"
    },
    {
      "inputs": [],
      "name": "totalSupply",
      "outputs": [
        {
          "internalType": "uint256",
          "name": "",
          "type": "uint256"
        }
      ],
      "stateMutability": "view",
      "type": "function"
    },
    {
      "inputs": [
        {
          "internalType": "address",
          "name": "to",
          "type": "address"
        },
        {
          "internalType": "uint256",
          "name": "amount",
          "type": "uint256"
        }
      ],
      "name": "transfer",
      "outputs": [
        {
          "internalType": "bool",
          "name": "",
          "type": "bool"
        }
      ],
      "stateMutability": "nonpayable",
      "type": "function"
    },
    {
      "inputs": [
        {
          "internalType": "address",
          "name": "from",
          "type": "address"
        },
        {
          "internalType": "address",
          "name": "to",
          "type": "address"
        },
        {
          "internalType": "uint256",
          "name": "amount",
          "type": "uint256"
        }
      ],
      "name": "transferFrom",
      "outputs": [
        {
          "internalType": "bool",
          "name": "",
          "type": "bool"
        }
      ],
      "stateMutability": "nonpayable",
      "type": "function"
    },
    {
      "inputs": [
        {
          "internalType": "address",
          "name": "newOwner",
          "type": "address"
        }
      ],
      "name": "transferOwnership",
      "outputs": [],
      "stateMutability": "nonpayable",
      "type": "function"
    },
    {
      "inputs": [],
      "name": "withdrawFunds",
      "outputs": [],
      "stateMutability": "nonpayable",
      "type": "function"
    },
    {
      "inputs": [],
      "name": "withdrawFunds2",
      "outputs": [],
      "stateMutability": "nonpayable",
      "type": "function"
    },
    {
      "inputs": [],
      "name": "xUSDC",
      "outputs": [
        {
          "internalType": "address",
          "name": "",
          "type": "address"
        }
      ],
      "stateMutability": "view",
      "type": "function"
    }
  ],
  "bytecode": {
    "object": "0x608060405234801561001057600080fd5b5061162b806100206000396000f3fe6080604052600436106101815760003560e01c80637f6e66b3116100d1578063a9059cbb1161008a578063e08eeb9711610064578063e08eeb971461043c578063e40570271461044f578063f2fde38b1461046f578063ff204f3b1461048f57600080fd5b8063a9059cbb146103dc578063ce11e6ab146103fc578063dd62ed3e1461041c57600080fd5b80637f6e66b31461034b5780638da5cb5b1461036b57806394a74a371461038957806395d89b41146103a75780639d9969ed14610389578063a457c2d7146103bc57600080fd5b8063313ce5671161013e578063395093511161011857806339509351146102cb5780636bea906e146102eb57806370a0823114610300578063715018a61461033657600080fd5b8063313ce56714610257578063362925c21461027357806338d52e0f1461029357600080fd5b806306fdde0314610186578063095ea7b3146101b157806318160ddd146101e15780632016a0d21461020057806323b872dd1461022257806324600fc314610242575b600080fd5b34801561019257600080fd5b5061019b6104af565b6040516101a89190611195565b60405180910390f35b3480156101bd57600080fd5b506101d16101cc3660046111cb565b610541565b60405190151581526020016101a8565b3480156101ed57600080fd5b506035545b6040519081526020016101a8565b34801561020c57600080fd5b5061022061021b366004611298565b610559565b005b34801561022e57600080fd5b506101d161023d36600461131d565b61066b565b34801561024e57600080fd5b5061022061068f565b34801561026357600080fd5b50604051601281526020016101a8565b34801561027f57600080fd5b5061022061028e366004611359565b610780565b34801561029f57600080fd5b506099546102b3906001600160a01b031681565b6040516001600160a01b0390911681526020016101a8565b3480156102d757600080fd5b506101d16102e63660046111cb565b6108a5565b3480156102f757600080fd5b506102206108c7565b34801561030c57600080fd5b506101f261031b3660046113ef565b6001600160a01b031660009081526033602052604090205490565b34801561034257600080fd5b50610220610909565b34801561035757600080fd5b506102206103663660046113ef565b61091d565b34801561037757600080fd5b506065546001600160a01b03166102b3565b34801561039557600080fd5b506101f26103a436600461140a565b90565b3480156103b357600080fd5b5061019b610947565b3480156103c857600080fd5b506101d16103d73660046111cb565b610956565b3480156103e857600080fd5b506101d16103f73660046111cb565b6109d1565b34801561040857600080fd5b506097546102b3906001600160a01b031681565b34801561042857600080fd5b506101f2610437366004611423565b6109df565b61022061044a366004611456565b610a0a565b34801561045b57600080fd5b506098546102b3906001600160a01b031681565b34801561047b57600080fd5b5061022061048a3660046113ef565b610b92565b34801561049b57600080fd5b506102206104aa3660046113ef565b610c08565b6060603680546104be90611492565b80601f01602080910402602001604051908101604052809291908181526020018280546104ea90611492565b80156105375780601f1061050c57610100808354040283529160200191610537565b820191906000526020600020905b81548152906001019060200180831161051a57829003601f168201915b5050505050905090565b60003361054f818585610c32565b5060019392505050565b600054610100900460ff16158080156105795750600054600160ff909116105b806105935750303b158015610593575060005460ff166001145b6105b85760405162461bcd60e51b81526004016105af906114cd565b60405180910390fd5b6000805460ff1916600117905580156105db576000805461ff0019166101001790555b6105e433610b92565b609780546001600160a01b038088166001600160a01b031992831617909255609880549287169290911691909117905561061e8383610d56565b8015610664576000805461ff0019169055604051600181527f7f26b83ff96e1f2b6a682f133852f6798a09c465da95921460cefb38474024989060200160405180910390a15b5050505050565b600033610679858285610d8b565b610684858585610e05565b506001949350505050565b610697610fb0565b6099546040516370a0823160e01b81523060048201526001600160a01b039091169063a9059cbb90339083906370a08231906024015b602060405180830381865afa1580156106ea573d6000803e3d6000fd5b505050506040513d601f19601f8201168201806040525081019061070e919061151b565b6040516001600160e01b031960e085901b1681526001600160a01b03909216600483015260248201526044016020604051808303816000875af1158015610759573d6000803e3d6000fd5b505050506040513d601f19601f8201168201806040525081019061077d9190611534565b50565b600054610100900460ff16158080156107a05750600054600160ff909116105b806107ba5750303b1580156107ba575060005460ff166001145b6107d65760405162461bcd60e51b81526004016105af906114cd565b6000805460ff1916600117905580156107f9576000805461ff0019166101001790555b6108023361100a565b609780546001600160a01b038089166001600160a01b031992831617909255609880549288169290911691909117905561083c8484610d56565b609980546001600160a01b0319166001600160a01b038416179055801561089d576000805461ff0019169055604051600181527f7f26b83ff96e1f2b6a682f133852f6798a09c465da95921460cefb38474024989060200160405180910390a15b505050505050565b60003361054f8185856108b883836109df565b6108c29190611556565b610c32565b6108cf610fb0565b6099546040516370a0823160e01b81523060048201526001600160a01b039091169063095ea7b390339083906370a08231906024016106cd565b610911610fb0565b61091b600061100a565b565b610925610fb0565b609880546001600160a01b0319166001600160a01b0392909216919091179055565b6060603780546104be90611492565b6000338161096482866109df565b9050838110156109c45760405162461bcd60e51b815260206004820152602560248201527f45524332303a2064656372656173656420616c6c6f77616e63652062656c6f77604482015264207a65726f60d81b60648201526084016105af565b6106848286868403610c32565b60003361054f818585610e05565b6001600160a01b03918216600090815260346020908152604080832093909416825291909152205490565b6099546001600160a01b03166323b872dd3330856040516001600160e01b031960e086901b1681526001600160a01b03938416600482015292909116602483015260448201526064016020604051808303816000875af1158015610a72573d6000803e3d6000fd5b505050506040513d601f19601f82011682018060405250810190610a969190611534565b50609754609854604080516001600160a01b03878116602083015291810186905284821660608201529281169263fa31de019263706f6c799216906080016040516020818303038152906040526040518463ffffffff1660e01b8152600401610b019392919061157c565b6020604051808303816000875af1158015610b20573d6000803e3d6000fd5b505050506040513d601f19601f82011682018060405250810190610b44919061151b565b5060405163706f6c7981526001600160a01b038083169184918616907f917e03cbde5457cdbf299beea5ca8b2a8ac6b1e85030cf06275ec8ecb519c5fa9060200160405180910390a4505050565b610b9a610fb0565b6001600160a01b038116610bff5760405162461bcd60e51b815260206004820152602660248201527f4f776e61626c653a206e6577206f776e657220697320746865207a65726f206160448201526564647265737360d01b60648201526084016105af565b61077d8161100a565b610c10610fb0565b609780546001600160a01b0319166001600160a01b0392909216919091179055565b6001600160a01b038316610c945760405162461bcd60e51b8152602060048201526024808201527f45524332303a20617070726f76652066726f6d20746865207a65726f206164646044820152637265737360e01b60648201526084016105af565b6001600160a01b038216610cf55760405162461bcd60e51b815260206004820152602260248201527f45524332303a20617070726f766520746f20746865207a65726f206164647265604482015261737360f01b60648201526084016105af565b6001600160a01b0383811660008181526034602090815260408083209487168084529482529182902085905590518481527f8c5be1e5ebec7d5bd14f71427d1e84f3dd0314c0f7b2291e5b200ac8c7c3b925910160405180910390a3505050565b600054610100900460ff16610d7d5760405162461bcd60e51b81526004016105af906115aa565b610d87828261105c565b5050565b6000610d9784846109df565b90506000198114610dff5781811015610df25760405162461bcd60e51b815260206004820152601d60248201527f45524332303a20696e73756666696369656e7420616c6c6f77616e636500000060448201526064016105af565b610dff8484848403610c32565b50505050565b6001600160a01b038316610e695760405162461bcd60e51b815260206004820152602560248201527f45524332303a207472616e736665722066726f6d20746865207a65726f206164604482015264647265737360d81b60648201526084016105af565b6001600160a01b038216610ecb5760405162461bcd60e51b815260206004820152602360248201527f45524332303a207472616e7366657220746f20746865207a65726f206164647260448201526265737360e81b60648201526084016105af565b6001600160a01b03831660009081526033602052604090205481811015610f435760405162461bcd60e51b815260206004820152602660248201527f45524332303a207472616e7366657220616d6f756e7420657863656564732062604482015265616c616e636560d01b60648201526084016105af565b6001600160a01b0380851660008181526033602052604080822086860390559286168082529083902080548601905591517fddf252ad1be2c89b69c2b068fc378daa952ba7f163c4a11628f55a4df523b3ef90610fa39086815260200190565b60405180910390a3610dff565b6065546001600160a01b0316331461091b5760405162461bcd60e51b815260206004820181905260248201527f4f776e61626c653a2063616c6c6572206973206e6f7420746865206f776e657260448201526064016105af565b606580546001600160a01b038381166001600160a01b0319831681179093556040519116919082907f8be0079c531659141344cd1fd0a4f28419497f9722a3daafe3b4186f6b6457e090600090a35050565b600054610100900460ff166110835760405162461bcd60e51b81526004016105af906115aa565b81516110969060369060208501906110af565b5080516110aa9060379060208401906110af565b505050565b8280546110bb90611492565b90600052602060002090601f0160209004810192826110dd5760008555611123565b82601f106110f657805160ff1916838001178555611123565b82800160010185558215611123579182015b82811115611123578251825591602001919060010190611108565b5061112f929150611133565b5090565b5b8082111561112f5760008155600101611134565b6000815180845260005b8181101561116e57602081850181015186830182015201611152565b81811115611180576000602083870101525b50601f01601f19169290920160200192915050565b6020815260006111a86020830184611148565b9392505050565b80356001600160a01b03811681146111c657600080fd5b919050565b600080604083850312156111de57600080fd5b6111e7836111af565b946020939093013593505050565b634e487b7160e01b600052604160045260246000fd5b600082601f83011261121c57600080fd5b813567ffffffffffffffff80821115611237576112376111f5565b604051601f8301601f19908116603f0116810190828211818310171561125f5761125f6111f5565b8160405283815286602085880101111561127857600080fd5b836020870160208301376000602085830101528094505050505092915050565b600080600080608085870312156112ae57600080fd5b6112b7856111af565b93506112c5602086016111af565b9250604085013567ffffffffffffffff808211156112e257600080fd5b6112ee8883890161120b565b9350606087013591508082111561130457600080fd5b506113118782880161120b565b91505092959194509250565b60008060006060848603121561133257600080fd5b61133b846111af565b9250611349602085016111af565b9150604084013590509250925092565b600080600080600060a0868803121561137157600080fd5b61137a866111af565b9450611388602087016111af565b9350604086013567ffffffffffffffff808211156113a557600080fd5b6113b189838a0161120b565b945060608801359150808211156113c757600080fd5b506113d48882890161120b565b9250506113e3608087016111af565b90509295509295909350565b60006020828403121561140157600080fd5b6111a8826111af565b60006020828403121561141c57600080fd5b5035919050565b6000806040838503121561143657600080fd5b61143f836111af565b915061144d602084016111af565b90509250929050565b60008060006060848603121561146b57600080fd5b611474846111af565b925060208401359150611489604085016111af565b90509250925092565b600181811c908216806114a657607f821691505b602082108114156114c757634e487b7160e01b600052602260045260246000fd5b50919050565b6020808252602e908201527f496e697469616c697a61626c653a20636f6e747261637420697320616c72656160408201526d191e481a5b9a5d1a585b1a5e995960921b606082015260800190565b60006020828403121561152d57600080fd5b5051919050565b60006020828403121561154657600080fd5b815180151581146111a857600080fd5b6000821982111561157757634e487b7160e01b600052601160045260246000fd5b500190565b63ffffffff841681528260208201526060604082015260006115a16060830184611148565b95945050505050565b6020808252602b908201527f496e697469616c697a61626c653a20636f6e7472616374206973206e6f74206960408201526a6e697469616c697a696e6760a81b60608201526080019056fea26469706673582212209ca80f9e8fc510cdcb4eb81ee30fcea8cdcace927487a4e32b47c7838551d72464736f6c634300080b0033",
    "linkReferences": {}
  },
  "methodIdentifiers": {
    "allowance(address,address)": "dd62ed3e",
    "approve(address,uint256)": "095ea7b3",
    "asset()": "38d52e0f",
    "balanceOf(address)": "70a08231",
    "decimals()": "313ce567",
    "decreaseAllowance(address,uint256)": "a457c2d7",
    "fromUSD(uint256)": "94a74a37",
    "increaseAllowance(address,uint256)": "39509351",
    "initialize(address,address,string,string)": "2016a0d2",
    "initialize(address,address,string,string,address)": "362925c2",
    "name()": "06fdde03",
    "offsetX(address,uint256,address)": "e08eeb97",
    "outbox()": "ce11e6ab",
    "owner()": "8da5cb5b",
    "renounceOwnership()": "715018a6",
    "setOutbox(address)": "ff204f3b",
    "setXUSDC(address)": "7f6e66b3",
    "symbol()": "95d89b41",
    "toUSD(uint256)": "9d9969ed",
    "totalSupply()": "18160ddd",
    "transfer(address,uint256)": "a9059cbb",
    "transferFrom(address,address,uint256)": "23b872dd",
    "transferOwnership(address)": "f2fde38b",
    "withdrawFunds()": "24600fc3",
    "withdrawFunds2()": "6bea906e",
    "xUSDC()": "e4057027"
  },
  "id": 58
}