{
  "abi": [
    {
      "inputs": [],
      "name": "NotImplemented",
      "type": "error"
    },
    {
      "anonymous": false,
      "inputs": [
        {
          "indexed": true,
          "internalType": "address",
          "name": "owner",
          "type": "address"
        },
        {
          "indexed": true,
          "internalType": "address",
          "name": "spender",
          "type": "address"
        },
        {
          "indexed": false,
          "internalType": "uint256",
          "name": "value",
          "type": "uint256"
        }
      ],
      "name": "Approval",
      "type": "event"
    },
    {
      "anonymous": false,
      "inputs": [
        {
          "indexed": false,
          "internalType": "uint8",
          "name": "version",
          "type": "uint8"
        }
      ],
      "name": "Initialized",
      "type": "event"
    },
    {
      "anonymous": false,
      "inputs": [
        {
          "indexed": true,
          "internalType": "address",
          "name": "tCO2",
          "type": "address"
        },
        {
          "indexed": true,
          "internalType": "uint256",
          "name": "amountXCO2",
          "type": "uint256"
        },
        {
          "indexed": true,
          "internalType": "address",
          "name": "beneificiary",
          "type": "address"
        }
      ],
      "name": "Offset",
      "type": "event"
    },
    {
      "anonymous": false,
      "inputs": [
        {
          "indexed": true,
          "internalType": "address",
          "name": "tCO2",
          "type": "address"
        },
        {
          "indexed": true,
          "internalType": "uint256",
          "name": "amountXCO2",
          "type": "uint256"
        },
        {
          "indexed": true,
          "internalType": "address",
          "name": "beneficiary",
          "type": "address"
        },
        {
          "indexed": false,
          "internalType": "uint32",
          "name": "destination",
          "type": "uint32"
        }
      ],
      "name": "OffsetRemote",
      "type": "event"
    },
    {
      "anonymous": false,
      "inputs": [
        {
          "indexed": true,
          "internalType": "address",
          "name": "previousOwner",
          "type": "address"
        },
        {
          "indexed": true,
          "internalType": "address",
          "name": "newOwner",
          "type": "address"
        }
      ],
      "name": "OwnershipTransferred",
      "type": "event"
    },
    {
      "anonymous": false,
      "inputs": [
        {
          "indexed": true,
          "internalType": "address",
          "name": "from",
          "type": "address"
        },
        {
          "indexed": true,
          "internalType": "address",
          "name": "to",
          "type": "address"
        },
        {
          "indexed": false,
          "internalType": "uint256",
          "name": "value",
          "type": "uint256"
        }
      ],
      "name": "Transfer",
      "type": "event"
    },
    {
      "inputs": [
        {
          "internalType": "address",
          "name": "owner",
          "type": "address"
        },
        {
          "internalType": "address",
          "name": "spender",
          "type": "address"
        }
      ],
      "name": "allowance",
      "outputs": [
        {
          "internalType": "uint256",
          "name": "",
          "type": "uint256"
        }
      ],
      "stateMutability": "view",
      "type": "function"
    },
    {
      "inputs": [
        {
          "internalType": "address",
          "name": "spender",
          "type": "address"
        },
        {
          "internalType": "uint256",
          "name": "amount",
          "type": "uint256"
        }
      ],
      "name": "approve",
      "outputs": [
        {
          "internalType": "bool",
          "name": "",
          "type": "bool"
        }
      ],
      "stateMutability": "nonpayable",
      "type": "function"
    },
    {
      "inputs": [],
      "name": "asset",
      "outputs": [
        {
          "internalType": "contract ERC20Upgradeable",
          "name": "",
          "type": "address"
        }
      ],
      "stateMutability": "view",
      "type": "function"
    },
    {
      "inputs": [
        {
          "internalType": "address",
          "name": "account",
          "type": "address"
        }
      ],
      "name": "balanceOf",
      "outputs": [
        {
          "internalType": "uint256",
          "name": "",
          "type": "uint256"
        }
      ],
      "stateMutability": "view",
      "type": "function"
    },
    {
      "inputs": [],
      "name": "decimals",
      "outputs": [
        {
          "internalType": "uint8",
          "name": "",
          "type": "uint8"
        }
      ],
      "stateMutability": "view",
      "type": "function"
    },
    {
      "inputs": [
        {
          "internalType": "address",
          "name": "spender",
          "type": "address"
        },
        {
          "internalType": "uint256",
          "name": "subtractedValue",
          "type": "uint256"
        }
      ],
      "name": "decreaseAllowance",
      "outputs": [
        {
          "internalType": "bool",
          "name": "",
          "type": "bool"
        }
      ],
      "stateMutability": "nonpayable",
      "type": "function"
    },
    {
      "inputs": [
        {
          "internalType": "uint256",
          "name": "amount",
          "type": "uint256"
        }
      ],
      "name": "fromUSD",
      "outputs": [
        {
          "internalType": "uint256",
          "name": "",
          "type": "uint256"
        }
      ],
      "stateMutability": "view",
      "type": "function"
    },
    {
      "inputs": [
        {
          "internalType": "address",
          "name": "spender",
          "type": "address"
        },
        {
          "internalType": "uint256",
          "name": "addedValue",
          "type": "uint256"
        }
      ],
      "name": "increaseAllowance",
      "outputs": [
        {
          "internalType": "bool",
          "name": "",
          "type": "bool"
        }
      ],
      "stateMutability": "nonpayable",
      "type": "function"
    },
    {
      "inputs": [
        {
          "internalType": "address",
          "name": "_outbox",
          "type": "address"
        },
        {
          "internalType": "address",
          "name": "_xUSDC",
          "type": "address"
        },
        {
          "internalType": "string",
          "name": "_name",
          "type": "string"
        },
        {
          "internalType": "string",
          "name": "_symbol",
          "type": "string"
        }
      ],
      "name": "initialize",
      "outputs": [],
      "stateMutability": "nonpayable",
      "type": "function"
    },
    {
      "inputs": [
        {
          "internalType": "address",
          "name": "_outbox",
          "type": "address"
        },
        {
          "internalType": "address",
          "name": "_xUSDC",
          "type": "address"
        },
        {
          "internalType": "string",
          "name": "_name",
          "type": "string"
        },
        {
          "internalType": "string",
          "name": "_symbol",
          "type": "string"
        },
        {
          "internalType": "address",
          "name": "_asset",
          "type": "address"
        }
      ],
      "name": "initialize",
      "outputs": [],
      "stateMutability": "nonpayable",
      "type": "function"
    },
    {
      "inputs": [],
      "name": "name",
      "outputs": [
        {
          "internalType": "string",
          "name": "",
          "type": "string"
        }
      ],
      "stateMutability": "view",
      "type": "function"
    },
    {
      "inputs": [
        {
          "internalType": "address",
          "name": "_tCO2",
          "type": "address"
        },
        {
          "internalType": "uint256",
          "name": "_amountXCO2",
          "type": "uint256"
        },
        {
          "internalType": "address",
          "name": "_beneficiary",
          "type": "address"
        }
      ],
      "name": "offsetX",
      "outputs": [],
      "stateMutability": "payable",
      "type": "function"
    },
    {
      "inputs": [],
      "name": "owner",
      "outputs": [
        {
          "internalType": "address",
          "name": "",
          "type": "address"
        }
      ],
      "stateMutability": "view",
      "type": "function"
    },
    {
      "inputs": [],
      "name": "renounceOwnership",
      "outputs": [],
      "stateMutability": "nonpayable",
      "type": "function"
    },
    {
      "inputs": [],
      "name": "symbol",
      "outputs": [
        {
          "internalType": "string",
          "name": "",
          "type": "string"
        }
      ],
      "stateMutability": "view",
      "type": "function"
    },
    {
      "inputs": [
        {
          "internalType": "uint256",
          "name": "amount",
          "type": "uint256"
        }
      ],
      "name": "toUSD",
      "outputs": [
        {
          "internalType": "uint256",
          "name": "",
          "type": "uint256"
        }
      ],
      "stateMutability": "pure",
      "type": "function"
    },
    {
      "inputs": [],
      "name": "totalSupply",
      "outputs": [
        {
          "internalType": "uint256",
          "name": "",
          "type": "uint256"
        }
      ],
      "stateMutability": "view",
      "type": "function"
    },
    {
      "inputs": [
        {
          "internalType": "address",
          "name": "to",
          "type": "address"
        },
        {
          "internalType": "uint256",
          "name": "amount",
          "type": "uint256"
        }
      ],
      "name": "transfer",
      "outputs": [
        {
          "internalType": "bool",
          "name": "",
          "type": "bool"
        }
      ],
      "stateMutability": "nonpayable",
      "type": "function"
    },
    {
      "inputs": [
        {
          "internalType": "address",
          "name": "from",
          "type": "address"
        },
        {
          "internalType": "address",
          "name": "to",
          "type": "address"
        },
        {
          "internalType": "uint256",
          "name": "amount",
          "type": "uint256"
        }
      ],
      "name": "transferFrom",
      "outputs": [
        {
          "internalType": "bool",
          "name": "",
          "type": "bool"
        }
      ],
      "stateMutability": "nonpayable",
      "type": "function"
    },
    {
      "inputs": [
        {
          "internalType": "address",
          "name": "newOwner",
          "type": "address"
        }
      ],
      "name": "transferOwnership",
      "outputs": [],
      "stateMutability": "nonpayable",
      "type": "function"
    },
    {
      "inputs": [],
      "name": "withdrawFunds",
      "outputs": [],
      "stateMutability": "nonpayable",
      "type": "function"
    }
  ],
  "bytecode": {
    "object": "0x608060405234801561001057600080fd5b506114a8806100206000396000f3fe60806040526004361061012a5760003560e01c806370a08231116100ab5780639d9969ed1161006f5780639d9969ed146102fd578063a457c2d714610330578063a9059cbb14610350578063dd62ed3e14610370578063e08eeb9714610390578063f2fde38b146103a357600080fd5b806370a0823114610294578063715018a6146102ca5780638da5cb5b146102df57806394a74a37146102fd57806395d89b411461031b57600080fd5b806324600fc3116100f257806324600fc3146101eb578063313ce56714610200578063362925c21461021c57806338d52e0f1461023c578063395093511461027457600080fd5b806306fdde031461012f578063095ea7b31461015a57806318160ddd1461018a5780632016a0d2146101a957806323b872dd146101cb575b600080fd5b34801561013b57600080fd5b506101446103c3565b6040516101519190611012565b60405180910390f35b34801561016657600080fd5b5061017a610175366004611048565b610455565b6040519015158152602001610151565b34801561019657600080fd5b506035545b604051908152602001610151565b3480156101b557600080fd5b506101c96101c4366004611115565b61046d565b005b3480156101d757600080fd5b5061017a6101e636600461119a565b61057f565b3480156101f757600080fd5b506101c96105a3565b34801561020c57600080fd5b5060405160128152602001610151565b34801561022857600080fd5b506101c96102373660046111d6565b610693565b34801561024857600080fd5b5060995461025c906001600160a01b031681565b6040516001600160a01b039091168152602001610151565b34801561028057600080fd5b5061017a61028f366004611048565b6107b8565b3480156102a057600080fd5b5061019b6102af36600461126c565b6001600160a01b031660009081526033602052604090205490565b3480156102d657600080fd5b506101c96107da565b3480156102eb57600080fd5b506065546001600160a01b031661025c565b34801561030957600080fd5b5061019b610318366004611287565b90565b34801561032757600080fd5b506101446107ee565b34801561033c57600080fd5b5061017a61034b366004611048565b6107fd565b34801561035c57600080fd5b5061017a61036b366004611048565b610878565b34801561037c57600080fd5b5061019b61038b3660046112a0565b610886565b6101c961039e3660046112d3565b6108b1565b3480156103af57600080fd5b506101c96103be36600461126c565b610a39565b6060603680546103d29061130f565b80601f01602080910402602001604051908101604052809291908181526020018280546103fe9061130f565b801561044b5780601f106104205761010080835404028352916020019161044b565b820191906000526020600020905b81548152906001019060200180831161042e57829003601f168201915b5050505050905090565b600033610463818585610aaf565b5060019392505050565b600054610100900460ff161580801561048d5750600054600160ff909116105b806104a75750303b1580156104a7575060005460ff166001145b6104cc5760405162461bcd60e51b81526004016104c39061134a565b60405180910390fd5b6000805460ff1916600117905580156104ef576000805461ff0019166101001790555b6104f833610a39565b609780546001600160a01b038088166001600160a01b03199283161790925560988054928716929091169190911790556105328383610bd3565b8015610578576000805461ff0019169055604051600181527f7f26b83ff96e1f2b6a682f133852f6798a09c465da95921460cefb38474024989060200160405180910390a15b5050505050565b60003361058d858285610c08565b610598858585610c82565b506001949350505050565b6105ab610e2d565b6099546040516370a0823160e01b81523060048201526001600160a01b039091169063a9059cbb90339083906370a0823190602401602060405180830381865afa1580156105fd573d6000803e3d6000fd5b505050506040513d601f19601f820116820180604052508101906106219190611398565b6040516001600160e01b031960e085901b1681526001600160a01b03909216600483015260248201526044016020604051808303816000875af115801561066c573d6000803e3d6000fd5b505050506040513d601f19601f8201168201806040525081019061069091906113b1565b50565b600054610100900460ff16158080156106b35750600054600160ff909116105b806106cd5750303b1580156106cd575060005460ff166001145b6106e95760405162461bcd60e51b81526004016104c39061134a565b6000805460ff19166001179055801561070c576000805461ff0019166101001790555b61071533610e87565b609780546001600160a01b038089166001600160a01b031992831617909255609880549288169290911691909117905561074f8484610bd3565b609980546001600160a01b0319166001600160a01b03841617905580156107b0576000805461ff0019169055604051600181527f7f26b83ff96e1f2b6a682f133852f6798a09c465da95921460cefb38474024989060200160405180910390a15b505050505050565b6000336104638185856107cb8383610886565b6107d591906113d3565b610aaf565b6107e2610e2d565b6107ec6000610e87565b565b6060603780546103d29061130f565b6000338161080b8286610886565b90508381101561086b5760405162461bcd60e51b815260206004820152602560248201527f45524332303a2064656372656173656420616c6c6f77616e63652062656c6f77604482015264207a65726f60d81b60648201526084016104c3565b6105988286868403610aaf565b600033610463818585610c82565b6001600160a01b03918216600090815260346020908152604080832093909416825291909152205490565b6099546001600160a01b03166323b872dd3330856040516001600160e01b031960e086901b1681526001600160a01b03938416600482015292909116602483015260448201526064016020604051808303816000875af1158015610919573d6000803e3d6000fd5b505050506040513d601f19601f8201168201806040525081019061093d91906113b1565b50609754609854604080516001600160a01b03878116602083015291810186905284821660608201529281169263fa31de019263706f6c799216906080016040516020818303038152906040526040518463ffffffff1660e01b81526004016109a8939291906113f9565b6020604051808303816000875af11580156109c7573d6000803e3d6000fd5b505050506040513d601f19601f820116820180604052508101906109eb9190611398565b5060405163706f6c7981526001600160a01b038083169184918616907f917e03cbde5457cdbf299beea5ca8b2a8ac6b1e85030cf06275ec8ecb519c5fa9060200160405180910390a4505050565b610a41610e2d565b6001600160a01b038116610aa65760405162461bcd60e51b815260206004820152602660248201527f4f776e61626c653a206e6577206f776e657220697320746865207a65726f206160448201526564647265737360d01b60648201526084016104c3565b61069081610e87565b6001600160a01b038316610b115760405162461bcd60e51b8152602060048201526024808201527f45524332303a20617070726f76652066726f6d20746865207a65726f206164646044820152637265737360e01b60648201526084016104c3565b6001600160a01b038216610b725760405162461bcd60e51b815260206004820152602260248201527f45524332303a20617070726f766520746f20746865207a65726f206164647265604482015261737360f01b60648201526084016104c3565b6001600160a01b0383811660008181526034602090815260408083209487168084529482529182902085905590518481527f8c5be1e5ebec7d5bd14f71427d1e84f3dd0314c0f7b2291e5b200ac8c7c3b925910160405180910390a3505050565b600054610100900460ff16610bfa5760405162461bcd60e51b81526004016104c390611427565b610c048282610ed9565b5050565b6000610c148484610886565b90506000198114610c7c5781811015610c6f5760405162461bcd60e51b815260206004820152601d60248201527f45524332303a20696e73756666696369656e7420616c6c6f77616e636500000060448201526064016104c3565b610c7c8484848403610aaf565b50505050565b6001600160a01b038316610ce65760405162461bcd60e51b815260206004820152602560248201527f45524332303a207472616e736665722066726f6d20746865207a65726f206164604482015264647265737360d81b60648201526084016104c3565b6001600160a01b038216610d485760405162461bcd60e51b815260206004820152602360248201527f45524332303a207472616e7366657220746f20746865207a65726f206164647260448201526265737360e81b60648201526084016104c3565b6001600160a01b03831660009081526033602052604090205481811015610dc05760405162461bcd60e51b815260206004820152602660248201527f45524332303a207472616e7366657220616d6f756e7420657863656564732062604482015265616c616e636560d01b60648201526084016104c3565b6001600160a01b0380851660008181526033602052604080822086860390559286168082529083902080548601905591517fddf252ad1be2c89b69c2b068fc378daa952ba7f163c4a11628f55a4df523b3ef90610e209086815260200190565b60405180910390a3610c7c565b6065546001600160a01b031633146107ec5760405162461bcd60e51b815260206004820181905260248201527f4f776e61626c653a2063616c6c6572206973206e6f7420746865206f776e657260448201526064016104c3565b606580546001600160a01b038381166001600160a01b0319831681179093556040519116919082907f8be0079c531659141344cd1fd0a4f28419497f9722a3daafe3b4186f6b6457e090600090a35050565b600054610100900460ff16610f005760405162461bcd60e51b81526004016104c390611427565b8151610f13906036906020850190610f2c565b508051610f27906037906020840190610f2c565b505050565b828054610f389061130f565b90600052602060002090601f016020900481019282610f5a5760008555610fa0565b82601f10610f7357805160ff1916838001178555610fa0565b82800160010185558215610fa0579182015b82811115610fa0578251825591602001919060010190610f85565b50610fac929150610fb0565b5090565b5b80821115610fac5760008155600101610fb1565b6000815180845260005b81811015610feb57602081850181015186830182015201610fcf565b81811115610ffd576000602083870101525b50601f01601f19169290920160200192915050565b6020815260006110256020830184610fc5565b9392505050565b80356001600160a01b038116811461104357600080fd5b919050565b6000806040838503121561105b57600080fd5b6110648361102c565b946020939093013593505050565b634e487b7160e01b600052604160045260246000fd5b600082601f83011261109957600080fd5b813567ffffffffffffffff808211156110b4576110b4611072565b604051601f8301601f19908116603f011681019082821181831017156110dc576110dc611072565b816040528381528660208588010111156110f557600080fd5b836020870160208301376000602085830101528094505050505092915050565b6000806000806080858703121561112b57600080fd5b6111348561102c565b93506111426020860161102c565b9250604085013567ffffffffffffffff8082111561115f57600080fd5b61116b88838901611088565b9350606087013591508082111561118157600080fd5b5061118e87828801611088565b91505092959194509250565b6000806000606084860312156111af57600080fd5b6111b88461102c565b92506111c66020850161102c565b9150604084013590509250925092565b600080600080600060a086880312156111ee57600080fd5b6111f78661102c565b94506112056020870161102c565b9350604086013567ffffffffffffffff8082111561122257600080fd5b61122e89838a01611088565b9450606088013591508082111561124457600080fd5b5061125188828901611088565b9250506112606080870161102c565b90509295509295909350565b60006020828403121561127e57600080fd5b6110258261102c565b60006020828403121561129957600080fd5b5035919050565b600080604083850312156112b357600080fd5b6112bc8361102c565b91506112ca6020840161102c565b90509250929050565b6000806000606084860312156112e857600080fd5b6112f18461102c565b9250602084013591506113066040850161102c565b90509250925092565b600181811c9082168061132357607f821691505b6020821081141561134457634e487b7160e01b600052602260045260246000fd5b50919050565b6020808252602e908201527f496e697469616c697a61626c653a20636f6e747261637420697320616c72656160408201526d191e481a5b9a5d1a585b1a5e995960921b606082015260800190565b6000602082840312156113aa57600080fd5b5051919050565b6000602082840312156113c357600080fd5b8151801515811461102557600080fd5b600082198211156113f457634e487b7160e01b600052601160045260246000fd5b500190565b63ffffffff8416815282602082015260606040820152600061141e6060830184610fc5565b95945050505050565b6020808252602b908201527f496e697469616c697a61626c653a20636f6e7472616374206973206e6f74206960408201526a6e697469616c697a696e6760a81b60608201526080019056fea264697066735822122016c47496b79d73483270432bff3e566890b5d896c96aa5b35f7fec4225623d5064736f6c634300080b0033",
    "linkReferences": {}
  },
  "methodIdentifiers": {
    "allowance(address,address)": "dd62ed3e",
    "approve(address,uint256)": "095ea7b3",
    "asset()": "38d52e0f",
    "balanceOf(address)": "70a08231",
    "decimals()": "313ce567",
    "decreaseAllowance(address,uint256)": "a457c2d7",
    "fromUSD(uint256)": "94a74a37",
    "increaseAllowance(address,uint256)": "39509351",
    "initialize(address,address,string,string)": "2016a0d2",
    "initialize(address,address,string,string,address)": "362925c2",
    "name()": "06fdde03",
    "offsetX(address,uint256,address)": "e08eeb97",
    "owner()": "8da5cb5b",
    "renounceOwnership()": "715018a6",
    "symbol()": "95d89b41",
    "toUSD(uint256)": "9d9969ed",
    "totalSupply()": "18160ddd",
    "transfer(address,uint256)": "a9059cbb",
    "transferFrom(address,address,uint256)": "23b872dd",
    "transferOwnership(address)": "f2fde38b",
    "withdrawFunds()": "24600fc3"
  },
  "id": 41
}