{
  "abi": [
    {
      "inputs": [],
      "name": "NotImplemented",
      "type": "error"
    },
    {
      "anonymous": false,
      "inputs": [
        {
          "indexed": true,
          "internalType": "address",
          "name": "owner",
          "type": "address"
        },
        {
          "indexed": true,
          "internalType": "address",
          "name": "spender",
          "type": "address"
        },
        {
          "indexed": false,
          "internalType": "uint256",
          "name": "value",
          "type": "uint256"
        }
      ],
      "name": "Approval",
      "type": "event"
    },
    {
      "anonymous": false,
      "inputs": [
        {
          "indexed": false,
          "internalType": "uint8",
          "name": "version",
          "type": "uint8"
        }
      ],
      "name": "Initialized",
      "type": "event"
    },
    {
      "anonymous": false,
      "inputs": [
        {
          "indexed": true,
          "internalType": "address",
          "name": "tCO2",
          "type": "address"
        },
        {
          "indexed": true,
          "internalType": "uint256",
          "name": "amountXCO2",
          "type": "uint256"
        },
        {
          "indexed": true,
          "internalType": "address",
          "name": "beneificiary",
          "type": "address"
        }
      ],
      "name": "Offset",
      "type": "event"
    },
    {
      "anonymous": false,
      "inputs": [
        {
          "indexed": true,
          "internalType": "address",
          "name": "tCO2",
          "type": "address"
        },
        {
          "indexed": true,
          "internalType": "uint256",
          "name": "amountXCO2",
          "type": "uint256"
        },
        {
          "indexed": true,
          "internalType": "address",
          "name": "beneficiary",
          "type": "address"
        },
        {
          "indexed": false,
          "internalType": "uint32",
          "name": "destination",
          "type": "uint32"
        }
      ],
      "name": "OffsetRemote",
      "type": "event"
    },
    {
      "anonymous": false,
      "inputs": [
        {
          "indexed": true,
          "internalType": "address",
          "name": "previousOwner",
          "type": "address"
        },
        {
          "indexed": true,
          "internalType": "address",
          "name": "newOwner",
          "type": "address"
        }
      ],
      "name": "OwnershipTransferred",
      "type": "event"
    },
    {
      "anonymous": false,
      "inputs": [
        {
          "indexed": true,
          "internalType": "address",
          "name": "from",
          "type": "address"
        },
        {
          "indexed": true,
          "internalType": "address",
          "name": "to",
          "type": "address"
        },
        {
          "indexed": false,
          "internalType": "uint256",
          "name": "value",
          "type": "uint256"
        }
      ],
      "name": "Transfer",
      "type": "event"
    },
    {
      "inputs": [
        {
          "internalType": "address",
          "name": "owner",
          "type": "address"
        },
        {
          "internalType": "address",
          "name": "spender",
          "type": "address"
        }
      ],
      "name": "allowance",
      "outputs": [
        {
          "internalType": "uint256",
          "name": "",
          "type": "uint256"
        }
      ],
      "stateMutability": "view",
      "type": "function"
    },
    {
      "inputs": [
        {
          "internalType": "address",
          "name": "spender",
          "type": "address"
        },
        {
          "internalType": "uint256",
          "name": "amount",
          "type": "uint256"
        }
      ],
      "name": "approve",
      "outputs": [
        {
          "internalType": "bool",
          "name": "",
          "type": "bool"
        }
      ],
      "stateMutability": "nonpayable",
      "type": "function"
    },
    {
      "inputs": [],
      "name": "asset",
      "outputs": [
        {
          "internalType": "contract ERC20Upgradeable",
          "name": "",
          "type": "address"
        }
      ],
      "stateMutability": "view",
      "type": "function"
    },
    {
      "inputs": [
        {
          "internalType": "address",
          "name": "account",
          "type": "address"
        }
      ],
      "name": "balanceOf",
      "outputs": [
        {
          "internalType": "uint256",
          "name": "",
          "type": "uint256"
        }
      ],
      "stateMutability": "view",
      "type": "function"
    },
    {
      "inputs": [],
      "name": "decimals",
      "outputs": [
        {
          "internalType": "uint8",
          "name": "",
          "type": "uint8"
        }
      ],
      "stateMutability": "view",
      "type": "function"
    },
    {
      "inputs": [
        {
          "internalType": "address",
          "name": "spender",
          "type": "address"
        },
        {
          "internalType": "uint256",
          "name": "subtractedValue",
          "type": "uint256"
        }
      ],
      "name": "decreaseAllowance",
      "outputs": [
        {
          "internalType": "bool",
          "name": "",
          "type": "bool"
        }
      ],
      "stateMutability": "nonpayable",
      "type": "function"
    },
    {
      "inputs": [
        {
          "internalType": "uint256",
          "name": "amount",
          "type": "uint256"
        }
      ],
      "name": "fromUSD",
      "outputs": [
        {
          "internalType": "uint256",
          "name": "",
          "type": "uint256"
        }
      ],
      "stateMutability": "view",
      "type": "function"
    },
    {
      "inputs": [
        {
          "internalType": "address",
          "name": "spender",
          "type": "address"
        },
        {
          "internalType": "uint256",
          "name": "addedValue",
          "type": "uint256"
        }
      ],
      "name": "increaseAllowance",
      "outputs": [
        {
          "internalType": "bool",
          "name": "",
          "type": "bool"
        }
      ],
      "stateMutability": "nonpayable",
      "type": "function"
    },
    {
      "inputs": [
        {
          "internalType": "address",
          "name": "_outbox",
          "type": "address"
        },
        {
          "internalType": "address",
          "name": "_xUSDC",
          "type": "address"
        },
        {
          "internalType": "string",
          "name": "_name",
          "type": "string"
        },
        {
          "internalType": "string",
          "name": "_symbol",
          "type": "string"
        }
      ],
      "name": "initialize",
      "outputs": [],
      "stateMutability": "nonpayable",
      "type": "function"
    },
    {
      "inputs": [
        {
          "internalType": "address",
          "name": "_outbox",
          "type": "address"
        },
        {
          "internalType": "address",
          "name": "_xUSDC",
          "type": "address"
        },
        {
          "internalType": "string",
          "name": "_name",
          "type": "string"
        },
        {
          "internalType": "string",
          "name": "_symbol",
          "type": "string"
        },
        {
          "internalType": "address",
          "name": "_asset",
          "type": "address"
        }
      ],
      "name": "initialize",
      "outputs": [],
      "stateMutability": "nonpayable",
      "type": "function"
    },
    {
      "inputs": [],
      "name": "name",
      "outputs": [
        {
          "internalType": "string",
          "name": "",
          "type": "string"
        }
      ],
      "stateMutability": "view",
      "type": "function"
    },
    {
      "inputs": [
        {
          "internalType": "address",
          "name": "_tCO2",
          "type": "address"
        },
        {
          "internalType": "uint256",
          "name": "_amountXCO2",
          "type": "uint256"
        },
        {
          "internalType": "address",
          "name": "_beneficiary",
          "type": "address"
        }
      ],
      "name": "offsetX",
      "outputs": [],
      "stateMutability": "payable",
      "type": "function"
    },
    {
      "inputs": [],
      "name": "outbox",
      "outputs": [
        {
          "internalType": "address",
          "name": "",
          "type": "address"
        }
      ],
      "stateMutability": "view",
      "type": "function"
    },
    {
      "inputs": [],
      "name": "owner",
      "outputs": [
        {
          "internalType": "address",
          "name": "",
          "type": "address"
        }
      ],
      "stateMutability": "view",
      "type": "function"
    },
    {
      "inputs": [],
      "name": "renounceOwnership",
      "outputs": [],
      "stateMutability": "nonpayable",
      "type": "function"
    },
    {
      "inputs": [],
      "name": "symbol",
      "outputs": [
        {
          "internalType": "string",
          "name": "",
          "type": "string"
        }
      ],
      "stateMutability": "view",
      "type": "function"
    },
    {
      "inputs": [
        {
          "internalType": "uint256",
          "name": "amount",
          "type": "uint256"
        }
      ],
      "name": "toUSD",
      "outputs": [
        {
          "internalType": "uint256",
          "name": "",
          "type": "uint256"
        }
      ],
      "stateMutability": "pure",
      "type": "function"
    },
    {
      "inputs": [],
      "name": "totalSupply",
      "outputs": [
        {
          "internalType": "uint256",
          "name": "",
          "type": "uint256"
        }
      ],
      "stateMutability": "view",
      "type": "function"
    },
    {
      "inputs": [
        {
          "internalType": "address",
          "name": "to",
          "type": "address"
        },
        {
          "internalType": "uint256",
          "name": "amount",
          "type": "uint256"
        }
      ],
      "name": "transfer",
      "outputs": [
        {
          "internalType": "bool",
          "name": "",
          "type": "bool"
        }
      ],
      "stateMutability": "nonpayable",
      "type": "function"
    },
    {
      "inputs": [
        {
          "internalType": "address",
          "name": "from",
          "type": "address"
        },
        {
          "internalType": "address",
          "name": "to",
          "type": "address"
        },
        {
          "internalType": "uint256",
          "name": "amount",
          "type": "uint256"
        }
      ],
      "name": "transferFrom",
      "outputs": [
        {
          "internalType": "bool",
          "name": "",
          "type": "bool"
        }
      ],
      "stateMutability": "nonpayable",
      "type": "function"
    },
    {
      "inputs": [
        {
          "internalType": "address",
          "name": "newOwner",
          "type": "address"
        }
      ],
      "name": "transferOwnership",
      "outputs": [],
      "stateMutability": "nonpayable",
      "type": "function"
    },
    {
      "inputs": [],
      "name": "withdrawFunds",
      "outputs": [],
      "stateMutability": "nonpayable",
      "type": "function"
    },
    {
      "inputs": [],
      "name": "xUSDC",
      "outputs": [
        {
          "internalType": "address",
          "name": "",
          "type": "address"
        }
      ],
      "stateMutability": "view",
      "type": "function"
    }
  ],
  "bytecode": {
    "object": "0x608060405234801561001057600080fd5b506116b2806100206000396000f3fe6080604052600436106101405760003560e01c8063715018a6116100b6578063a9059cbb1161006f578063a9059cbb14610366578063ce11e6ab14610386578063dd62ed3e146103a6578063e08eeb97146103c6578063e4057027146103d9578063f2fde38b146103f957600080fd5b8063715018a6146102e05780638da5cb5b146102f557806394a74a371461031357806395d89b41146103315780639d9969ed14610313578063a457c2d71461034657600080fd5b806324600fc31161010857806324600fc314610201578063313ce56714610216578063362925c21461023257806338d52e0f14610252578063395093511461028a57806370a08231146102aa57600080fd5b806306fdde0314610145578063095ea7b31461017057806318160ddd146101a05780632016a0d2146101bf57806323b872dd146101e1575b600080fd5b34801561015157600080fd5b5061015a610419565b60405161016791906111f2565b60405180910390f35b34801561017c57600080fd5b5061019061018b366004611228565b6104ab565b6040519015158152602001610167565b3480156101ac57600080fd5b506035545b604051908152602001610167565b3480156101cb57600080fd5b506101df6101da3660046112f5565b6104c3565b005b3480156101ed57600080fd5b506101906101fc36600461137a565b6105d5565b34801561020d57600080fd5b506101df6105f9565b34801561022257600080fd5b5060405160128152602001610167565b34801561023e57600080fd5b506101df61024d3660046113b6565b6106e9565b34801561025e57600080fd5b50609954610272906001600160a01b031681565b6040516001600160a01b039091168152602001610167565b34801561029657600080fd5b506101906102a5366004611228565b61080e565b3480156102b657600080fd5b506101b16102c536600461144c565b6001600160a01b031660009081526033602052604090205490565b3480156102ec57600080fd5b506101df610830565b34801561030157600080fd5b506065546001600160a01b0316610272565b34801561031f57600080fd5b506101b161032e366004611467565b90565b34801561033d57600080fd5b5061015a610844565b34801561035257600080fd5b50610190610361366004611228565b610853565b34801561037257600080fd5b50610190610381366004611228565b6108ce565b34801561039257600080fd5b50609754610272906001600160a01b031681565b3480156103b257600080fd5b506101b16103c1366004611480565b6108dc565b6101df6103d43660046114b3565b610907565b3480156103e557600080fd5b50609854610272906001600160a01b031681565b34801561040557600080fd5b506101df61041436600461144c565b610b75565b606060368054610428906114ef565b80601f0160208091040260200160405190810160405280929190818152602001828054610454906114ef565b80156104a15780601f10610476576101008083540402835291602001916104a1565b820191906000526020600020905b81548152906001019060200180831161048457829003601f168201915b5050505050905090565b6000336104b9818585610beb565b5060019392505050565b600054610100900460ff16158080156104e35750600054600160ff909116105b806104fd5750303b1580156104fd575060005460ff166001145b6105225760405162461bcd60e51b81526004016105199061152a565b60405180910390fd5b6000805460ff191660011790558015610545576000805461ff0019166101001790555b61054e33610b75565b609780546001600160a01b038088166001600160a01b03199283161790925560988054928716929091169190911790556105888383610d0f565b80156105ce576000805461ff0019169055604051600181527f7f26b83ff96e1f2b6a682f133852f6798a09c465da95921460cefb38474024989060200160405180910390a15b5050505050565b6000336105e3858285610d44565b6105ee858585610dbe565b506001949350505050565b610601610f69565b6099546040516370a0823160e01b81523060048201526001600160a01b039091169063a9059cbb90339083906370a0823190602401602060405180830381865afa158015610653573d6000803e3d6000fd5b505050506040513d601f19601f820116820180604052508101906106779190611578565b6040516001600160e01b031960e085901b1681526001600160a01b03909216600483015260248201526044016020604051808303816000875af11580156106c2573d6000803e3d6000fd5b505050506040513d601f19601f820116820180604052508101906106e69190611591565b50565b600054610100900460ff16158080156107095750600054600160ff909116105b806107235750303b158015610723575060005460ff166001145b61073f5760405162461bcd60e51b81526004016105199061152a565b6000805460ff191660011790558015610762576000805461ff0019166101001790555b61076b33610fc3565b609780546001600160a01b038089166001600160a01b03199283161790925560988054928816929091169190911790556107a58484610d0f565b609980546001600160a01b0319166001600160a01b0384161790558015610806576000805461ff0019169055604051600181527f7f26b83ff96e1f2b6a682f133852f6798a09c465da95921460cefb38474024989060200160405180910390a15b505050505050565b6000336104b981858561082183836108dc565b61082b91906115b3565b610beb565b610838610f69565b6108426000610fc3565b565b606060378054610428906114ef565b6000338161086182866108dc565b9050838110156108c15760405162461bcd60e51b815260206004820152602560248201527f45524332303a2064656372656173656420616c6c6f77616e63652062656c6f77604482015264207a65726f60d81b6064820152608401610519565b6105ee8286868403610beb565b6000336104b9818585610dbe565b6001600160a01b03918216600090815260346020908152604080832093909416825291909152205490565b6099546001600160a01b03166323b872dd3330856040516001600160e01b031960e086901b1681526001600160a01b03938416600482015292909116602483015260448201526064016020604051808303816000875af115801561096f573d6000803e3d6000fd5b505050506040513d601f19601f820116820180604052508101906109939190611591565b506109c36040518060400160405280600e81526020016d3234b9b830ba31b434b73397171760911b815250611015565b6040805180820190915260098152680d2dc40deeae8c4def60bb1b60208201526097546109f991906001600160a01b0316611058565b609754609854604080516001600160a01b03878116602083015291810186905284821660608201529281169263fa31de019263706f6c799216906080016040516020818303038152906040526040518463ffffffff1660e01b8152600401610a63939291906115d9565b6020604051808303816000875af1158015610a82573d6000803e3d6000fd5b505050506040513d601f19601f82011682018060405250810190610aa69190611578565b50610ad36040518060400160405280600b81526020016a646973706174636865642160a81b815250611015565b610aff6040518060400160405280600b81526020016a32b6b4ba3a34b73397171760a91b815250611015565b60405163706f6c7981526001600160a01b038083169184918616907f917e03cbde5457cdbf299beea5ca8b2a8ac6b1e85030cf06275ec8ecb519c5fa9060200160405180910390a4610b7060405180604001604052806008815260200167656d69747465642160c01b815250611015565b505050565b610b7d610f69565b6001600160a01b038116610be25760405162461bcd60e51b815260206004820152602660248201527f4f776e61626c653a206e6577206f776e657220697320746865207a65726f206160448201526564647265737360d01b6064820152608401610519565b6106e681610fc3565b6001600160a01b038316610c4d5760405162461bcd60e51b8152602060048201526024808201527f45524332303a20617070726f76652066726f6d20746865207a65726f206164646044820152637265737360e01b6064820152608401610519565b6001600160a01b038216610cae5760405162461bcd60e51b815260206004820152602260248201527f45524332303a20617070726f766520746f20746865207a65726f206164647265604482015261737360f01b6064820152608401610519565b6001600160a01b0383811660008181526034602090815260408083209487168084529482529182902085905590518481527f8c5be1e5ebec7d5bd14f71427d1e84f3dd0314c0f7b2291e5b200ac8c7c3b925910160405180910390a3505050565b600054610100900460ff16610d365760405162461bcd60e51b815260040161051990611607565b610d40828261109d565b5050565b6000610d5084846108dc565b90506000198114610db85781811015610dab5760405162461bcd60e51b815260206004820152601d60248201527f45524332303a20696e73756666696369656e7420616c6c6f77616e63650000006044820152606401610519565b610db88484848403610beb565b50505050565b6001600160a01b038316610e225760405162461bcd60e51b815260206004820152602560248201527f45524332303a207472616e736665722066726f6d20746865207a65726f206164604482015264647265737360d81b6064820152608401610519565b6001600160a01b038216610e845760405162461bcd60e51b815260206004820152602360248201527f45524332303a207472616e7366657220746f20746865207a65726f206164647260448201526265737360e81b6064820152608401610519565b6001600160a01b03831660009081526033602052604090205481811015610efc5760405162461bcd60e51b815260206004820152602660248201527f45524332303a207472616e7366657220616d6f756e7420657863656564732062604482015265616c616e636560d01b6064820152608401610519565b6001600160a01b0380851660008181526033602052604080822086860390559286168082529083902080548601905591517fddf252ad1be2c89b69c2b068fc378daa952ba7f163c4a11628f55a4df523b3ef90610f5c9086815260200190565b60405180910390a3610db8565b6065546001600160a01b031633146108425760405162461bcd60e51b815260206004820181905260248201527f4f776e61626c653a2063616c6c6572206973206e6f7420746865206f776e65726044820152606401610519565b606580546001600160a01b038381166001600160a01b0319831681179093556040519116919082907f8be0079c531659141344cd1fd0a4f28419497f9722a3daafe3b4186f6b6457e090600090a35050565b6106e68160405160240161102991906111f2565b60408051601f198184030181529190526020810180516001600160e01b031663104c13eb60e21b1790526110eb565b610d40828260405160240161106e929190611652565b60408051601f198184030181529190526020810180516001600160e01b031663319af33360e01b1790526110eb565b600054610100900460ff166110c45760405162461bcd60e51b815260040161051990611607565b81516110d790603690602085019061110c565b508051610b7090603790602084019061110c565b80516a636f6e736f6c652e6c6f67602083016000808483855afa5050505050565b828054611118906114ef565b90600052602060002090601f01602090048101928261113a5760008555611180565b82601f1061115357805160ff1916838001178555611180565b82800160010185558215611180579182015b82811115611180578251825591602001919060010190611165565b5061118c929150611190565b5090565b5b8082111561118c5760008155600101611191565b6000815180845260005b818110156111cb576020818501810151868301820152016111af565b818111156111dd576000602083870101525b50601f01601f19169290920160200192915050565b60208152600061120560208301846111a5565b9392505050565b80356001600160a01b038116811461122357600080fd5b919050565b6000806040838503121561123b57600080fd5b6112448361120c565b946020939093013593505050565b634e487b7160e01b600052604160045260246000fd5b600082601f83011261127957600080fd5b813567ffffffffffffffff8082111561129457611294611252565b604051601f8301601f19908116603f011681019082821181831017156112bc576112bc611252565b816040528381528660208588010111156112d557600080fd5b836020870160208301376000602085830101528094505050505092915050565b6000806000806080858703121561130b57600080fd5b6113148561120c565b93506113226020860161120c565b9250604085013567ffffffffffffffff8082111561133f57600080fd5b61134b88838901611268565b9350606087013591508082111561136157600080fd5b5061136e87828801611268565b91505092959194509250565b60008060006060848603121561138f57600080fd5b6113988461120c565b92506113a66020850161120c565b9150604084013590509250925092565b600080600080600060a086880312156113ce57600080fd5b6113d78661120c565b94506113e56020870161120c565b9350604086013567ffffffffffffffff8082111561140257600080fd5b61140e89838a01611268565b9450606088013591508082111561142457600080fd5b5061143188828901611268565b9250506114406080870161120c565b90509295509295909350565b60006020828403121561145e57600080fd5b6112058261120c565b60006020828403121561147957600080fd5b5035919050565b6000806040838503121561149357600080fd5b61149c8361120c565b91506114aa6020840161120c565b90509250929050565b6000806000606084860312156114c857600080fd5b6114d18461120c565b9250602084013591506114e66040850161120c565b90509250925092565b600181811c9082168061150357607f821691505b6020821081141561152457634e487b7160e01b600052602260045260246000fd5b50919050565b6020808252602e908201527f496e697469616c697a61626c653a20636f6e747261637420697320616c72656160408201526d191e481a5b9a5d1a585b1a5e995960921b606082015260800190565b60006020828403121561158a57600080fd5b5051919050565b6000602082840312156115a357600080fd5b8151801515811461120557600080fd5b600082198211156115d457634e487b7160e01b600052601160045260246000fd5b500190565b63ffffffff841681528260208201526060604082015260006115fe60608301846111a5565b95945050505050565b6020808252602b908201527f496e697469616c697a61626c653a20636f6e7472616374206973206e6f74206960408201526a6e697469616c697a696e6760a81b606082015260800190565b60408152600061166560408301856111a5565b905060018060a01b0383166020830152939250505056fea2646970667358221220cdddee28932dc4668c30a13477de9662a09fe8d2dcf7861f7319740ef43af28564736f6c634300080b0033",
    "linkReferences": {}
  },
  "methodIdentifiers": {
    "allowance(address,address)": "dd62ed3e",
    "approve(address,uint256)": "095ea7b3",
    "asset()": "38d52e0f",
    "balanceOf(address)": "70a08231",
    "decimals()": "313ce567",
    "decreaseAllowance(address,uint256)": "a457c2d7",
    "fromUSD(uint256)": "94a74a37",
    "increaseAllowance(address,uint256)": "39509351",
    "initialize(address,address,string,string)": "2016a0d2",
    "initialize(address,address,string,string,address)": "362925c2",
    "name()": "06fdde03",
    "offsetX(address,uint256,address)": "e08eeb97",
    "outbox()": "ce11e6ab",
    "owner()": "8da5cb5b",
    "renounceOwnership()": "715018a6",
    "symbol()": "95d89b41",
    "toUSD(uint256)": "9d9969ed",
    "totalSupply()": "18160ddd",
    "transfer(address,uint256)": "a9059cbb",
    "transferFrom(address,address,uint256)": "23b872dd",
    "transferOwnership(address)": "f2fde38b",
    "withdrawFunds()": "24600fc3",
    "xUSDC()": "e4057027"
  },
  "id": 58
}