{
  "abi": [
    {
      "inputs": [],
      "name": "NotImplemented",
      "type": "error"
    },
    {
      "anonymous": false,
      "inputs": [
        {
          "indexed": true,
          "internalType": "address",
          "name": "owner",
          "type": "address"
        },
        {
          "indexed": true,
          "internalType": "address",
          "name": "spender",
          "type": "address"
        },
        {
          "indexed": false,
          "internalType": "uint256",
          "name": "value",
          "type": "uint256"
        }
      ],
      "name": "Approval",
      "type": "event"
    },
    {
      "anonymous": false,
      "inputs": [
        {
          "indexed": false,
          "internalType": "uint8",
          "name": "version",
          "type": "uint8"
        }
      ],
      "name": "Initialized",
      "type": "event"
    },
    {
      "anonymous": false,
      "inputs": [
        {
          "indexed": true,
          "internalType": "address",
          "name": "tCO2",
          "type": "address"
        },
        {
          "indexed": true,
          "internalType": "uint256",
          "name": "amountXCO2",
          "type": "uint256"
        },
        {
          "indexed": true,
          "internalType": "address",
          "name": "beneificiary",
          "type": "address"
        }
      ],
      "name": "Offset",
      "type": "event"
    },
    {
      "anonymous": false,
      "inputs": [
        {
          "indexed": true,
          "internalType": "address",
          "name": "tCO2",
          "type": "address"
        },
        {
          "indexed": true,
          "internalType": "uint256",
          "name": "amountXCO2",
          "type": "uint256"
        },
        {
          "indexed": true,
          "internalType": "address",
          "name": "beneficiary",
          "type": "address"
        },
        {
          "indexed": false,
          "internalType": "uint32",
          "name": "destination",
          "type": "uint32"
        }
      ],
      "name": "OffsetRemote",
      "type": "event"
    },
    {
      "anonymous": false,
      "inputs": [
        {
          "indexed": true,
          "internalType": "address",
          "name": "previousOwner",
          "type": "address"
        },
        {
          "indexed": true,
          "internalType": "address",
          "name": "newOwner",
          "type": "address"
        }
      ],
      "name": "OwnershipTransferred",
      "type": "event"
    },
    {
      "anonymous": false,
      "inputs": [
        {
          "indexed": true,
          "internalType": "address",
          "name": "from",
          "type": "address"
        },
        {
          "indexed": true,
          "internalType": "address",
          "name": "to",
          "type": "address"
        },
        {
          "indexed": false,
          "internalType": "uint256",
          "name": "value",
          "type": "uint256"
        }
      ],
      "name": "Transfer",
      "type": "event"
    },
    {
      "inputs": [
        {
          "internalType": "address",
          "name": "owner",
          "type": "address"
        },
        {
          "internalType": "address",
          "name": "spender",
          "type": "address"
        }
      ],
      "name": "allowance",
      "outputs": [
        {
          "internalType": "uint256",
          "name": "",
          "type": "uint256"
        }
      ],
      "stateMutability": "view",
      "type": "function"
    },
    {
      "inputs": [
        {
          "internalType": "address",
          "name": "spender",
          "type": "address"
        },
        {
          "internalType": "uint256",
          "name": "amount",
          "type": "uint256"
        }
      ],
      "name": "approve",
      "outputs": [
        {
          "internalType": "bool",
          "name": "",
          "type": "bool"
        }
      ],
      "stateMutability": "nonpayable",
      "type": "function"
    },
    {
      "inputs": [
        {
          "internalType": "address",
          "name": "account",
          "type": "address"
        }
      ],
      "name": "balanceOf",
      "outputs": [
        {
          "internalType": "uint256",
          "name": "",
          "type": "uint256"
        }
      ],
      "stateMutability": "view",
      "type": "function"
    },
    {
      "inputs": [],
      "name": "decimals",
      "outputs": [
        {
          "internalType": "uint8",
          "name": "",
          "type": "uint8"
        }
      ],
      "stateMutability": "view",
      "type": "function"
    },
    {
      "inputs": [
        {
          "internalType": "address",
          "name": "spender",
          "type": "address"
        },
        {
          "internalType": "uint256",
          "name": "subtractedValue",
          "type": "uint256"
        }
      ],
      "name": "decreaseAllowance",
      "outputs": [
        {
          "internalType": "bool",
          "name": "",
          "type": "bool"
        }
      ],
      "stateMutability": "nonpayable",
      "type": "function"
    },
    {
      "inputs": [
        {
          "internalType": "uint256",
          "name": "amount",
          "type": "uint256"
        }
      ],
      "name": "fromUSD",
      "outputs": [
        {
          "internalType": "uint256",
          "name": "",
          "type": "uint256"
        }
      ],
      "stateMutability": "view",
      "type": "function"
    },
    {
      "inputs": [
        {
          "internalType": "address",
          "name": "spender",
          "type": "address"
        },
        {
          "internalType": "uint256",
          "name": "addedValue",
          "type": "uint256"
        }
      ],
      "name": "increaseAllowance",
      "outputs": [
        {
          "internalType": "bool",
          "name": "",
          "type": "bool"
        }
      ],
      "stateMutability": "nonpayable",
      "type": "function"
    },
    {
      "inputs": [
        {
          "internalType": "address",
          "name": "_outbox",
          "type": "address"
        },
        {
          "internalType": "address",
          "name": "_xUSDC",
          "type": "address"
        },
        {
          "internalType": "string",
          "name": "_name",
          "type": "string"
        },
        {
          "internalType": "string",
          "name": "_symbol",
          "type": "string"
        }
      ],
      "name": "initialize",
      "outputs": [],
      "stateMutability": "nonpayable",
      "type": "function"
    },
    {
      "inputs": [],
      "name": "name",
      "outputs": [
        {
          "internalType": "string",
          "name": "",
          "type": "string"
        }
      ],
      "stateMutability": "view",
      "type": "function"
    },
    {
      "inputs": [
        {
          "internalType": "address",
          "name": "_tCO2",
          "type": "address"
        },
        {
          "internalType": "uint256",
          "name": "_amountXCO2",
          "type": "uint256"
        },
        {
          "internalType": "address",
          "name": "_beneficiary",
          "type": "address"
        }
      ],
      "name": "offsetX",
      "outputs": [],
      "stateMutability": "payable",
      "type": "function"
    },
    {
      "inputs": [],
      "name": "oracle",
      "outputs": [
        {
          "internalType": "address",
          "name": "",
          "type": "address"
        }
      ],
      "stateMutability": "view",
      "type": "function"
    },
    {
      "inputs": [],
      "name": "owner",
      "outputs": [
        {
          "internalType": "address",
          "name": "",
          "type": "address"
        }
      ],
      "stateMutability": "view",
      "type": "function"
    },
    {
      "inputs": [],
      "name": "renounceOwnership",
      "outputs": [],
      "stateMutability": "nonpayable",
      "type": "function"
    },
    {
      "inputs": [
        {
          "internalType": "address",
          "name": "_oracle",
          "type": "address"
        },
        {
          "internalType": "address",
          "name": "_stableToken",
          "type": "address"
        }
      ],
      "name": "setDependencies",
      "outputs": [],
      "stateMutability": "nonpayable",
      "type": "function"
    },
    {
      "inputs": [],
      "name": "stableToken",
      "outputs": [
        {
          "internalType": "address",
          "name": "",
          "type": "address"
        }
      ],
      "stateMutability": "view",
      "type": "function"
    },
    {
      "inputs": [],
      "name": "symbol",
      "outputs": [
        {
          "internalType": "string",
          "name": "",
          "type": "string"
        }
      ],
      "stateMutability": "view",
      "type": "function"
    },
    {
      "inputs": [
        {
          "internalType": "uint256",
          "name": "amount",
          "type": "uint256"
        }
      ],
      "name": "toUSD",
      "outputs": [
        {
          "internalType": "uint256",
          "name": "",
          "type": "uint256"
        }
      ],
      "stateMutability": "view",
      "type": "function"
    },
    {
      "inputs": [],
      "name": "totalSupply",
      "outputs": [
        {
          "internalType": "uint256",
          "name": "",
          "type": "uint256"
        }
      ],
      "stateMutability": "view",
      "type": "function"
    },
    {
      "inputs": [
        {
          "internalType": "address",
          "name": "to",
          "type": "address"
        },
        {
          "internalType": "uint256",
          "name": "amount",
          "type": "uint256"
        }
      ],
      "name": "transfer",
      "outputs": [
        {
          "internalType": "bool",
          "name": "",
          "type": "bool"
        }
      ],
      "stateMutability": "nonpayable",
      "type": "function"
    },
    {
      "inputs": [
        {
          "internalType": "address",
          "name": "from",
          "type": "address"
        },
        {
          "internalType": "address",
          "name": "to",
          "type": "address"
        },
        {
          "internalType": "uint256",
          "name": "amount",
          "type": "uint256"
        }
      ],
      "name": "transferFrom",
      "outputs": [
        {
          "internalType": "bool",
          "name": "",
          "type": "bool"
        }
      ],
      "stateMutability": "nonpayable",
      "type": "function"
    },
    {
      "inputs": [
        {
          "internalType": "address",
          "name": "newOwner",
          "type": "address"
        }
      ],
      "name": "transferOwnership",
      "outputs": [],
      "stateMutability": "nonpayable",
      "type": "function"
    },
    {
      "inputs": [],
      "name": "withdrawFunds",
      "outputs": [],
      "stateMutability": "nonpayable",
      "type": "function"
    }
  ],
  "bytecode": {
    "object": "0x608060405234801561001057600080fd5b506113c7806100206000396000f3fe6080604052600436106101355760003560e01c80638da5cb5b116100ab578063a9059cbb1161006f578063a9059cbb1461035d578063a9d75b2b1461037d578063dd62ed3e1461039d578063e08eeb97146103bd578063e87c28a7146103d0578063f2fde38b146103f057600080fd5b80638da5cb5b146102ca57806394a74a37146102e857806395d89b41146103085780639d9969ed1461031d578063a457c2d71461033d57600080fd5b806324600fc3116100fd57806324600fc3146101f6578063313ce5671461020b578063395093511461022757806370a0823114610247578063715018a61461027d5780637dc0d1d01461029257600080fd5b806306fdde031461013a578063095ea7b31461016557806318160ddd146101955780632016a0d2146101b457806323b872dd146101d6575b600080fd5b34801561014657600080fd5b5061014f610410565b60405161015c9190610fca565b60405180910390f35b34801561017157600080fd5b50610185610180366004611000565b6104a2565b604051901515815260200161015c565b3480156101a157600080fd5b506035545b60405190815260200161015c565b3480156101c057600080fd5b506101d46101cf3660046110cd565b6104ba565b005b3480156101e257600080fd5b506101856101f1366004611152565b61060f565b34801561020257600080fd5b506101d4610633565b34801561021757600080fd5b506040516012815260200161015c565b34801561023357600080fd5b50610185610242366004611000565b610658565b34801561025357600080fd5b506101a661026236600461118e565b6001600160a01b031660009081526033602052604090205490565b34801561028957600080fd5b506101d461067a565b34801561029e57600080fd5b506099546102b2906001600160a01b031681565b6040516001600160a01b03909116815260200161015c565b3480156102d657600080fd5b506065546001600160a01b03166102b2565b3480156102f457600080fd5b506101a66103033660046111a9565b61068e565b34801561031457600080fd5b5061014f610726565b34801561032957600080fd5b506101a66103383660046111a9565b610735565b34801561034957600080fd5b50610185610358366004611000565b6107bb565b34801561036957600080fd5b50610185610378366004611000565b610836565b34801561038957600080fd5b50609a546102b2906001600160a01b031681565b3480156103a957600080fd5b506101a66103b83660046111c2565b610844565b6101d46103cb3660046111f5565b61086f565b3480156103dc57600080fd5b506101d46103eb3660046111c2565b6109b8565b3480156103fc57600080fd5b506101d461040b36600461118e565b6109ee565b60606036805461041f90611231565b80601f016020809104026020016040519081016040528092919081815260200182805461044b90611231565b80156104985780601f1061046d57610100808354040283529160200191610498565b820191906000526020600020905b81548152906001019060200180831161047b57829003601f168201915b5050505050905090565b6000336104b0818585610a67565b5060019392505050565b600054610100900460ff16158080156104da5750600054600160ff909116105b806104f45750303b1580156104f4575060005460ff166001145b61055c5760405162461bcd60e51b815260206004820152602e60248201527f496e697469616c697a61626c653a20636f6e747261637420697320616c72656160448201526d191e481a5b9a5d1a585b1a5e995960921b60648201526084015b60405180910390fd5b6000805460ff19166001179055801561057f576000805461ff0019166101001790555b610588336109ee565b609780546001600160a01b038088166001600160a01b03199283161790925560988054928716929091169190911790556105c28383610b8b565b8015610608576000805461ff0019169055604051600181527f7f26b83ff96e1f2b6a682f133852f6798a09c465da95921460cefb38474024989060200160405180910390a15b5050505050565b60003361061d858285610bc0565b610628858585610c3a565b506001949350505050565b61063b610de5565b60405133904780156108fc02916000818181858888f15050505050565b6000336104b081858561066b8383610844565b6106759190611282565b610a67565b610682610de5565b61068c6000610e3f565b565b609954609a54604051630ef90e1b60e41b81526001600160a01b0391821660048201526000928392839291169063ef90e1b0906024016040805180830381865afa1580156106e0573d6000803e3d6000fd5b505050506040513d601f19601f82011682018060405250810190610704919061129a565b90925090508161071482866112be565b61071e91906112dd565b949350505050565b60606037805461041f90611231565b609954609a54604051630ef90e1b60e41b81526001600160a01b0391821660048201526000928392839291169063ef90e1b0906024016040805180830381865afa158015610787573d6000803e3d6000fd5b505050506040513d601f19601f820116820180604052508101906107ab919061129a565b90925090508061071483866112be565b600033816107c98286610844565b9050838110156108295760405162461bcd60e51b815260206004820152602560248201527f45524332303a2064656372656173656420616c6c6f77616e63652062656c6f77604482015264207a65726f60d81b6064820152608401610553565b6106288286868403610a67565b6000336104b0818585610c3a565b6001600160a01b03918216600090815260346020908152604080832093909416825291909152205490565b8161087934610735565b10156108bd5760405162461bcd60e51b81526020600482015260136024820152722737ba1032b737bab3b4103337b9103c21a79960691b6044820152606401610553565b609754609854604080516001600160a01b03878116602083015291810186905284821660608201529281169263fa31de019263706f6c799216906080016040516020818303038152906040526040518463ffffffff1660e01b8152600401610927939291906112ff565b6020604051808303816000875af1158015610946573d6000803e3d6000fd5b505050506040513d601f19601f8201168201806040525081019061096a919061132d565b5060405163706f6c7981526001600160a01b038083169184918616907f917e03cbde5457cdbf299beea5ca8b2a8ac6b1e85030cf06275ec8ecb519c5fa9060200160405180910390a4505050565b6109c0610de5565b609980546001600160a01b039384166001600160a01b031991821617909155609a8054929093169116179055565b6109f6610de5565b6001600160a01b038116610a5b5760405162461bcd60e51b815260206004820152602660248201527f4f776e61626c653a206e6577206f776e657220697320746865207a65726f206160448201526564647265737360d01b6064820152608401610553565b610a6481610e3f565b50565b6001600160a01b038316610ac95760405162461bcd60e51b8152602060048201526024808201527f45524332303a20617070726f76652066726f6d20746865207a65726f206164646044820152637265737360e01b6064820152608401610553565b6001600160a01b038216610b2a5760405162461bcd60e51b815260206004820152602260248201527f45524332303a20617070726f766520746f20746865207a65726f206164647265604482015261737360f01b6064820152608401610553565b6001600160a01b0383811660008181526034602090815260408083209487168084529482529182902085905590518481527f8c5be1e5ebec7d5bd14f71427d1e84f3dd0314c0f7b2291e5b200ac8c7c3b925910160405180910390a3505050565b600054610100900460ff16610bb25760405162461bcd60e51b815260040161055390611346565b610bbc8282610e91565b5050565b6000610bcc8484610844565b90506000198114610c345781811015610c275760405162461bcd60e51b815260206004820152601d60248201527f45524332303a20696e73756666696369656e7420616c6c6f77616e63650000006044820152606401610553565b610c348484848403610a67565b50505050565b6001600160a01b038316610c9e5760405162461bcd60e51b815260206004820152602560248201527f45524332303a207472616e736665722066726f6d20746865207a65726f206164604482015264647265737360d81b6064820152608401610553565b6001600160a01b038216610d005760405162461bcd60e51b815260206004820152602360248201527f45524332303a207472616e7366657220746f20746865207a65726f206164647260448201526265737360e81b6064820152608401610553565b6001600160a01b03831660009081526033602052604090205481811015610d785760405162461bcd60e51b815260206004820152602660248201527f45524332303a207472616e7366657220616d6f756e7420657863656564732062604482015265616c616e636560d01b6064820152608401610553565b6001600160a01b0380851660008181526033602052604080822086860390559286168082529083902080548601905591517fddf252ad1be2c89b69c2b068fc378daa952ba7f163c4a11628f55a4df523b3ef90610dd89086815260200190565b60405180910390a3610c34565b6065546001600160a01b0316331461068c5760405162461bcd60e51b815260206004820181905260248201527f4f776e61626c653a2063616c6c6572206973206e6f7420746865206f776e65726044820152606401610553565b606580546001600160a01b038381166001600160a01b0319831681179093556040519116919082907f8be0079c531659141344cd1fd0a4f28419497f9722a3daafe3b4186f6b6457e090600090a35050565b600054610100900460ff16610eb85760405162461bcd60e51b815260040161055390611346565b8151610ecb906036906020850190610ee4565b508051610edf906037906020840190610ee4565b505050565b828054610ef090611231565b90600052602060002090601f016020900481019282610f125760008555610f58565b82601f10610f2b57805160ff1916838001178555610f58565b82800160010185558215610f58579182015b82811115610f58578251825591602001919060010190610f3d565b50610f64929150610f68565b5090565b5b80821115610f645760008155600101610f69565b6000815180845260005b81811015610fa357602081850181015186830182015201610f87565b81811115610fb5576000602083870101525b50601f01601f19169290920160200192915050565b602081526000610fdd6020830184610f7d565b9392505050565b80356001600160a01b0381168114610ffb57600080fd5b919050565b6000806040838503121561101357600080fd5b61101c83610fe4565b946020939093013593505050565b634e487b7160e01b600052604160045260246000fd5b600082601f83011261105157600080fd5b813567ffffffffffffffff8082111561106c5761106c61102a565b604051601f8301601f19908116603f011681019082821181831017156110945761109461102a565b816040528381528660208588010111156110ad57600080fd5b836020870160208301376000602085830101528094505050505092915050565b600080600080608085870312156110e357600080fd5b6110ec85610fe4565b93506110fa60208601610fe4565b9250604085013567ffffffffffffffff8082111561111757600080fd5b61112388838901611040565b9350606087013591508082111561113957600080fd5b5061114687828801611040565b91505092959194509250565b60008060006060848603121561116757600080fd5b61117084610fe4565b925061117e60208501610fe4565b9150604084013590509250925092565b6000602082840312156111a057600080fd5b610fdd82610fe4565b6000602082840312156111bb57600080fd5b5035919050565b600080604083850312156111d557600080fd5b6111de83610fe4565b91506111ec60208401610fe4565b90509250929050565b60008060006060848603121561120a57600080fd5b61121384610fe4565b92506020840135915061122860408501610fe4565b90509250925092565b600181811c9082168061124557607f821691505b6020821081141561126657634e487b7160e01b600052602260045260246000fd5b50919050565b634e487b7160e01b600052601160045260246000fd5b600082198211156112955761129561126c565b500190565b600080604083850312156112ad57600080fd5b505080516020909101519092909150565b60008160001904831182151516156112d8576112d861126c565b500290565b6000826112fa57634e487b7160e01b600052601260045260246000fd5b500490565b63ffffffff841681528260208201526060604082015260006113246060830184610f7d565b95945050505050565b60006020828403121561133f57600080fd5b5051919050565b6020808252602b908201527f496e697469616c697a61626c653a20636f6e7472616374206973206e6f74206960408201526a6e697469616c697a696e6760a81b60608201526080019056fea2646970667358221220711ab68687b0cb7351ec13ead87cb61825f24add5f224aa239988ca23e74a80c64736f6c634300080b0033",
    "linkReferences": {}
  },
  "methodIdentifiers": {
    "allowance(address,address)": "dd62ed3e",
    "approve(address,uint256)": "095ea7b3",
    "balanceOf(address)": "70a08231",
    "decimals()": "313ce567",
    "decreaseAllowance(address,uint256)": "a457c2d7",
    "fromUSD(uint256)": "94a74a37",
    "increaseAllowance(address,uint256)": "39509351",
    "initialize(address,address,string,string)": "2016a0d2",
    "name()": "06fdde03",
    "offsetX(address,uint256,address)": "e08eeb97",
    "oracle()": "7dc0d1d0",
    "owner()": "8da5cb5b",
    "renounceOwnership()": "715018a6",
    "setDependencies(address,address)": "e87c28a7",
    "stableToken()": "a9d75b2b",
    "symbol()": "95d89b41",
    "toUSD(uint256)": "9d9969ed",
    "totalSupply()": "18160ddd",
    "transfer(address,uint256)": "a9059cbb",
    "transferFrom(address,address,uint256)": "23b872dd",
    "transferOwnership(address)": "f2fde38b",
    "withdrawFunds()": "24600fc3"
  },
  "id": 40
}