{
  "abi": [
    {
      "inputs": [],
      "name": "NotImplemented",
      "type": "error"
    },
    {
      "anonymous": false,
      "inputs": [
        {
          "indexed": true,
          "internalType": "address",
          "name": "owner",
          "type": "address"
        },
        {
          "indexed": true,
          "internalType": "address",
          "name": "spender",
          "type": "address"
        },
        {
          "indexed": false,
          "internalType": "uint256",
          "name": "value",
          "type": "uint256"
        }
      ],
      "name": "Approval",
      "type": "event"
    },
    {
      "anonymous": false,
      "inputs": [
        {
          "indexed": false,
          "internalType": "uint8",
          "name": "version",
          "type": "uint8"
        }
      ],
      "name": "Initialized",
      "type": "event"
    },
    {
      "anonymous": false,
      "inputs": [
        {
          "indexed": true,
          "internalType": "address",
          "name": "tCO2",
          "type": "address"
        },
        {
          "indexed": true,
          "internalType": "uint256",
          "name": "amountXCO2",
          "type": "uint256"
        },
        {
          "indexed": true,
          "internalType": "address",
          "name": "beneificiary",
          "type": "address"
        }
      ],
      "name": "Offset",
      "type": "event"
    },
    {
      "anonymous": false,
      "inputs": [
        {
          "indexed": true,
          "internalType": "address",
          "name": "tCO2",
          "type": "address"
        },
        {
          "indexed": true,
          "internalType": "uint256",
          "name": "amountXCO2",
          "type": "uint256"
        },
        {
          "indexed": true,
          "internalType": "address",
          "name": "beneficiary",
          "type": "address"
        },
        {
          "indexed": false,
          "internalType": "uint32",
          "name": "destination",
          "type": "uint32"
        }
      ],
      "name": "OffsetRemote",
      "type": "event"
    },
    {
      "anonymous": false,
      "inputs": [
        {
          "indexed": true,
          "internalType": "address",
          "name": "previousOwner",
          "type": "address"
        },
        {
          "indexed": true,
          "internalType": "address",
          "name": "newOwner",
          "type": "address"
        }
      ],
      "name": "OwnershipTransferred",
      "type": "event"
    },
    {
      "anonymous": false,
      "inputs": [
        {
          "indexed": true,
          "internalType": "address",
          "name": "from",
          "type": "address"
        },
        {
          "indexed": true,
          "internalType": "address",
          "name": "to",
          "type": "address"
        },
        {
          "indexed": false,
          "internalType": "uint256",
          "name": "value",
          "type": "uint256"
        }
      ],
      "name": "Transfer",
      "type": "event"
    },
    {
      "inputs": [
        {
          "internalType": "address",
          "name": "owner",
          "type": "address"
        },
        {
          "internalType": "address",
          "name": "spender",
          "type": "address"
        }
      ],
      "name": "allowance",
      "outputs": [
        {
          "internalType": "uint256",
          "name": "",
          "type": "uint256"
        }
      ],
      "stateMutability": "view",
      "type": "function"
    },
    {
      "inputs": [
        {
          "internalType": "address",
          "name": "spender",
          "type": "address"
        },
        {
          "internalType": "uint256",
          "name": "amount",
          "type": "uint256"
        }
      ],
      "name": "approve",
      "outputs": [
        {
          "internalType": "bool",
          "name": "",
          "type": "bool"
        }
      ],
      "stateMutability": "nonpayable",
      "type": "function"
    },
    {
      "inputs": [
        {
          "internalType": "address",
          "name": "account",
          "type": "address"
        }
      ],
      "name": "balanceOf",
      "outputs": [
        {
          "internalType": "uint256",
          "name": "",
          "type": "uint256"
        }
      ],
      "stateMutability": "view",
      "type": "function"
    },
    {
      "inputs": [],
      "name": "decimals",
      "outputs": [
        {
          "internalType": "uint8",
          "name": "",
          "type": "uint8"
        }
      ],
      "stateMutability": "view",
      "type": "function"
    },
    {
      "inputs": [
        {
          "internalType": "address",
          "name": "spender",
          "type": "address"
        },
        {
          "internalType": "uint256",
          "name": "subtractedValue",
          "type": "uint256"
        }
      ],
      "name": "decreaseAllowance",
      "outputs": [
        {
          "internalType": "bool",
          "name": "",
          "type": "bool"
        }
      ],
      "stateMutability": "nonpayable",
      "type": "function"
    },
    {
      "inputs": [
        {
          "internalType": "uint256",
          "name": "amount",
          "type": "uint256"
        }
      ],
      "name": "fromUSD",
      "outputs": [
        {
          "internalType": "uint256",
          "name": "",
          "type": "uint256"
        }
      ],
      "stateMutability": "view",
      "type": "function"
    },
    {
      "inputs": [
        {
          "internalType": "address",
          "name": "spender",
          "type": "address"
        },
        {
          "internalType": "uint256",
          "name": "addedValue",
          "type": "uint256"
        }
      ],
      "name": "increaseAllowance",
      "outputs": [
        {
          "internalType": "bool",
          "name": "",
          "type": "bool"
        }
      ],
      "stateMutability": "nonpayable",
      "type": "function"
    },
    {
      "inputs": [
        {
          "internalType": "address",
          "name": "_outbox",
          "type": "address"
        },
        {
          "internalType": "address",
          "name": "_xUSDC",
          "type": "address"
        },
        {
          "internalType": "string",
          "name": "_name",
          "type": "string"
        },
        {
          "internalType": "string",
          "name": "_symbol",
          "type": "string"
        }
      ],
      "name": "initialize",
      "outputs": [],
      "stateMutability": "nonpayable",
      "type": "function"
    },
    {
      "inputs": [],
      "name": "name",
      "outputs": [
        {
          "internalType": "string",
          "name": "",
          "type": "string"
        }
      ],
      "stateMutability": "view",
      "type": "function"
    },
    {
      "inputs": [
        {
          "internalType": "address",
          "name": "_tCO2",
          "type": "address"
        },
        {
          "internalType": "uint256",
          "name": "_amountXCO2",
          "type": "uint256"
        },
        {
          "internalType": "address",
          "name": "_beneficiary",
          "type": "address"
        }
      ],
      "name": "offsetX",
      "outputs": [],
      "stateMutability": "payable",
      "type": "function"
    },
    {
      "inputs": [],
      "name": "oracle",
      "outputs": [
        {
          "internalType": "address",
          "name": "",
          "type": "address"
        }
      ],
      "stateMutability": "view",
      "type": "function"
    },
    {
      "inputs": [],
      "name": "outbox",
      "outputs": [
        {
          "internalType": "address",
          "name": "",
          "type": "address"
        }
      ],
      "stateMutability": "view",
      "type": "function"
    },
    {
      "inputs": [],
      "name": "owner",
      "outputs": [
        {
          "internalType": "address",
          "name": "",
          "type": "address"
        }
      ],
      "stateMutability": "view",
      "type": "function"
    },
    {
      "inputs": [],
      "name": "renounceOwnership",
      "outputs": [],
      "stateMutability": "nonpayable",
      "type": "function"
    },
    {
      "inputs": [
        {
          "internalType": "address",
          "name": "_oracle",
          "type": "address"
        },
        {
          "internalType": "address",
          "name": "_stableToken",
          "type": "address"
        }
      ],
      "name": "setDependencies",
      "outputs": [],
      "stateMutability": "nonpayable",
      "type": "function"
    },
    {
      "inputs": [],
      "name": "stableToken",
      "outputs": [
        {
          "internalType": "address",
          "name": "",
          "type": "address"
        }
      ],
      "stateMutability": "view",
      "type": "function"
    },
    {
      "inputs": [],
      "name": "symbol",
      "outputs": [
        {
          "internalType": "string",
          "name": "",
          "type": "string"
        }
      ],
      "stateMutability": "view",
      "type": "function"
    },
    {
      "inputs": [
        {
          "internalType": "uint256",
          "name": "amount",
          "type": "uint256"
        }
      ],
      "name": "toUSD",
      "outputs": [
        {
          "internalType": "uint256",
          "name": "",
          "type": "uint256"
        }
      ],
      "stateMutability": "view",
      "type": "function"
    },
    {
      "inputs": [],
      "name": "totalSupply",
      "outputs": [
        {
          "internalType": "uint256",
          "name": "",
          "type": "uint256"
        }
      ],
      "stateMutability": "view",
      "type": "function"
    },
    {
      "inputs": [
        {
          "internalType": "address",
          "name": "to",
          "type": "address"
        },
        {
          "internalType": "uint256",
          "name": "amount",
          "type": "uint256"
        }
      ],
      "name": "transfer",
      "outputs": [
        {
          "internalType": "bool",
          "name": "",
          "type": "bool"
        }
      ],
      "stateMutability": "nonpayable",
      "type": "function"
    },
    {
      "inputs": [
        {
          "internalType": "address",
          "name": "from",
          "type": "address"
        },
        {
          "internalType": "address",
          "name": "to",
          "type": "address"
        },
        {
          "internalType": "uint256",
          "name": "amount",
          "type": "uint256"
        }
      ],
      "name": "transferFrom",
      "outputs": [
        {
          "internalType": "bool",
          "name": "",
          "type": "bool"
        }
      ],
      "stateMutability": "nonpayable",
      "type": "function"
    },
    {
      "inputs": [
        {
          "internalType": "address",
          "name": "newOwner",
          "type": "address"
        }
      ],
      "name": "transferOwnership",
      "outputs": [],
      "stateMutability": "nonpayable",
      "type": "function"
    },
    {
      "inputs": [],
      "name": "withdrawFunds",
      "outputs": [],
      "stateMutability": "nonpayable",
      "type": "function"
    },
    {
      "inputs": [],
      "name": "xUSDC",
      "outputs": [
        {
          "internalType": "address",
          "name": "",
          "type": "address"
        }
      ],
      "stateMutability": "view",
      "type": "function"
    }
  ],
  "bytecode": {
    "object": "0x608060405234801561001057600080fd5b5061141d806100206000396000f3fe60806040526004361061014b5760003560e01c806394a74a37116100b6578063ce11e6ab1161006f578063ce11e6ab146103b3578063dd62ed3e146103d3578063e08eeb97146103f3578063e405702714610406578063e87c28a714610426578063f2fde38b1461044657600080fd5b806394a74a37146102fe57806395d89b411461031e5780639d9969ed14610333578063a457c2d714610353578063a9059cbb14610373578063a9d75b2b1461039357600080fd5b8063313ce56711610108578063313ce56714610221578063395093511461023d57806370a082311461025d578063715018a6146102935780637dc0d1d0146102a85780638da5cb5b146102e057600080fd5b806306fdde0314610150578063095ea7b31461017b57806318160ddd146101ab5780632016a0d2146101ca57806323b872dd146101ec57806324600fc31461020c575b600080fd5b34801561015c57600080fd5b50610165610466565b6040516101729190611020565b60405180910390f35b34801561018757600080fd5b5061019b610196366004611056565b6104f8565b6040519015158152602001610172565b3480156101b757600080fd5b506035545b604051908152602001610172565b3480156101d657600080fd5b506101ea6101e5366004611123565b610510565b005b3480156101f857600080fd5b5061019b6102073660046111a8565b610665565b34801561021857600080fd5b506101ea610689565b34801561022d57600080fd5b5060405160128152602001610172565b34801561024957600080fd5b5061019b610258366004611056565b6106ae565b34801561026957600080fd5b506101bc6102783660046111e4565b6001600160a01b031660009081526033602052604090205490565b34801561029f57600080fd5b506101ea6106d0565b3480156102b457600080fd5b506099546102c8906001600160a01b031681565b6040516001600160a01b039091168152602001610172565b3480156102ec57600080fd5b506065546001600160a01b03166102c8565b34801561030a57600080fd5b506101bc6103193660046111ff565b6106e4565b34801561032a57600080fd5b5061016561077c565b34801561033f57600080fd5b506101bc61034e3660046111ff565b61078b565b34801561035f57600080fd5b5061019b61036e366004611056565b610811565b34801561037f57600080fd5b5061019b61038e366004611056565b61088c565b34801561039f57600080fd5b50609a546102c8906001600160a01b031681565b3480156103bf57600080fd5b506097546102c8906001600160a01b031681565b3480156103df57600080fd5b506101bc6103ee366004611218565b61089a565b6101ea61040136600461124b565b6108c5565b34801561041257600080fd5b506098546102c8906001600160a01b031681565b34801561043257600080fd5b506101ea610441366004611218565b610a0e565b34801561045257600080fd5b506101ea6104613660046111e4565b610a44565b60606036805461047590611287565b80601f01602080910402602001604051908101604052809291908181526020018280546104a190611287565b80156104ee5780601f106104c3576101008083540402835291602001916104ee565b820191906000526020600020905b8154815290600101906020018083116104d157829003601f168201915b5050505050905090565b600033610506818585610abd565b5060019392505050565b600054610100900460ff16158080156105305750600054600160ff909116105b8061054a5750303b15801561054a575060005460ff166001145b6105b25760405162461bcd60e51b815260206004820152602e60248201527f496e697469616c697a61626c653a20636f6e747261637420697320616c72656160448201526d191e481a5b9a5d1a585b1a5e995960921b60648201526084015b60405180910390fd5b6000805460ff1916600117905580156105d5576000805461ff0019166101001790555b6105de33610a44565b609780546001600160a01b038088166001600160a01b03199283161790925560988054928716929091169190911790556106188383610be1565b801561065e576000805461ff0019169055604051600181527f7f26b83ff96e1f2b6a682f133852f6798a09c465da95921460cefb38474024989060200160405180910390a15b5050505050565b600033610673858285610c16565b61067e858585610c90565b506001949350505050565b610691610e3b565b60405133904780156108fc02916000818181858888f15050505050565b6000336105068185856106c1838361089a565b6106cb91906112d8565b610abd565b6106d8610e3b565b6106e26000610e95565b565b609954609a54604051630ef90e1b60e41b81526001600160a01b0391821660048201526000928392839291169063ef90e1b0906024016040805180830381865afa158015610736573d6000803e3d6000fd5b505050506040513d601f19601f8201168201806040525081019061075a91906112f0565b90925090508161076a8286611314565b6107749190611333565b949350505050565b60606037805461047590611287565b609954609a54604051630ef90e1b60e41b81526001600160a01b0391821660048201526000928392839291169063ef90e1b0906024016040805180830381865afa1580156107dd573d6000803e3d6000fd5b505050506040513d601f19601f8201168201806040525081019061080191906112f0565b90925090508061076a8386611314565b6000338161081f828661089a565b90508381101561087f5760405162461bcd60e51b815260206004820152602560248201527f45524332303a2064656372656173656420616c6c6f77616e63652062656c6f77604482015264207a65726f60d81b60648201526084016105a9565b61067e8286868403610abd565b600033610506818585610c90565b6001600160a01b03918216600090815260346020908152604080832093909416825291909152205490565b816108cf3461078b565b10156109135760405162461bcd60e51b81526020600482015260136024820152722737ba1032b737bab3b4103337b9103c21a79960691b60448201526064016105a9565b609754609854604080516001600160a01b03878116602083015291810186905284821660608201529281169263fa31de019263706f6c799216906080016040516020818303038152906040526040518463ffffffff1660e01b815260040161097d93929190611355565b6020604051808303816000875af115801561099c573d6000803e3d6000fd5b505050506040513d601f19601f820116820180604052508101906109c09190611383565b5060405163706f6c7981526001600160a01b038083169184918616907f917e03cbde5457cdbf299beea5ca8b2a8ac6b1e85030cf06275ec8ecb519c5fa9060200160405180910390a4505050565b610a16610e3b565b609980546001600160a01b039384166001600160a01b031991821617909155609a8054929093169116179055565b610a4c610e3b565b6001600160a01b038116610ab15760405162461bcd60e51b815260206004820152602660248201527f4f776e61626c653a206e6577206f776e657220697320746865207a65726f206160448201526564647265737360d01b60648201526084016105a9565b610aba81610e95565b50565b6001600160a01b038316610b1f5760405162461bcd60e51b8152602060048201526024808201527f45524332303a20617070726f76652066726f6d20746865207a65726f206164646044820152637265737360e01b60648201526084016105a9565b6001600160a01b038216610b805760405162461bcd60e51b815260206004820152602260248201527f45524332303a20617070726f766520746f20746865207a65726f206164647265604482015261737360f01b60648201526084016105a9565b6001600160a01b0383811660008181526034602090815260408083209487168084529482529182902085905590518481527f8c5be1e5ebec7d5bd14f71427d1e84f3dd0314c0f7b2291e5b200ac8c7c3b925910160405180910390a3505050565b600054610100900460ff16610c085760405162461bcd60e51b81526004016105a99061139c565b610c128282610ee7565b5050565b6000610c22848461089a565b90506000198114610c8a5781811015610c7d5760405162461bcd60e51b815260206004820152601d60248201527f45524332303a20696e73756666696369656e7420616c6c6f77616e636500000060448201526064016105a9565b610c8a8484848403610abd565b50505050565b6001600160a01b038316610cf45760405162461bcd60e51b815260206004820152602560248201527f45524332303a207472616e736665722066726f6d20746865207a65726f206164604482015264647265737360d81b60648201526084016105a9565b6001600160a01b038216610d565760405162461bcd60e51b815260206004820152602360248201527f45524332303a207472616e7366657220746f20746865207a65726f206164647260448201526265737360e81b60648201526084016105a9565b6001600160a01b03831660009081526033602052604090205481811015610dce5760405162461bcd60e51b815260206004820152602660248201527f45524332303a207472616e7366657220616d6f756e7420657863656564732062604482015265616c616e636560d01b60648201526084016105a9565b6001600160a01b0380851660008181526033602052604080822086860390559286168082529083902080548601905591517fddf252ad1be2c89b69c2b068fc378daa952ba7f163c4a11628f55a4df523b3ef90610e2e9086815260200190565b60405180910390a3610c8a565b6065546001600160a01b031633146106e25760405162461bcd60e51b815260206004820181905260248201527f4f776e61626c653a2063616c6c6572206973206e6f7420746865206f776e657260448201526064016105a9565b606580546001600160a01b038381166001600160a01b0319831681179093556040519116919082907f8be0079c531659141344cd1fd0a4f28419497f9722a3daafe3b4186f6b6457e090600090a35050565b600054610100900460ff16610f0e5760405162461bcd60e51b81526004016105a99061139c565b8151610f21906036906020850190610f3a565b508051610f35906037906020840190610f3a565b505050565b828054610f4690611287565b90600052602060002090601f016020900481019282610f685760008555610fae565b82601f10610f8157805160ff1916838001178555610fae565b82800160010185558215610fae579182015b82811115610fae578251825591602001919060010190610f93565b50610fba929150610fbe565b5090565b5b80821115610fba5760008155600101610fbf565b6000815180845260005b81811015610ff957602081850181015186830182015201610fdd565b8181111561100b576000602083870101525b50601f01601f19169290920160200192915050565b6020815260006110336020830184610fd3565b9392505050565b80356001600160a01b038116811461105157600080fd5b919050565b6000806040838503121561106957600080fd5b6110728361103a565b946020939093013593505050565b634e487b7160e01b600052604160045260246000fd5b600082601f8301126110a757600080fd5b813567ffffffffffffffff808211156110c2576110c2611080565b604051601f8301601f19908116603f011681019082821181831017156110ea576110ea611080565b8160405283815286602085880101111561110357600080fd5b836020870160208301376000602085830101528094505050505092915050565b6000806000806080858703121561113957600080fd5b6111428561103a565b93506111506020860161103a565b9250604085013567ffffffffffffffff8082111561116d57600080fd5b61117988838901611096565b9350606087013591508082111561118f57600080fd5b5061119c87828801611096565b91505092959194509250565b6000806000606084860312156111bd57600080fd5b6111c68461103a565b92506111d46020850161103a565b9150604084013590509250925092565b6000602082840312156111f657600080fd5b6110338261103a565b60006020828403121561121157600080fd5b5035919050565b6000806040838503121561122b57600080fd5b6112348361103a565b91506112426020840161103a565b90509250929050565b60008060006060848603121561126057600080fd5b6112698461103a565b92506020840135915061127e6040850161103a565b90509250925092565b600181811c9082168061129b57607f821691505b602082108114156112bc57634e487b7160e01b600052602260045260246000fd5b50919050565b634e487b7160e01b600052601160045260246000fd5b600082198211156112eb576112eb6112c2565b500190565b6000806040838503121561130357600080fd5b505080516020909101519092909150565b600081600019048311821515161561132e5761132e6112c2565b500290565b60008261135057634e487b7160e01b600052601260045260246000fd5b500490565b63ffffffff8416815282602082015260606040820152600061137a6060830184610fd3565b95945050505050565b60006020828403121561139557600080fd5b5051919050565b6020808252602b908201527f496e697469616c697a61626c653a20636f6e7472616374206973206e6f74206960408201526a6e697469616c697a696e6760a81b60608201526080019056fea2646970667358221220c705dc51c0058090e4dbd6105a67e99ef9a0aabde7de3e0e8fd20fdb8fb7993f64736f6c634300080b0033",
    "linkReferences": {}
  },
  "methodIdentifiers": {
    "allowance(address,address)": "dd62ed3e",
    "approve(address,uint256)": "095ea7b3",
    "balanceOf(address)": "70a08231",
    "decimals()": "313ce567",
    "decreaseAllowance(address,uint256)": "a457c2d7",
    "fromUSD(uint256)": "94a74a37",
    "increaseAllowance(address,uint256)": "39509351",
    "initialize(address,address,string,string)": "2016a0d2",
    "name()": "06fdde03",
    "offsetX(address,uint256,address)": "e08eeb97",
    "oracle()": "7dc0d1d0",
    "outbox()": "ce11e6ab",
    "owner()": "8da5cb5b",
    "renounceOwnership()": "715018a6",
    "setDependencies(address,address)": "e87c28a7",
    "stableToken()": "a9d75b2b",
    "symbol()": "95d89b41",
    "toUSD(uint256)": "9d9969ed",
    "totalSupply()": "18160ddd",
    "transfer(address,uint256)": "a9059cbb",
    "transferFrom(address,address,uint256)": "23b872dd",
    "transferOwnership(address)": "f2fde38b",
    "withdrawFunds()": "24600fc3",
    "xUSDC()": "e4057027"
  },
  "id": 57
}