{
  "abi": [
    {
      "inputs": [],
      "name": "NotImplemented",
      "type": "error"
    },
    {
      "anonymous": false,
      "inputs": [
        {
          "indexed": true,
          "internalType": "address",
          "name": "owner",
          "type": "address"
        },
        {
          "indexed": true,
          "internalType": "address",
          "name": "spender",
          "type": "address"
        },
        {
          "indexed": false,
          "internalType": "uint256",
          "name": "value",
          "type": "uint256"
        }
      ],
      "name": "Approval",
      "type": "event"
    },
    {
      "anonymous": false,
      "inputs": [
        {
          "indexed": false,
          "internalType": "uint8",
          "name": "version",
          "type": "uint8"
        }
      ],
      "name": "Initialized",
      "type": "event"
    },
    {
      "anonymous": false,
      "inputs": [
        {
          "indexed": true,
          "internalType": "address",
          "name": "tCO2",
          "type": "address"
        },
        {
          "indexed": true,
          "internalType": "uint256",
          "name": "amountXCO2",
          "type": "uint256"
        },
        {
          "indexed": true,
          "internalType": "address",
          "name": "beneificiary",
          "type": "address"
        }
      ],
      "name": "Offset",
      "type": "event"
    },
    {
      "anonymous": false,
      "inputs": [
        {
          "indexed": true,
          "internalType": "address",
          "name": "tCO2",
          "type": "address"
        },
        {
          "indexed": true,
          "internalType": "uint256",
          "name": "amountXCO2",
          "type": "uint256"
        },
        {
          "indexed": true,
          "internalType": "address",
          "name": "beneficiary",
          "type": "address"
        },
        {
          "indexed": false,
          "internalType": "uint32",
          "name": "destination",
          "type": "uint32"
        }
      ],
      "name": "OffsetRemote",
      "type": "event"
    },
    {
      "anonymous": false,
      "inputs": [
        {
          "indexed": true,
          "internalType": "address",
          "name": "previousOwner",
          "type": "address"
        },
        {
          "indexed": true,
          "internalType": "address",
          "name": "newOwner",
          "type": "address"
        }
      ],
      "name": "OwnershipTransferred",
      "type": "event"
    },
    {
      "anonymous": false,
      "inputs": [
        {
          "indexed": true,
          "internalType": "address",
          "name": "from",
          "type": "address"
        },
        {
          "indexed": true,
          "internalType": "address",
          "name": "to",
          "type": "address"
        },
        {
          "indexed": false,
          "internalType": "uint256",
          "name": "value",
          "type": "uint256"
        }
      ],
      "name": "Transfer",
      "type": "event"
    },
    {
      "inputs": [
        {
          "internalType": "address",
          "name": "owner",
          "type": "address"
        },
        {
          "internalType": "address",
          "name": "spender",
          "type": "address"
        }
      ],
      "name": "allowance",
      "outputs": [
        {
          "internalType": "uint256",
          "name": "",
          "type": "uint256"
        }
      ],
      "stateMutability": "view",
      "type": "function"
    },
    {
      "inputs": [
        {
          "internalType": "address",
          "name": "spender",
          "type": "address"
        },
        {
          "internalType": "uint256",
          "name": "amount",
          "type": "uint256"
        }
      ],
      "name": "approve",
      "outputs": [
        {
          "internalType": "bool",
          "name": "",
          "type": "bool"
        }
      ],
      "stateMutability": "nonpayable",
      "type": "function"
    },
    {
      "inputs": [
        {
          "internalType": "address",
          "name": "account",
          "type": "address"
        }
      ],
      "name": "balanceOf",
      "outputs": [
        {
          "internalType": "uint256",
          "name": "",
          "type": "uint256"
        }
      ],
      "stateMutability": "view",
      "type": "function"
    },
    {
      "inputs": [],
      "name": "decimals",
      "outputs": [
        {
          "internalType": "uint8",
          "name": "",
          "type": "uint8"
        }
      ],
      "stateMutability": "view",
      "type": "function"
    },
    {
      "inputs": [
        {
          "internalType": "address",
          "name": "spender",
          "type": "address"
        },
        {
          "internalType": "uint256",
          "name": "subtractedValue",
          "type": "uint256"
        }
      ],
      "name": "decreaseAllowance",
      "outputs": [
        {
          "internalType": "bool",
          "name": "",
          "type": "bool"
        }
      ],
      "stateMutability": "nonpayable",
      "type": "function"
    },
    {
      "inputs": [
        {
          "internalType": "uint256",
          "name": "amount",
          "type": "uint256"
        }
      ],
      "name": "fromUSD",
      "outputs": [
        {
          "internalType": "uint256",
          "name": "",
          "type": "uint256"
        }
      ],
      "stateMutability": "view",
      "type": "function"
    },
    {
      "inputs": [
        {
          "internalType": "address",
          "name": "spender",
          "type": "address"
        },
        {
          "internalType": "uint256",
          "name": "addedValue",
          "type": "uint256"
        }
      ],
      "name": "increaseAllowance",
      "outputs": [
        {
          "internalType": "bool",
          "name": "",
          "type": "bool"
        }
      ],
      "stateMutability": "nonpayable",
      "type": "function"
    },
    {
      "inputs": [
        {
          "internalType": "address",
          "name": "_outbox",
          "type": "address"
        },
        {
          "internalType": "address",
          "name": "_xUSDC",
          "type": "address"
        },
        {
          "internalType": "string",
          "name": "_name",
          "type": "string"
        },
        {
          "internalType": "string",
          "name": "_symbol",
          "type": "string"
        }
      ],
      "name": "initialize",
      "outputs": [],
      "stateMutability": "nonpayable",
      "type": "function"
    },
    {
      "inputs": [],
      "name": "name",
      "outputs": [
        {
          "internalType": "string",
          "name": "",
          "type": "string"
        }
      ],
      "stateMutability": "view",
      "type": "function"
    },
    {
      "inputs": [
        {
          "internalType": "address",
          "name": "_tCO2",
          "type": "address"
        },
        {
          "internalType": "uint256",
          "name": "_amountXCO2",
          "type": "uint256"
        },
        {
          "internalType": "string",
          "name": "_entity",
          "type": "string"
        },
        {
          "internalType": "address",
          "name": "_beneficiary",
          "type": "address"
        },
        {
          "internalType": "string",
          "name": "_beneficiaryName",
          "type": "string"
        },
        {
          "internalType": "string",
          "name": "_msg",
          "type": "string"
        }
      ],
      "name": "offsetX",
      "outputs": [],
      "stateMutability": "payable",
      "type": "function"
    },
    {
      "inputs": [],
      "name": "oracle",
      "outputs": [
        {
          "internalType": "address",
          "name": "",
          "type": "address"
        }
      ],
      "stateMutability": "view",
      "type": "function"
    },
    {
      "inputs": [],
      "name": "outbox",
      "outputs": [
        {
          "internalType": "address",
          "name": "",
          "type": "address"
        }
      ],
      "stateMutability": "view",
      "type": "function"
    },
    {
      "inputs": [],
      "name": "owner",
      "outputs": [
        {
          "internalType": "address",
          "name": "",
          "type": "address"
        }
      ],
      "stateMutability": "view",
      "type": "function"
    },
    {
      "inputs": [],
      "name": "renounceOwnership",
      "outputs": [],
      "stateMutability": "nonpayable",
      "type": "function"
    },
    {
      "inputs": [
        {
          "internalType": "address",
          "name": "_oracle",
          "type": "address"
        },
        {
          "internalType": "address",
          "name": "_stableToken",
          "type": "address"
        }
      ],
      "name": "setDependencies",
      "outputs": [],
      "stateMutability": "nonpayable",
      "type": "function"
    },
    {
      "inputs": [
        {
          "internalType": "address",
          "name": "_outbox",
          "type": "address"
        }
      ],
      "name": "setOutbox",
      "outputs": [],
      "stateMutability": "nonpayable",
      "type": "function"
    },
    {
      "inputs": [
        {
          "internalType": "address",
          "name": "_xUSDC",
          "type": "address"
        }
      ],
      "name": "setXUSDC",
      "outputs": [],
      "stateMutability": "nonpayable",
      "type": "function"
    },
    {
      "inputs": [],
      "name": "stableToken",
      "outputs": [
        {
          "internalType": "address",
          "name": "",
          "type": "address"
        }
      ],
      "stateMutability": "view",
      "type": "function"
    },
    {
      "inputs": [],
      "name": "symbol",
      "outputs": [
        {
          "internalType": "string",
          "name": "",
          "type": "string"
        }
      ],
      "stateMutability": "view",
      "type": "function"
    },
    {
      "inputs": [
        {
          "internalType": "uint256",
          "name": "amount",
          "type": "uint256"
        }
      ],
      "name": "toUSD",
      "outputs": [
        {
          "internalType": "uint256",
          "name": "",
          "type": "uint256"
        }
      ],
      "stateMutability": "view",
      "type": "function"
    },
    {
      "inputs": [],
      "name": "totalSupply",
      "outputs": [
        {
          "internalType": "uint256",
          "name": "",
          "type": "uint256"
        }
      ],
      "stateMutability": "view",
      "type": "function"
    },
    {
      "inputs": [
        {
          "internalType": "address",
          "name": "to",
          "type": "address"
        },
        {
          "internalType": "uint256",
          "name": "amount",
          "type": "uint256"
        }
      ],
      "name": "transfer",
      "outputs": [
        {
          "internalType": "bool",
          "name": "",
          "type": "bool"
        }
      ],
      "stateMutability": "nonpayable",
      "type": "function"
    },
    {
      "inputs": [
        {
          "internalType": "address",
          "name": "from",
          "type": "address"
        },
        {
          "internalType": "address",
          "name": "to",
          "type": "address"
        },
        {
          "internalType": "uint256",
          "name": "amount",
          "type": "uint256"
        }
      ],
      "name": "transferFrom",
      "outputs": [
        {
          "internalType": "bool",
          "name": "",
          "type": "bool"
        }
      ],
      "stateMutability": "nonpayable",
      "type": "function"
    },
    {
      "inputs": [
        {
          "internalType": "address",
          "name": "newOwner",
          "type": "address"
        }
      ],
      "name": "transferOwnership",
      "outputs": [],
      "stateMutability": "nonpayable",
      "type": "function"
    },
    {
      "inputs": [],
      "name": "withdrawFunds",
      "outputs": [],
      "stateMutability": "nonpayable",
      "type": "function"
    },
    {
      "inputs": [],
      "name": "xUSDC",
      "outputs": [
        {
          "internalType": "address",
          "name": "",
          "type": "address"
        }
      ],
      "stateMutability": "view",
      "type": "function"
    }
  ],
  "bytecode": {
    "object": "0x608060405234801561001057600080fd5b506116d5806100206000396000f3fe6080604052600436106101815760003560e01c806394a74a37116100d1578063b587c21a1161008a578063e405702711610064578063e40570271461045c578063e87c28a71461047c578063f2fde38b1461049c578063ff204f3b146104bc57600080fd5b8063b587c21a14610409578063ce11e6ab1461041c578063dd62ed3e1461043c57600080fd5b806394a74a371461035457806395d89b41146103745780639d9969ed14610389578063a457c2d7146103a9578063a9059cbb146103c9578063a9d75b2b146103e957600080fd5b8063313ce5671161013e578063715018a611610118578063715018a6146102c95780637dc0d1d0146102de5780637f6e66b3146103165780638da5cb5b1461033657600080fd5b8063313ce56714610257578063395093511461027357806370a082311461029357600080fd5b806306fdde0314610186578063095ea7b3146101b157806318160ddd146101e15780632016a0d21461020057806323b872dd1461022257806324600fc314610242575b600080fd5b34801561019257600080fd5b5061019b6104dc565b6040516101a8919061116e565b60405180910390f35b3480156101bd57600080fd5b506101d16101cc3660046111a4565b61056e565b60405190151581526020016101a8565b3480156101ed57600080fd5b506035545b6040519081526020016101a8565b34801561020c57600080fd5b5061022061021b366004611271565b610586565b005b34801561022e57600080fd5b506101d161023d3660046112f6565b6106da565b34801561024e57600080fd5b506102206106fe565b34801561026357600080fd5b50604051601281526020016101a8565b34801561027f57600080fd5b506101d161028e3660046111a4565b610735565b34801561029f57600080fd5b506101f26102ae366004611332565b6001600160a01b031660009081526033602052604090205490565b3480156102d557600080fd5b50610220610757565b3480156102ea57600080fd5b506099546102fe906001600160a01b031681565b6040516001600160a01b0390911681526020016101a8565b34801561032257600080fd5b50610220610331366004611332565b61076b565b34801561034257600080fd5b506065546001600160a01b03166102fe565b34801561036057600080fd5b506101f261036f36600461134d565b610795565b34801561038057600080fd5b5061019b61082d565b34801561039557600080fd5b506101f26103a436600461134d565b61083c565b3480156103b557600080fd5b506101d16103c43660046111a4565b6108c2565b3480156103d557600080fd5b506101d16103e43660046111a4565b61093d565b3480156103f557600080fd5b50609a546102fe906001600160a01b031681565b6102206104173660046113af565b61094b565b34801561042857600080fd5b506097546102fe906001600160a01b031681565b34801561044857600080fd5b506101f2610457366004611479565b610aab565b34801561046857600080fd5b506098546102fe906001600160a01b031681565b34801561048857600080fd5b50610220610497366004611479565b610ad6565b3480156104a857600080fd5b506102206104b7366004611332565b610b0c565b3480156104c857600080fd5b506102206104d7366004611332565b610b82565b6060603680546104eb906114ac565b80601f0160208091040260200160405190810160405280929190818152602001828054610517906114ac565b80156105645780601f1061053957610100808354040283529160200191610564565b820191906000526020600020905b81548152906001019060200180831161054757829003601f168201915b5050505050905090565b60003361057c818585610bac565b5060019392505050565b600054610100900460ff16158080156105a65750600054600160ff909116105b806105c05750303b1580156105c0575060005460ff166001145b6106285760405162461bcd60e51b815260206004820152602e60248201527f496e697469616c697a61626c653a20636f6e747261637420697320616c72656160448201526d191e481a5b9a5d1a585b1a5e995960921b60648201526084015b60405180910390fd5b6000805460ff19166001179055801561064b576000805461ff0019166101001790555b610653610cd0565b609780546001600160a01b038088166001600160a01b031992831617909255609880549287169290911691909117905561068d8383610cff565b80156106d3576000805461ff0019169055604051600181527f7f26b83ff96e1f2b6a682f133852f6798a09c465da95921460cefb38474024989060200160405180910390a15b5050505050565b6000336106e8858285610d34565b6106f3858585610dae565b506001949350505050565b610706610f59565b60405133904780156108fc02916000818181858888f19350505050158015610732573d6000803e3d6000fd5b50565b60003361057c8185856107488383610aab565b61075291906114fd565b610bac565b61075f610f59565b6107696000610fb3565b565b610773610f59565b609880546001600160a01b0319166001600160a01b0392909216919091179055565b609954609a54604051630ef90e1b60e41b81526001600160a01b0391821660048201526000928392839291169063ef90e1b0906024016040805180830381865afa1580156107e7573d6000803e3d6000fd5b505050506040513d601f19601f8201168201806040525081019061080b9190611515565b90925090508161081b8286611539565b6108259190611558565b949350505050565b6060603780546104eb906114ac565b609954609a54604051630ef90e1b60e41b81526001600160a01b0391821660048201526000928392839291169063ef90e1b0906024016040805180830381865afa15801561088e573d6000803e3d6000fd5b505050506040513d601f19601f820116820180604052508101906108b29190611515565b90925090508061081b8386611539565b600033816108d08286610aab565b9050838110156109305760405162461bcd60e51b815260206004820152602560248201527f45524332303a2064656372656173656420616c6c6f77616e63652062656c6f77604482015264207a65726f60d81b606482015260840161061f565b6106f38286868403610bac565b60003361057c818585610dae565b876109553461083c565b10156109995760405162461bcd60e51b81526020600482015260136024820152722737ba1032b737bab3b4103337b9103c21a79960691b604482015260640161061f565b6097546098546001600160a01b039182169163fa31de019163706f6c7991168c6109c864e8d4a510008e611558565b8c8c8c8c8c8c8c6040516020016109e7999897969594939291906115a3565b6040516020818303038152906040526040518463ffffffff1660e01b8152600401610a149392919061160d565b6020604051808303816000875af1158015610a33573d6000803e3d6000fd5b505050506040513d601f19601f82011682018060405250810190610a57919061163b565b5060405163706f6c7981526001600160a01b03808716918a918c16907f917e03cbde5457cdbf299beea5ca8b2a8ac6b1e85030cf06275ec8ecb519c5fa9060200160405180910390a4505050505050505050565b6001600160a01b03918216600090815260346020908152604080832093909416825291909152205490565b610ade610f59565b609980546001600160a01b039384166001600160a01b031991821617909155609a8054929093169116179055565b610b14610f59565b6001600160a01b038116610b795760405162461bcd60e51b815260206004820152602660248201527f4f776e61626c653a206e6577206f776e657220697320746865207a65726f206160448201526564647265737360d01b606482015260840161061f565b61073281610fb3565b610b8a610f59565b609780546001600160a01b0319166001600160a01b0392909216919091179055565b6001600160a01b038316610c0e5760405162461bcd60e51b8152602060048201526024808201527f45524332303a20617070726f76652066726f6d20746865207a65726f206164646044820152637265737360e01b606482015260840161061f565b6001600160a01b038216610c6f5760405162461bcd60e51b815260206004820152602260248201527f45524332303a20617070726f766520746f20746865207a65726f206164647265604482015261737360f01b606482015260840161061f565b6001600160a01b0383811660008181526034602090815260408083209487168084529482529182902085905590518481527f8c5be1e5ebec7d5bd14f71427d1e84f3dd0314c0f7b2291e5b200ac8c7c3b925910160405180910390a3505050565b600054610100900460ff16610cf75760405162461bcd60e51b815260040161061f90611654565b610769611005565b600054610100900460ff16610d265760405162461bcd60e51b815260040161061f90611654565b610d308282611035565b5050565b6000610d408484610aab565b90506000198114610da85781811015610d9b5760405162461bcd60e51b815260206004820152601d60248201527f45524332303a20696e73756666696369656e7420616c6c6f77616e6365000000604482015260640161061f565b610da88484848403610bac565b50505050565b6001600160a01b038316610e125760405162461bcd60e51b815260206004820152602560248201527f45524332303a207472616e736665722066726f6d20746865207a65726f206164604482015264647265737360d81b606482015260840161061f565b6001600160a01b038216610e745760405162461bcd60e51b815260206004820152602360248201527f45524332303a207472616e7366657220746f20746865207a65726f206164647260448201526265737360e81b606482015260840161061f565b6001600160a01b03831660009081526033602052604090205481811015610eec5760405162461bcd60e51b815260206004820152602660248201527f45524332303a207472616e7366657220616d6f756e7420657863656564732062604482015265616c616e636560d01b606482015260840161061f565b6001600160a01b0380851660008181526033602052604080822086860390559286168082529083902080548601905591517fddf252ad1be2c89b69c2b068fc378daa952ba7f163c4a11628f55a4df523b3ef90610f4c9086815260200190565b60405180910390a3610da8565b6065546001600160a01b031633146107695760405162461bcd60e51b815260206004820181905260248201527f4f776e61626c653a2063616c6c6572206973206e6f7420746865206f776e6572604482015260640161061f565b606580546001600160a01b038381166001600160a01b0319831681179093556040519116919082907f8be0079c531659141344cd1fd0a4f28419497f9722a3daafe3b4186f6b6457e090600090a35050565b600054610100900460ff1661102c5760405162461bcd60e51b815260040161061f90611654565b61076933610fb3565b600054610100900460ff1661105c5760405162461bcd60e51b815260040161061f90611654565b815161106f906036906020850190611088565b508051611083906037906020840190611088565b505050565b828054611094906114ac565b90600052602060002090601f0160209004810192826110b657600085556110fc565b82601f106110cf57805160ff19168380011785556110fc565b828001600101855582156110fc579182015b828111156110fc5782518255916020019190600101906110e1565b5061110892915061110c565b5090565b5b80821115611108576000815560010161110d565b6000815180845260005b818110156111475760208185018101518683018201520161112b565b81811115611159576000602083870101525b50601f01601f19169290920160200192915050565b6020815260006111816020830184611121565b9392505050565b80356001600160a01b038116811461119f57600080fd5b919050565b600080604083850312156111b757600080fd5b6111c083611188565b946020939093013593505050565b634e487b7160e01b600052604160045260246000fd5b600082601f8301126111f557600080fd5b813567ffffffffffffffff80821115611210576112106111ce565b604051601f8301601f19908116603f01168101908282118183101715611238576112386111ce565b8160405283815286602085880101111561125157600080fd5b836020870160208301376000602085830101528094505050505092915050565b6000806000806080858703121561128757600080fd5b61129085611188565b935061129e60208601611188565b9250604085013567ffffffffffffffff808211156112bb57600080fd5b6112c7888389016111e4565b935060608701359150808211156112dd57600080fd5b506112ea878288016111e4565b91505092959194509250565b60008060006060848603121561130b57600080fd5b61131484611188565b925061132260208501611188565b9150604084013590509250925092565b60006020828403121561134457600080fd5b61118182611188565b60006020828403121561135f57600080fd5b5035919050565b60008083601f84011261137857600080fd5b50813567ffffffffffffffff81111561139057600080fd5b6020830191508360208285010111156113a857600080fd5b9250929050565b600080600080600080600080600060c08a8c0312156113cd57600080fd5b6113d68a611188565b985060208a0135975060408a013567ffffffffffffffff808211156113fa57600080fd5b6114068d838e01611366565b909950975087915061141a60608d01611188565b965060808c013591508082111561143057600080fd5b61143c8d838e01611366565b909650945060a08c013591508082111561145557600080fd5b506114628c828d01611366565b915080935050809150509295985092959850929598565b6000806040838503121561148c57600080fd5b61149583611188565b91506114a360208401611188565b90509250929050565b600181811c908216806114c057607f821691505b602082108114156114e157634e487b7160e01b600052602260045260246000fd5b50919050565b634e487b7160e01b600052601160045260246000fd5b60008219821115611510576115106114e7565b500190565b6000806040838503121561152857600080fd5b505080516020909101519092909150565b6000816000190483118215151615611553576115536114e7565b500290565b60008261157557634e487b7160e01b600052601260045260246000fd5b500490565b81835281816020850137506000828201602090810191909152601f909101601f19169091010190565b600060018060a01b03808c1683528a602084015260c060408401526115cc60c084018a8c61157a565b818916606085015283810360808501526115e781888a61157a565b91505082810360a08401526115fd81858761157a565b9c9b505050505050505050505050565b63ffffffff841681528260208201526060604082015260006116326060830184611121565b95945050505050565b60006020828403121561164d57600080fd5b5051919050565b6020808252602b908201527f496e697469616c697a61626c653a20636f6e7472616374206973206e6f74206960408201526a6e697469616c697a696e6760a81b60608201526080019056fea264697066735822122049dcba7aa1109906ac6b0c5f8608553fd182cc6d531b052562a123db21b6ded964736f6c634300080b0033",
    "linkReferences": {}
  },
  "methodIdentifiers": {
    "allowance(address,address)": "dd62ed3e",
    "approve(address,uint256)": "095ea7b3",
    "balanceOf(address)": "70a08231",
    "decimals()": "313ce567",
    "decreaseAllowance(address,uint256)": "a457c2d7",
    "fromUSD(uint256)": "94a74a37",
    "increaseAllowance(address,uint256)": "39509351",
    "initialize(address,address,string,string)": "2016a0d2",
    "name()": "06fdde03",
    "offsetX(address,uint256,string,address,string,string)": "b587c21a",
    "oracle()": "7dc0d1d0",
    "outbox()": "ce11e6ab",
    "owner()": "8da5cb5b",
    "renounceOwnership()": "715018a6",
    "setDependencies(address,address)": "e87c28a7",
    "setOutbox(address)": "ff204f3b",
    "setXUSDC(address)": "7f6e66b3",
    "stableToken()": "a9d75b2b",
    "symbol()": "95d89b41",
    "toUSD(uint256)": "9d9969ed",
    "totalSupply()": "18160ddd",
    "transfer(address,uint256)": "a9059cbb",
    "transferFrom(address,address,uint256)": "23b872dd",
    "transferOwnership(address)": "f2fde38b",
    "withdrawFunds()": "24600fc3",
    "xUSDC()": "e4057027"
  },
  "id": 57
}