{
  "abi": [
    {
      "anonymous": false,
      "inputs": [
        {
          "indexed": true,
          "internalType": "address",
          "name": "abacusConnectionManager",
          "type": "address"
        }
      ],
      "name": "AbacusConnectionManagerSet",
      "type": "event"
    },
    {
      "anonymous": false,
      "inputs": [
        {
          "indexed": true,
          "internalType": "address",
          "name": "owner",
          "type": "address"
        },
        {
          "indexed": true,
          "internalType": "address",
          "name": "spender",
          "type": "address"
        },
        {
          "indexed": false,
          "internalType": "uint256",
          "name": "value",
          "type": "uint256"
        }
      ],
      "name": "Approval",
      "type": "event"
    },
    {
      "anonymous": false,
      "inputs": [
        {
          "indexed": false,
          "internalType": "uint8",
          "name": "version",
          "type": "uint8"
        }
      ],
      "name": "Initialized",
      "type": "event"
    },
    {
      "anonymous": false,
      "inputs": [
        {
          "indexed": true,
          "internalType": "address",
          "name": "interchainGasPaymaster",
          "type": "address"
        }
      ],
      "name": "InterchainGasPaymasterSet",
      "type": "event"
    },
    {
      "anonymous": false,
      "inputs": [
        {
          "indexed": true,
          "internalType": "address",
          "name": "previousOwner",
          "type": "address"
        },
        {
          "indexed": true,
          "internalType": "address",
          "name": "newOwner",
          "type": "address"
        }
      ],
      "name": "OwnershipTransferred",
      "type": "event"
    },
    {
      "anonymous": false,
      "inputs": [
        {
          "indexed": true,
          "internalType": "uint32",
          "name": "origin",
          "type": "uint32"
        },
        {
          "indexed": true,
          "internalType": "address",
          "name": "recipient",
          "type": "address"
        },
        {
          "indexed": false,
          "internalType": "uint256",
          "name": "amount",
          "type": "uint256"
        }
      ],
      "name": "ReceivedTransferRemote",
      "type": "event"
    },
    {
      "anonymous": false,
      "inputs": [
        {
          "indexed": true,
          "internalType": "uint32",
          "name": "domain",
          "type": "uint32"
        },
        {
          "indexed": true,
          "internalType": "bytes32",
          "name": "router",
          "type": "bytes32"
        }
      ],
      "name": "RemoteRouterEnrolled",
      "type": "event"
    },
    {
      "anonymous": false,
      "inputs": [
        {
          "indexed": true,
          "internalType": "uint32",
          "name": "destination",
          "type": "uint32"
        },
        {
          "indexed": true,
          "internalType": "address",
          "name": "recipient",
          "type": "address"
        },
        {
          "indexed": false,
          "internalType": "uint256",
          "name": "amount",
          "type": "uint256"
        }
      ],
      "name": "SentTransferRemote",
      "type": "event"
    },
    {
      "anonymous": false,
      "inputs": [
        {
          "indexed": true,
          "internalType": "address",
          "name": "from",
          "type": "address"
        },
        {
          "indexed": true,
          "internalType": "address",
          "name": "to",
          "type": "address"
        },
        {
          "indexed": false,
          "internalType": "uint256",
          "name": "value",
          "type": "uint256"
        }
      ],
      "name": "Transfer",
      "type": "event"
    },
    {
      "inputs": [],
      "name": "abacusConnectionManager",
      "outputs": [
        {
          "internalType": "contract IAbacusConnectionManager",
          "name": "",
          "type": "address"
        }
      ],
      "stateMutability": "view",
      "type": "function"
    },
    {
      "inputs": [
        {
          "internalType": "address",
          "name": "owner",
          "type": "address"
        },
        {
          "internalType": "address",
          "name": "spender",
          "type": "address"
        }
      ],
      "name": "allowance",
      "outputs": [
        {
          "internalType": "uint256",
          "name": "",
          "type": "uint256"
        }
      ],
      "stateMutability": "view",
      "type": "function"
    },
    {
      "inputs": [
        {
          "internalType": "address",
          "name": "spender",
          "type": "address"
        },
        {
          "internalType": "uint256",
          "name": "amount",
          "type": "uint256"
        }
      ],
      "name": "approve",
      "outputs": [
        {
          "internalType": "bool",
          "name": "",
          "type": "bool"
        }
      ],
      "stateMutability": "nonpayable",
      "type": "function"
    },
    {
      "inputs": [
        {
          "internalType": "address",
          "name": "account",
          "type": "address"
        }
      ],
      "name": "balanceOf",
      "outputs": [
        {
          "internalType": "uint256",
          "name": "",
          "type": "uint256"
        }
      ],
      "stateMutability": "view",
      "type": "function"
    },
    {
      "inputs": [],
      "name": "decimals",
      "outputs": [
        {
          "internalType": "uint8",
          "name": "",
          "type": "uint8"
        }
      ],
      "stateMutability": "view",
      "type": "function"
    },
    {
      "inputs": [
        {
          "internalType": "address",
          "name": "spender",
          "type": "address"
        },
        {
          "internalType": "uint256",
          "name": "subtractedValue",
          "type": "uint256"
        }
      ],
      "name": "decreaseAllowance",
      "outputs": [
        {
          "internalType": "bool",
          "name": "",
          "type": "bool"
        }
      ],
      "stateMutability": "nonpayable",
      "type": "function"
    },
    {
      "inputs": [],
      "name": "deposit",
      "outputs": [],
      "stateMutability": "payable",
      "type": "function"
    },
    {
      "inputs": [
        {
          "internalType": "address",
          "name": "_receiver",
          "type": "address"
        }
      ],
      "name": "depositFor",
      "outputs": [],
      "stateMutability": "payable",
      "type": "function"
    },
    {
      "inputs": [
        {
          "internalType": "uint32",
          "name": "_domain",
          "type": "uint32"
        },
        {
          "internalType": "bytes32",
          "name": "_router",
          "type": "bytes32"
        }
      ],
      "name": "enrollRemoteRouter",
      "outputs": [],
      "stateMutability": "nonpayable",
      "type": "function"
    },
    {
      "inputs": [
        {
          "internalType": "uint32",
          "name": "_origin",
          "type": "uint32"
        },
        {
          "internalType": "bytes32",
          "name": "_sender",
          "type": "bytes32"
        },
        {
          "internalType": "bytes",
          "name": "_message",
          "type": "bytes"
        }
      ],
      "name": "handle",
      "outputs": [],
      "stateMutability": "nonpayable",
      "type": "function"
    },
    {
      "inputs": [
        {
          "internalType": "address",
          "name": "spender",
          "type": "address"
        },
        {
          "internalType": "uint256",
          "name": "addedValue",
          "type": "uint256"
        }
      ],
      "name": "increaseAllowance",
      "outputs": [
        {
          "internalType": "bool",
          "name": "",
          "type": "bool"
        }
      ],
      "stateMutability": "nonpayable",
      "type": "function"
    },
    {
      "inputs": [
        {
          "internalType": "address",
          "name": "_abacusConnectionManager",
          "type": "address"
        },
        {
          "internalType": "address",
          "name": "_interchainGasPaymaster",
          "type": "address"
        },
        {
          "internalType": "string",
          "name": "_name",
          "type": "string"
        },
        {
          "internalType": "string",
          "name": "_symbol",
          "type": "string"
        }
      ],
      "name": "initialize",
      "outputs": [],
      "stateMutability": "nonpayable",
      "type": "function"
    },
    {
      "inputs": [],
      "name": "interchainGasPaymaster",
      "outputs": [
        {
          "internalType": "contract IInterchainGasPaymaster",
          "name": "",
          "type": "address"
        }
      ],
      "stateMutability": "view",
      "type": "function"
    },
    {
      "inputs": [],
      "name": "name",
      "outputs": [
        {
          "internalType": "string",
          "name": "",
          "type": "string"
        }
      ],
      "stateMutability": "view",
      "type": "function"
    },
    {
      "inputs": [],
      "name": "oracle",
      "outputs": [
        {
          "internalType": "address",
          "name": "",
          "type": "address"
        }
      ],
      "stateMutability": "view",
      "type": "function"
    },
    {
      "inputs": [],
      "name": "owner",
      "outputs": [
        {
          "internalType": "address",
          "name": "",
          "type": "address"
        }
      ],
      "stateMutability": "view",
      "type": "function"
    },
    {
      "inputs": [],
      "name": "renounceOwnership",
      "outputs": [],
      "stateMutability": "nonpayable",
      "type": "function"
    },
    {
      "inputs": [
        {
          "internalType": "uint32",
          "name": "",
          "type": "uint32"
        }
      ],
      "name": "routers",
      "outputs": [
        {
          "internalType": "bytes32",
          "name": "",
          "type": "bytes32"
        }
      ],
      "stateMutability": "view",
      "type": "function"
    },
    {
      "inputs": [
        {
          "internalType": "address",
          "name": "_abacusConnectionManager",
          "type": "address"
        }
      ],
      "name": "setAbacusConnectionManager",
      "outputs": [],
      "stateMutability": "nonpayable",
      "type": "function"
    },
    {
      "inputs": [
        {
          "internalType": "address",
          "name": "_oracle",
          "type": "address"
        },
        {
          "internalType": "address",
          "name": "_stableToken",
          "type": "address"
        }
      ],
      "name": "setDependencies",
      "outputs": [],
      "stateMutability": "nonpayable",
      "type": "function"
    },
    {
      "inputs": [
        {
          "internalType": "address",
          "name": "_interchainGasPaymaster",
          "type": "address"
        }
      ],
      "name": "setInterchainGasPaymaster",
      "outputs": [],
      "stateMutability": "nonpayable",
      "type": "function"
    },
    {
      "inputs": [],
      "name": "stableToken",
      "outputs": [
        {
          "internalType": "address",
          "name": "",
          "type": "address"
        }
      ],
      "stateMutability": "view",
      "type": "function"
    },
    {
      "inputs": [],
      "name": "symbol",
      "outputs": [
        {
          "internalType": "string",
          "name": "",
          "type": "string"
        }
      ],
      "stateMutability": "view",
      "type": "function"
    },
    {
      "inputs": [
        {
          "internalType": "uint256",
          "name": "amount",
          "type": "uint256"
        }
      ],
      "name": "toUSD",
      "outputs": [
        {
          "internalType": "uint256",
          "name": "",
          "type": "uint256"
        }
      ],
      "stateMutability": "view",
      "type": "function"
    },
    {
      "inputs": [],
      "name": "totalSupply",
      "outputs": [
        {
          "internalType": "uint256",
          "name": "",
          "type": "uint256"
        }
      ],
      "stateMutability": "view",
      "type": "function"
    },
    {
      "inputs": [
        {
          "internalType": "address",
          "name": "to",
          "type": "address"
        },
        {
          "internalType": "uint256",
          "name": "amount",
          "type": "uint256"
        }
      ],
      "name": "transfer",
      "outputs": [
        {
          "internalType": "bool",
          "name": "",
          "type": "bool"
        }
      ],
      "stateMutability": "nonpayable",
      "type": "function"
    },
    {
      "inputs": [
        {
          "internalType": "address",
          "name": "from",
          "type": "address"
        },
        {
          "internalType": "address",
          "name": "to",
          "type": "address"
        },
        {
          "internalType": "uint256",
          "name": "amount",
          "type": "uint256"
        }
      ],
      "name": "transferFrom",
      "outputs": [
        {
          "internalType": "bool",
          "name": "",
          "type": "bool"
        }
      ],
      "stateMutability": "nonpayable",
      "type": "function"
    },
    {
      "inputs": [
        {
          "internalType": "address",
          "name": "newOwner",
          "type": "address"
        }
      ],
      "name": "transferOwnership",
      "outputs": [],
      "stateMutability": "nonpayable",
      "type": "function"
    },
    {
      "inputs": [
        {
          "internalType": "uint32",
          "name": "_destination",
          "type": "uint32"
        },
        {
          "internalType": "address",
          "name": "_recipient",
          "type": "address"
        },
        {
          "internalType": "uint256",
          "name": "_amount",
          "type": "uint256"
        }
      ],
      "name": "transferRemote",
      "outputs": [],
      "stateMutability": "payable",
      "type": "function"
    },
    {
      "inputs": [
        {
          "internalType": "uint256",
          "name": "amount",
          "type": "uint256"
        }
      ],
      "name": "withdraw",
      "outputs": [],
      "stateMutability": "payable",
      "type": "function"
    },
    {
      "inputs": [
        {
          "internalType": "uint256",
          "name": "amount",
          "type": "uint256"
        },
        {
          "internalType": "address payable",
          "name": "_receiver",
          "type": "address"
        }
      ],
      "name": "withdrawFor",
      "outputs": [],
      "stateMutability": "payable",
      "type": "function"
    }
  ],
  "bytecode": {
    "object": "0x608060405234801561001057600080fd5b50611c40806100206000396000f3fe6080604052600436106101d85760003560e01c80637dc0d1d011610102578063a9d75b2b11610095578063dd62ed3e11610064578063dd62ed3e1461052c578063e87c28a71461054c578063f1bd6f0a1461056c578063f2fde38b1461058c57600080fd5b8063a9d75b2b146104d1578063aa67c919146104f1578063b49c53a714610504578063d0e30db01461052457600080fd5b80639a35c359116100d15780639a35c359146104515780639d9969ed14610471578063a457c2d714610491578063a9059cbb146104b157600080fd5b80637dc0d1d0146103eb578063895342661461040b5780638da5cb5b1461041e57806395d89b411461043c57600080fd5b80632ead72f61161017a57806339bb4ad91161014957806339bb4ad91461034857806356d5d4751461038057806370a08231146103a0578063715018a6146103d657600080fd5b80632ead72f6146102cc578063313ce567146102f95780633576f6cc14610315578063395093511461032857600080fd5b806318160ddd116101b657806318160ddd1461025a5780632016a0d21461027957806323b872dd146102995780632e1a7d4d146102b957600080fd5b806306fdde03146101dd578063095ea7b31461020857806312b1d78014610238575b600080fd5b3480156101e957600080fd5b506101f26105ac565b6040516101ff91906116b8565b60405180910390f35b34801561021457600080fd5b506102286102233660046116e7565b61063e565b60405190151581526020016101ff565b34801561024457600080fd5b50610258610253366004611713565b610656565b005b34801561026657600080fd5b5060cb545b6040519081526020016101ff565b34801561028557600080fd5b506102586102943660046117d3565b61066a565b3480156102a557600080fd5b506102286102b436600461185c565b6107a1565b6102586102c736600461189d565b6107c5565b3480156102d857600080fd5b5061026b6102e73660046118cf565b60976020526000908152604090205481565b34801561030557600080fd5b50604051601281526020016101ff565b6102586103233660046118ea565b6107cb565b34801561033457600080fd5b506102286103433660046116e7565b610806565b34801561035457600080fd5b50606654610368906001600160a01b031681565b6040516001600160a01b0390911681526020016101ff565b34801561038c57600080fd5b5061025861039b36600461191a565b610828565b3480156103ac57600080fd5b5061026b6103bb366004611713565b6001600160a01b0316600090815260c9602052604090205490565b3480156103e257600080fd5b506102586108ce565b3480156103f757600080fd5b5060fb54610368906001600160a01b031681565b6102586104193660046119a1565b6108e2565b34801561042a57600080fd5b506033546001600160a01b0316610368565b34801561044857600080fd5b506101f2610972565b34801561045d57600080fd5b50606554610368906001600160a01b031681565b34801561047d57600080fd5b5061026b61048c36600461189d565b610981565b34801561049d57600080fd5b506102286104ac3660046116e7565b610a19565b3480156104bd57600080fd5b506102286104cc3660046116e7565b610a94565b3480156104dd57600080fd5b5060fc54610368906001600160a01b031681565b6102586104ff366004611713565b610aa2565b34801561051057600080fd5b5061025861051f3660046119bf565b610ab4565b610258610aca565b34801561053857600080fd5b5061026b6105473660046119db565b610ad3565b34801561055857600080fd5b506102586105673660046119db565b610afe565b34801561057857600080fd5b50610258610587366004611713565b610b34565b34801561059857600080fd5b506102586105a7366004611713565b610b45565b606060cc80546105bb90611a09565b80601f01602080910402602001604051908101604052809291908181526020018280546105e790611a09565b80156106345780601f1061060957610100808354040283529160200191610634565b820191906000526020600020905b81548152906001019060200180831161061757829003601f168201915b5050505050905090565b60003361064c818585610bbb565b5060019392505050565b61065e610cd7565b61066781610d31565b50565b600054610100900460ff161580801561068a5750600054600160ff909116105b806106a45750303b1580156106a4575060005460ff166001145b61070c5760405162461bcd60e51b815260206004820152602e60248201527f496e697469616c697a61626c653a20636f6e747261637420697320616c72656160448201526d191e481a5b9a5d1a585b1a5e995960921b60648201526084015b60405180910390fd5b6000805460ff19166001179055801561072f576000805461ff0019166101001790555b61073833610d7b565b61074185610d31565b61074a84610dcd565b6107548383610e17565b801561079a576000805461ff0019169055604051600181527f7f26b83ff96e1f2b6a682f133852f6798a09c465da95921460cefb38474024989060200160405180910390a15b5050505050565b6000336107af858285610e48565b6107ba858585610ec2565b506001949350505050565b61066781335b6107dd336107d884610981565b61106d565b6040516001600160a01b0382169083156108fc029084906000818181858888f150505050505050565b60003361064c8185856108198383610ad3565b6108239190611a54565b610bbb565b6108313361119e565b6108665760405162461bcd60e51b8152602060048201526006602482015265042d2dcc4def60d31b6044820152606401610703565b63ffffffff8416600090815260976020526040902054849084908114604051806080016040528060438152602001611bc860439139906108b95760405162461bcd60e51b815260040161070391906116b8565b506108c686868686611213565b505050505050565b6108d6610cd7565b6108e06000610d7b565b565b6108ec338261106d565b604080516001600160a01b038416602082015290810182905261092390849060600160405160208183030381529060405234611289565b816001600160a01b03168363ffffffff167fae92e7b61f5cd8ffaad4ff9640d1603475365f121d65769540809f899cc9cfa38360405161096591815260200190565b60405180910390a3505050565b606060cd80546105bb90611a09565b60fb5460fc54604051630ef90e1b60e41b81526001600160a01b0391821660048201526000928392839291169063ef90e1b0906024016040805180830381865afa1580156109d3573d6000803e3d6000fd5b505050506040513d601f19601f820116820180604052508101906109f79190611a6c565b909250905080610a078386611a90565b610a119190611aaf565b949350505050565b60003381610a278286610ad3565b905083811015610a875760405162461bcd60e51b815260206004820152602560248201527f45524332303a2064656372656173656420616c6c6f77616e63652062656c6f77604482015264207a65726f60d81b6064820152608401610703565b6107ba8286868403610bbb565b60003361064c818585610ec2565b61066781610aaf34610981565b611325565b610abc610cd7565b610ac682826113e6565b5050565b6108e033610aa2565b6001600160a01b03918216600090815260ca6020908152604080832093909416825291909152205490565b610b06610cd7565b60fb80546001600160a01b039384166001600160a01b03199182161790915560fc8054929093169116179055565b610b3c610cd7565b61066781610dcd565b610b4d610cd7565b6001600160a01b038116610bb25760405162461bcd60e51b815260206004820152602660248201527f4f776e61626c653a206e6577206f776e657220697320746865207a65726f206160448201526564647265737360d01b6064820152608401610703565b61066781610d7b565b6001600160a01b038316610c1d5760405162461bcd60e51b8152602060048201526024808201527f45524332303a20617070726f76652066726f6d20746865207a65726f206164646044820152637265737360e01b6064820152608401610703565b6001600160a01b038216610c7e5760405162461bcd60e51b815260206004820152602260248201527f45524332303a20617070726f766520746f20746865207a65726f206164647265604482015261737360f01b6064820152608401610703565b6001600160a01b03838116600081815260ca602090815260408083209487168084529482529182902085905590518481527f8c5be1e5ebec7d5bd14f71427d1e84f3dd0314c0f7b2291e5b200ac8c7c3b9259101610965565b6033546001600160a01b031633146108e05760405162461bcd60e51b815260206004820181905260248201527f4f776e61626c653a2063616c6c6572206973206e6f7420746865206f776e65726044820152606401610703565b606580546001600160a01b0319166001600160a01b0383169081179091556040517f7c10de8878ed89478ff01b9cd8c11a5271ea8ac91d46f662e6aea7e3adf5b11f90600090a250565b603380546001600160a01b038381166001600160a01b0319831681179093556040519116919082907f8be0079c531659141344cd1fd0a4f28419497f9722a3daafe3b4186f6b6457e090600090a35050565b606680546001600160a01b0319166001600160a01b0383169081179091556040517fb87f5a0bface22cde699143559fb99f990ae54eea236995fc54178af91af859f90600090a250565b600054610100900460ff16610e3e5760405162461bcd60e51b815260040161070390611ad1565b610ac6828261142a565b6000610e548484610ad3565b90506000198114610ebc5781811015610eaf5760405162461bcd60e51b815260206004820152601d60248201527f45524332303a20696e73756666696369656e7420616c6c6f77616e63650000006044820152606401610703565b610ebc8484848403610bbb565b50505050565b6001600160a01b038316610f265760405162461bcd60e51b815260206004820152602560248201527f45524332303a207472616e736665722066726f6d20746865207a65726f206164604482015264647265737360d81b6064820152608401610703565b6001600160a01b038216610f885760405162461bcd60e51b815260206004820152602360248201527f45524332303a207472616e7366657220746f20746865207a65726f206164647260448201526265737360e81b6064820152608401610703565b6001600160a01b038316600090815260c96020526040902054818110156110005760405162461bcd60e51b815260206004820152602660248201527f45524332303a207472616e7366657220616d6f756e7420657863656564732062604482015265616c616e636560d01b6064820152608401610703565b6001600160a01b03808516600081815260c9602052604080822086860390559286168082529083902080548601905591517fddf252ad1be2c89b69c2b068fc378daa952ba7f163c4a11628f55a4df523b3ef906110609086815260200190565b60405180910390a3610ebc565b6001600160a01b0382166110cd5760405162461bcd60e51b815260206004820152602160248201527f45524332303a206275726e2066726f6d20746865207a65726f206164647265736044820152607360f81b6064820152608401610703565b6001600160a01b038216600090815260c96020526040902054818110156111415760405162461bcd60e51b815260206004820152602260248201527f45524332303a206275726e20616d6f756e7420657863656564732062616c616e604482015261636560f01b6064820152608401610703565b6001600160a01b038316600081815260c960209081526040808320868603905560cb80548790039055518581529192917fddf252ad1be2c89b69c2b068fc378daa952ba7f163c4a11628f55a4df523b3ef9101610965565b505050565b60655460405163282f51eb60e01b81526001600160a01b038381166004830152600092169063282f51eb90602401602060405180830381865afa1580156111e9573d6000803e3d6000fd5b505050506040513d601f19601f8201168201806040525081019061120d9190611b1c565b92915050565b6000808280602001905181019061122a9190611b3e565b915091506112388282611325565b816001600160a01b03168563ffffffff167f10ddaf91e64becb789db2ea1bd076c9e7973123803661fb528d320202698c0fe8360405161127a91815260200190565b60405180910390a35050505050565b6000611293611478565b905060006112a28286866114eb565b9050821561079a576066546040516352b81e4760e11b81526001600160a01b0384811660048301526024820184905263ffffffff881660448301529091169063a5703c8e9085906064016000604051808303818588803b15801561130557600080fd5b505af1158015611319573d6000803e3d6000fd5b50505050505050505050565b6001600160a01b03821661137b5760405162461bcd60e51b815260206004820152601f60248201527f45524332303a206d696e7420746f20746865207a65726f2061646472657373006044820152606401610703565b8060cb600082825461138d9190611a54565b90915550506001600160a01b038216600081815260c960209081526040808320805486019055518481527fddf252ad1be2c89b69c2b068fc378daa952ba7f163c4a11628f55a4df523b3ef910160405180910390a35050565b63ffffffff8216600081815260976020526040808220849055518392917f97fd51fef1f80c854cbd0150c248e8b2ac4ecdc97cc05e742b5f61c9f4dc645891a35050565b600054610100900460ff166114515760405162461bcd60e51b815260040161070390611ad1565b81516114649060cc9060208501906115d2565b5080516111999060cd9060208401906115d2565b6065546040805163ce11e6ab60e01b815290516000926001600160a01b03169163ce11e6ab9160048083019260209291908290030181865afa1580156114c2573d6000803e3d6000fd5b505050506040513d601f19601f820116820180604052508101906114e69190611b6c565b905090565b6000806114f784611576565b60405163fa31de0160e01b81529091506001600160a01b0386169063fa31de019061152a90879085908890600401611b89565b6020604051808303816000875af1158015611549573d6000803e3d6000fd5b505050506040513d601f19601f8201168201806040525081019061156d9190611bae565b95945050505050565b63ffffffff8116600090815260976020908152604091829020548251608081019093526043808452909283151592909190611bc890830139906115cc5760405162461bcd60e51b815260040161070391906116b8565b50919050565b8280546115de90611a09565b90600052602060002090601f0160209004810192826116005760008555611646565b82601f1061161957805160ff1916838001178555611646565b82800160010185558215611646579182015b8281111561164657825182559160200191906001019061162b565b50611652929150611656565b5090565b5b808211156116525760008155600101611657565b6000815180845260005b8181101561169157602081850181015186830182015201611675565b818111156116a3576000602083870101525b50601f01601f19169290920160200192915050565b6020815260006116cb602083018461166b565b9392505050565b6001600160a01b038116811461066757600080fd5b600080604083850312156116fa57600080fd5b8235611705816116d2565b946020939093013593505050565b60006020828403121561172557600080fd5b81356116cb816116d2565b634e487b7160e01b600052604160045260246000fd5b600082601f83011261175757600080fd5b813567ffffffffffffffff8082111561177257611772611730565b604051601f8301601f19908116603f0116810190828211818310171561179a5761179a611730565b816040528381528660208588010111156117b357600080fd5b836020870160208301376000602085830101528094505050505092915050565b600080600080608085870312156117e957600080fd5b84356117f4816116d2565b93506020850135611804816116d2565b9250604085013567ffffffffffffffff8082111561182157600080fd5b61182d88838901611746565b9350606087013591508082111561184357600080fd5b5061185087828801611746565b91505092959194509250565b60008060006060848603121561187157600080fd5b833561187c816116d2565b9250602084013561188c816116d2565b929592945050506040919091013590565b6000602082840312156118af57600080fd5b5035919050565b803563ffffffff811681146118ca57600080fd5b919050565b6000602082840312156118e157600080fd5b6116cb826118b6565b600080604083850312156118fd57600080fd5b82359150602083013561190f816116d2565b809150509250929050565b6000806000806060858703121561193057600080fd5b611939856118b6565b935060208501359250604085013567ffffffffffffffff8082111561195d57600080fd5b818701915087601f83011261197157600080fd5b81358181111561198057600080fd5b88602082850101111561199257600080fd5b95989497505060200194505050565b6000806000606084860312156119b657600080fd5b61187c846118b6565b600080604083850312156119d257600080fd5b611705836118b6565b600080604083850312156119ee57600080fd5b82356119f9816116d2565b9150602083013561190f816116d2565b600181811c90821680611a1d57607f821691505b602082108114156115cc57634e487b7160e01b600052602260045260246000fd5b634e487b7160e01b600052601160045260246000fd5b60008219821115611a6757611a67611a3e565b500190565b60008060408385031215611a7f57600080fd5b505080516020909101519092909150565b6000816000190483118215151615611aaa57611aaa611a3e565b500290565b600082611acc57634e487b7160e01b600052601260045260246000fd5b500490565b6020808252602b908201527f496e697469616c697a61626c653a20636f6e7472616374206973206e6f74206960408201526a6e697469616c697a696e6760a81b606082015260800190565b600060208284031215611b2e57600080fd5b815180151581146116cb57600080fd5b60008060408385031215611b5157600080fd5b8251611b5c816116d2565b6020939093015192949293505050565b600060208284031215611b7e57600080fd5b81516116cb816116d2565b63ffffffff8416815282602082015260606040820152600061156d606083018461166b565b600060208284031215611bc057600080fd5b505191905056fe4e6f20726f7574657220656e726f6c6c656420666f7220646f6d61696e2e2044696420796f7520737065636966792074686520726967687420646f6d61696e2049443fa26469706673582212206cbbc01fdd1e51bc59f542d1b479e80c7d9ca75323e158a4d9eec68459f4eae864736f6c634300080b0033",
    "linkReferences": {}
  },
  "methodIdentifiers": {
    "abacusConnectionManager()": "9a35c359",
    "allowance(address,address)": "dd62ed3e",
    "approve(address,uint256)": "095ea7b3",
    "balanceOf(address)": "70a08231",
    "decimals()": "313ce567",
    "decreaseAllowance(address,uint256)": "a457c2d7",
    "deposit()": "d0e30db0",
    "depositFor(address)": "aa67c919",
    "enrollRemoteRouter(uint32,bytes32)": "b49c53a7",
    "handle(uint32,bytes32,bytes)": "56d5d475",
    "increaseAllowance(address,uint256)": "39509351",
    "initialize(address,address,string,string)": "2016a0d2",
    "interchainGasPaymaster()": "39bb4ad9",
    "name()": "06fdde03",
    "oracle()": "7dc0d1d0",
    "owner()": "8da5cb5b",
    "renounceOwnership()": "715018a6",
    "routers(uint32)": "2ead72f6",
    "setAbacusConnectionManager(address)": "12b1d780",
    "setDependencies(address,address)": "e87c28a7",
    "setInterchainGasPaymaster(address)": "f1bd6f0a",
    "stableToken()": "a9d75b2b",
    "symbol()": "95d89b41",
    "toUSD(uint256)": "9d9969ed",
    "totalSupply()": "18160ddd",
    "transfer(address,uint256)": "a9059cbb",
    "transferFrom(address,address,uint256)": "23b872dd",
    "transferOwnership(address)": "f2fde38b",
    "transferRemote(uint32,address,uint256)": "89534266",
    "withdraw(uint256)": "2e1a7d4d",
    "withdrawFor(uint256,address)": "3576f6cc"
  },
  "id": 40
}