{
  "abi": [
    {
      "inputs": [],
      "name": "NotImplemented",
      "type": "error"
    },
    {
      "anonymous": false,
      "inputs": [
        {
          "indexed": true,
          "internalType": "address",
          "name": "owner",
          "type": "address"
        },
        {
          "indexed": true,
          "internalType": "address",
          "name": "spender",
          "type": "address"
        },
        {
          "indexed": false,
          "internalType": "uint256",
          "name": "value",
          "type": "uint256"
        }
      ],
      "name": "Approval",
      "type": "event"
    },
    {
      "anonymous": false,
      "inputs": [
        {
          "indexed": false,
          "internalType": "uint8",
          "name": "version",
          "type": "uint8"
        }
      ],
      "name": "Initialized",
      "type": "event"
    },
    {
      "anonymous": false,
      "inputs": [
        {
          "indexed": true,
          "internalType": "address",
          "name": "tCO2",
          "type": "address"
        },
        {
          "indexed": true,
          "internalType": "uint256",
          "name": "amountXCO2",
          "type": "uint256"
        },
        {
          "indexed": true,
          "internalType": "address",
          "name": "beneificiary",
          "type": "address"
        }
      ],
      "name": "Offset",
      "type": "event"
    },
    {
      "anonymous": false,
      "inputs": [
        {
          "indexed": true,
          "internalType": "address",
          "name": "tCO2",
          "type": "address"
        },
        {
          "indexed": true,
          "internalType": "uint256",
          "name": "amountXCO2",
          "type": "uint256"
        },
        {
          "indexed": true,
          "internalType": "address",
          "name": "beneficiary",
          "type": "address"
        },
        {
          "indexed": false,
          "internalType": "uint32",
          "name": "destination",
          "type": "uint32"
        }
      ],
      "name": "OffsetRemote",
      "type": "event"
    },
    {
      "anonymous": false,
      "inputs": [
        {
          "indexed": true,
          "internalType": "address",
          "name": "previousOwner",
          "type": "address"
        },
        {
          "indexed": true,
          "internalType": "address",
          "name": "newOwner",
          "type": "address"
        }
      ],
      "name": "OwnershipTransferred",
      "type": "event"
    },
    {
      "anonymous": false,
      "inputs": [
        {
          "indexed": true,
          "internalType": "address",
          "name": "from",
          "type": "address"
        },
        {
          "indexed": true,
          "internalType": "address",
          "name": "to",
          "type": "address"
        },
        {
          "indexed": false,
          "internalType": "uint256",
          "name": "value",
          "type": "uint256"
        }
      ],
      "name": "Transfer",
      "type": "event"
    },
    {
      "inputs": [
        {
          "internalType": "address",
          "name": "owner",
          "type": "address"
        },
        {
          "internalType": "address",
          "name": "spender",
          "type": "address"
        }
      ],
      "name": "allowance",
      "outputs": [
        {
          "internalType": "uint256",
          "name": "",
          "type": "uint256"
        }
      ],
      "stateMutability": "view",
      "type": "function"
    },
    {
      "inputs": [
        {
          "internalType": "address",
          "name": "spender",
          "type": "address"
        },
        {
          "internalType": "uint256",
          "name": "amount",
          "type": "uint256"
        }
      ],
      "name": "approve",
      "outputs": [
        {
          "internalType": "bool",
          "name": "",
          "type": "bool"
        }
      ],
      "stateMutability": "nonpayable",
      "type": "function"
    },
    {
      "inputs": [
        {
          "internalType": "address",
          "name": "account",
          "type": "address"
        }
      ],
      "name": "balanceOf",
      "outputs": [
        {
          "internalType": "uint256",
          "name": "",
          "type": "uint256"
        }
      ],
      "stateMutability": "view",
      "type": "function"
    },
    {
      "inputs": [],
      "name": "decimals",
      "outputs": [
        {
          "internalType": "uint8",
          "name": "",
          "type": "uint8"
        }
      ],
      "stateMutability": "view",
      "type": "function"
    },
    {
      "inputs": [
        {
          "internalType": "address",
          "name": "spender",
          "type": "address"
        },
        {
          "internalType": "uint256",
          "name": "subtractedValue",
          "type": "uint256"
        }
      ],
      "name": "decreaseAllowance",
      "outputs": [
        {
          "internalType": "bool",
          "name": "",
          "type": "bool"
        }
      ],
      "stateMutability": "nonpayable",
      "type": "function"
    },
    {
      "inputs": [
        {
          "internalType": "uint256",
          "name": "amount",
          "type": "uint256"
        }
      ],
      "name": "fromUSD",
      "outputs": [
        {
          "internalType": "uint256",
          "name": "",
          "type": "uint256"
        }
      ],
      "stateMutability": "view",
      "type": "function"
    },
    {
      "inputs": [
        {
          "internalType": "address",
          "name": "spender",
          "type": "address"
        },
        {
          "internalType": "uint256",
          "name": "addedValue",
          "type": "uint256"
        }
      ],
      "name": "increaseAllowance",
      "outputs": [
        {
          "internalType": "bool",
          "name": "",
          "type": "bool"
        }
      ],
      "stateMutability": "nonpayable",
      "type": "function"
    },
    {
      "inputs": [
        {
          "internalType": "address",
          "name": "_outbox",
          "type": "address"
        },
        {
          "internalType": "address",
          "name": "_xUSDC",
          "type": "address"
        },
        {
          "internalType": "string",
          "name": "_name",
          "type": "string"
        },
        {
          "internalType": "string",
          "name": "_symbol",
          "type": "string"
        }
      ],
      "name": "initialize",
      "outputs": [],
      "stateMutability": "nonpayable",
      "type": "function"
    },
    {
      "inputs": [],
      "name": "name",
      "outputs": [
        {
          "internalType": "string",
          "name": "",
          "type": "string"
        }
      ],
      "stateMutability": "view",
      "type": "function"
    },
    {
      "inputs": [
        {
          "internalType": "address",
          "name": "_tCO2",
          "type": "address"
        },
        {
          "internalType": "uint256",
          "name": "_amountXCO2",
          "type": "uint256"
        },
        {
          "internalType": "address",
          "name": "_beneficiary",
          "type": "address"
        }
      ],
      "name": "offsetX",
      "outputs": [],
      "stateMutability": "payable",
      "type": "function"
    },
    {
      "inputs": [],
      "name": "oracle",
      "outputs": [
        {
          "internalType": "address",
          "name": "",
          "type": "address"
        }
      ],
      "stateMutability": "view",
      "type": "function"
    },
    {
      "inputs": [],
      "name": "outbox",
      "outputs": [
        {
          "internalType": "address",
          "name": "",
          "type": "address"
        }
      ],
      "stateMutability": "view",
      "type": "function"
    },
    {
      "inputs": [],
      "name": "owner",
      "outputs": [
        {
          "internalType": "address",
          "name": "",
          "type": "address"
        }
      ],
      "stateMutability": "view",
      "type": "function"
    },
    {
      "inputs": [],
      "name": "renounceOwnership",
      "outputs": [],
      "stateMutability": "nonpayable",
      "type": "function"
    },
    {
      "inputs": [
        {
          "internalType": "address",
          "name": "_oracle",
          "type": "address"
        },
        {
          "internalType": "address",
          "name": "_stableToken",
          "type": "address"
        }
      ],
      "name": "setDependencies",
      "outputs": [],
      "stateMutability": "nonpayable",
      "type": "function"
    },
    {
      "inputs": [
        {
          "internalType": "address",
          "name": "_outbox",
          "type": "address"
        }
      ],
      "name": "setOutbox",
      "outputs": [],
      "stateMutability": "nonpayable",
      "type": "function"
    },
    {
      "inputs": [
        {
          "internalType": "address",
          "name": "_xUSDC",
          "type": "address"
        }
      ],
      "name": "setXUSDC",
      "outputs": [],
      "stateMutability": "nonpayable",
      "type": "function"
    },
    {
      "inputs": [],
      "name": "stableToken",
      "outputs": [
        {
          "internalType": "address",
          "name": "",
          "type": "address"
        }
      ],
      "stateMutability": "view",
      "type": "function"
    },
    {
      "inputs": [],
      "name": "symbol",
      "outputs": [
        {
          "internalType": "string",
          "name": "",
          "type": "string"
        }
      ],
      "stateMutability": "view",
      "type": "function"
    },
    {
      "inputs": [
        {
          "internalType": "uint256",
          "name": "amount",
          "type": "uint256"
        }
      ],
      "name": "toUSD",
      "outputs": [
        {
          "internalType": "uint256",
          "name": "",
          "type": "uint256"
        }
      ],
      "stateMutability": "view",
      "type": "function"
    },
    {
      "inputs": [],
      "name": "totalSupply",
      "outputs": [
        {
          "internalType": "uint256",
          "name": "",
          "type": "uint256"
        }
      ],
      "stateMutability": "view",
      "type": "function"
    },
    {
      "inputs": [
        {
          "internalType": "address",
          "name": "to",
          "type": "address"
        },
        {
          "internalType": "uint256",
          "name": "amount",
          "type": "uint256"
        }
      ],
      "name": "transfer",
      "outputs": [
        {
          "internalType": "bool",
          "name": "",
          "type": "bool"
        }
      ],
      "stateMutability": "nonpayable",
      "type": "function"
    },
    {
      "inputs": [
        {
          "internalType": "address",
          "name": "from",
          "type": "address"
        },
        {
          "internalType": "address",
          "name": "to",
          "type": "address"
        },
        {
          "internalType": "uint256",
          "name": "amount",
          "type": "uint256"
        }
      ],
      "name": "transferFrom",
      "outputs": [
        {
          "internalType": "bool",
          "name": "",
          "type": "bool"
        }
      ],
      "stateMutability": "nonpayable",
      "type": "function"
    },
    {
      "inputs": [
        {
          "internalType": "address",
          "name": "newOwner",
          "type": "address"
        }
      ],
      "name": "transferOwnership",
      "outputs": [],
      "stateMutability": "nonpayable",
      "type": "function"
    },
    {
      "inputs": [],
      "name": "withdrawFunds",
      "outputs": [],
      "stateMutability": "nonpayable",
      "type": "function"
    },
    {
      "inputs": [],
      "name": "xUSDC",
      "outputs": [
        {
          "internalType": "address",
          "name": "",
          "type": "address"
        }
      ],
      "stateMutability": "view",
      "type": "function"
    }
  ],
  "bytecode": {
    "object": "0x608060405234801561001057600080fd5b506114e7806100206000396000f3fe6080604052600436106101815760003560e01c806394a74a37116100d1578063ce11e6ab1161008a578063e405702711610064578063e40570271461045c578063e87c28a71461047c578063f2fde38b1461049c578063ff204f3b146104bc57600080fd5b8063ce11e6ab14610409578063dd62ed3e14610429578063e08eeb971461044957600080fd5b806394a74a371461035457806395d89b41146103745780639d9969ed14610389578063a457c2d7146103a9578063a9059cbb146103c9578063a9d75b2b146103e957600080fd5b8063313ce5671161013e578063715018a611610118578063715018a6146102c95780637dc0d1d0146102de5780637f6e66b3146103165780638da5cb5b1461033657600080fd5b8063313ce56714610257578063395093511461027357806370a082311461029357600080fd5b806306fdde0314610186578063095ea7b3146101b157806318160ddd146101e15780632016a0d21461020057806323b872dd1461022257806324600fc314610242575b600080fd5b34801561019257600080fd5b5061019b6104dc565b6040516101a891906110ea565b60405180910390f35b3480156101bd57600080fd5b506101d16101cc366004611120565b61056e565b60405190151581526020016101a8565b3480156101ed57600080fd5b506035545b6040519081526020016101a8565b34801561020c57600080fd5b5061022061021b3660046111ed565b610586565b005b34801561022e57600080fd5b506101d161023d366004611272565b6106db565b34801561024e57600080fd5b506102206106ff565b34801561026357600080fd5b50604051601281526020016101a8565b34801561027f57600080fd5b506101d161028e366004611120565b610724565b34801561029f57600080fd5b506101f26102ae3660046112ae565b6001600160a01b031660009081526033602052604090205490565b3480156102d557600080fd5b50610220610746565b3480156102ea57600080fd5b506099546102fe906001600160a01b031681565b6040516001600160a01b0390911681526020016101a8565b34801561032257600080fd5b506102206103313660046112ae565b61075a565b34801561034257600080fd5b506065546001600160a01b03166102fe565b34801561036057600080fd5b506101f261036f3660046112c9565b610784565b34801561038057600080fd5b5061019b61081c565b34801561039557600080fd5b506101f26103a43660046112c9565b61082b565b3480156103b557600080fd5b506101d16103c4366004611120565b6108b1565b3480156103d557600080fd5b506101d16103e4366004611120565b61092c565b3480156103f557600080fd5b50609a546102fe906001600160a01b031681565b34801561041557600080fd5b506097546102fe906001600160a01b031681565b34801561043557600080fd5b506101f26104443660046112e2565b61093a565b610220610457366004611315565b610965565b34801561046857600080fd5b506098546102fe906001600160a01b031681565b34801561048857600080fd5b506102206104973660046112e2565b610aae565b3480156104a857600080fd5b506102206104b73660046112ae565b610ae4565b3480156104c857600080fd5b506102206104d73660046112ae565b610b5d565b6060603680546104eb90611351565b80601f016020809104026020016040519081016040528092919081815260200182805461051790611351565b80156105645780601f1061053957610100808354040283529160200191610564565b820191906000526020600020905b81548152906001019060200180831161054757829003601f168201915b5050505050905090565b60003361057c818585610b87565b5060019392505050565b600054610100900460ff16158080156105a65750600054600160ff909116105b806105c05750303b1580156105c0575060005460ff166001145b6106285760405162461bcd60e51b815260206004820152602e60248201527f496e697469616c697a61626c653a20636f6e747261637420697320616c72656160448201526d191e481a5b9a5d1a585b1a5e995960921b60648201526084015b60405180910390fd5b6000805460ff19166001179055801561064b576000805461ff0019166101001790555b61065433610ae4565b609780546001600160a01b038088166001600160a01b031992831617909255609880549287169290911691909117905561068e8383610cab565b80156106d4576000805461ff0019169055604051600181527f7f26b83ff96e1f2b6a682f133852f6798a09c465da95921460cefb38474024989060200160405180910390a15b5050505050565b6000336106e9858285610ce0565b6106f4858585610d5a565b506001949350505050565b610707610f05565b60405133904780156108fc02916000818181858888f15050505050565b60003361057c818585610737838361093a565b61074191906113a2565b610b87565b61074e610f05565b6107586000610f5f565b565b610762610f05565b609880546001600160a01b0319166001600160a01b0392909216919091179055565b609954609a54604051630ef90e1b60e41b81526001600160a01b0391821660048201526000928392839291169063ef90e1b0906024016040805180830381865afa1580156107d6573d6000803e3d6000fd5b505050506040513d601f19601f820116820180604052508101906107fa91906113ba565b90925090508161080a82866113de565b61081491906113fd565b949350505050565b6060603780546104eb90611351565b609954609a54604051630ef90e1b60e41b81526001600160a01b0391821660048201526000928392839291169063ef90e1b0906024016040805180830381865afa15801561087d573d6000803e3d6000fd5b505050506040513d601f19601f820116820180604052508101906108a191906113ba565b90925090508061080a83866113de565b600033816108bf828661093a565b90508381101561091f5760405162461bcd60e51b815260206004820152602560248201527f45524332303a2064656372656173656420616c6c6f77616e63652062656c6f77604482015264207a65726f60d81b606482015260840161061f565b6106f48286868403610b87565b60003361057c818585610d5a565b6001600160a01b03918216600090815260346020908152604080832093909416825291909152205490565b8161096f3461082b565b10156109b35760405162461bcd60e51b81526020600482015260136024820152722737ba1032b737bab3b4103337b9103c21a79960691b604482015260640161061f565b609754609854604080516001600160a01b03878116602083015291810186905284821660608201529281169263fa31de019263706f6c799216906080016040516020818303038152906040526040518463ffffffff1660e01b8152600401610a1d9392919061141f565b6020604051808303816000875af1158015610a3c573d6000803e3d6000fd5b505050506040513d601f19601f82011682018060405250810190610a60919061144d565b5060405163706f6c7981526001600160a01b038083169184918616907f917e03cbde5457cdbf299beea5ca8b2a8ac6b1e85030cf06275ec8ecb519c5fa9060200160405180910390a4505050565b610ab6610f05565b609980546001600160a01b039384166001600160a01b031991821617909155609a8054929093169116179055565b610aec610f05565b6001600160a01b038116610b515760405162461bcd60e51b815260206004820152602660248201527f4f776e61626c653a206e6577206f776e657220697320746865207a65726f206160448201526564647265737360d01b606482015260840161061f565b610b5a81610f5f565b50565b610b65610f05565b609780546001600160a01b0319166001600160a01b0392909216919091179055565b6001600160a01b038316610be95760405162461bcd60e51b8152602060048201526024808201527f45524332303a20617070726f76652066726f6d20746865207a65726f206164646044820152637265737360e01b606482015260840161061f565b6001600160a01b038216610c4a5760405162461bcd60e51b815260206004820152602260248201527f45524332303a20617070726f766520746f20746865207a65726f206164647265604482015261737360f01b606482015260840161061f565b6001600160a01b0383811660008181526034602090815260408083209487168084529482529182902085905590518481527f8c5be1e5ebec7d5bd14f71427d1e84f3dd0314c0f7b2291e5b200ac8c7c3b925910160405180910390a3505050565b600054610100900460ff16610cd25760405162461bcd60e51b815260040161061f90611466565b610cdc8282610fb1565b5050565b6000610cec848461093a565b90506000198114610d545781811015610d475760405162461bcd60e51b815260206004820152601d60248201527f45524332303a20696e73756666696369656e7420616c6c6f77616e6365000000604482015260640161061f565b610d548484848403610b87565b50505050565b6001600160a01b038316610dbe5760405162461bcd60e51b815260206004820152602560248201527f45524332303a207472616e736665722066726f6d20746865207a65726f206164604482015264647265737360d81b606482015260840161061f565b6001600160a01b038216610e205760405162461bcd60e51b815260206004820152602360248201527f45524332303a207472616e7366657220746f20746865207a65726f206164647260448201526265737360e81b606482015260840161061f565b6001600160a01b03831660009081526033602052604090205481811015610e985760405162461bcd60e51b815260206004820152602660248201527f45524332303a207472616e7366657220616d6f756e7420657863656564732062604482015265616c616e636560d01b606482015260840161061f565b6001600160a01b0380851660008181526033602052604080822086860390559286168082529083902080548601905591517fddf252ad1be2c89b69c2b068fc378daa952ba7f163c4a11628f55a4df523b3ef90610ef89086815260200190565b60405180910390a3610d54565b6065546001600160a01b031633146107585760405162461bcd60e51b815260206004820181905260248201527f4f776e61626c653a2063616c6c6572206973206e6f7420746865206f776e6572604482015260640161061f565b606580546001600160a01b038381166001600160a01b0319831681179093556040519116919082907f8be0079c531659141344cd1fd0a4f28419497f9722a3daafe3b4186f6b6457e090600090a35050565b600054610100900460ff16610fd85760405162461bcd60e51b815260040161061f90611466565b8151610feb906036906020850190611004565b508051610fff906037906020840190611004565b505050565b82805461101090611351565b90600052602060002090601f0160209004810192826110325760008555611078565b82601f1061104b57805160ff1916838001178555611078565b82800160010185558215611078579182015b8281111561107857825182559160200191906001019061105d565b50611084929150611088565b5090565b5b808211156110845760008155600101611089565b6000815180845260005b818110156110c3576020818501810151868301820152016110a7565b818111156110d5576000602083870101525b50601f01601f19169290920160200192915050565b6020815260006110fd602083018461109d565b9392505050565b80356001600160a01b038116811461111b57600080fd5b919050565b6000806040838503121561113357600080fd5b61113c83611104565b946020939093013593505050565b634e487b7160e01b600052604160045260246000fd5b600082601f83011261117157600080fd5b813567ffffffffffffffff8082111561118c5761118c61114a565b604051601f8301601f19908116603f011681019082821181831017156111b4576111b461114a565b816040528381528660208588010111156111cd57600080fd5b836020870160208301376000602085830101528094505050505092915050565b6000806000806080858703121561120357600080fd5b61120c85611104565b935061121a60208601611104565b9250604085013567ffffffffffffffff8082111561123757600080fd5b61124388838901611160565b9350606087013591508082111561125957600080fd5b5061126687828801611160565b91505092959194509250565b60008060006060848603121561128757600080fd5b61129084611104565b925061129e60208501611104565b9150604084013590509250925092565b6000602082840312156112c057600080fd5b6110fd82611104565b6000602082840312156112db57600080fd5b5035919050565b600080604083850312156112f557600080fd5b6112fe83611104565b915061130c60208401611104565b90509250929050565b60008060006060848603121561132a57600080fd5b61133384611104565b92506020840135915061134860408501611104565b90509250925092565b600181811c9082168061136557607f821691505b6020821081141561138657634e487b7160e01b600052602260045260246000fd5b50919050565b634e487b7160e01b600052601160045260246000fd5b600082198211156113b5576113b561138c565b500190565b600080604083850312156113cd57600080fd5b505080516020909101519092909150565b60008160001904831182151516156113f8576113f861138c565b500290565b60008261141a57634e487b7160e01b600052601260045260246000fd5b500490565b63ffffffff84168152826020820152606060408201526000611444606083018461109d565b95945050505050565b60006020828403121561145f57600080fd5b5051919050565b6020808252602b908201527f496e697469616c697a61626c653a20636f6e7472616374206973206e6f74206960408201526a6e697469616c697a696e6760a81b60608201526080019056fea2646970667358221220ce79b51c16fc78d86e763fce888ea62d810d8c14af75e05f2f0d492b8ef6837b64736f6c634300080b0033",
    "linkReferences": {}
  },
  "methodIdentifiers": {
    "allowance(address,address)": "dd62ed3e",
    "approve(address,uint256)": "095ea7b3",
    "balanceOf(address)": "70a08231",
    "decimals()": "313ce567",
    "decreaseAllowance(address,uint256)": "a457c2d7",
    "fromUSD(uint256)": "94a74a37",
    "increaseAllowance(address,uint256)": "39509351",
    "initialize(address,address,string,string)": "2016a0d2",
    "name()": "06fdde03",
    "offsetX(address,uint256,address)": "e08eeb97",
    "oracle()": "7dc0d1d0",
    "outbox()": "ce11e6ab",
    "owner()": "8da5cb5b",
    "renounceOwnership()": "715018a6",
    "setDependencies(address,address)": "e87c28a7",
    "setOutbox(address)": "ff204f3b",
    "setXUSDC(address)": "7f6e66b3",
    "stableToken()": "a9d75b2b",
    "symbol()": "95d89b41",
    "toUSD(uint256)": "9d9969ed",
    "totalSupply()": "18160ddd",
    "transfer(address,uint256)": "a9059cbb",
    "transferFrom(address,address,uint256)": "23b872dd",
    "transferOwnership(address)": "f2fde38b",
    "withdrawFunds()": "24600fc3",
    "xUSDC()": "e4057027"
  },
  "id": 57
}